{"abi":[{"inputs":[],"name":"getNumberOfNfts","outputs":[{"internalType":"uint256","name":"","type":"uint256"}],"stateMutability":"view","type":"function"},{"inputs":[{"internalType":"string","name":"name","type":"string"},{"internalType":"string","name":"imgHash","type":"string"}],"name":"mint","outputs":[{"internalType":"address","name":"","type":"address"}],"stateMutability":"payable","type":"function"},{"inputs":[{"internalType":"uint256","name":"","type":"uint256"}],"name":"nftList","outputs":[{"internalType":"address","name":"","type":"address"}],"stateMutability":"view","type":"function"},{"inputs":[{"internalType":"address","name":"","type":"address"},{"internalType":"uint256","name":"","type":"uint256"}],"name":"ownerMap","outputs":[{"internalType":"address","name":"","type":"address"}],"stateMutability":"view","type":"function"}],"devdoc":{"kind":"dev","methods":{},"version":1},"evm":{"assembly":"    /* \"Market.sol\":33:971  contract Market {... */\n  mstore(0x40, 0x80)\n  callvalue\n  dup1\n  iszero\n  tag_1\n  jumpi\n  0x00\n  dup1\n  revert\ntag_1:\n  pop\n  dataSize(sub_0)\n  dup1\n  dataOffset(sub_0)\n  0x00\n  codecopy\n  0x00\n  return\nstop\n\nsub_0: assembly {\n        /* \"Market.sol\":33:971  contract Market {... */\n      mstore(0x40, 0x80)\n      jumpi(tag_1, lt(calldatasize, 0x04))\n      shr(0xe0, calldataload(0x00))\n      dup1\n      0x75bea166\n      eq\n      tag_2\n      jumpi\n      dup1\n      0x7bc97efb\n      eq\n      tag_3\n      jumpi\n      dup1\n      0x8aa0fdad\n      eq\n      tag_4\n      jumpi\n      dup1\n      0xfd296bce\n      eq\n      tag_5\n      jumpi\n    tag_1:\n      0x00\n      dup1\n      revert\n        /* \"Market.sol\":56:81  address [] public nftList */\n    tag_2:\n      callvalue\n      dup1\n      iszero\n      tag_6\n      jumpi\n      0x00\n      dup1\n      revert\n    tag_6:\n      pop\n      tag_7\n      0x04\n      dup1\n      calldatasize\n      sub\n      dup2\n      add\n      swap1\n      tag_8\n      swap2\n      swap1\n      tag_9\n      jump\t// in\n    tag_8:\n      tag_10\n      jump\t// in\n    tag_7:\n      mload(0x40)\n      tag_11\n      swap2\n      swap1\n      tag_12\n      jump\t// in\n    tag_11:\n      mload(0x40)\n      dup1\n      swap2\n      sub\n      swap1\n      return\n        /* \"Market.sol\":87:133  mapping(address => address []) public ownerMap */\n    tag_3:\n      callvalue\n      dup1\n      iszero\n      tag_13\n      jumpi\n      0x00\n      dup1\n      revert\n    tag_13:\n      pop\n      tag_14\n      0x04\n      dup1\n      calldatasize\n      sub\n      dup2\n      add\n      swap1\n      tag_15\n      swap2\n      swap1\n      tag_16\n      jump\t// in\n    tag_15:\n      tag_17\n      jump\t// in\n    tag_14:\n      mload(0x40)\n      tag_18\n      swap2\n      swap1\n      tag_12\n      jump\t// in\n    tag_18:\n      mload(0x40)\n      dup1\n      swap2\n      sub\n      swap1\n      return\n        /* \"Market.sol\":140:402  function mint(string memory name, string memory imgHash) public payable returns(address){... */\n    tag_4:\n      tag_19\n      0x04\n      dup1\n      calldatasize\n      sub\n      dup2\n      add\n      swap1\n      tag_20\n      swap2\n      swap1\n      tag_21\n      jump\t// in\n    tag_20:\n      tag_22\n      jump\t// in\n    tag_19:\n      mload(0x40)\n      tag_23\n      swap2\n      swap1\n      tag_12\n      jump\t// in\n    tag_23:\n      mload(0x40)\n      dup1\n      swap2\n      sub\n      swap1\n      return\n        /* \"Market.sol\":408:499  function getNumberOfNfts() public view returns(uint) {... */\n    tag_5:\n      callvalue\n      dup1\n      iszero\n      tag_24\n      jumpi\n      0x00\n      dup1\n      revert\n    tag_24:\n      pop\n      tag_25\n      tag_26\n      jump\t// in\n    tag_25:\n      mload(0x40)\n      tag_27\n      swap2\n      swap1\n      tag_28\n      jump\t// in\n    tag_27:\n      mload(0x40)\n      dup1\n      swap2\n      sub\n      swap1\n      return\n        /* \"Market.sol\":56:81  address [] public nftList */\n    tag_10:\n      0x00\n      dup2\n      dup2\n      sload\n      dup2\n      lt\n      tag_29\n      jumpi\n      0x00\n      dup1\n      revert\n    tag_29:\n      swap1\n      0x00\n      mstore\n      keccak256(0x00, 0x20)\n      add\n      0x00\n      swap2\n      pop\n      sload\n      swap1\n      0x0100\n      exp\n      swap1\n      div\n      0xffffffffffffffffffffffffffffffffffffffff\n      and\n      dup2\n      jump\t// out\n        /* \"Market.sol\":87:133  mapping(address => address []) public ownerMap */\n    tag_17:\n      mstore(0x20, 0x01)\n      dup2\n      0x00\n      mstore\n      keccak256(0x00, 0x40)\n      dup2\n      dup2\n      sload\n      dup2\n      lt\n      tag_31\n      jumpi\n      0x00\n      dup1\n      revert\n    tag_31:\n      swap1\n      0x00\n      mstore\n      keccak256(0x00, 0x20)\n      add\n      0x00\n      swap2\n      pop\n      swap2\n      pop\n      swap1\n      sload\n      swap1\n      0x0100\n      exp\n      swap1\n      div\n      0xffffffffffffffffffffffffffffffffffffffff\n      and\n      dup2\n      jump\t// out\n        /* \"Market.sol\":140:402  function mint(string memory name, string memory imgHash) public payable returns(address){... */\n    tag_22:\n        /* \"Market.sol\":220:227  address */\n      0x00\n        /* \"Market.sol\":238:252  address newNft */\n      dup1\n        /* \"Market.sol\":271:275  name */\n      dup4\n        /* \"Market.sol\":277:287  msg.sender */\n      caller\n        /* \"Market.sol\":289:296  imgHash */\n      dup5\n        /* \"Market.sol\":263:297  new Nft(name, msg.sender, imgHash) */\n      mload(0x40)\n      tag_34\n      swap1\n      tag_35\n      jump\t// in\n    tag_34:\n      tag_36\n      swap4\n      swap3\n      swap2\n      swap1\n      tag_37\n      jump\t// in\n    tag_36:\n      mload(0x40)\n      dup1\n      swap2\n      sub\n      swap1\n      0x00\n      create\n      dup1\n      iszero\n      dup1\n      iszero\n      tag_38\n      jumpi\n      returndatasize\n      0x00\n      dup1\n      returndatacopy\n      revert(0x00, returndatasize)\n    tag_38:\n      pop\n        /* \"Market.sol\":238:298  address newNft = address(new Nft(name, msg.sender, imgHash)) */\n      swap1\n      pop\n        /* \"Market.sol\":308:315  nftList */\n      0x00\n        /* \"Market.sol\":321:327  newNft */\n      dup2\n        /* \"Market.sol\":308:328  nftList.push(newNft) */\n      swap1\n      dup1\n      0x01\n      dup2\n      sload\n      add\n      dup1\n      dup3\n      sstore\n      dup1\n      swap2\n      pop\n      pop\n      0x01\n      swap1\n      sub\n      swap1\n      0x00\n      mstore\n      keccak256(0x00, 0x20)\n      add\n      0x00\n      swap1\n      swap2\n      swap1\n      swap2\n      swap1\n      swap2\n      0x0100\n      exp\n      dup2\n      sload\n      dup2\n      0xffffffffffffffffffffffffffffffffffffffff\n      mul\n      not\n      and\n      swap1\n      dup4\n      0xffffffffffffffffffffffffffffffffffffffff\n      and\n      mul\n      or\n      swap1\n      sstore\n      pop\n        /* \"Market.sol\":338:371  addNftToOwner(newNft, msg.sender) */\n      tag_40\n        /* \"Market.sol\":352:358  newNft */\n      dup2\n        /* \"Market.sol\":360:370  msg.sender */\n      caller\n        /* \"Market.sol\":338:351  addNftToOwner */\n      tag_41\n        /* \"Market.sol\":338:371  addNftToOwner(newNft, msg.sender) */\n      jump\t// in\n    tag_40:\n        /* \"Market.sol\":389:395  newNft */\n      dup1\n        /* \"Market.sol\":382:395  return newNft */\n      swap2\n      pop\n      pop\n        /* \"Market.sol\":140:402  function mint(string memory name, string memory imgHash) public payable returns(address){... */\n      swap3\n      swap2\n      pop\n      pop\n      jump\t// out\n        /* \"Market.sol\":408:499  function getNumberOfNfts() public view returns(uint) {... */\n    tag_26:\n        /* \"Market.sol\":455:459  uint */\n      0x00\n        /* \"Market.sol\":478:485  nftList */\n      dup1\n        /* \"Market.sol\":478:492  nftList.length */\n      dup1\n      sload\n      swap1\n      pop\n        /* \"Market.sol\":471:492  return nftList.length */\n      swap1\n      pop\n        /* \"Market.sol\":408:499  function getNumberOfNfts() public view returns(uint) {... */\n      swap1\n      jump\t// out\n        /* \"Market.sol\":505:716  function addNftToOwner(address nftAddress, address owner) private {... */\n    tag_41:\n        /* \"Market.sol\":610:611  0 */\n      0x00\n        /* \"Market.sol\":585:593  ownerMap */\n      0x01\n        /* \"Market.sol\":585:600  ownerMap[owner] */\n      0x00\n        /* \"Market.sol\":594:599  owner */\n      dup4\n        /* \"Market.sol\":585:600  ownerMap[owner] */\n      0xffffffffffffffffffffffffffffffffffffffff\n      and\n      0xffffffffffffffffffffffffffffffffffffffff\n      and\n      dup2\n      mstore\n      0x20\n      add\n      swap1\n      dup2\n      mstore\n      0x20\n      add\n      0x00\n      keccak256\n        /* \"Market.sol\":585:607  ownerMap[owner].length */\n      dup1\n      sload\n      swap1\n      pop\n        /* \"Market.sol\":585:611  ownerMap[owner].length > 0 */\n      gt\n        /* \"Market.sol\":582:670  if(ownerMap[owner].length > 0) {... */\n      iszero\n      tag_44\n      jumpi\n        /* \"Market.sol\":627:635  ownerMap */\n      0x01\n        /* \"Market.sol\":627:642  ownerMap[owner] */\n      0x00\n        /* \"Market.sol\":636:641  owner */\n      dup3\n        /* \"Market.sol\":627:642  ownerMap[owner] */\n      0xffffffffffffffffffffffffffffffffffffffff\n      and\n      0xffffffffffffffffffffffffffffffffffffffff\n      and\n      dup2\n      mstore\n      0x20\n      add\n      swap1\n      dup2\n      mstore\n      0x20\n      add\n      0x00\n      keccak256\n        /* \"Market.sol\":648:658  nftAddress */\n      dup3\n        /* \"Market.sol\":627:659  ownerMap[owner].push(nftAddress) */\n      swap1\n      dup1\n      0x01\n      dup2\n      sload\n      add\n      dup1\n      dup3\n      sstore\n      dup1\n      swap2\n      pop\n      pop\n      0x01\n      swap1\n      sub\n      swap1\n      0x00\n      mstore\n      keccak256(0x00, 0x20)\n      add\n      0x00\n      swap1\n      swap2\n      swap1\n      swap2\n      swap1\n      swap2\n      0x0100\n      exp\n      dup2\n      sload\n      dup2\n      0xffffffffffffffffffffffffffffffffffffffff\n      mul\n      not\n      and\n      swap1\n      dup4\n      0xffffffffffffffffffffffffffffffffffffffff\n      and\n      mul\n      or\n      swap1\n      sstore\n      pop\n        /* \"Market.sol\":582:670  if(ownerMap[owner].length > 0) {... */\n    tag_44:\n        /* \"Market.sol\":679:709  ownerMap[owner] = [nftAddress] */\n      mload(0x40)\n      dup1\n      0x20\n      add\n      0x40\n      mstore\n      dup1\n        /* \"Market.sol\":698:708  nftAddress */\n      dup4\n        /* \"Market.sol\":679:709  ownerMap[owner] = [nftAddress] */\n      0xffffffffffffffffffffffffffffffffffffffff\n      and\n      0xffffffffffffffffffffffffffffffffffffffff\n      and\n      dup2\n      mstore\n      pop\n        /* \"Market.sol\":679:687  ownerMap */\n      0x01\n        /* \"Market.sol\":679:694  ownerMap[owner] */\n      0x00\n        /* \"Market.sol\":688:693  owner */\n      dup4\n        /* \"Market.sol\":679:694  ownerMap[owner] */\n      0xffffffffffffffffffffffffffffffffffffffff\n      and\n      0xffffffffffffffffffffffffffffffffffffffff\n      and\n      dup2\n      mstore\n      0x20\n      add\n      swap1\n      dup2\n      mstore\n      0x20\n      add\n      0x00\n      keccak256\n        /* \"Market.sol\":679:709  ownerMap[owner] = [nftAddress] */\n      swap1\n      0x01\n      tag_46\n      swap3\n      swap2\n      swap1\n      tag_47\n      jump\t// in\n    tag_46:\n      pop\n        /* \"Market.sol\":505:716  function addNftToOwner(address nftAddress, address owner) private {... */\n      pop\n      pop\n      jump\t// out\n    tag_35:\n      dataSize(sub_0)\n      dup1\n      dataOffset(sub_0)\n      dup4\n      codecopy\n      add\n      swap1\n      jump\t// out\n    tag_47:\n      dup3\n      dup1\n      sload\n      dup3\n      dup3\n      sstore\n      swap1\n      0x00\n      mstore\n      keccak256(0x00, 0x20)\n      swap1\n      dup2\n      add\n      swap3\n      dup3\n      iszero\n      tag_48\n      jumpi\n      swap2\n      0x20\n      mul\n      dup3\n      add\n    tag_49:\n      dup3\n      dup2\n      gt\n      iszero\n      tag_50\n      jumpi\n      dup3\n      mload\n      dup3\n      exp(0x0100, 0x00)\n      dup2\n      sload\n      dup2\n      0xffffffffffffffffffffffffffffffffffffffff\n      mul\n      not\n      and\n      swap1\n      dup4\n      0xffffffffffffffffffffffffffffffffffffffff\n      and\n      mul\n      or\n      swap1\n      sstore\n      pop\n      swap2\n      0x20\n      add\n      swap2\n      swap1\n      0x01\n      add\n      swap1\n      jump(tag_49)\n    tag_50:\n    tag_48:\n      pop\n      swap1\n      pop\n      tag_51\n      swap2\n      swap1\n      tag_52\n      jump\t// in\n    tag_51:\n      pop\n      swap1\n      jump\t// out\n    tag_52:\n    tag_53:\n      dup1\n      dup3\n      gt\n      iszero\n      tag_54\n      jumpi\n      0x00\n      dup2\n      0x00\n      swap1\n      sstore\n      pop\n      0x01\n      add\n      jump(tag_53)\n    tag_54:\n      pop\n      swap1\n      jump\t// out\n        /* \"#utility.yul\":7:82   */\n    tag_55:\n        /* \"#utility.yul\":40:46   */\n      0x00\n        /* \"#utility.yul\":73:75   */\n      0x40\n        /* \"#utility.yul\":67:76   */\n      mload\n        /* \"#utility.yul\":57:76   */\n      swap1\n      pop\n        /* \"#utility.yul\":7:82   */\n      swap1\n      jump\t// out\n        /* \"#utility.yul\":88:205   */\n    tag_56:\n        /* \"#utility.yul\":197:198   */\n      0x00\n        /* \"#utility.yul\":194:195   */\n      dup1\n        /* \"#utility.yul\":187:199   */\n      revert\n        /* \"#utility.yul\":211:328   */\n    tag_57:\n        /* \"#utility.yul\":320:321   */\n      0x00\n        /* \"#utility.yul\":317:318   */\n      dup1\n        /* \"#utility.yul\":310:322   */\n      revert\n        /* \"#utility.yul\":334:411   */\n    tag_58:\n        /* \"#utility.yul\":371:378   */\n      0x00\n        /* \"#utility.yul\":400:405   */\n      dup2\n        /* \"#utility.yul\":389:405   */\n      swap1\n      pop\n        /* \"#utility.yul\":334:411   */\n      swap2\n      swap1\n      pop\n      jump\t// out\n        /* \"#utility.yul\":417:539   */\n    tag_59:\n        /* \"#utility.yul\":490:514   */\n      tag_87\n        /* \"#utility.yul\":508:513   */\n      dup2\n        /* \"#utility.yul\":490:514   */\n      tag_58\n      jump\t// in\n    tag_87:\n        /* \"#utility.yul\":483:488   */\n      dup2\n        /* \"#utility.yul\":480:515   */\n      eq\n        /* \"#utility.yul\":470:533   */\n      tag_88\n      jumpi\n        /* \"#utility.yul\":529:530   */\n      0x00\n        /* \"#utility.yul\":526:527   */\n      dup1\n        /* \"#utility.yul\":519:531   */\n      revert\n        /* \"#utility.yul\":470:533   */\n    tag_88:\n        /* \"#utility.yul\":417:539   */\n      pop\n      jump\t// out\n        /* \"#utility.yul\":545:684   */\n    tag_60:\n        /* \"#utility.yul\":591:596   */\n      0x00\n        /* \"#utility.yul\":629:635   */\n      dup2\n        /* \"#utility.yul\":616:636   */\n      calldataload\n        /* \"#utility.yul\":607:636   */\n      swap1\n      pop\n        /* \"#utility.yul\":645:678   */\n      tag_90\n        /* \"#utility.yul\":672:677   */\n      dup2\n        /* \"#utility.yul\":645:678   */\n      tag_59\n      jump\t// in\n    tag_90:\n        /* \"#utility.yul\":545:684   */\n      swap3\n      swap2\n      pop\n      pop\n      jump\t// out\n        /* \"#utility.yul\":690:1019   */\n    tag_9:\n        /* \"#utility.yul\":749:755   */\n      0x00\n        /* \"#utility.yul\":798:800   */\n      0x20\n        /* \"#utility.yul\":786:795   */\n      dup3\n        /* \"#utility.yul\":777:784   */\n      dup5\n        /* \"#utility.yul\":773:796   */\n      sub\n        /* \"#utility.yul\":769:801   */\n      slt\n        /* \"#utility.yul\":766:885   */\n      iszero\n      tag_92\n      jumpi\n        /* \"#utility.yul\":804:883   */\n      tag_93\n      tag_56\n      jump\t// in\n    tag_93:\n        /* \"#utility.yul\":766:885   */\n    tag_92:\n        /* \"#utility.yul\":924:925   */\n      0x00\n        /* \"#utility.yul\":949:1002   */\n      tag_94\n        /* \"#utility.yul\":994:1001   */\n      dup5\n        /* \"#utility.yul\":985:991   */\n      dup3\n        /* \"#utility.yul\":974:983   */\n      dup6\n        /* \"#utility.yul\":970:992   */\n      add\n        /* \"#utility.yul\":949:1002   */\n      tag_60\n      jump\t// in\n    tag_94:\n        /* \"#utility.yul\":939:1002   */\n      swap2\n      pop\n        /* \"#utility.yul\":895:1012   */\n      pop\n        /* \"#utility.yul\":690:1019   */\n      swap3\n      swap2\n      pop\n      pop\n      jump\t// out\n        /* \"#utility.yul\":1025:1151   */\n    tag_61:\n        /* \"#utility.yul\":1062:1069   */\n      0x00\n        /* \"#utility.yul\":1102:1144   */\n      0xffffffffffffffffffffffffffffffffffffffff\n        /* \"#utility.yul\":1095:1100   */\n      dup3\n        /* \"#utility.yul\":1091:1145   */\n      and\n        /* \"#utility.yul\":1080:1145   */\n      swap1\n      pop\n        /* \"#utility.yul\":1025:1151   */\n      swap2\n      swap1\n      pop\n      jump\t// out\n        /* \"#utility.yul\":1157:1253   */\n    tag_62:\n        /* \"#utility.yul\":1194:1201   */\n      0x00\n        /* \"#utility.yul\":1223:1247   */\n      tag_97\n        /* \"#utility.yul\":1241:1246   */\n      dup3\n        /* \"#utility.yul\":1223:1247   */\n      tag_61\n      jump\t// in\n    tag_97:\n        /* \"#utility.yul\":1212:1247   */\n      swap1\n      pop\n        /* \"#utility.yul\":1157:1253   */\n      swap2\n      swap1\n      pop\n      jump\t// out\n        /* \"#utility.yul\":1259:1377   */\n    tag_63:\n        /* \"#utility.yul\":1346:1370   */\n      tag_99\n        /* \"#utility.yul\":1364:1369   */\n      dup2\n        /* \"#utility.yul\":1346:1370   */\n      tag_62\n      jump\t// in\n    tag_99:\n        /* \"#utility.yul\":1341:1344   */\n      dup3\n        /* \"#utility.yul\":1334:1371   */\n      mstore\n        /* \"#utility.yul\":1259:1377   */\n      pop\n      pop\n      jump\t// out\n        /* \"#utility.yul\":1383:1605   */\n    tag_12:\n        /* \"#utility.yul\":1476:1480   */\n      0x00\n        /* \"#utility.yul\":1514:1516   */\n      0x20\n        /* \"#utility.yul\":1503:1512   */\n      dup3\n        /* \"#utility.yul\":1499:1517   */\n      add\n        /* \"#utility.yul\":1491:1517   */\n      swap1\n      pop\n        /* \"#utility.yul\":1527:1598   */\n      tag_101\n        /* \"#utility.yul\":1595:1596   */\n      0x00\n        /* \"#utility.yul\":1584:1593   */\n      dup4\n        /* \"#utility.yul\":1580:1597   */\n      add\n        /* \"#utility.yul\":1571:1577   */\n      dup5\n        /* \"#utility.yul\":1527:1598   */\n      tag_63\n      jump\t// in\n    tag_101:\n        /* \"#utility.yul\":1383:1605   */\n      swap3\n      swap2\n      pop\n      pop\n      jump\t// out\n        /* \"#utility.yul\":1611:1733   */\n    tag_64:\n        /* \"#utility.yul\":1684:1708   */\n      tag_103\n        /* \"#utility.yul\":1702:1707   */\n      dup2\n        /* \"#utility.yul\":1684:1708   */\n      tag_62\n      jump\t// in\n    tag_103:\n        /* \"#utility.yul\":1677:1682   */\n      dup2\n        /* \"#utility.yul\":1674:1709   */\n      eq\n        /* \"#utility.yul\":1664:1727   */\n      tag_104\n      jumpi\n        /* \"#utility.yul\":1723:1724   */\n      0x00\n        /* \"#utility.yul\":1720:1721   */\n      dup1\n        /* \"#utility.yul\":1713:1725   */\n      revert\n        /* \"#utility.yul\":1664:1727   */\n    tag_104:\n        /* \"#utility.yul\":1611:1733   */\n      pop\n      jump\t// out\n        /* \"#utility.yul\":1739:1878   */\n    tag_65:\n        /* \"#utility.yul\":1785:1790   */\n      0x00\n        /* \"#utility.yul\":1823:1829   */\n      dup2\n        /* \"#utility.yul\":1810:1830   */\n      calldataload\n        /* \"#utility.yul\":1801:1830   */\n      swap1\n      pop\n        /* \"#utility.yul\":1839:1872   */\n      tag_106\n        /* \"#utility.yul\":1866:1871   */\n      dup2\n        /* \"#utility.yul\":1839:1872   */\n      tag_64\n      jump\t// in\n    tag_106:\n        /* \"#utility.yul\":1739:1878   */\n      swap3\n      swap2\n      pop\n      pop\n      jump\t// out\n        /* \"#utility.yul\":1884:2358   */\n    tag_16:\n        /* \"#utility.yul\":1952:1958   */\n      0x00\n        /* \"#utility.yul\":1960:1966   */\n      dup1\n        /* \"#utility.yul\":2009:2011   */\n      0x40\n        /* \"#utility.yul\":1997:2006   */\n      dup4\n        /* \"#utility.yul\":1988:1995   */\n      dup6\n        /* \"#utility.yul\":1984:2007   */\n      sub\n        /* \"#utility.yul\":1980:2012   */\n      slt\n        /* \"#utility.yul\":1977:2096   */\n      iszero\n      tag_108\n      jumpi\n        /* \"#utility.yul\":2015:2094   */\n      tag_109\n      tag_56\n      jump\t// in\n    tag_109:\n        /* \"#utility.yul\":1977:2096   */\n    tag_108:\n        /* \"#utility.yul\":2135:2136   */\n      0x00\n        /* \"#utility.yul\":2160:2213   */\n      tag_110\n        /* \"#utility.yul\":2205:2212   */\n      dup6\n        /* \"#utility.yul\":2196:2202   */\n      dup3\n        /* \"#utility.yul\":2185:2194   */\n      dup7\n        /* \"#utility.yul\":2181:2203   */\n      add\n        /* \"#utility.yul\":2160:2213   */\n      tag_65\n      jump\t// in\n    tag_110:\n        /* \"#utility.yul\":2150:2213   */\n      swap3\n      pop\n        /* \"#utility.yul\":2106:2223   */\n      pop\n        /* \"#utility.yul\":2262:2264   */\n      0x20\n        /* \"#utility.yul\":2288:2341   */\n      tag_111\n        /* \"#utility.yul\":2333:2340   */\n      dup6\n        /* \"#utility.yul\":2324:2330   */\n      dup3\n        /* \"#utility.yul\":2313:2322   */\n      dup7\n        /* \"#utility.yul\":2309:2331   */\n      add\n        /* \"#utility.yul\":2288:2341   */\n      tag_60\n      jump\t// in\n    tag_111:\n        /* \"#utility.yul\":2278:2341   */\n      swap2\n      pop\n        /* \"#utility.yul\":2233:2351   */\n      pop\n        /* \"#utility.yul\":1884:2358   */\n      swap3\n      pop\n      swap3\n      swap1\n      pop\n      jump\t// out\n        /* \"#utility.yul\":2364:2481   */\n    tag_66:\n        /* \"#utility.yul\":2473:2474   */\n      0x00\n        /* \"#utility.yul\":2470:2471   */\n      dup1\n        /* \"#utility.yul\":2463:2475   */\n      revert\n        /* \"#utility.yul\":2487:2604   */\n    tag_67:\n        /* \"#utility.yul\":2596:2597   */\n      0x00\n        /* \"#utility.yul\":2593:2594   */\n      dup1\n        /* \"#utility.yul\":2586:2598   */\n      revert\n        /* \"#utility.yul\":2610:2712   */\n    tag_68:\n        /* \"#utility.yul\":2651:2657   */\n      0x00\n        /* \"#utility.yul\":2702:2704   */\n      0x1f\n        /* \"#utility.yul\":2698:2705   */\n      not\n        /* \"#utility.yul\":2693:2695   */\n      0x1f\n        /* \"#utility.yul\":2686:2691   */\n      dup4\n        /* \"#utility.yul\":2682:2696   */\n      add\n        /* \"#utility.yul\":2678:2706   */\n      and\n        /* \"#utility.yul\":2668:2706   */\n      swap1\n      pop\n        /* \"#utility.yul\":2610:2712   */\n      swap2\n      swap1\n      pop\n      jump\t// out\n        /* \"#utility.yul\":2718:2898   */\n    tag_69:\n        /* \"#utility.yul\":2766:2843   */\n      0x4e487b7100000000000000000000000000000000000000000000000000000000\n        /* \"#utility.yul\":2763:2764   */\n      0x00\n        /* \"#utility.yul\":2756:2844   */\n      mstore\n        /* \"#utility.yul\":2863:2867   */\n      0x41\n        /* \"#utility.yul\":2860:2861   */\n      0x04\n        /* \"#utility.yul\":2853:2868   */\n      mstore\n        /* \"#utility.yul\":2887:2891   */\n      0x24\n        /* \"#utility.yul\":2884:2885   */\n      0x00\n        /* \"#utility.yul\":2877:2892   */\n      revert\n        /* \"#utility.yul\":2904:3185   */\n    tag_70:\n        /* \"#utility.yul\":2987:3014   */\n      tag_117\n        /* \"#utility.yul\":3009:3013   */\n      dup3\n        /* \"#utility.yul\":2987:3014   */\n      tag_68\n      jump\t// in\n    tag_117:\n        /* \"#utility.yul\":2979:2985   */\n      dup2\n        /* \"#utility.yul\":2975:3015   */\n      add\n        /* \"#utility.yul\":3117:3123   */\n      dup2\n        /* \"#utility.yul\":3105:3115   */\n      dup2\n        /* \"#utility.yul\":3102:3124   */\n      lt\n        /* \"#utility.yul\":3081:3099   */\n      0xffffffffffffffff\n        /* \"#utility.yul\":3069:3079   */\n      dup3\n        /* \"#utility.yul\":3066:3100   */\n      gt\n        /* \"#utility.yul\":3063:3125   */\n      or\n        /* \"#utility.yul\":3060:3148   */\n      iszero\n      tag_118\n      jumpi\n        /* \"#utility.yul\":3128:3146   */\n      tag_119\n      tag_69\n      jump\t// in\n    tag_119:\n        /* \"#utility.yul\":3060:3148   */\n    tag_118:\n        /* \"#utility.yul\":3168:3178   */\n      dup1\n        /* \"#utility.yul\":3164:3166   */\n      0x40\n        /* \"#utility.yul\":3157:3179   */\n      mstore\n        /* \"#utility.yul\":2947:3185   */\n      pop\n        /* \"#utility.yul\":2904:3185   */\n      pop\n      pop\n      jump\t// out\n        /* \"#utility.yul\":3191:3320   */\n    tag_71:\n        /* \"#utility.yul\":3225:3231   */\n      0x00\n        /* \"#utility.yul\":3252:3272   */\n      tag_121\n      tag_55\n      jump\t// in\n    tag_121:\n        /* \"#utility.yul\":3242:3272   */\n      swap1\n      pop\n        /* \"#utility.yul\":3281:3314   */\n      tag_122\n        /* \"#utility.yul\":3309:3313   */\n      dup3\n        /* \"#utility.yul\":3301:3307   */\n      dup3\n        /* \"#utility.yul\":3281:3314   */\n      tag_70\n      jump\t// in\n    tag_122:\n        /* \"#utility.yul\":3191:3320   */\n      swap2\n      swap1\n      pop\n      jump\t// out\n        /* \"#utility.yul\":3326:3634   */\n    tag_72:\n        /* \"#utility.yul\":3388:3392   */\n      0x00\n        /* \"#utility.yul\":3478:3496   */\n      0xffffffffffffffff\n        /* \"#utility.yul\":3470:3476   */\n      dup3\n        /* \"#utility.yul\":3467:3497   */\n      gt\n        /* \"#utility.yul\":3464:3520   */\n      iszero\n      tag_124\n      jumpi\n        /* \"#utility.yul\":3500:3518   */\n      tag_125\n      tag_69\n      jump\t// in\n    tag_125:\n        /* \"#utility.yul\":3464:3520   */\n    tag_124:\n        /* \"#utility.yul\":3538:3567   */\n      tag_126\n        /* \"#utility.yul\":3560:3566   */\n      dup3\n        /* \"#utility.yul\":3538:3567   */\n      tag_68\n      jump\t// in\n    tag_126:\n        /* \"#utility.yul\":3530:3567   */\n      swap1\n      pop\n        /* \"#utility.yul\":3622:3626   */\n      0x20\n        /* \"#utility.yul\":3616:3620   */\n      dup2\n        /* \"#utility.yul\":3612:3627   */\n      add\n        /* \"#utility.yul\":3604:3627   */\n      swap1\n      pop\n        /* \"#utility.yul\":3326:3634   */\n      swap2\n      swap1\n      pop\n      jump\t// out\n        /* \"#utility.yul\":3640:3794   */\n    tag_73:\n        /* \"#utility.yul\":3724:3730   */\n      dup3\n        /* \"#utility.yul\":3719:3722   */\n      dup2\n        /* \"#utility.yul\":3714:3717   */\n      dup4\n        /* \"#utility.yul\":3701:3731   */\n      calldatacopy\n        /* \"#utility.yul\":3786:3787   */\n      0x00\n        /* \"#utility.yul\":3777:3783   */\n      dup4\n        /* \"#utility.yul\":3772:3775   */\n      dup4\n        /* \"#utility.yul\":3768:3784   */\n      add\n        /* \"#utility.yul\":3761:3788   */\n      mstore\n        /* \"#utility.yul\":3640:3794   */\n      pop\n      pop\n      pop\n      jump\t// out\n        /* \"#utility.yul\":3800:4212   */\n    tag_74:\n        /* \"#utility.yul\":3878:3883   */\n      0x00\n        /* \"#utility.yul\":3903:3969   */\n      tag_129\n        /* \"#utility.yul\":3919:3968   */\n      tag_130\n        /* \"#utility.yul\":3961:3967   */\n      dup5\n        /* \"#utility.yul\":3919:3968   */\n      tag_72\n      jump\t// in\n    tag_130:\n        /* \"#utility.yul\":3903:3969   */\n      tag_71\n      jump\t// in\n    tag_129:\n        /* \"#utility.yul\":3894:3969   */\n      swap1\n      pop\n        /* \"#utility.yul\":3992:3998   */\n      dup3\n        /* \"#utility.yul\":3985:3990   */\n      dup2\n        /* \"#utility.yul\":3978:3999   */\n      mstore\n        /* \"#utility.yul\":4030:4034   */\n      0x20\n        /* \"#utility.yul\":4023:4028   */\n      dup2\n        /* \"#utility.yul\":4019:4035   */\n      add\n        /* \"#utility.yul\":4068:4071   */\n      dup5\n        /* \"#utility.yul\":4059:4065   */\n      dup5\n        /* \"#utility.yul\":4054:4057   */\n      dup5\n        /* \"#utility.yul\":4050:4066   */\n      add\n        /* \"#utility.yul\":4047:4072   */\n      gt\n        /* \"#utility.yul\":4044:4156   */\n      iszero\n      tag_131\n      jumpi\n        /* \"#utility.yul\":4075:4154   */\n      tag_132\n      tag_67\n      jump\t// in\n    tag_132:\n        /* \"#utility.yul\":4044:4156   */\n    tag_131:\n        /* \"#utility.yul\":4165:4206   */\n      tag_133\n        /* \"#utility.yul\":4199:4205   */\n      dup5\n        /* \"#utility.yul\":4194:4197   */\n      dup3\n        /* \"#utility.yul\":4189:4192   */\n      dup6\n        /* \"#utility.yul\":4165:4206   */\n      tag_73\n      jump\t// in\n    tag_133:\n        /* \"#utility.yul\":3884:4212   */\n      pop\n        /* \"#utility.yul\":3800:4212   */\n      swap4\n      swap3\n      pop\n      pop\n      pop\n      jump\t// out\n        /* \"#utility.yul\":4232:4572   */\n    tag_75:\n        /* \"#utility.yul\":4288:4293   */\n      0x00\n        /* \"#utility.yul\":4337:4340   */\n      dup3\n        /* \"#utility.yul\":4330:4334   */\n      0x1f\n        /* \"#utility.yul\":4322:4328   */\n      dup4\n        /* \"#utility.yul\":4318:4335   */\n      add\n        /* \"#utility.yul\":4314:4341   */\n      slt\n        /* \"#utility.yul\":4304:4426   */\n      tag_135\n      jumpi\n        /* \"#utility.yul\":4345:4424   */\n      tag_136\n      tag_66\n      jump\t// in\n    tag_136:\n        /* \"#utility.yul\":4304:4426   */\n    tag_135:\n        /* \"#utility.yul\":4462:4468   */\n      dup2\n        /* \"#utility.yul\":4449:4469   */\n      calldataload\n        /* \"#utility.yul\":4487:4566   */\n      tag_137\n        /* \"#utility.yul\":4562:4565   */\n      dup5\n        /* \"#utility.yul\":4554:4560   */\n      dup3\n        /* \"#utility.yul\":4547:4551   */\n      0x20\n        /* \"#utility.yul\":4539:4545   */\n      dup7\n        /* \"#utility.yul\":4535:4552   */\n      add\n        /* \"#utility.yul\":4487:4566   */\n      tag_74\n      jump\t// in\n    tag_137:\n        /* \"#utility.yul\":4478:4566   */\n      swap2\n      pop\n        /* \"#utility.yul\":4294:4572   */\n      pop\n        /* \"#utility.yul\":4232:4572   */\n      swap3\n      swap2\n      pop\n      pop\n      jump\t// out\n        /* \"#utility.yul\":4578:5412   */\n    tag_21:\n        /* \"#utility.yul\":4666:4672   */\n      0x00\n        /* \"#utility.yul\":4674:4680   */\n      dup1\n        /* \"#utility.yul\":4723:4725   */\n      0x40\n        /* \"#utility.yul\":4711:4720   */\n      dup4\n        /* \"#utility.yul\":4702:4709   */\n      dup6\n        /* \"#utility.yul\":4698:4721   */\n      sub\n        /* \"#utility.yul\":4694:4726   */\n      slt\n        /* \"#utility.yul\":4691:4810   */\n      iszero\n      tag_139\n      jumpi\n        /* \"#utility.yul\":4729:4808   */\n      tag_140\n      tag_56\n      jump\t// in\n    tag_140:\n        /* \"#utility.yul\":4691:4810   */\n    tag_139:\n        /* \"#utility.yul\":4877:4878   */\n      0x00\n        /* \"#utility.yul\":4866:4875   */\n      dup4\n        /* \"#utility.yul\":4862:4879   */\n      add\n        /* \"#utility.yul\":4849:4880   */\n      calldataload\n        /* \"#utility.yul\":4907:4925   */\n      0xffffffffffffffff\n        /* \"#utility.yul\":4899:4905   */\n      dup2\n        /* \"#utility.yul\":4896:4926   */\n      gt\n        /* \"#utility.yul\":4893:5010   */\n      iszero\n      tag_141\n      jumpi\n        /* \"#utility.yul\":4929:5008   */\n      tag_142\n      tag_57\n      jump\t// in\n    tag_142:\n        /* \"#utility.yul\":4893:5010   */\n    tag_141:\n        /* \"#utility.yul\":5034:5097   */\n      tag_143\n        /* \"#utility.yul\":5089:5096   */\n      dup6\n        /* \"#utility.yul\":5080:5086   */\n      dup3\n        /* \"#utility.yul\":5069:5078   */\n      dup7\n        /* \"#utility.yul\":5065:5087   */\n      add\n        /* \"#utility.yul\":5034:5097   */\n      tag_75\n      jump\t// in\n    tag_143:\n        /* \"#utility.yul\":5024:5097   */\n      swap3\n      pop\n        /* \"#utility.yul\":4820:5107   */\n      pop\n        /* \"#utility.yul\":5174:5176   */\n      0x20\n        /* \"#utility.yul\":5163:5172   */\n      dup4\n        /* \"#utility.yul\":5159:5177   */\n      add\n        /* \"#utility.yul\":5146:5178   */\n      calldataload\n        /* \"#utility.yul\":5205:5223   */\n      0xffffffffffffffff\n        /* \"#utility.yul\":5197:5203   */\n      dup2\n        /* \"#utility.yul\":5194:5224   */\n      gt\n        /* \"#utility.yul\":5191:5308   */\n      iszero\n      tag_144\n      jumpi\n        /* \"#utility.yul\":5227:5306   */\n      tag_145\n      tag_57\n      jump\t// in\n    tag_145:\n        /* \"#utility.yul\":5191:5308   */\n    tag_144:\n        /* \"#utility.yul\":5332:5395   */\n      tag_146\n        /* \"#utility.yul\":5387:5394   */\n      dup6\n        /* \"#utility.yul\":5378:5384   */\n      dup3\n        /* \"#utility.yul\":5367:5376   */\n      dup7\n        /* \"#utility.yul\":5363:5385   */\n      add\n        /* \"#utility.yul\":5332:5395   */\n      tag_75\n      jump\t// in\n    tag_146:\n        /* \"#utility.yul\":5322:5395   */\n      swap2\n      pop\n        /* \"#utility.yul\":5117:5405   */\n      pop\n        /* \"#utility.yul\":4578:5412   */\n      swap3\n      pop\n      swap3\n      swap1\n      pop\n      jump\t// out\n        /* \"#utility.yul\":5418:5536   */\n    tag_76:\n        /* \"#utility.yul\":5505:5529   */\n      tag_148\n        /* \"#utility.yul\":5523:5528   */\n      dup2\n        /* \"#utility.yul\":5505:5529   */\n      tag_58\n      jump\t// in\n    tag_148:\n        /* \"#utility.yul\":5500:5503   */\n      dup3\n        /* \"#utility.yul\":5493:5530   */\n      mstore\n        /* \"#utility.yul\":5418:5536   */\n      pop\n      pop\n      jump\t// out\n        /* \"#utility.yul\":5542:5764   */\n    tag_28:\n        /* \"#utility.yul\":5635:5639   */\n      0x00\n        /* \"#utility.yul\":5673:5675   */\n      0x20\n        /* \"#utility.yul\":5662:5671   */\n      dup3\n        /* \"#utility.yul\":5658:5676   */\n      add\n        /* \"#utility.yul\":5650:5676   */\n      swap1\n      pop\n        /* \"#utility.yul\":5686:5757   */\n      tag_150\n        /* \"#utility.yul\":5754:5755   */\n      0x00\n        /* \"#utility.yul\":5743:5752   */\n      dup4\n        /* \"#utility.yul\":5739:5756   */\n      add\n        /* \"#utility.yul\":5730:5736   */\n      dup5\n        /* \"#utility.yul\":5686:5757   */\n      tag_76\n      jump\t// in\n    tag_150:\n        /* \"#utility.yul\":5542:5764   */\n      swap3\n      swap2\n      pop\n      pop\n      jump\t// out\n        /* \"#utility.yul\":5770:5869   */\n    tag_77:\n        /* \"#utility.yul\":5822:5828   */\n      0x00\n        /* \"#utility.yul\":5856:5861   */\n      dup2\n        /* \"#utility.yul\":5850:5862   */\n      mload\n        /* \"#utility.yul\":5840:5862   */\n      swap1\n      pop\n        /* \"#utility.yul\":5770:5869   */\n      swap2\n      swap1\n      pop\n      jump\t// out\n        /* \"#utility.yul\":5875:6044   */\n    tag_78:\n        /* \"#utility.yul\":5959:5970   */\n      0x00\n        /* \"#utility.yul\":5993:5999   */\n      dup3\n        /* \"#utility.yul\":5988:5991   */\n      dup3\n        /* \"#utility.yul\":5981:6000   */\n      mstore\n        /* \"#utility.yul\":6033:6037   */\n      0x20\n        /* \"#utility.yul\":6028:6031   */\n      dup3\n        /* \"#utility.yul\":6024:6038   */\n      add\n        /* \"#utility.yul\":6009:6038   */\n      swap1\n      pop\n        /* \"#utility.yul\":5875:6044   */\n      swap3\n      swap2\n      pop\n      pop\n      jump\t// out\n        /* \"#utility.yul\":6050:6357   */\n    tag_79:\n        /* \"#utility.yul\":6118:6119   */\n      0x00\n        /* \"#utility.yul\":6128:6241   */\n    tag_154:\n        /* \"#utility.yul\":6142:6148   */\n      dup4\n        /* \"#utility.yul\":6139:6140   */\n      dup2\n        /* \"#utility.yul\":6136:6149   */\n      lt\n        /* \"#utility.yul\":6128:6241   */\n      iszero\n      tag_156\n      jumpi\n        /* \"#utility.yul\":6227:6228   */\n      dup1\n        /* \"#utility.yul\":6222:6225   */\n      dup3\n        /* \"#utility.yul\":6218:6229   */\n      add\n        /* \"#utility.yul\":6212:6230   */\n      mload\n        /* \"#utility.yul\":6208:6209   */\n      dup2\n        /* \"#utility.yul\":6203:6206   */\n      dup5\n        /* \"#utility.yul\":6199:6210   */\n      add\n        /* \"#utility.yul\":6192:6231   */\n      mstore\n        /* \"#utility.yul\":6164:6166   */\n      0x20\n        /* \"#utility.yul\":6161:6162   */\n      dup2\n        /* \"#utility.yul\":6157:6167   */\n      add\n        /* \"#utility.yul\":6152:6167   */\n      swap1\n      pop\n        /* \"#utility.yul\":6128:6241   */\n      jump(tag_154)\n    tag_156:\n        /* \"#utility.yul\":6259:6265   */\n      dup4\n        /* \"#utility.yul\":6256:6257   */\n      dup2\n        /* \"#utility.yul\":6253:6266   */\n      gt\n        /* \"#utility.yul\":6250:6351   */\n      iszero\n      tag_157\n      jumpi\n        /* \"#utility.yul\":6339:6340   */\n      0x00\n        /* \"#utility.yul\":6330:6336   */\n      dup5\n        /* \"#utility.yul\":6325:6328   */\n      dup5\n        /* \"#utility.yul\":6321:6337   */\n      add\n        /* \"#utility.yul\":6314:6341   */\n      mstore\n        /* \"#utility.yul\":6250:6351   */\n    tag_157:\n        /* \"#utility.yul\":6099:6357   */\n      pop\n        /* \"#utility.yul\":6050:6357   */\n      pop\n      pop\n      pop\n      jump\t// out\n        /* \"#utility.yul\":6363:6727   */\n    tag_80:\n        /* \"#utility.yul\":6451:6454   */\n      0x00\n        /* \"#utility.yul\":6479:6518   */\n      tag_159\n        /* \"#utility.yul\":6512:6517   */\n      dup3\n        /* \"#utility.yul\":6479:6518   */\n      tag_77\n      jump\t// in\n    tag_159:\n        /* \"#utility.yul\":6534:6605   */\n      tag_160\n        /* \"#utility.yul\":6598:6604   */\n      dup2\n        /* \"#utility.yul\":6593:6596   */\n      dup6\n        /* \"#utility.yul\":6534:6605   */\n      tag_78\n      jump\t// in\n    tag_160:\n        /* \"#utility.yul\":6527:6605   */\n      swap4\n      pop\n        /* \"#utility.yul\":6614:6666   */\n      tag_161\n        /* \"#utility.yul\":6659:6665   */\n      dup2\n        /* \"#utility.yul\":6654:6657   */\n      dup6\n        /* \"#utility.yul\":6647:6651   */\n      0x20\n        /* \"#utility.yul\":6640:6645   */\n      dup7\n        /* \"#utility.yul\":6636:6652   */\n      add\n        /* \"#utility.yul\":6614:6666   */\n      tag_79\n      jump\t// in\n    tag_161:\n        /* \"#utility.yul\":6691:6720   */\n      tag_162\n        /* \"#utility.yul\":6713:6719   */\n      dup2\n        /* \"#utility.yul\":6691:6720   */\n      tag_68\n      jump\t// in\n    tag_162:\n        /* \"#utility.yul\":6686:6689   */\n      dup5\n        /* \"#utility.yul\":6682:6721   */\n      add\n        /* \"#utility.yul\":6675:6721   */\n      swap2\n      pop\n        /* \"#utility.yul\":6455:6727   */\n      pop\n        /* \"#utility.yul\":6363:6727   */\n      swap3\n      swap2\n      pop\n      pop\n      jump\t// out\n        /* \"#utility.yul\":6733:7357   */\n    tag_37:\n        /* \"#utility.yul\":6922:6926   */\n      0x00\n        /* \"#utility.yul\":6960:6962   */\n      0x60\n        /* \"#utility.yul\":6949:6958   */\n      dup3\n        /* \"#utility.yul\":6945:6963   */\n      add\n        /* \"#utility.yul\":6937:6963   */\n      swap1\n      pop\n        /* \"#utility.yul\":7009:7018   */\n      dup2\n        /* \"#utility.yul\":7003:7007   */\n      dup2\n        /* \"#utility.yul\":6999:7019   */\n      sub\n        /* \"#utility.yul\":6995:6996   */\n      0x00\n        /* \"#utility.yul\":6984:6993   */\n      dup4\n        /* \"#utility.yul\":6980:6997   */\n      add\n        /* \"#utility.yul\":6973:7020   */\n      mstore\n        /* \"#utility.yul\":7037:7115   */\n      tag_164\n        /* \"#utility.yul\":7110:7114   */\n      dup2\n        /* \"#utility.yul\":7101:7107   */\n      dup7\n        /* \"#utility.yul\":7037:7115   */\n      tag_80\n      jump\t// in\n    tag_164:\n        /* \"#utility.yul\":7029:7115   */\n      swap1\n      pop\n        /* \"#utility.yul\":7125:7197   */\n      tag_165\n        /* \"#utility.yul\":7193:7195   */\n      0x20\n        /* \"#utility.yul\":7182:7191   */\n      dup4\n        /* \"#utility.yul\":7178:7196   */\n      add\n        /* \"#utility.yul\":7169:7175   */\n      dup6\n        /* \"#utility.yul\":7125:7197   */\n      tag_63\n      jump\t// in\n    tag_165:\n        /* \"#utility.yul\":7244:7253   */\n      dup2\n        /* \"#utility.yul\":7238:7242   */\n      dup2\n        /* \"#utility.yul\":7234:7254   */\n      sub\n        /* \"#utility.yul\":7229:7231   */\n      0x40\n        /* \"#utility.yul\":7218:7227   */\n      dup4\n        /* \"#utility.yul\":7214:7232   */\n      add\n        /* \"#utility.yul\":7207:7255   */\n      mstore\n        /* \"#utility.yul\":7272:7350   */\n      tag_166\n        /* \"#utility.yul\":7345:7349   */\n      dup2\n        /* \"#utility.yul\":7336:7342   */\n      dup5\n        /* \"#utility.yul\":7272:7350   */\n      tag_80\n      jump\t// in\n    tag_166:\n        /* \"#utility.yul\":7264:7350   */\n      swap1\n      pop\n        /* \"#utility.yul\":6733:7357   */\n      swap5\n      swap4\n      pop\n      pop\n      pop\n      pop\n      jump\t// out\n    stop\n\n    sub_0: assembly {\n            /* \"Market.sol\":974:1410  contract Nft {... */\n          mstore(0x40, 0x80)\n            /* \"Market.sol\":1053:1226  constructor (string memory assetName, address assetOwner, string memory ipfsHash) {... */\n          callvalue\n          dup1\n          iszero\n          tag_1\n          jumpi\n          0x00\n          dup1\n          revert\n        tag_1:\n          pop\n          mload(0x40)\n          sub(codesize, bytecodeSize)\n          dup1\n          bytecodeSize\n          dup4\n          codecopy\n          dup2\n          dup2\n          add\n          0x40\n          mstore\n          dup2\n          add\n          swap1\n          tag_2\n          swap2\n          swap1\n          tag_3\n          jump\t// in\n        tag_2:\n            /* \"Market.sol\":1152:1161  assetName */\n          dup3\n            /* \"Market.sol\":1145:1149  name */\n          0x00\n            /* \"Market.sol\":1145:1161  name = assetName */\n          swap1\n          dup2\n          tag_6\n          swap2\n          swap1\n          tag_7\n          jump\t// in\n        tag_6:\n          pop\n            /* \"Market.sol\":1179:1189  assetOwner */\n          dup2\n            /* \"Market.sol\":1171:1176  owner */\n          0x01\n          0x00\n            /* \"Market.sol\":1171:1189  owner = assetOwner */\n          0x0100\n          exp\n          dup2\n          sload\n          dup2\n          0xffffffffffffffffffffffffffffffffffffffff\n          mul\n          not\n          and\n          swap1\n          dup4\n          0xffffffffffffffffffffffffffffffffffffffff\n          and\n          mul\n          or\n          swap1\n          sstore\n          pop\n            /* \"Market.sol\":1211:1219  ipfsHash */\n          dup1\n            /* \"Market.sol\":1199:1208  imageHash */\n          0x02\n            /* \"Market.sol\":1199:1219  imageHash = ipfsHash */\n          swap1\n          dup2\n          tag_8\n          swap2\n          swap1\n          tag_7\n          jump\t// in\n        tag_8:\n          pop\n            /* \"Market.sol\":1053:1226  constructor (string memory assetName, address assetOwner, string memory ipfsHash) {... */\n          pop\n          pop\n          pop\n            /* \"Market.sol\":974:1410  contract Nft {... */\n          jump(tag_9)\n            /* \"#utility.yul\":7:82   */\n        tag_10:\n            /* \"#utility.yul\":40:46   */\n          0x00\n            /* \"#utility.yul\":73:75   */\n          0x40\n            /* \"#utility.yul\":67:76   */\n          mload\n            /* \"#utility.yul\":57:76   */\n          swap1\n          pop\n            /* \"#utility.yul\":7:82   */\n          swap1\n          jump\t// out\n            /* \"#utility.yul\":88:205   */\n        tag_11:\n            /* \"#utility.yul\":197:198   */\n          0x00\n            /* \"#utility.yul\":194:195   */\n          dup1\n            /* \"#utility.yul\":187:199   */\n          revert\n            /* \"#utility.yul\":211:328   */\n        tag_12:\n            /* \"#utility.yul\":320:321   */\n          0x00\n            /* \"#utility.yul\":317:318   */\n          dup1\n            /* \"#utility.yul\":310:322   */\n          revert\n            /* \"#utility.yul\":334:451   */\n        tag_13:\n            /* \"#utility.yul\":443:444   */\n          0x00\n            /* \"#utility.yul\":440:441   */\n          dup1\n            /* \"#utility.yul\":433:445   */\n          revert\n            /* \"#utility.yul\":457:574   */\n        tag_14:\n            /* \"#utility.yul\":566:567   */\n          0x00\n            /* \"#utility.yul\":563:564   */\n          dup1\n            /* \"#utility.yul\":556:568   */\n          revert\n            /* \"#utility.yul\":580:682   */\n        tag_15:\n            /* \"#utility.yul\":621:627   */\n          0x00\n            /* \"#utility.yul\":672:674   */\n          0x1f\n            /* \"#utility.yul\":668:675   */\n          not\n            /* \"#utility.yul\":663:665   */\n          0x1f\n            /* \"#utility.yul\":656:661   */\n          dup4\n            /* \"#utility.yul\":652:666   */\n          add\n            /* \"#utility.yul\":648:676   */\n          and\n            /* \"#utility.yul\":638:676   */\n          swap1\n          pop\n            /* \"#utility.yul\":580:682   */\n          swap2\n          swap1\n          pop\n          jump\t// out\n            /* \"#utility.yul\":688:868   */\n        tag_16:\n            /* \"#utility.yul\":736:813   */\n          0x4e487b7100000000000000000000000000000000000000000000000000000000\n            /* \"#utility.yul\":733:734   */\n          0x00\n            /* \"#utility.yul\":726:814   */\n          mstore\n            /* \"#utility.yul\":833:837   */\n          0x41\n            /* \"#utility.yul\":830:831   */\n          0x04\n            /* \"#utility.yul\":823:838   */\n          mstore\n            /* \"#utility.yul\":857:861   */\n          0x24\n            /* \"#utility.yul\":854:855   */\n          0x00\n            /* \"#utility.yul\":847:862   */\n          revert\n            /* \"#utility.yul\":874:1155   */\n        tag_17:\n            /* \"#utility.yul\":957:984   */\n          tag_55\n            /* \"#utility.yul\":979:983   */\n          dup3\n            /* \"#utility.yul\":957:984   */\n          tag_15\n          jump\t// in\n        tag_55:\n            /* \"#utility.yul\":949:955   */\n          dup2\n            /* \"#utility.yul\":945:985   */\n          add\n            /* \"#utility.yul\":1087:1093   */\n          dup2\n            /* \"#utility.yul\":1075:1085   */\n          dup2\n            /* \"#utility.yul\":1072:1094   */\n          lt\n            /* \"#utility.yul\":1051:1069   */\n          0xffffffffffffffff\n            /* \"#utility.yul\":1039:1049   */\n          dup3\n            /* \"#utility.yul\":1036:1070   */\n          gt\n            /* \"#utility.yul\":1033:1095   */\n          or\n            /* \"#utility.yul\":1030:1118   */\n          iszero\n          tag_56\n          jumpi\n            /* \"#utility.yul\":1098:1116   */\n          tag_57\n          tag_16\n          jump\t// in\n        tag_57:\n            /* \"#utility.yul\":1030:1118   */\n        tag_56:\n            /* \"#utility.yul\":1138:1148   */\n          dup1\n            /* \"#utility.yul\":1134:1136   */\n          0x40\n            /* \"#utility.yul\":1127:1149   */\n          mstore\n            /* \"#utility.yul\":917:1155   */\n          pop\n            /* \"#utility.yul\":874:1155   */\n          pop\n          pop\n          jump\t// out\n            /* \"#utility.yul\":1161:1290   */\n        tag_18:\n            /* \"#utility.yul\":1195:1201   */\n          0x00\n            /* \"#utility.yul\":1222:1242   */\n          tag_59\n          tag_10\n          jump\t// in\n        tag_59:\n            /* \"#utility.yul\":1212:1242   */\n          swap1\n          pop\n            /* \"#utility.yul\":1251:1284   */\n          tag_60\n            /* \"#utility.yul\":1279:1283   */\n          dup3\n            /* \"#utility.yul\":1271:1277   */\n          dup3\n            /* \"#utility.yul\":1251:1284   */\n          tag_17\n          jump\t// in\n        tag_60:\n            /* \"#utility.yul\":1161:1290   */\n          swap2\n          swap1\n          pop\n          jump\t// out\n            /* \"#utility.yul\":1296:1604   */\n        tag_19:\n            /* \"#utility.yul\":1358:1362   */\n          0x00\n            /* \"#utility.yul\":1448:1466   */\n          0xffffffffffffffff\n            /* \"#utility.yul\":1440:1446   */\n          dup3\n            /* \"#utility.yul\":1437:1467   */\n          gt\n            /* \"#utility.yul\":1434:1490   */\n          iszero\n          tag_62\n          jumpi\n            /* \"#utility.yul\":1470:1488   */\n          tag_63\n          tag_16\n          jump\t// in\n        tag_63:\n            /* \"#utility.yul\":1434:1490   */\n        tag_62:\n            /* \"#utility.yul\":1508:1537   */\n          tag_64\n            /* \"#utility.yul\":1530:1536   */\n          dup3\n            /* \"#utility.yul\":1508:1537   */\n          tag_15\n          jump\t// in\n        tag_64:\n            /* \"#utility.yul\":1500:1537   */\n          swap1\n          pop\n            /* \"#utility.yul\":1592:1596   */\n          0x20\n            /* \"#utility.yul\":1586:1590   */\n          dup2\n            /* \"#utility.yul\":1582:1597   */\n          add\n            /* \"#utility.yul\":1574:1597   */\n          swap1\n          pop\n            /* \"#utility.yul\":1296:1604   */\n          swap2\n          swap1\n          pop\n          jump\t// out\n            /* \"#utility.yul\":1610:1917   */\n        tag_20:\n            /* \"#utility.yul\":1678:1679   */\n          0x00\n            /* \"#utility.yul\":1688:1801   */\n        tag_66:\n            /* \"#utility.yul\":1702:1708   */\n          dup4\n            /* \"#utility.yul\":1699:1700   */\n          dup2\n            /* \"#utility.yul\":1696:1709   */\n          lt\n            /* \"#utility.yul\":1688:1801   */\n          iszero\n          tag_68\n          jumpi\n            /* \"#utility.yul\":1787:1788   */\n          dup1\n            /* \"#utility.yul\":1782:1785   */\n          dup3\n            /* \"#utility.yul\":1778:1789   */\n          add\n            /* \"#utility.yul\":1772:1790   */\n          mload\n            /* \"#utility.yul\":1768:1769   */\n          dup2\n            /* \"#utility.yul\":1763:1766   */\n          dup5\n            /* \"#utility.yul\":1759:1770   */\n          add\n            /* \"#utility.yul\":1752:1791   */\n          mstore\n            /* \"#utility.yul\":1724:1726   */\n          0x20\n            /* \"#utility.yul\":1721:1722   */\n          dup2\n            /* \"#utility.yul\":1717:1727   */\n          add\n            /* \"#utility.yul\":1712:1727   */\n          swap1\n          pop\n            /* \"#utility.yul\":1688:1801   */\n          jump(tag_66)\n        tag_68:\n            /* \"#utility.yul\":1819:1825   */\n          dup4\n            /* \"#utility.yul\":1816:1817   */\n          dup2\n            /* \"#utility.yul\":1813:1826   */\n          gt\n            /* \"#utility.yul\":1810:1911   */\n          iszero\n          tag_69\n          jumpi\n            /* \"#utility.yul\":1899:1900   */\n          0x00\n            /* \"#utility.yul\":1890:1896   */\n          dup5\n            /* \"#utility.yul\":1885:1888   */\n          dup5\n            /* \"#utility.yul\":1881:1897   */\n          add\n            /* \"#utility.yul\":1874:1901   */\n          mstore\n            /* \"#utility.yul\":1810:1911   */\n        tag_69:\n            /* \"#utility.yul\":1659:1917   */\n          pop\n            /* \"#utility.yul\":1610:1917   */\n          pop\n          pop\n          pop\n          jump\t// out\n            /* \"#utility.yul\":1923:2344   */\n        tag_21:\n            /* \"#utility.yul\":2012:2017   */\n          0x00\n            /* \"#utility.yul\":2037:2103   */\n          tag_71\n            /* \"#utility.yul\":2053:2102   */\n          tag_72\n            /* \"#utility.yul\":2095:2101   */\n          dup5\n            /* \"#utility.yul\":2053:2102   */\n          tag_19\n          jump\t// in\n        tag_72:\n            /* \"#utility.yul\":2037:2103   */\n          tag_18\n          jump\t// in\n        tag_71:\n            /* \"#utility.yul\":2028:2103   */\n          swap1\n          pop\n            /* \"#utility.yul\":2126:2132   */\n          dup3\n            /* \"#utility.yul\":2119:2124   */\n          dup2\n            /* \"#utility.yul\":2112:2133   */\n          mstore\n            /* \"#utility.yul\":2164:2168   */\n          0x20\n            /* \"#utility.yul\":2157:2162   */\n          dup2\n            /* \"#utility.yul\":2153:2169   */\n          add\n            /* \"#utility.yul\":2202:2205   */\n          dup5\n            /* \"#utility.yul\":2193:2199   */\n          dup5\n            /* \"#utility.yul\":2188:2191   */\n          dup5\n            /* \"#utility.yul\":2184:2200   */\n          add\n            /* \"#utility.yul\":2181:2206   */\n          gt\n            /* \"#utility.yul\":2178:2290   */\n          iszero\n          tag_73\n          jumpi\n            /* \"#utility.yul\":2209:2288   */\n          tag_74\n          tag_14\n          jump\t// in\n        tag_74:\n            /* \"#utility.yul\":2178:2290   */\n        tag_73:\n            /* \"#utility.yul\":2299:2338   */\n          tag_75\n            /* \"#utility.yul\":2331:2337   */\n          dup5\n            /* \"#utility.yul\":2326:2329   */\n          dup3\n            /* \"#utility.yul\":2321:2324   */\n          dup6\n            /* \"#utility.yul\":2299:2338   */\n          tag_20\n          jump\t// in\n        tag_75:\n            /* \"#utility.yul\":2018:2344   */\n          pop\n            /* \"#utility.yul\":1923:2344   */\n          swap4\n          swap3\n          pop\n          pop\n          pop\n          jump\t// out\n            /* \"#utility.yul\":2364:2719   */\n        tag_22:\n            /* \"#utility.yul\":2431:2436   */\n          0x00\n            /* \"#utility.yul\":2480:2483   */\n          dup3\n            /* \"#utility.yul\":2473:2477   */\n          0x1f\n            /* \"#utility.yul\":2465:2471   */\n          dup4\n            /* \"#utility.yul\":2461:2478   */\n          add\n            /* \"#utility.yul\":2457:2484   */\n          slt\n            /* \"#utility.yul\":2447:2569   */\n          tag_77\n          jumpi\n            /* \"#utility.yul\":2488:2567   */\n          tag_78\n          tag_13\n          jump\t// in\n        tag_78:\n            /* \"#utility.yul\":2447:2569   */\n        tag_77:\n            /* \"#utility.yul\":2598:2604   */\n          dup2\n            /* \"#utility.yul\":2592:2605   */\n          mload\n            /* \"#utility.yul\":2623:2713   */\n          tag_79\n            /* \"#utility.yul\":2709:2712   */\n          dup5\n            /* \"#utility.yul\":2701:2707   */\n          dup3\n            /* \"#utility.yul\":2694:2698   */\n          0x20\n            /* \"#utility.yul\":2686:2692   */\n          dup7\n            /* \"#utility.yul\":2682:2699   */\n          add\n            /* \"#utility.yul\":2623:2713   */\n          tag_21\n          jump\t// in\n        tag_79:\n            /* \"#utility.yul\":2614:2713   */\n          swap2\n          pop\n            /* \"#utility.yul\":2437:2719   */\n          pop\n            /* \"#utility.yul\":2364:2719   */\n          swap3\n          swap2\n          pop\n          pop\n          jump\t// out\n            /* \"#utility.yul\":2725:2851   */\n        tag_23:\n            /* \"#utility.yul\":2762:2769   */\n          0x00\n            /* \"#utility.yul\":2802:2844   */\n          0xffffffffffffffffffffffffffffffffffffffff\n            /* \"#utility.yul\":2795:2800   */\n          dup3\n            /* \"#utility.yul\":2791:2845   */\n          and\n            /* \"#utility.yul\":2780:2845   */\n          swap1\n          pop\n            /* \"#utility.yul\":2725:2851   */\n          swap2\n          swap1\n          pop\n          jump\t// out\n            /* \"#utility.yul\":2857:2953   */\n        tag_24:\n            /* \"#utility.yul\":2894:2901   */\n          0x00\n            /* \"#utility.yul\":2923:2947   */\n          tag_82\n            /* \"#utility.yul\":2941:2946   */\n          dup3\n            /* \"#utility.yul\":2923:2947   */\n          tag_23\n          jump\t// in\n        tag_82:\n            /* \"#utility.yul\":2912:2947   */\n          swap1\n          pop\n            /* \"#utility.yul\":2857:2953   */\n          swap2\n          swap1\n          pop\n          jump\t// out\n            /* \"#utility.yul\":2959:3081   */\n        tag_25:\n            /* \"#utility.yul\":3032:3056   */\n          tag_84\n            /* \"#utility.yul\":3050:3055   */\n          dup2\n            /* \"#utility.yul\":3032:3056   */\n          tag_24\n          jump\t// in\n        tag_84:\n            /* \"#utility.yul\":3025:3030   */\n          dup2\n            /* \"#utility.yul\":3022:3057   */\n          eq\n            /* \"#utility.yul\":3012:3075   */\n          tag_85\n          jumpi\n            /* \"#utility.yul\":3071:3072   */\n          0x00\n            /* \"#utility.yul\":3068:3069   */\n          dup1\n            /* \"#utility.yul\":3061:3073   */\n          revert\n            /* \"#utility.yul\":3012:3075   */\n        tag_85:\n            /* \"#utility.yul\":2959:3081   */\n          pop\n          jump\t// out\n            /* \"#utility.yul\":3087:3230   */\n        tag_26:\n            /* \"#utility.yul\":3144:3149   */\n          0x00\n            /* \"#utility.yul\":3175:3181   */\n          dup2\n            /* \"#utility.yul\":3169:3182   */\n          mload\n            /* \"#utility.yul\":3160:3182   */\n          swap1\n          pop\n            /* \"#utility.yul\":3191:3224   */\n          tag_87\n            /* \"#utility.yul\":3218:3223   */\n          dup2\n            /* \"#utility.yul\":3191:3224   */\n          tag_25\n          jump\t// in\n        tag_87:\n            /* \"#utility.yul\":3087:3230   */\n          swap3\n          swap2\n          pop\n          pop\n          jump\t// out\n            /* \"#utility.yul\":3236:4245   */\n        tag_3:\n            /* \"#utility.yul\":3344:3350   */\n          0x00\n            /* \"#utility.yul\":3352:3358   */\n          dup1\n            /* \"#utility.yul\":3360:3366   */\n          0x00\n            /* \"#utility.yul\":3409:3411   */\n          0x60\n            /* \"#utility.yul\":3397:3406   */\n          dup5\n            /* \"#utility.yul\":3388:3395   */\n          dup7\n            /* \"#utility.yul\":3384:3407   */\n          sub\n            /* \"#utility.yul\":3380:3412   */\n          slt\n            /* \"#utility.yul\":3377:3496   */\n          iszero\n          tag_89\n          jumpi\n            /* \"#utility.yul\":3415:3494   */\n          tag_90\n          tag_11\n          jump\t// in\n        tag_90:\n            /* \"#utility.yul\":3377:3496   */\n        tag_89:\n            /* \"#utility.yul\":3556:3557   */\n          0x00\n            /* \"#utility.yul\":3545:3554   */\n          dup5\n            /* \"#utility.yul\":3541:3558   */\n          add\n            /* \"#utility.yul\":3535:3559   */\n          mload\n            /* \"#utility.yul\":3586:3604   */\n          0xffffffffffffffff\n            /* \"#utility.yul\":3578:3584   */\n          dup2\n            /* \"#utility.yul\":3575:3605   */\n          gt\n            /* \"#utility.yul\":3572:3689   */\n          iszero\n          tag_91\n          jumpi\n            /* \"#utility.yul\":3608:3687   */\n          tag_92\n          tag_12\n          jump\t// in\n        tag_92:\n            /* \"#utility.yul\":3572:3689   */\n        tag_91:\n            /* \"#utility.yul\":3713:3787   */\n          tag_93\n            /* \"#utility.yul\":3779:3786   */\n          dup7\n            /* \"#utility.yul\":3770:3776   */\n          dup3\n            /* \"#utility.yul\":3759:3768   */\n          dup8\n            /* \"#utility.yul\":3755:3777   */\n          add\n            /* \"#utility.yul\":3713:3787   */\n          tag_22\n          jump\t// in\n        tag_93:\n            /* \"#utility.yul\":3703:3787   */\n          swap4\n          pop\n            /* \"#utility.yul\":3506:3797   */\n          pop\n            /* \"#utility.yul\":3836:3838   */\n          0x20\n            /* \"#utility.yul\":3862:3926   */\n          tag_94\n            /* \"#utility.yul\":3918:3925   */\n          dup7\n            /* \"#utility.yul\":3909:3915   */\n          dup3\n            /* \"#utility.yul\":3898:3907   */\n          dup8\n            /* \"#utility.yul\":3894:3916   */\n          add\n            /* \"#utility.yul\":3862:3926   */\n          tag_26\n          jump\t// in\n        tag_94:\n            /* \"#utility.yul\":3852:3926   */\n          swap3\n          pop\n            /* \"#utility.yul\":3807:3936   */\n          pop\n            /* \"#utility.yul\":3996:3998   */\n          0x40\n            /* \"#utility.yul\":3985:3994   */\n          dup5\n            /* \"#utility.yul\":3981:3999   */\n          add\n            /* \"#utility.yul\":3975:4000   */\n          mload\n            /* \"#utility.yul\":4027:4045   */\n          0xffffffffffffffff\n            /* \"#utility.yul\":4019:4025   */\n          dup2\n            /* \"#utility.yul\":4016:4046   */\n          gt\n            /* \"#utility.yul\":4013:4130   */\n          iszero\n          tag_95\n          jumpi\n            /* \"#utility.yul\":4049:4128   */\n          tag_96\n          tag_12\n          jump\t// in\n        tag_96:\n            /* \"#utility.yul\":4013:4130   */\n        tag_95:\n            /* \"#utility.yul\":4154:4228   */\n          tag_97\n            /* \"#utility.yul\":4220:4227   */\n          dup7\n            /* \"#utility.yul\":4211:4217   */\n          dup3\n            /* \"#utility.yul\":4200:4209   */\n          dup8\n            /* \"#utility.yul\":4196:4218   */\n          add\n            /* \"#utility.yul\":4154:4228   */\n          tag_22\n          jump\t// in\n        tag_97:\n            /* \"#utility.yul\":4144:4228   */\n          swap2\n          pop\n            /* \"#utility.yul\":3946:4238   */\n          pop\n            /* \"#utility.yul\":3236:4245   */\n          swap3\n          pop\n          swap3\n          pop\n          swap3\n          jump\t// out\n            /* \"#utility.yul\":4251:4350   */\n        tag_27:\n            /* \"#utility.yul\":4303:4309   */\n          0x00\n            /* \"#utility.yul\":4337:4342   */\n          dup2\n            /* \"#utility.yul\":4331:4343   */\n          mload\n            /* \"#utility.yul\":4321:4343   */\n          swap1\n          pop\n            /* \"#utility.yul\":4251:4350   */\n          swap2\n          swap1\n          pop\n          jump\t// out\n            /* \"#utility.yul\":4356:4536   */\n        tag_28:\n            /* \"#utility.yul\":4404:4481   */\n          0x4e487b7100000000000000000000000000000000000000000000000000000000\n            /* \"#utility.yul\":4401:4402   */\n          0x00\n            /* \"#utility.yul\":4394:4482   */\n          mstore\n            /* \"#utility.yul\":4501:4505   */\n          0x22\n            /* \"#utility.yul\":4498:4499   */\n          0x04\n            /* \"#utility.yul\":4491:4506   */\n          mstore\n            /* \"#utility.yul\":4525:4529   */\n          0x24\n            /* \"#utility.yul\":4522:4523   */\n          0x00\n            /* \"#utility.yul\":4515:4530   */\n          revert\n            /* \"#utility.yul\":4542:4862   */\n        tag_29:\n            /* \"#utility.yul\":4586:4592   */\n          0x00\n            /* \"#utility.yul\":4623:4624   */\n          0x02\n            /* \"#utility.yul\":4617:4621   */\n          dup3\n            /* \"#utility.yul\":4613:4625   */\n          div\n            /* \"#utility.yul\":4603:4625   */\n          swap1\n          pop\n            /* \"#utility.yul\":4670:4671   */\n          0x01\n            /* \"#utility.yul\":4664:4668   */\n          dup3\n            /* \"#utility.yul\":4660:4672   */\n          and\n            /* \"#utility.yul\":4691:4709   */\n          dup1\n            /* \"#utility.yul\":4681:4762   */\n          tag_101\n          jumpi\n            /* \"#utility.yul\":4747:4751   */\n          0x7f\n            /* \"#utility.yul\":4739:4745   */\n          dup3\n            /* \"#utility.yul\":4735:4752   */\n          and\n            /* \"#utility.yul\":4725:4752   */\n          swap2\n          pop\n            /* \"#utility.yul\":4681:4762   */\n        tag_101:\n            /* \"#utility.yul\":4809:4811   */\n          0x20\n            /* \"#utility.yul\":4801:4807   */\n          dup3\n            /* \"#utility.yul\":4798:4812   */\n          lt\n            /* \"#utility.yul\":4778:4796   */\n          dup2\n            /* \"#utility.yul\":4775:4813   */\n          sub\n            /* \"#utility.yul\":4772:4856   */\n          tag_102\n          jumpi\n            /* \"#utility.yul\":4828:4846   */\n          tag_103\n          tag_28\n          jump\t// in\n        tag_103:\n            /* \"#utility.yul\":4772:4856   */\n        tag_102:\n            /* \"#utility.yul\":4593:4862   */\n          pop\n            /* \"#utility.yul\":4542:4862   */\n          swap2\n          swap1\n          pop\n          jump\t// out\n            /* \"#utility.yul\":4868:5009   */\n        tag_30:\n            /* \"#utility.yul\":4917:4921   */\n          0x00\n            /* \"#utility.yul\":4940:4943   */\n          dup2\n            /* \"#utility.yul\":4932:4943   */\n          swap1\n          pop\n            /* \"#utility.yul\":4963:4966   */\n          dup2\n            /* \"#utility.yul\":4960:4961   */\n          0x00\n            /* \"#utility.yul\":4953:4967   */\n          mstore\n            /* \"#utility.yul\":4997:5001   */\n          0x20\n            /* \"#utility.yul\":4994:4995   */\n          0x00\n            /* \"#utility.yul\":4984:5002   */\n          keccak256\n            /* \"#utility.yul\":4976:5002   */\n          swap1\n          pop\n            /* \"#utility.yul\":4868:5009   */\n          swap2\n          swap1\n          pop\n          jump\t// out\n            /* \"#utility.yul\":5015:5108   */\n        tag_31:\n            /* \"#utility.yul\":5052:5058   */\n          0x00\n            /* \"#utility.yul\":5099:5101   */\n          0x20\n            /* \"#utility.yul\":5094:5096   */\n          0x1f\n            /* \"#utility.yul\":5087:5092   */\n          dup4\n            /* \"#utility.yul\":5083:5097   */\n          add\n            /* \"#utility.yul\":5079:5102   */\n          div\n            /* \"#utility.yul\":5069:5102   */\n          swap1\n          pop\n            /* \"#utility.yul\":5015:5108   */\n          swap2\n          swap1\n          pop\n          jump\t// out\n            /* \"#utility.yul\":5114:5221   */\n        tag_32:\n            /* \"#utility.yul\":5158:5166   */\n          0x00\n            /* \"#utility.yul\":5208:5213   */\n          dup3\n            /* \"#utility.yul\":5202:5206   */\n          dup3\n            /* \"#utility.yul\":5198:5214   */\n          shl\n            /* \"#utility.yul\":5177:5214   */\n          swap1\n          pop\n            /* \"#utility.yul\":5114:5221   */\n          swap3\n          swap2\n          pop\n          pop\n          jump\t// out\n            /* \"#utility.yul\":5227:5620   */\n        tag_33:\n            /* \"#utility.yul\":5296:5302   */\n          0x00\n            /* \"#utility.yul\":5346:5347   */\n          0x08\n            /* \"#utility.yul\":5334:5344   */\n          dup4\n            /* \"#utility.yul\":5330:5348   */\n          mul\n            /* \"#utility.yul\":5369:5466   */\n          tag_108\n            /* \"#utility.yul\":5399:5465   */\n          0xffffffffffffffffffffffffffffffffffffffffffffffffffffffffffffffff\n            /* \"#utility.yul\":5388:5397   */\n          dup3\n            /* \"#utility.yul\":5369:5466   */\n          tag_32\n          jump\t// in\n        tag_108:\n            /* \"#utility.yul\":5487:5526   */\n          tag_109\n            /* \"#utility.yul\":5517:5525   */\n          dup7\n            /* \"#utility.yul\":5506:5515   */\n          dup4\n            /* \"#utility.yul\":5487:5526   */\n          tag_32\n          jump\t// in\n        tag_109:\n            /* \"#utility.yul\":5475:5526   */\n          swap6\n          pop\n            /* \"#utility.yul\":5559:5563   */\n          dup1\n            /* \"#utility.yul\":5555:5564   */\n          not\n            /* \"#utility.yul\":5548:5553   */\n          dup5\n            /* \"#utility.yul\":5544:5565   */\n          and\n            /* \"#utility.yul\":5535:5565   */\n          swap4\n          pop\n            /* \"#utility.yul\":5608:5612   */\n          dup1\n            /* \"#utility.yul\":5598:5606   */\n          dup7\n            /* \"#utility.yul\":5594:5613   */\n          and\n            /* \"#utility.yul\":5587:5592   */\n          dup5\n            /* \"#utility.yul\":5584:5614   */\n          or\n            /* \"#utility.yul\":5574:5614   */\n          swap3\n          pop\n            /* \"#utility.yul\":5303:5620   */\n          pop\n          pop\n            /* \"#utility.yul\":5227:5620   */\n          swap4\n          swap3\n          pop\n          pop\n          pop\n          jump\t// out\n            /* \"#utility.yul\":5626:5703   */\n        tag_34:\n            /* \"#utility.yul\":5663:5670   */\n          0x00\n            /* \"#utility.yul\":5692:5697   */\n          dup2\n            /* \"#utility.yul\":5681:5697   */\n          swap1\n          pop\n            /* \"#utility.yul\":5626:5703   */\n          swap2\n          swap1\n          pop\n          jump\t// out\n            /* \"#utility.yul\":5709:5769   */\n        tag_35:\n            /* \"#utility.yul\":5737:5740   */\n          0x00\n            /* \"#utility.yul\":5758:5763   */\n          dup2\n            /* \"#utility.yul\":5751:5763   */\n          swap1\n          pop\n            /* \"#utility.yul\":5709:5769   */\n          swap2\n          swap1\n          pop\n          jump\t// out\n            /* \"#utility.yul\":5775:5917   */\n        tag_36:\n            /* \"#utility.yul\":5825:5834   */\n          0x00\n            /* \"#utility.yul\":5858:5911   */\n          tag_113\n            /* \"#utility.yul\":5876:5910   */\n          tag_114\n            /* \"#utility.yul\":5885:5909   */\n          tag_115\n            /* \"#utility.yul\":5903:5908   */\n          dup5\n            /* \"#utility.yul\":5885:5909   */\n          tag_34\n          jump\t// in\n        tag_115:\n            /* \"#utility.yul\":5876:5910   */\n          tag_35\n          jump\t// in\n        tag_114:\n            /* \"#utility.yul\":5858:5911   */\n          tag_34\n          jump\t// in\n        tag_113:\n            /* \"#utility.yul\":5845:5911   */\n          swap1\n          pop\n            /* \"#utility.yul\":5775:5917   */\n          swap2\n          swap1\n          pop\n          jump\t// out\n            /* \"#utility.yul\":5923:5998   */\n        tag_37:\n            /* \"#utility.yul\":5966:5969   */\n          0x00\n            /* \"#utility.yul\":5987:5992   */\n          dup2\n            /* \"#utility.yul\":5980:5992   */\n          swap1\n          pop\n            /* \"#utility.yul\":5923:5998   */\n          swap2\n          swap1\n          pop\n          jump\t// out\n            /* \"#utility.yul\":6004:6273   */\n        tag_38:\n            /* \"#utility.yul\":6114:6153   */\n          tag_118\n            /* \"#utility.yul\":6145:6152   */\n          dup4\n            /* \"#utility.yul\":6114:6153   */\n          tag_36\n          jump\t// in\n        tag_118:\n            /* \"#utility.yul\":6175:6266   */\n          tag_119\n            /* \"#utility.yul\":6224:6265   */\n          tag_120\n            /* \"#utility.yul\":6248:6264   */\n          dup3\n            /* \"#utility.yul\":6224:6265   */\n          tag_37\n          jump\t// in\n        tag_120:\n            /* \"#utility.yul\":6216:6222   */\n          dup5\n            /* \"#utility.yul\":6209:6213   */\n          dup5\n            /* \"#utility.yul\":6203:6214   */\n          sload\n            /* \"#utility.yul\":6175:6266   */\n          tag_33\n          jump\t// in\n        tag_119:\n            /* \"#utility.yul\":6169:6173   */\n          dup3\n            /* \"#utility.yul\":6162:6267   */\n          sstore\n            /* \"#utility.yul\":6080:6273   */\n          pop\n            /* \"#utility.yul\":6004:6273   */\n          pop\n          pop\n          pop\n          jump\t// out\n            /* \"#utility.yul\":6279:6352   */\n        tag_39:\n            /* \"#utility.yul\":6324:6327   */\n          0x00\n            /* \"#utility.yul\":6279:6352   */\n          swap1\n          jump\t// out\n            /* \"#utility.yul\":6358:6547   */\n        tag_40:\n            /* \"#utility.yul\":6435:6467   */\n          tag_123\n          tag_39\n          jump\t// in\n        tag_123:\n            /* \"#utility.yul\":6476:6541   */\n          tag_124\n            /* \"#utility.yul\":6534:6540   */\n          dup2\n            /* \"#utility.yul\":6526:6532   */\n          dup5\n            /* \"#utility.yul\":6520:6524   */\n          dup5\n            /* \"#utility.yul\":6476:6541   */\n          tag_38\n          jump\t// in\n        tag_124:\n            /* \"#utility.yul\":6411:6547   */\n          pop\n            /* \"#utility.yul\":6358:6547   */\n          pop\n          pop\n          jump\t// out\n            /* \"#utility.yul\":6553:6739   */\n        tag_41:\n            /* \"#utility.yul\":6613:6733   */\n        tag_126:\n            /* \"#utility.yul\":6630:6633   */\n          dup2\n            /* \"#utility.yul\":6623:6628   */\n          dup2\n            /* \"#utility.yul\":6620:6634   */\n          lt\n            /* \"#utility.yul\":6613:6733   */\n          iszero\n          tag_128\n          jumpi\n            /* \"#utility.yul\":6684:6723   */\n          tag_129\n            /* \"#utility.yul\":6721:6722   */\n          0x00\n            /* \"#utility.yul\":6714:6719   */\n          dup3\n            /* \"#utility.yul\":6684:6723   */\n          tag_40\n          jump\t// in\n        tag_129:\n            /* \"#utility.yul\":6657:6658   */\n          0x01\n            /* \"#utility.yul\":6650:6655   */\n          dup2\n            /* \"#utility.yul\":6646:6659   */\n          add\n            /* \"#utility.yul\":6637:6659   */\n          swap1\n          pop\n            /* \"#utility.yul\":6613:6733   */\n          jump(tag_126)\n        tag_128:\n            /* \"#utility.yul\":6553:6739   */\n          pop\n          pop\n          jump\t// out\n            /* \"#utility.yul\":6745:7288   */\n        tag_42:\n            /* \"#utility.yul\":6846:6848   */\n          0x1f\n            /* \"#utility.yul\":6841:6844   */\n          dup3\n            /* \"#utility.yul\":6838:6849   */\n          gt\n            /* \"#utility.yul\":6835:7281   */\n          iszero\n          tag_131\n          jumpi\n            /* \"#utility.yul\":6880:6918   */\n          tag_132\n            /* \"#utility.yul\":6912:6917   */\n          dup2\n            /* \"#utility.yul\":6880:6918   */\n          tag_30\n          jump\t// in\n        tag_132:\n            /* \"#utility.yul\":6964:6993   */\n          tag_133\n            /* \"#utility.yul\":6982:6992   */\n          dup5\n            /* \"#utility.yul\":6964:6993   */\n          tag_31\n          jump\t// in\n        tag_133:\n            /* \"#utility.yul\":6954:6962   */\n          dup2\n            /* \"#utility.yul\":6950:6994   */\n          add\n            /* \"#utility.yul\":7147:7149   */\n          0x20\n            /* \"#utility.yul\":7135:7145   */\n          dup6\n            /* \"#utility.yul\":7132:7150   */\n          lt\n            /* \"#utility.yul\":7129:7178   */\n          iszero\n          tag_134\n          jumpi\n            /* \"#utility.yul\":7168:7176   */\n          dup2\n            /* \"#utility.yul\":7153:7176   */\n          swap1\n          pop\n            /* \"#utility.yul\":7129:7178   */\n        tag_134:\n            /* \"#utility.yul\":7191:7271   */\n          tag_135\n            /* \"#utility.yul\":7247:7269   */\n          tag_136\n            /* \"#utility.yul\":7265:7268   */\n          dup6\n            /* \"#utility.yul\":7247:7269   */\n          tag_31\n          jump\t// in\n        tag_136:\n            /* \"#utility.yul\":7237:7245   */\n          dup4\n            /* \"#utility.yul\":7233:7270   */\n          add\n            /* \"#utility.yul\":7220:7231   */\n          dup3\n            /* \"#utility.yul\":7191:7271   */\n          tag_41\n          jump\t// in\n        tag_135:\n            /* \"#utility.yul\":6850:7281   */\n          pop\n          pop\n            /* \"#utility.yul\":6835:7281   */\n        tag_131:\n            /* \"#utility.yul\":6745:7288   */\n          pop\n          pop\n          pop\n          jump\t// out\n            /* \"#utility.yul\":7294:7411   */\n        tag_43:\n            /* \"#utility.yul\":7348:7356   */\n          0x00\n            /* \"#utility.yul\":7398:7403   */\n          dup3\n            /* \"#utility.yul\":7392:7396   */\n          dup3\n            /* \"#utility.yul\":7388:7404   */\n          shr\n            /* \"#utility.yul\":7367:7404   */\n          swap1\n          pop\n            /* \"#utility.yul\":7294:7411   */\n          swap3\n          swap2\n          pop\n          pop\n          jump\t// out\n            /* \"#utility.yul\":7417:7586   */\n        tag_44:\n            /* \"#utility.yul\":7461:7467   */\n          0x00\n            /* \"#utility.yul\":7494:7545   */\n          tag_139\n            /* \"#utility.yul\":7542:7543   */\n          0x00\n            /* \"#utility.yul\":7538:7544   */\n          not\n            /* \"#utility.yul\":7530:7535   */\n          dup5\n            /* \"#utility.yul\":7527:7528   */\n          0x08\n            /* \"#utility.yul\":7523:7536   */\n          mul\n            /* \"#utility.yul\":7494:7545   */\n          tag_43\n          jump\t// in\n        tag_139:\n            /* \"#utility.yul\":7490:7546   */\n          not\n            /* \"#utility.yul\":7575:7579   */\n          dup1\n            /* \"#utility.yul\":7569:7573   */\n          dup4\n            /* \"#utility.yul\":7565:7580   */\n          and\n            /* \"#utility.yul\":7555:7580   */\n          swap2\n          pop\n            /* \"#utility.yul\":7468:7586   */\n          pop\n            /* \"#utility.yul\":7417:7586   */\n          swap3\n          swap2\n          pop\n          pop\n          jump\t// out\n            /* \"#utility.yul\":7591:7886   */\n        tag_45:\n            /* \"#utility.yul\":7667:7671   */\n          0x00\n            /* \"#utility.yul\":7813:7842   */\n          tag_141\n            /* \"#utility.yul\":7838:7841   */\n          dup4\n            /* \"#utility.yul\":7832:7836   */\n          dup4\n            /* \"#utility.yul\":7813:7842   */\n          tag_44\n          jump\t// in\n        tag_141:\n            /* \"#utility.yul\":7805:7842   */\n          swap2\n          pop\n            /* \"#utility.yul\":7875:7878   */\n          dup3\n            /* \"#utility.yul\":7872:7873   */\n          0x02\n            /* \"#utility.yul\":7868:7879   */\n          mul\n            /* \"#utility.yul\":7862:7866   */\n          dup3\n            /* \"#utility.yul\":7859:7880   */\n          or\n            /* \"#utility.yul\":7851:7880   */\n          swap1\n          pop\n            /* \"#utility.yul\":7591:7886   */\n          swap3\n          swap2\n          pop\n          pop\n          jump\t// out\n            /* \"#utility.yul\":7891:9286   */\n        tag_7:\n            /* \"#utility.yul\":8008:8045   */\n          tag_143\n            /* \"#utility.yul\":8041:8044   */\n          dup3\n            /* \"#utility.yul\":8008:8045   */\n          tag_27\n          jump\t// in\n        tag_143:\n            /* \"#utility.yul\":8110:8128   */\n          0xffffffffffffffff\n            /* \"#utility.yul\":8102:8108   */\n          dup2\n            /* \"#utility.yul\":8099:8129   */\n          gt\n            /* \"#utility.yul\":8096:8152   */\n          iszero\n          tag_144\n          jumpi\n            /* \"#utility.yul\":8132:8150   */\n          tag_145\n          tag_16\n          jump\t// in\n        tag_145:\n            /* \"#utility.yul\":8096:8152   */\n        tag_144:\n            /* \"#utility.yul\":8176:8214   */\n          tag_146\n            /* \"#utility.yul\":8208:8212   */\n          dup3\n            /* \"#utility.yul\":8202:8213   */\n          sload\n            /* \"#utility.yul\":8176:8214   */\n          tag_29\n          jump\t// in\n        tag_146:\n            /* \"#utility.yul\":8261:8328   */\n          tag_147\n            /* \"#utility.yul\":8321:8327   */\n          dup3\n            /* \"#utility.yul\":8313:8319   */\n          dup3\n            /* \"#utility.yul\":8307:8311   */\n          dup6\n            /* \"#utility.yul\":8261:8328   */\n          tag_42\n          jump\t// in\n        tag_147:\n            /* \"#utility.yul\":8355:8356   */\n          0x00\n            /* \"#utility.yul\":8379:8383   */\n          0x20\n            /* \"#utility.yul\":8366:8383   */\n          swap1\n          pop\n            /* \"#utility.yul\":8411:8413   */\n          0x1f\n            /* \"#utility.yul\":8403:8409   */\n          dup4\n            /* \"#utility.yul\":8400:8414   */\n          gt\n            /* \"#utility.yul\":8428:8429   */\n          0x01\n            /* \"#utility.yul\":8423:9041   */\n          dup2\n          eq\n          tag_149\n          jumpi\n            /* \"#utility.yul\":9085:9086   */\n          0x00\n            /* \"#utility.yul\":9102:9108   */\n          dup5\n            /* \"#utility.yul\":9099:9176   */\n          iszero\n          tag_150\n          jumpi\n            /* \"#utility.yul\":9151:9160   */\n          dup3\n            /* \"#utility.yul\":9146:9149   */\n          dup8\n            /* \"#utility.yul\":9142:9161   */\n          add\n            /* \"#utility.yul\":9136:9162   */\n          mload\n            /* \"#utility.yul\":9127:9162   */\n          swap1\n          pop\n            /* \"#utility.yul\":9099:9176   */\n        tag_150:\n            /* \"#utility.yul\":9202:9269   */\n          tag_151\n            /* \"#utility.yul\":9262:9268   */\n          dup6\n            /* \"#utility.yul\":9255:9260   */\n          dup3\n            /* \"#utility.yul\":9202:9269   */\n          tag_45\n          jump\t// in\n        tag_151:\n            /* \"#utility.yul\":9196:9200   */\n          dup7\n            /* \"#utility.yul\":9189:9270   */\n          sstore\n            /* \"#utility.yul\":9058:9280   */\n          pop\n            /* \"#utility.yul\":8393:9280   */\n          jump(tag_148)\n            /* \"#utility.yul\":8423:9041   */\n        tag_149:\n            /* \"#utility.yul\":8475:8479   */\n          0x1f\n            /* \"#utility.yul\":8471:8480   */\n          not\n            /* \"#utility.yul\":8463:8469   */\n          dup5\n            /* \"#utility.yul\":8459:8481   */\n          and\n            /* \"#utility.yul\":8509:8546   */\n          tag_152\n            /* \"#utility.yul\":8541:8545   */\n          dup7\n            /* \"#utility.yul\":8509:8546   */\n          tag_30\n          jump\t// in\n        tag_152:\n            /* \"#utility.yul\":8568:8569   */\n          0x00\n            /* \"#utility.yul\":8582:8790   */\n        tag_153:\n            /* \"#utility.yul\":8596:8603   */\n          dup3\n            /* \"#utility.yul\":8593:8594   */\n          dup2\n            /* \"#utility.yul\":8590:8604   */\n          lt\n            /* \"#utility.yul\":8582:8790   */\n          iszero\n          tag_155\n          jumpi\n            /* \"#utility.yul\":8675:8684   */\n          dup5\n            /* \"#utility.yul\":8670:8673   */\n          dup10\n            /* \"#utility.yul\":8666:8685   */\n          add\n            /* \"#utility.yul\":8660:8686   */\n          mload\n            /* \"#utility.yul\":8652:8658   */\n          dup3\n            /* \"#utility.yul\":8645:8687   */\n          sstore\n            /* \"#utility.yul\":8726:8727   */\n          0x01\n            /* \"#utility.yul\":8718:8724   */\n          dup3\n            /* \"#utility.yul\":8714:8728   */\n          add\n            /* \"#utility.yul\":8704:8728   */\n          swap2\n          pop\n            /* \"#utility.yul\":8773:8775   */\n          0x20\n            /* \"#utility.yul\":8762:8771   */\n          dup6\n            /* \"#utility.yul\":8758:8776   */\n          add\n            /* \"#utility.yul\":8745:8776   */\n          swap5\n          pop\n            /* \"#utility.yul\":8619:8623   */\n          0x20\n            /* \"#utility.yul\":8616:8617   */\n          dup2\n            /* \"#utility.yul\":8612:8624   */\n          add\n            /* \"#utility.yul\":8607:8624   */\n          swap1\n          pop\n            /* \"#utility.yul\":8582:8790   */\n          jump(tag_153)\n        tag_155:\n            /* \"#utility.yul\":8818:8824   */\n          dup7\n            /* \"#utility.yul\":8809:8816   */\n          dup4\n            /* \"#utility.yul\":8806:8825   */\n          lt\n            /* \"#utility.yul\":8803:8982   */\n          iszero\n          tag_156\n          jumpi\n            /* \"#utility.yul\":8876:8885   */\n          dup5\n            /* \"#utility.yul\":8871:8874   */\n          dup10\n            /* \"#utility.yul\":8867:8886   */\n          add\n            /* \"#utility.yul\":8861:8887   */\n          mload\n            /* \"#utility.yul\":8919:8967   */\n          tag_157\n            /* \"#utility.yul\":8961:8965   */\n          0x1f\n            /* \"#utility.yul\":8953:8959   */\n          dup10\n            /* \"#utility.yul\":8949:8966   */\n          and\n            /* \"#utility.yul\":8938:8947   */\n          dup3\n            /* \"#utility.yul\":8919:8967   */\n          tag_44\n          jump\t// in\n        tag_157:\n            /* \"#utility.yul\":8911:8917   */\n          dup4\n            /* \"#utility.yul\":8904:8968   */\n          sstore\n            /* \"#utility.yul\":8826:8982   */\n          pop\n            /* \"#utility.yul\":8803:8982   */\n        tag_156:\n            /* \"#utility.yul\":9028:9029   */\n          0x01\n            /* \"#utility.yul\":9024:9025   */\n          0x02\n            /* \"#utility.yul\":9016:9022   */\n          dup9\n            /* \"#utility.yul\":9012:9026   */\n          mul\n            /* \"#utility.yul\":9008:9030   */\n          add\n            /* \"#utility.yul\":9002:9006   */\n          dup9\n            /* \"#utility.yul\":8995:9031   */\n          sstore\n            /* \"#utility.yul\":8430:9041   */\n          pop\n          pop\n          pop\n            /* \"#utility.yul\":8393:9280   */\n        tag_148:\n          pop\n            /* \"#utility.yul\":7983:9286   */\n          pop\n          pop\n          pop\n            /* \"#utility.yul\":7891:9286   */\n          pop\n          pop\n          jump\t// out\n            /* \"Market.sol\":974:1410  contract Nft {... */\n        tag_9:\n          dataSize(sub_0)\n          dup1\n          dataOffset(sub_0)\n          0x00\n          codecopy\n          0x00\n          return\n        stop\n\n        sub_0: assembly {\n                /* \"Market.sol\":974:1410  contract Nft {... */\n              mstore(0x40, 0x80)\n              callvalue\n              dup1\n              iszero\n              tag_1\n              jumpi\n              0x00\n              dup1\n              revert\n            tag_1:\n              pop\n              jumpi(tag_2, lt(calldatasize, 0x04))\n              shr(0xe0, calldataload(0x00))\n              dup1\n              0x7ca5685f\n              eq\n              tag_3\n              jumpi\n            tag_2:\n              0x00\n              dup1\n              revert\n                /* \"Market.sol\":1232:1407  function getNftInfo() public view returns (string memory, address, string memory){... */\n            tag_3:\n              tag_4\n              tag_5\n              jump\t// in\n            tag_4:\n              mload(0x40)\n              tag_6\n              swap4\n              swap3\n              swap2\n              swap1\n              tag_7\n              jump\t// in\n            tag_6:\n              mload(0x40)\n              dup1\n              swap2\n              sub\n              swap1\n              return\n            tag_5:\n                /* \"Market.sol\":1275:1288  string memory */\n              0x60\n                /* \"Market.sol\":1290:1297  address */\n              0x00\n                /* \"Market.sol\":1299:1312  string memory */\n              0x60\n                /* \"Market.sol\":1344:1348  name */\n              0x00\n                /* \"Market.sol\":1362:1367  owner */\n              0x01\n              0x00\n              swap1\n              sload\n              swap1\n              0x0100\n              exp\n              swap1\n              div\n              0xffffffffffffffffffffffffffffffffffffffff\n              and\n                /* \"Market.sol\":1381:1390  imageHash */\n              0x02\n                /* \"Market.sol\":1323:1400  return (... */\n              dup3\n              dup1\n              sload\n              tag_9\n              swap1\n              tag_10\n              jump\t// in\n            tag_9:\n              dup1\n              0x1f\n              add\n              0x20\n              dup1\n              swap2\n              div\n              mul\n              0x20\n              add\n              mload(0x40)\n              swap1\n              dup2\n              add\n              0x40\n              mstore\n              dup1\n              swap3\n              swap2\n              swap1\n              dup2\n              dup2\n              mstore\n              0x20\n              add\n              dup3\n              dup1\n              sload\n              tag_11\n              swap1\n              tag_10\n              jump\t// in\n            tag_11:\n              dup1\n              iszero\n              tag_12\n              jumpi\n              dup1\n              0x1f\n              lt\n              tag_13\n              jumpi\n              0x0100\n              dup1\n              dup4\n              sload\n              div\n              mul\n              dup4\n              mstore\n              swap2\n              0x20\n              add\n              swap2\n              jump(tag_12)\n            tag_13:\n              dup3\n              add\n              swap2\n              swap1\n              0x00\n              mstore\n              keccak256(0x00, 0x20)\n              swap1\n            tag_14:\n              dup2\n              sload\n              dup2\n              mstore\n              swap1\n              0x01\n              add\n              swap1\n              0x20\n              add\n              dup1\n              dup4\n              gt\n              tag_14\n              jumpi\n              dup3\n              swap1\n              sub\n              0x1f\n              and\n              dup3\n              add\n              swap2\n            tag_12:\n              pop\n              pop\n              pop\n              pop\n              pop\n              swap3\n              pop\n              dup1\n              dup1\n              sload\n              tag_15\n              swap1\n              tag_10\n              jump\t// in\n            tag_15:\n              dup1\n              0x1f\n              add\n              0x20\n              dup1\n              swap2\n              div\n              mul\n              0x20\n              add\n              mload(0x40)\n              swap1\n              dup2\n              add\n              0x40\n              mstore\n              dup1\n              swap3\n              swap2\n              swap1\n              dup2\n              dup2\n              mstore\n              0x20\n              add\n              dup3\n              dup1\n              sload\n              tag_16\n              swap1\n              tag_10\n              jump\t// in\n            tag_16:\n              dup1\n              iszero\n              tag_17\n              jumpi\n              dup1\n              0x1f\n              lt\n              tag_18\n              jumpi\n              0x0100\n              dup1\n              dup4\n              sload\n              div\n              mul\n              dup4\n              mstore\n              swap2\n              0x20\n              add\n              swap2\n              jump(tag_17)\n            tag_18:\n              dup3\n              add\n              swap2\n              swap1\n              0x00\n              mstore\n              keccak256(0x00, 0x20)\n              swap1\n            tag_19:\n              dup2\n              sload\n              dup2\n              mstore\n              swap1\n              0x01\n              add\n              swap1\n              0x20\n              add\n              dup1\n              dup4\n              gt\n              tag_19\n              jumpi\n              dup3\n              swap1\n              sub\n              0x1f\n              and\n              dup3\n              add\n              swap2\n            tag_17:\n              pop\n              pop\n              pop\n              pop\n              pop\n              swap1\n              pop\n              swap3\n              pop\n              swap3\n              pop\n              swap3\n              pop\n                /* \"Market.sol\":1232:1407  function getNftInfo() public view returns (string memory, address, string memory){... */\n              swap1\n              swap2\n              swap3\n              jump\t// out\n                /* \"#utility.yul\":7:106   */\n            tag_20:\n                /* \"#utility.yul\":59:65   */\n              0x00\n                /* \"#utility.yul\":93:98   */\n              dup2\n                /* \"#utility.yul\":87:99   */\n              mload\n                /* \"#utility.yul\":77:99   */\n              swap1\n              pop\n                /* \"#utility.yul\":7:106   */\n              swap2\n              swap1\n              pop\n              jump\t// out\n                /* \"#utility.yul\":112:281   */\n            tag_21:\n                /* \"#utility.yul\":196:207   */\n              0x00\n                /* \"#utility.yul\":230:236   */\n              dup3\n                /* \"#utility.yul\":225:228   */\n              dup3\n                /* \"#utility.yul\":218:237   */\n              mstore\n                /* \"#utility.yul\":270:274   */\n              0x20\n                /* \"#utility.yul\":265:268   */\n              dup3\n                /* \"#utility.yul\":261:275   */\n              add\n                /* \"#utility.yul\":246:275   */\n              swap1\n              pop\n                /* \"#utility.yul\":112:281   */\n              swap3\n              swap2\n              pop\n              pop\n              jump\t// out\n                /* \"#utility.yul\":287:594   */\n            tag_22:\n                /* \"#utility.yul\":355:356   */\n              0x00\n                /* \"#utility.yul\":365:478   */\n            tag_33:\n                /* \"#utility.yul\":379:385   */\n              dup4\n                /* \"#utility.yul\":376:377   */\n              dup2\n                /* \"#utility.yul\":373:386   */\n              lt\n                /* \"#utility.yul\":365:478   */\n              iszero\n              tag_35\n              jumpi\n                /* \"#utility.yul\":464:465   */\n              dup1\n                /* \"#utility.yul\":459:462   */\n              dup3\n                /* \"#utility.yul\":455:466   */\n              add\n                /* \"#utility.yul\":449:467   */\n              mload\n                /* \"#utility.yul\":445:446   */\n              dup2\n                /* \"#utility.yul\":440:443   */\n              dup5\n                /* \"#utility.yul\":436:447   */\n              add\n                /* \"#utility.yul\":429:468   */\n              mstore\n                /* \"#utility.yul\":401:403   */\n              0x20\n                /* \"#utility.yul\":398:399   */\n              dup2\n                /* \"#utility.yul\":394:404   */\n              add\n                /* \"#utility.yul\":389:404   */\n              swap1\n              pop\n                /* \"#utility.yul\":365:478   */\n              jump(tag_33)\n            tag_35:\n                /* \"#utility.yul\":496:502   */\n              dup4\n                /* \"#utility.yul\":493:494   */\n              dup2\n                /* \"#utility.yul\":490:503   */\n              gt\n                /* \"#utility.yul\":487:588   */\n              iszero\n              tag_36\n              jumpi\n                /* \"#utility.yul\":576:577   */\n              0x00\n                /* \"#utility.yul\":567:573   */\n              dup5\n                /* \"#utility.yul\":562:565   */\n              dup5\n                /* \"#utility.yul\":558:574   */\n              add\n                /* \"#utility.yul\":551:578   */\n              mstore\n                /* \"#utility.yul\":487:588   */\n            tag_36:\n                /* \"#utility.yul\":336:594   */\n              pop\n                /* \"#utility.yul\":287:594   */\n              pop\n              pop\n              pop\n              jump\t// out\n                /* \"#utility.yul\":600:702   */\n            tag_23:\n                /* \"#utility.yul\":641:647   */\n              0x00\n                /* \"#utility.yul\":692:694   */\n              0x1f\n                /* \"#utility.yul\":688:695   */\n              not\n                /* \"#utility.yul\":683:685   */\n              0x1f\n                /* \"#utility.yul\":676:681   */\n              dup4\n                /* \"#utility.yul\":672:686   */\n              add\n                /* \"#utility.yul\":668:696   */\n              and\n                /* \"#utility.yul\":658:696   */\n              swap1\n              pop\n                /* \"#utility.yul\":600:702   */\n              swap2\n              swap1\n              pop\n              jump\t// out\n                /* \"#utility.yul\":708:1072   */\n            tag_24:\n                /* \"#utility.yul\":796:799   */\n              0x00\n                /* \"#utility.yul\":824:863   */\n              tag_39\n                /* \"#utility.yul\":857:862   */\n              dup3\n                /* \"#utility.yul\":824:863   */\n              tag_20\n              jump\t// in\n            tag_39:\n                /* \"#utility.yul\":879:950   */\n              tag_40\n                /* \"#utility.yul\":943:949   */\n              dup2\n                /* \"#utility.yul\":938:941   */\n              dup6\n                /* \"#utility.yul\":879:950   */\n              tag_21\n              jump\t// in\n            tag_40:\n                /* \"#utility.yul\":872:950   */\n              swap4\n              pop\n                /* \"#utility.yul\":959:1011   */\n              tag_41\n                /* \"#utility.yul\":1004:1010   */\n              dup2\n                /* \"#utility.yul\":999:1002   */\n              dup6\n                /* \"#utility.yul\":992:996   */\n              0x20\n                /* \"#utility.yul\":985:990   */\n              dup7\n                /* \"#utility.yul\":981:997   */\n              add\n                /* \"#utility.yul\":959:1011   */\n              tag_22\n              jump\t// in\n            tag_41:\n                /* \"#utility.yul\":1036:1065   */\n              tag_42\n                /* \"#utility.yul\":1058:1064   */\n              dup2\n                /* \"#utility.yul\":1036:1065   */\n              tag_23\n              jump\t// in\n            tag_42:\n                /* \"#utility.yul\":1031:1034   */\n              dup5\n                /* \"#utility.yul\":1027:1066   */\n              add\n                /* \"#utility.yul\":1020:1066   */\n              swap2\n              pop\n                /* \"#utility.yul\":800:1072   */\n              pop\n                /* \"#utility.yul\":708:1072   */\n              swap3\n              swap2\n              pop\n              pop\n              jump\t// out\n                /* \"#utility.yul\":1078:1204   */\n            tag_25:\n                /* \"#utility.yul\":1115:1122   */\n              0x00\n                /* \"#utility.yul\":1155:1197   */\n              0xffffffffffffffffffffffffffffffffffffffff\n                /* \"#utility.yul\":1148:1153   */\n              dup3\n                /* \"#utility.yul\":1144:1198   */\n              and\n                /* \"#utility.yul\":1133:1198   */\n              swap1\n              pop\n                /* \"#utility.yul\":1078:1204   */\n              swap2\n              swap1\n              pop\n              jump\t// out\n                /* \"#utility.yul\":1210:1306   */\n            tag_26:\n                /* \"#utility.yul\":1247:1254   */\n              0x00\n                /* \"#utility.yul\":1276:1300   */\n              tag_45\n                /* \"#utility.yul\":1294:1299   */\n              dup3\n                /* \"#utility.yul\":1276:1300   */\n              tag_25\n              jump\t// in\n            tag_45:\n                /* \"#utility.yul\":1265:1300   */\n              swap1\n              pop\n                /* \"#utility.yul\":1210:1306   */\n              swap2\n              swap1\n              pop\n              jump\t// out\n                /* \"#utility.yul\":1312:1430   */\n            tag_27:\n                /* \"#utility.yul\":1399:1423   */\n              tag_47\n                /* \"#utility.yul\":1417:1422   */\n              dup2\n                /* \"#utility.yul\":1399:1423   */\n              tag_26\n              jump\t// in\n            tag_47:\n                /* \"#utility.yul\":1394:1397   */\n              dup3\n                /* \"#utility.yul\":1387:1424   */\n              mstore\n                /* \"#utility.yul\":1312:1430   */\n              pop\n              pop\n              jump\t// out\n                /* \"#utility.yul\":1436:2060   */\n            tag_7:\n                /* \"#utility.yul\":1625:1629   */\n              0x00\n                /* \"#utility.yul\":1663:1665   */\n              0x60\n                /* \"#utility.yul\":1652:1661   */\n              dup3\n                /* \"#utility.yul\":1648:1666   */\n              add\n                /* \"#utility.yul\":1640:1666   */\n              swap1\n              pop\n                /* \"#utility.yul\":1712:1721   */\n              dup2\n                /* \"#utility.yul\":1706:1710   */\n              dup2\n                /* \"#utility.yul\":1702:1722   */\n              sub\n                /* \"#utility.yul\":1698:1699   */\n              0x00\n                /* \"#utility.yul\":1687:1696   */\n              dup4\n                /* \"#utility.yul\":1683:1700   */\n              add\n                /* \"#utility.yul\":1676:1723   */\n              mstore\n                /* \"#utility.yul\":1740:1818   */\n              tag_49\n                /* \"#utility.yul\":1813:1817   */\n              dup2\n                /* \"#utility.yul\":1804:1810   */\n              dup7\n                /* \"#utility.yul\":1740:1818   */\n              tag_24\n              jump\t// in\n            tag_49:\n                /* \"#utility.yul\":1732:1818   */\n              swap1\n              pop\n                /* \"#utility.yul\":1828:1900   */\n              tag_50\n                /* \"#utility.yul\":1896:1898   */\n              0x20\n                /* \"#utility.yul\":1885:1894   */\n              dup4\n                /* \"#utility.yul\":1881:1899   */\n              add\n                /* \"#utility.yul\":1872:1878   */\n              dup6\n                /* \"#utility.yul\":1828:1900   */\n              tag_27\n              jump\t// in\n            tag_50:\n                /* \"#utility.yul\":1947:1956   */\n              dup2\n                /* \"#utility.yul\":1941:1945   */\n              dup2\n                /* \"#utility.yul\":1937:1957   */\n              sub\n                /* \"#utility.yul\":1932:1934   */\n              0x40\n                /* \"#utility.yul\":1921:1930   */\n              dup4\n                /* \"#utility.yul\":1917:1935   */\n              add\n                /* \"#utility.yul\":1910:1958   */\n              mstore\n                /* \"#utility.yul\":1975:2053   */\n              tag_51\n                /* \"#utility.yul\":2048:2052   */\n              dup2\n                /* \"#utility.yul\":2039:2045   */\n              dup5\n                /* \"#utility.yul\":1975:2053   */\n              tag_24\n              jump\t// in\n            tag_51:\n                /* \"#utility.yul\":1967:2053   */\n              swap1\n              pop\n                /* \"#utility.yul\":1436:2060   */\n              swap5\n              swap4\n              pop\n              pop\n              pop\n              pop\n              jump\t// out\n                /* \"#utility.yul\":2066:2246   */\n            tag_28:\n                /* \"#utility.yul\":2114:2191   */\n              0x4e487b7100000000000000000000000000000000000000000000000000000000\n                /* \"#utility.yul\":2111:2112   */\n              0x00\n                /* \"#utility.yul\":2104:2192   */\n              mstore\n                /* \"#utility.yul\":2211:2215   */\n              0x22\n                /* \"#utility.yul\":2208:2209   */\n              0x04\n                /* \"#utility.yul\":2201:2216   */\n              mstore\n                /* \"#utility.yul\":2235:2239   */\n              0x24\n                /* \"#utility.yul\":2232:2233   */\n              0x00\n                /* \"#utility.yul\":2225:2240   */\n              revert\n                /* \"#utility.yul\":2252:2572   */\n            tag_10:\n                /* \"#utility.yul\":2296:2302   */\n              0x00\n                /* \"#utility.yul\":2333:2334   */\n              0x02\n                /* \"#utility.yul\":2327:2331   */\n              dup3\n                /* \"#utility.yul\":2323:2335   */\n              div\n                /* \"#utility.yul\":2313:2335   */\n              swap1\n              pop\n                /* \"#utility.yul\":2380:2381   */\n              0x01\n                /* \"#utility.yul\":2374:2378   */\n              dup3\n                /* \"#utility.yul\":2370:2382   */\n              and\n                /* \"#utility.yul\":2401:2419   */\n              dup1\n                /* \"#utility.yul\":2391:2472   */\n              tag_54\n              jumpi\n                /* \"#utility.yul\":2457:2461   */\n              0x7f\n                /* \"#utility.yul\":2449:2455   */\n              dup3\n                /* \"#utility.yul\":2445:2462   */\n              and\n                /* \"#utility.yul\":2435:2462   */\n              swap2\n              pop\n                /* \"#utility.yul\":2391:2472   */\n            tag_54:\n                /* \"#utility.yul\":2519:2521   */\n              0x20\n                /* \"#utility.yul\":2511:2517   */\n              dup3\n                /* \"#utility.yul\":2508:2522   */\n              lt\n                /* \"#utility.yul\":2488:2506   */\n              dup2\n                /* \"#utility.yul\":2485:2523   */\n              sub\n                /* \"#utility.yul\":2482:2566   */\n              tag_55\n              jumpi\n                /* \"#utility.yul\":2538:2556   */\n              tag_56\n              tag_28\n              jump\t// in\n            tag_56:\n                /* \"#utility.yul\":2482:2566   */\n            tag_55:\n                /* \"#utility.yul\":2303:2572   */\n              pop\n                /* \"#utility.yul\":2252:2572   */\n              swap2\n              swap1\n              pop\n              jump\t// out\n\n            auxdata: 0xa2646970667358221220c37dcd9e6139b5e2a463b8ff0c4655edf7df6a7f914432d6b99024ecd69af33864736f6c634300080f0033\n        }\n    }\n\n    auxdata: 0xa2646970667358221220a68c8c60054d434afb543ee5064e0bba60a3de1cd0fae1822bb6b926a64313ca64736f6c634300080f0033\n}\n","bytecode":{"linkReferences":{},"object":"608060405234801561001057600080fd5b50611321806100206000396000f3fe608060405260043610620000445760003560e01c806375bea16614620000495780637bc97efb146200008d5780638aa0fdad14620000d1578063fd296bce1462000107575b600080fd5b3480156200005657600080fd5b506200007560048036038101906200006f919062000514565b62000137565b6040516200008491906200058b565b60405180910390f35b3480156200009a57600080fd5b50620000b96004803603810190620000b39190620005d9565b62000177565b604051620000c891906200058b565b60405180910390f35b620000ef6004803603810190620000e9919062000782565b620001c6565b604051620000fe91906200058b565b60405180910390f35b3480156200011457600080fd5b506200011f62000281565b6040516200012e919062000818565b60405180910390f35b600081815481106200014857600080fd5b906000526020600020016000915054906101000a900473ffffffffffffffffffffffffffffffffffffffff1681565b600160205281600052604060002081815481106200019457600080fd5b906000526020600020016000915091509054906101000a900473ffffffffffffffffffffffffffffffffffffffff1681565b600080833384604051620001da9062000409565b620001e893929190620008c8565b604051809103906000f08015801562000205573d6000803e3d6000fd5b5090506000819080600181540180825580915050600190039060005260206000200160009091909190916101000a81548173ffffffffffffffffffffffffffffffffffffffff021916908373ffffffffffffffffffffffffffffffffffffffff1602179055506200027781336200028d565b8091505092915050565b60008080549050905090565b6000600160008373ffffffffffffffffffffffffffffffffffffffff1673ffffffffffffffffffffffffffffffffffffffff1681526020019081526020016000208054905011156200037a57600160008273ffffffffffffffffffffffffffffffffffffffff1673ffffffffffffffffffffffffffffffffffffffff168152602001908152602001600020829080600181540180825580915050600190039060005260206000200160009091909190916101000a81548173ffffffffffffffffffffffffffffffffffffffff021916908373ffffffffffffffffffffffffffffffffffffffff1602179055505b60405180602001604052808373ffffffffffffffffffffffffffffffffffffffff1673ffffffffffffffffffffffffffffffffffffffff16815250600160008373ffffffffffffffffffffffffffffffffffffffff1673ffffffffffffffffffffffffffffffffffffffff1681526020019081526020016000209060016200040492919062000417565b505050565b6109d8806200091483390190565b82805482825590600052602060002090810192821562000493579160200282015b82811115620004925782518260006101000a81548173ffffffffffffffffffffffffffffffffffffffff021916908373ffffffffffffffffffffffffffffffffffffffff1602179055509160200191906001019062000438565b5b509050620004a29190620004a6565b5090565b5b80821115620004c1576000816000905550600101620004a7565b5090565b6000604051905090565b600080fd5b600080fd5b6000819050919050565b620004ee81620004d9565b8114620004fa57600080fd5b50565b6000813590506200050e81620004e3565b92915050565b6000602082840312156200052d576200052c620004cf565b5b60006200053d84828501620004fd565b91505092915050565b600073ffffffffffffffffffffffffffffffffffffffff82169050919050565b6000620005738262000546565b9050919050565b620005858162000566565b82525050565b6000602082019050620005a260008301846200057a565b92915050565b620005b38162000566565b8114620005bf57600080fd5b50565b600081359050620005d381620005a8565b92915050565b60008060408385031215620005f357620005f2620004cf565b5b60006200060385828601620005c2565b92505060206200061685828601620004fd565b9150509250929050565b600080fd5b600080fd5b6000601f19601f8301169050919050565b7f4e487b7100000000000000000000000000000000000000000000000000000000600052604160045260246000fd5b62000675826200062a565b810181811067ffffffffffffffff821117156200069757620006966200063b565b5b80604052505050565b6000620006ac620004c5565b9050620006ba82826200066a565b919050565b600067ffffffffffffffff821115620006dd57620006dc6200063b565b5b620006e8826200062a565b9050602081019050919050565b82818337600083830152505050565b60006200071b6200071584620006bf565b620006a0565b9050828152602081018484840111156200073a576200073962000625565b5b62000747848285620006f5565b509392505050565b600082601f83011262000767576200076662000620565b5b81356200077984826020860162000704565b91505092915050565b600080604083850312156200079c576200079b620004cf565b5b600083013567ffffffffffffffff811115620007bd57620007bc620004d4565b5b620007cb858286016200074f565b925050602083013567ffffffffffffffff811115620007ef57620007ee620004d4565b5b620007fd858286016200074f565b9150509250929050565b6200081281620004d9565b82525050565b60006020820190506200082f600083018462000807565b92915050565b600081519050919050565b600082825260208201905092915050565b60005b838110156200087157808201518184015260208101905062000854565b8381111562000881576000848401525b50505050565b6000620008948262000835565b620008a0818562000840565b9350620008b281856020860162000851565b620008bd816200062a565b840191505092915050565b60006060820190508181036000830152620008e4818662000887565b9050620008f560208301856200057a565b818103604083015262000909818462000887565b905094935050505056fe60806040523480156200001157600080fd5b50604051620009d8380380620009d88339818101604052810190620000379190620002a7565b82600090816200004891906200058c565b5081600160006101000a81548173ffffffffffffffffffffffffffffffffffffffff021916908373ffffffffffffffffffffffffffffffffffffffff16021790555080600290816200009b91906200058c565b5050505062000673565b6000604051905090565b600080fd5b600080fd5b600080fd5b600080fd5b6000601f19601f8301169050919050565b7f4e487b7100000000000000000000000000000000000000000000000000000000600052604160045260246000fd5b6200010e82620000c3565b810181811067ffffffffffffffff8211171562000130576200012f620000d4565b5b80604052505050565b600062000145620000a5565b905062000153828262000103565b919050565b600067ffffffffffffffff821115620001765762000175620000d4565b5b6200018182620000c3565b9050602081019050919050565b60005b83811015620001ae57808201518184015260208101905062000191565b83811115620001be576000848401525b50505050565b6000620001db620001d58462000158565b62000139565b905082815260208101848484011115620001fa57620001f9620000be565b5b620002078482856200018e565b509392505050565b600082601f830112620002275762000226620000b9565b5b815162000239848260208601620001c4565b91505092915050565b600073ffffffffffffffffffffffffffffffffffffffff82169050919050565b60006200026f8262000242565b9050919050565b620002818162000262565b81146200028d57600080fd5b50565b600081519050620002a18162000276565b92915050565b600080600060608486031215620002c357620002c2620000af565b5b600084015167ffffffffffffffff811115620002e457620002e3620000b4565b5b620002f2868287016200020f565b9350506020620003058682870162000290565b925050604084015167ffffffffffffffff811115620003295762000328620000b4565b5b62000337868287016200020f565b9150509250925092565b600081519050919050565b7f4e487b7100000000000000000000000000000000000000000000000000000000600052602260045260246000fd5b600060028204905060018216806200039457607f821691505b602082108103620003aa57620003a96200034c565b5b50919050565b60008190508160005260206000209050919050565b60006020601f8301049050919050565b600082821b905092915050565b600060088302620004147fffffffffffffffffffffffffffffffffffffffffffffffffffffffffffffffff82620003d5565b620004208683620003d5565b95508019841693508086168417925050509392505050565b6000819050919050565b6000819050919050565b60006200046d62000467620004618462000438565b62000442565b62000438565b9050919050565b6000819050919050565b62000489836200044c565b620004a1620004988262000474565b848454620003e2565b825550505050565b600090565b620004b8620004a9565b620004c58184846200047e565b505050565b5b81811015620004ed57620004e1600082620004ae565b600181019050620004cb565b5050565b601f8211156200053c576200050681620003b0565b6200051184620003c5565b8101602085101562000521578190505b620005396200053085620003c5565b830182620004ca565b50505b505050565b600082821c905092915050565b6000620005616000198460080262000541565b1980831691505092915050565b60006200057c83836200054e565b9150826002028217905092915050565b620005978262000341565b67ffffffffffffffff811115620005b357620005b2620000d4565b5b620005bf82546200037b565b620005cc828285620004f1565b600060209050601f831160018114620006045760008415620005ef578287015190505b620005fb85826200056e565b8655506200066b565b601f1984166200061486620003b0565b60005b828110156200063e5784890151825560018201915060208501945060208101905062000617565b868310156200065e57848901516200065a601f8916826200054e565b8355505b6001600288020188555050505b505050505050565b61035580620006836000396000f3fe608060405234801561001057600080fd5b506004361061002b5760003560e01c80637ca5685f14610030575b600080fd5b610038610050565b6040516100479392919061027a565b60405180910390f35b6060600060606000600160009054906101000a900473ffffffffffffffffffffffffffffffffffffffff166002828054610089906102ee565b80601f01602080910402602001604051908101604052809291908181526020018280546100b5906102ee565b80156101025780601f106100d757610100808354040283529160200191610102565b820191906000526020600020905b8154815290600101906020018083116100e557829003601f168201915b50505050509250808054610115906102ee565b80601f0160208091040260200160405190810160405280929190818152602001828054610141906102ee565b801561018e5780601f106101635761010080835404028352916020019161018e565b820191906000526020600020905b81548152906001019060200180831161017157829003601f168201915b50505050509050925092509250909192565b600081519050919050565b600082825260208201905092915050565b60005b838110156101da5780820151818401526020810190506101bf565b838111156101e9576000848401525b50505050565b6000601f19601f8301169050919050565b600061020b826101a0565b61021581856101ab565b93506102258185602086016101bc565b61022e816101ef565b840191505092915050565b600073ffffffffffffffffffffffffffffffffffffffff82169050919050565b600061026482610239565b9050919050565b61027481610259565b82525050565b600060608201905081810360008301526102948186610200565b90506102a3602083018561026b565b81810360408301526102b58184610200565b9050949350505050565b7f4e487b7100000000000000000000000000000000000000000000000000000000600052602260045260246000fd5b6000600282049050600182168061030657607f821691505b602082108103610319576103186102bf565b5b5091905056fea2646970667358221220c37dcd9e6139b5e2a463b8ff0c4655edf7df6a7f914432d6b99024ecd69af33864736f6c634300080f0033a2646970667358221220a68c8c60054d434afb543ee5064e0bba60a3de1cd0fae1822bb6b926a64313ca64736f6c634300080f0033","opcodes":"PUSH1 0x80 PUSH1 0x40 MSTORE CALLVALUE DUP1 ISZERO PUSH2 0x10 JUMPI PUSH1 0x0 DUP1 REVERT JUMPDEST POP PUSH2 0x1321 DUP1 PUSH2 0x20 PUSH1 0x0 CODECOPY PUSH1 0x0 RETURN INVALID PUSH1 0x80 PUSH1 0x40 MSTORE PUSH1 0x4 CALLDATASIZE LT PUSH3 0x44 JUMPI PUSH1 0x0 CALLDATALOAD PUSH1 0xE0 SHR DUP1 PUSH4 0x75BEA166 EQ PUSH3 0x49 JUMPI DUP1 PUSH4 0x7BC97EFB EQ PUSH3 0x8D JUMPI DUP1 PUSH4 0x8AA0FDAD EQ PUSH3 0xD1 JUMPI DUP1 PUSH4 0xFD296BCE EQ PUSH3 0x107 JUMPI JUMPDEST PUSH1 0x0 DUP1 REVERT JUMPDEST CALLVALUE DUP1 ISZERO PUSH3 0x56 JUMPI PUSH1 0x0 DUP1 REVERT JUMPDEST POP PUSH3 0x75 PUSH1 0x4 DUP1 CALLDATASIZE SUB DUP2 ADD SWAP1 PUSH3 0x6F SWAP2 SWAP1 PUSH3 0x514 JUMP JUMPDEST PUSH3 0x137 JUMP JUMPDEST PUSH1 0x40 MLOAD PUSH3 0x84 SWAP2 SWAP1 PUSH3 0x58B JUMP JUMPDEST PUSH1 0x40 MLOAD DUP1 SWAP2 SUB SWAP1 RETURN JUMPDEST CALLVALUE DUP1 ISZERO PUSH3 0x9A JUMPI PUSH1 0x0 DUP1 REVERT JUMPDEST POP PUSH3 0xB9 PUSH1 0x4 DUP1 CALLDATASIZE SUB DUP2 ADD SWAP1 PUSH3 0xB3 SWAP2 SWAP1 PUSH3 0x5D9 JUMP JUMPDEST PUSH3 0x177 JUMP JUMPDEST PUSH1 0x40 MLOAD PUSH3 0xC8 SWAP2 SWAP1 PUSH3 0x58B JUMP JUMPDEST PUSH1 0x40 MLOAD DUP1 SWAP2 SUB SWAP1 RETURN JUMPDEST PUSH3 0xEF PUSH1 0x4 DUP1 CALLDATASIZE SUB DUP2 ADD SWAP1 PUSH3 0xE9 SWAP2 SWAP1 PUSH3 0x782 JUMP JUMPDEST PUSH3 0x1C6 JUMP JUMPDEST PUSH1 0x40 MLOAD PUSH3 0xFE SWAP2 SWAP1 PUSH3 0x58B JUMP JUMPDEST PUSH1 0x40 MLOAD DUP1 SWAP2 SUB SWAP1 RETURN JUMPDEST CALLVALUE DUP1 ISZERO PUSH3 0x114 JUMPI PUSH1 0x0 DUP1 REVERT JUMPDEST POP PUSH3 0x11F PUSH3 0x281 JUMP JUMPDEST PUSH1 0x40 MLOAD PUSH3 0x12E SWAP2 SWAP1 PUSH3 0x818 JUMP JUMPDEST PUSH1 0x40 MLOAD DUP1 SWAP2 SUB SWAP1 RETURN JUMPDEST PUSH1 0x0 DUP2 DUP2 SLOAD DUP2 LT PUSH3 0x148 JUMPI PUSH1 0x0 DUP1 REVERT JUMPDEST SWAP1 PUSH1 0x0 MSTORE PUSH1 0x20 PUSH1 0x0 KECCAK256 ADD PUSH1 0x0 SWAP2 POP SLOAD SWAP1 PUSH2 0x100 EXP SWAP1 DIV PUSH20 0xFFFFFFFFFFFFFFFFFFFFFFFFFFFFFFFFFFFFFFFF AND DUP2 JUMP JUMPDEST PUSH1 0x1 PUSH1 0x20 MSTORE DUP2 PUSH1 0x0 MSTORE PUSH1 0x40 PUSH1 0x0 KECCAK256 DUP2 DUP2 SLOAD DUP2 LT PUSH3 0x194 JUMPI PUSH1 0x0 DUP1 REVERT JUMPDEST SWAP1 PUSH1 0x0 MSTORE PUSH1 0x20 PUSH1 0x0 KECCAK256 ADD PUSH1 0x0 SWAP2 POP SWAP2 POP SWAP1 SLOAD SWAP1 PUSH2 0x100 EXP SWAP1 DIV PUSH20 0xFFFFFFFFFFFFFFFFFFFFFFFFFFFFFFFFFFFFFFFF AND DUP2 JUMP JUMPDEST PUSH1 0x0 DUP1 DUP4 CALLER DUP5 PUSH1 0x40 MLOAD PUSH3 0x1DA SWAP1 PUSH3 0x409 JUMP JUMPDEST PUSH3 0x1E8 SWAP4 SWAP3 SWAP2 SWAP1 PUSH3 0x8C8 JUMP JUMPDEST PUSH1 0x40 MLOAD DUP1 SWAP2 SUB SWAP1 PUSH1 0x0 CREATE DUP1 ISZERO DUP1 ISZERO PUSH3 0x205 JUMPI RETURNDATASIZE PUSH1 0x0 DUP1 RETURNDATACOPY RETURNDATASIZE PUSH1 0x0 REVERT JUMPDEST POP SWAP1 POP PUSH1 0x0 DUP2 SWAP1 DUP1 PUSH1 0x1 DUP2 SLOAD ADD DUP1 DUP3 SSTORE DUP1 SWAP2 POP POP PUSH1 0x1 SWAP1 SUB SWAP1 PUSH1 0x0 MSTORE PUSH1 0x20 PUSH1 0x0 KECCAK256 ADD PUSH1 0x0 SWAP1 SWAP2 SWAP1 SWAP2 SWAP1 SWAP2 PUSH2 0x100 EXP DUP2 SLOAD DUP2 PUSH20 0xFFFFFFFFFFFFFFFFFFFFFFFFFFFFFFFFFFFFFFFF MUL NOT AND SWAP1 DUP4 PUSH20 0xFFFFFFFFFFFFFFFFFFFFFFFFFFFFFFFFFFFFFFFF AND MUL OR SWAP1 SSTORE POP PUSH3 0x277 DUP2 CALLER PUSH3 0x28D JUMP JUMPDEST DUP1 SWAP2 POP POP SWAP3 SWAP2 POP POP JUMP JUMPDEST PUSH1 0x0 DUP1 DUP1 SLOAD SWAP1 POP SWAP1 POP SWAP1 JUMP JUMPDEST PUSH1 0x0 PUSH1 0x1 PUSH1 0x0 DUP4 PUSH20 0xFFFFFFFFFFFFFFFFFFFFFFFFFFFFFFFFFFFFFFFF AND PUSH20 0xFFFFFFFFFFFFFFFFFFFFFFFFFFFFFFFFFFFFFFFF AND DUP2 MSTORE PUSH1 0x20 ADD SWAP1 DUP2 MSTORE PUSH1 0x20 ADD PUSH1 0x0 KECCAK256 DUP1 SLOAD SWAP1 POP GT ISZERO PUSH3 0x37A JUMPI PUSH1 0x1 PUSH1 0x0 DUP3 PUSH20 0xFFFFFFFFFFFFFFFFFFFFFFFFFFFFFFFFFFFFFFFF AND PUSH20 0xFFFFFFFFFFFFFFFFFFFFFFFFFFFFFFFFFFFFFFFF AND DUP2 MSTORE PUSH1 0x20 ADD SWAP1 DUP2 MSTORE PUSH1 0x20 ADD PUSH1 0x0 KECCAK256 DUP3 SWAP1 DUP1 PUSH1 0x1 DUP2 SLOAD ADD DUP1 DUP3 SSTORE DUP1 SWAP2 POP POP PUSH1 0x1 SWAP1 SUB SWAP1 PUSH1 0x0 MSTORE PUSH1 0x20 PUSH1 0x0 KECCAK256 ADD PUSH1 0x0 SWAP1 SWAP2 SWAP1 SWAP2 SWAP1 SWAP2 PUSH2 0x100 EXP DUP2 SLOAD DUP2 PUSH20 0xFFFFFFFFFFFFFFFFFFFFFFFFFFFFFFFFFFFFFFFF MUL NOT AND SWAP1 DUP4 PUSH20 0xFFFFFFFFFFFFFFFFFFFFFFFFFFFFFFFFFFFFFFFF AND MUL OR SWAP1 SSTORE POP JUMPDEST PUSH1 0x40 MLOAD DUP1 PUSH1 0x20 ADD PUSH1 0x40 MSTORE DUP1 DUP4 PUSH20 0xFFFFFFFFFFFFFFFFFFFFFFFFFFFFFFFFFFFFFFFF AND PUSH20 0xFFFFFFFFFFFFFFFFFFFFFFFFFFFFFFFFFFFFFFFF AND DUP2 MSTORE POP PUSH1 0x1 PUSH1 0x0 DUP4 PUSH20 0xFFFFFFFFFFFFFFFFFFFFFFFFFFFFFFFFFFFFFFFF AND PUSH20 0xFFFFFFFFFFFFFFFFFFFFFFFFFFFFFFFFFFFFFFFF AND DUP2 MSTORE PUSH1 0x20 ADD SWAP1 DUP2 MSTORE PUSH1 0x20 ADD PUSH1 0x0 KECCAK256 SWAP1 PUSH1 0x1 PUSH3 0x404 SWAP3 SWAP2 SWAP1 PUSH3 0x417 JUMP JUMPDEST POP POP POP JUMP JUMPDEST PUSH2 0x9D8 DUP1 PUSH3 0x914 DUP4 CODECOPY ADD SWAP1 JUMP JUMPDEST DUP3 DUP1 SLOAD DUP3 DUP3 SSTORE SWAP1 PUSH1 0x0 MSTORE PUSH1 0x20 PUSH1 0x0 KECCAK256 SWAP1 DUP2 ADD SWAP3 DUP3 ISZERO PUSH3 0x493 JUMPI SWAP2 PUSH1 0x20 MUL DUP3 ADD JUMPDEST DUP3 DUP2 GT ISZERO PUSH3 0x492 JUMPI DUP3 MLOAD DUP3 PUSH1 0x0 PUSH2 0x100 EXP DUP2 SLOAD DUP2 PUSH20 0xFFFFFFFFFFFFFFFFFFFFFFFFFFFFFFFFFFFFFFFF MUL NOT AND SWAP1 DUP4 PUSH20 0xFFFFFFFFFFFFFFFFFFFFFFFFFFFFFFFFFFFFFFFF AND MUL OR SWAP1 SSTORE POP SWAP2 PUSH1 0x20 ADD SWAP2 SWAP1 PUSH1 0x1 ADD SWAP1 PUSH3 0x438 JUMP JUMPDEST JUMPDEST POP SWAP1 POP PUSH3 0x4A2 SWAP2 SWAP1 PUSH3 0x4A6 JUMP JUMPDEST POP SWAP1 JUMP JUMPDEST JUMPDEST DUP1 DUP3 GT ISZERO PUSH3 0x4C1 JUMPI PUSH1 0x0 DUP2 PUSH1 0x0 SWAP1 SSTORE POP PUSH1 0x1 ADD PUSH3 0x4A7 JUMP JUMPDEST POP SWAP1 JUMP JUMPDEST PUSH1 0x0 PUSH1 0x40 MLOAD SWAP1 POP SWAP1 JUMP JUMPDEST PUSH1 0x0 DUP1 REVERT JUMPDEST PUSH1 0x0 DUP1 REVERT JUMPDEST PUSH1 0x0 DUP2 SWAP1 POP SWAP2 SWAP1 POP JUMP JUMPDEST PUSH3 0x4EE DUP2 PUSH3 0x4D9 JUMP JUMPDEST DUP2 EQ PUSH3 0x4FA JUMPI PUSH1 0x0 DUP1 REVERT JUMPDEST POP JUMP JUMPDEST PUSH1 0x0 DUP2 CALLDATALOAD SWAP1 POP PUSH3 0x50E DUP2 PUSH3 0x4E3 JUMP JUMPDEST SWAP3 SWAP2 POP POP JUMP JUMPDEST PUSH1 0x0 PUSH1 0x20 DUP3 DUP5 SUB SLT ISZERO PUSH3 0x52D JUMPI PUSH3 0x52C PUSH3 0x4CF JUMP JUMPDEST JUMPDEST PUSH1 0x0 PUSH3 0x53D DUP5 DUP3 DUP6 ADD PUSH3 0x4FD JUMP JUMPDEST SWAP2 POP POP SWAP3 SWAP2 POP POP JUMP JUMPDEST PUSH1 0x0 PUSH20 0xFFFFFFFFFFFFFFFFFFFFFFFFFFFFFFFFFFFFFFFF DUP3 AND SWAP1 POP SWAP2 SWAP1 POP JUMP JUMPDEST PUSH1 0x0 PUSH3 0x573 DUP3 PUSH3 0x546 JUMP JUMPDEST SWAP1 POP SWAP2 SWAP1 POP JUMP JUMPDEST PUSH3 0x585 DUP2 PUSH3 0x566 JUMP JUMPDEST DUP3 MSTORE POP POP JUMP JUMPDEST PUSH1 0x0 PUSH1 0x20 DUP3 ADD SWAP1 POP PUSH3 0x5A2 PUSH1 0x0 DUP4 ADD DUP5 PUSH3 0x57A JUMP JUMPDEST SWAP3 SWAP2 POP POP JUMP JUMPDEST PUSH3 0x5B3 DUP2 PUSH3 0x566 JUMP JUMPDEST DUP2 EQ PUSH3 0x5BF JUMPI PUSH1 0x0 DUP1 REVERT JUMPDEST POP JUMP JUMPDEST PUSH1 0x0 DUP2 CALLDATALOAD SWAP1 POP PUSH3 0x5D3 DUP2 PUSH3 0x5A8 JUMP JUMPDEST SWAP3 SWAP2 POP POP JUMP JUMPDEST PUSH1 0x0 DUP1 PUSH1 0x40 DUP4 DUP6 SUB SLT ISZERO PUSH3 0x5F3 JUMPI PUSH3 0x5F2 PUSH3 0x4CF JUMP JUMPDEST JUMPDEST PUSH1 0x0 PUSH3 0x603 DUP6 DUP3 DUP7 ADD PUSH3 0x5C2 JUMP JUMPDEST SWAP3 POP POP PUSH1 0x20 PUSH3 0x616 DUP6 DUP3 DUP7 ADD PUSH3 0x4FD JUMP JUMPDEST SWAP2 POP POP SWAP3 POP SWAP3 SWAP1 POP JUMP JUMPDEST PUSH1 0x0 DUP1 REVERT JUMPDEST PUSH1 0x0 DUP1 REVERT JUMPDEST PUSH1 0x0 PUSH1 0x1F NOT PUSH1 0x1F DUP4 ADD AND SWAP1 POP SWAP2 SWAP1 POP JUMP JUMPDEST PUSH32 0x4E487B7100000000000000000000000000000000000000000000000000000000 PUSH1 0x0 MSTORE PUSH1 0x41 PUSH1 0x4 MSTORE PUSH1 0x24 PUSH1 0x0 REVERT JUMPDEST PUSH3 0x675 DUP3 PUSH3 0x62A JUMP JUMPDEST DUP2 ADD DUP2 DUP2 LT PUSH8 0xFFFFFFFFFFFFFFFF DUP3 GT OR ISZERO PUSH3 0x697 JUMPI PUSH3 0x696 PUSH3 0x63B JUMP JUMPDEST JUMPDEST DUP1 PUSH1 0x40 MSTORE POP POP POP JUMP JUMPDEST PUSH1 0x0 PUSH3 0x6AC PUSH3 0x4C5 JUMP JUMPDEST SWAP1 POP PUSH3 0x6BA DUP3 DUP3 PUSH3 0x66A JUMP JUMPDEST SWAP2 SWAP1 POP JUMP JUMPDEST PUSH1 0x0 PUSH8 0xFFFFFFFFFFFFFFFF DUP3 GT ISZERO PUSH3 0x6DD JUMPI PUSH3 0x6DC PUSH3 0x63B JUMP JUMPDEST JUMPDEST PUSH3 0x6E8 DUP3 PUSH3 0x62A JUMP JUMPDEST SWAP1 POP PUSH1 0x20 DUP2 ADD SWAP1 POP SWAP2 SWAP1 POP JUMP JUMPDEST DUP3 DUP2 DUP4 CALLDATACOPY PUSH1 0x0 DUP4 DUP4 ADD MSTORE POP POP POP JUMP JUMPDEST PUSH1 0x0 PUSH3 0x71B PUSH3 0x715 DUP5 PUSH3 0x6BF JUMP JUMPDEST PUSH3 0x6A0 JUMP JUMPDEST SWAP1 POP DUP3 DUP2 MSTORE PUSH1 0x20 DUP2 ADD DUP5 DUP5 DUP5 ADD GT ISZERO PUSH3 0x73A JUMPI PUSH3 0x739 PUSH3 0x625 JUMP JUMPDEST JUMPDEST PUSH3 0x747 DUP5 DUP3 DUP6 PUSH3 0x6F5 JUMP JUMPDEST POP SWAP4 SWAP3 POP POP POP JUMP JUMPDEST PUSH1 0x0 DUP3 PUSH1 0x1F DUP4 ADD SLT PUSH3 0x767 JUMPI PUSH3 0x766 PUSH3 0x620 JUMP JUMPDEST JUMPDEST DUP2 CALLDATALOAD PUSH3 0x779 DUP5 DUP3 PUSH1 0x20 DUP7 ADD PUSH3 0x704 JUMP JUMPDEST SWAP2 POP POP SWAP3 SWAP2 POP POP JUMP JUMPDEST PUSH1 0x0 DUP1 PUSH1 0x40 DUP4 DUP6 SUB SLT ISZERO PUSH3 0x79C JUMPI PUSH3 0x79B PUSH3 0x4CF JUMP JUMPDEST JUMPDEST PUSH1 0x0 DUP4 ADD CALLDATALOAD PUSH8 0xFFFFFFFFFFFFFFFF DUP2 GT ISZERO PUSH3 0x7BD JUMPI PUSH3 0x7BC PUSH3 0x4D4 JUMP JUMPDEST JUMPDEST PUSH3 0x7CB DUP6 DUP3 DUP7 ADD PUSH3 0x74F JUMP JUMPDEST SWAP3 POP POP PUSH1 0x20 DUP4 ADD CALLDATALOAD PUSH8 0xFFFFFFFFFFFFFFFF DUP2 GT ISZERO PUSH3 0x7EF JUMPI PUSH3 0x7EE PUSH3 0x4D4 JUMP JUMPDEST JUMPDEST PUSH3 0x7FD DUP6 DUP3 DUP7 ADD PUSH3 0x74F JUMP JUMPDEST SWAP2 POP POP SWAP3 POP SWAP3 SWAP1 POP JUMP JUMPDEST PUSH3 0x812 DUP2 PUSH3 0x4D9 JUMP JUMPDEST DUP3 MSTORE POP POP JUMP JUMPDEST PUSH1 0x0 PUSH1 0x20 DUP3 ADD SWAP1 POP PUSH3 0x82F PUSH1 0x0 DUP4 ADD DUP5 PUSH3 0x807 JUMP JUMPDEST SWAP3 SWAP2 POP POP JUMP JUMPDEST PUSH1 0x0 DUP2 MLOAD SWAP1 POP SWAP2 SWAP1 POP JUMP JUMPDEST PUSH1 0x0 DUP3 DUP3 MSTORE PUSH1 0x20 DUP3 ADD SWAP1 POP SWAP3 SWAP2 POP POP JUMP JUMPDEST PUSH1 0x0 JUMPDEST DUP4 DUP2 LT ISZERO PUSH3 0x871 JUMPI DUP1 DUP3 ADD MLOAD DUP2 DUP5 ADD MSTORE PUSH1 0x20 DUP2 ADD SWAP1 POP PUSH3 0x854 JUMP JUMPDEST DUP4 DUP2 GT ISZERO PUSH3 0x881 JUMPI PUSH1 0x0 DUP5 DUP5 ADD MSTORE JUMPDEST POP POP POP POP JUMP JUMPDEST PUSH1 0x0 PUSH3 0x894 DUP3 PUSH3 0x835 JUMP JUMPDEST PUSH3 0x8A0 DUP2 DUP6 PUSH3 0x840 JUMP JUMPDEST SWAP4 POP PUSH3 0x8B2 DUP2 DUP6 PUSH1 0x20 DUP7 ADD PUSH3 0x851 JUMP JUMPDEST PUSH3 0x8BD DUP2 PUSH3 0x62A JUMP JUMPDEST DUP5 ADD SWAP2 POP POP SWAP3 SWAP2 POP POP JUMP JUMPDEST PUSH1 0x0 PUSH1 0x60 DUP3 ADD SWAP1 POP DUP2 DUP2 SUB PUSH1 0x0 DUP4 ADD MSTORE PUSH3 0x8E4 DUP2 DUP7 PUSH3 0x887 JUMP JUMPDEST SWAP1 POP PUSH3 0x8F5 PUSH1 0x20 DUP4 ADD DUP6 PUSH3 0x57A JUMP JUMPDEST DUP2 DUP2 SUB PUSH1 0x40 DUP4 ADD MSTORE PUSH3 0x909 DUP2 DUP5 PUSH3 0x887 JUMP JUMPDEST SWAP1 POP SWAP5 SWAP4 POP POP POP POP JUMP INVALID PUSH1 0x80 PUSH1 0x40 MSTORE CALLVALUE DUP1 ISZERO PUSH3 0x11 JUMPI PUSH1 0x0 DUP1 REVERT JUMPDEST POP PUSH1 0x40 MLOAD PUSH3 0x9D8 CODESIZE SUB DUP1 PUSH3 0x9D8 DUP4 CODECOPY DUP2 DUP2 ADD PUSH1 0x40 MSTORE DUP2 ADD SWAP1 PUSH3 0x37 SWAP2 SWAP1 PUSH3 0x2A7 JUMP JUMPDEST DUP3 PUSH1 0x0 SWAP1 DUP2 PUSH3 0x48 SWAP2 SWAP1 PUSH3 0x58C JUMP JUMPDEST POP DUP2 PUSH1 0x1 PUSH1 0x0 PUSH2 0x100 EXP DUP2 SLOAD DUP2 PUSH20 0xFFFFFFFFFFFFFFFFFFFFFFFFFFFFFFFFFFFFFFFF MUL NOT AND SWAP1 DUP4 PUSH20 0xFFFFFFFFFFFFFFFFFFFFFFFFFFFFFFFFFFFFFFFF AND MUL OR SWAP1 SSTORE POP DUP1 PUSH1 0x2 SWAP1 DUP2 PUSH3 0x9B SWAP2 SWAP1 PUSH3 0x58C JUMP JUMPDEST POP POP POP POP PUSH3 0x673 JUMP JUMPDEST PUSH1 0x0 PUSH1 0x40 MLOAD SWAP1 POP SWAP1 JUMP JUMPDEST PUSH1 0x0 DUP1 REVERT JUMPDEST PUSH1 0x0 DUP1 REVERT JUMPDEST PUSH1 0x0 DUP1 REVERT JUMPDEST PUSH1 0x0 DUP1 REVERT JUMPDEST PUSH1 0x0 PUSH1 0x1F NOT PUSH1 0x1F DUP4 ADD AND SWAP1 POP SWAP2 SWAP1 POP JUMP JUMPDEST PUSH32 0x4E487B7100000000000000000000000000000000000000000000000000000000 PUSH1 0x0 MSTORE PUSH1 0x41 PUSH1 0x4 MSTORE PUSH1 0x24 PUSH1 0x0 REVERT JUMPDEST PUSH3 0x10E DUP3 PUSH3 0xC3 JUMP JUMPDEST DUP2 ADD DUP2 DUP2 LT PUSH8 0xFFFFFFFFFFFFFFFF DUP3 GT OR ISZERO PUSH3 0x130 JUMPI PUSH3 0x12F PUSH3 0xD4 JUMP JUMPDEST JUMPDEST DUP1 PUSH1 0x40 MSTORE POP POP POP JUMP JUMPDEST PUSH1 0x0 PUSH3 0x145 PUSH3 0xA5 JUMP JUMPDEST SWAP1 POP PUSH3 0x153 DUP3 DUP3 PUSH3 0x103 JUMP JUMPDEST SWAP2 SWAP1 POP JUMP JUMPDEST PUSH1 0x0 PUSH8 0xFFFFFFFFFFFFFFFF DUP3 GT ISZERO PUSH3 0x176 JUMPI PUSH3 0x175 PUSH3 0xD4 JUMP JUMPDEST JUMPDEST PUSH3 0x181 DUP3 PUSH3 0xC3 JUMP JUMPDEST SWAP1 POP PUSH1 0x20 DUP2 ADD SWAP1 POP SWAP2 SWAP1 POP JUMP JUMPDEST PUSH1 0x0 JUMPDEST DUP4 DUP2 LT ISZERO PUSH3 0x1AE JUMPI DUP1 DUP3 ADD MLOAD DUP2 DUP5 ADD MSTORE PUSH1 0x20 DUP2 ADD SWAP1 POP PUSH3 0x191 JUMP JUMPDEST DUP4 DUP2 GT ISZERO PUSH3 0x1BE JUMPI PUSH1 0x0 DUP5 DUP5 ADD MSTORE JUMPDEST POP POP POP POP JUMP JUMPDEST PUSH1 0x0 PUSH3 0x1DB PUSH3 0x1D5 DUP5 PUSH3 0x158 JUMP JUMPDEST PUSH3 0x139 JUMP JUMPDEST SWAP1 POP DUP3 DUP2 MSTORE PUSH1 0x20 DUP2 ADD DUP5 DUP5 DUP5 ADD GT ISZERO PUSH3 0x1FA JUMPI PUSH3 0x1F9 PUSH3 0xBE JUMP JUMPDEST JUMPDEST PUSH3 0x207 DUP5 DUP3 DUP6 PUSH3 0x18E JUMP JUMPDEST POP SWAP4 SWAP3 POP POP POP JUMP JUMPDEST PUSH1 0x0 DUP3 PUSH1 0x1F DUP4 ADD SLT PUSH3 0x227 JUMPI PUSH3 0x226 PUSH3 0xB9 JUMP JUMPDEST JUMPDEST DUP2 MLOAD PUSH3 0x239 DUP5 DUP3 PUSH1 0x20 DUP7 ADD PUSH3 0x1C4 JUMP JUMPDEST SWAP2 POP POP SWAP3 SWAP2 POP POP JUMP JUMPDEST PUSH1 0x0 PUSH20 0xFFFFFFFFFFFFFFFFFFFFFFFFFFFFFFFFFFFFFFFF DUP3 AND SWAP1 POP SWAP2 SWAP1 POP JUMP JUMPDEST PUSH1 0x0 PUSH3 0x26F DUP3 PUSH3 0x242 JUMP JUMPDEST SWAP1 POP SWAP2 SWAP1 POP JUMP JUMPDEST PUSH3 0x281 DUP2 PUSH3 0x262 JUMP JUMPDEST DUP2 EQ PUSH3 0x28D JUMPI PUSH1 0x0 DUP1 REVERT JUMPDEST POP JUMP JUMPDEST PUSH1 0x0 DUP2 MLOAD SWAP1 POP PUSH3 0x2A1 DUP2 PUSH3 0x276 JUMP JUMPDEST SWAP3 SWAP2 POP POP JUMP JUMPDEST PUSH1 0x0 DUP1 PUSH1 0x0 PUSH1 0x60 DUP5 DUP7 SUB SLT ISZERO PUSH3 0x2C3 JUMPI PUSH3 0x2C2 PUSH3 0xAF JUMP JUMPDEST JUMPDEST PUSH1 0x0 DUP5 ADD MLOAD PUSH8 0xFFFFFFFFFFFFFFFF DUP2 GT ISZERO PUSH3 0x2E4 JUMPI PUSH3 0x2E3 PUSH3 0xB4 JUMP JUMPDEST JUMPDEST PUSH3 0x2F2 DUP7 DUP3 DUP8 ADD PUSH3 0x20F JUMP JUMPDEST SWAP4 POP POP PUSH1 0x20 PUSH3 0x305 DUP7 DUP3 DUP8 ADD PUSH3 0x290 JUMP JUMPDEST SWAP3 POP POP PUSH1 0x40 DUP5 ADD MLOAD PUSH8 0xFFFFFFFFFFFFFFFF DUP2 GT ISZERO PUSH3 0x329 JUMPI PUSH3 0x328 PUSH3 0xB4 JUMP JUMPDEST JUMPDEST PUSH3 0x337 DUP7 DUP3 DUP8 ADD PUSH3 0x20F JUMP JUMPDEST SWAP2 POP POP SWAP3 POP SWAP3 POP SWAP3 JUMP JUMPDEST PUSH1 0x0 DUP2 MLOAD SWAP1 POP SWAP2 SWAP1 POP JUMP JUMPDEST PUSH32 0x4E487B7100000000000000000000000000000000000000000000000000000000 PUSH1 0x0 MSTORE PUSH1 0x22 PUSH1 0x4 MSTORE PUSH1 0x24 PUSH1 0x0 REVERT JUMPDEST PUSH1 0x0 PUSH1 0x2 DUP3 DIV SWAP1 POP PUSH1 0x1 DUP3 AND DUP1 PUSH3 0x394 JUMPI PUSH1 0x7F DUP3 AND SWAP2 POP JUMPDEST PUSH1 0x20 DUP3 LT DUP2 SUB PUSH3 0x3AA JUMPI PUSH3 0x3A9 PUSH3 0x34C JUMP JUMPDEST JUMPDEST POP SWAP2 SWAP1 POP JUMP JUMPDEST PUSH1 0x0 DUP2 SWAP1 POP DUP2 PUSH1 0x0 MSTORE PUSH1 0x20 PUSH1 0x0 KECCAK256 SWAP1 POP SWAP2 SWAP1 POP JUMP JUMPDEST PUSH1 0x0 PUSH1 0x20 PUSH1 0x1F DUP4 ADD DIV SWAP1 POP SWAP2 SWAP1 POP JUMP JUMPDEST PUSH1 0x0 DUP3 DUP3 SHL SWAP1 POP SWAP3 SWAP2 POP POP JUMP JUMPDEST PUSH1 0x0 PUSH1 0x8 DUP4 MUL PUSH3 0x414 PUSH32 0xFFFFFFFFFFFFFFFFFFFFFFFFFFFFFFFFFFFFFFFFFFFFFFFFFFFFFFFFFFFFFFFF DUP3 PUSH3 0x3D5 JUMP JUMPDEST PUSH3 0x420 DUP7 DUP4 PUSH3 0x3D5 JUMP JUMPDEST SWAP6 POP DUP1 NOT DUP5 AND SWAP4 POP DUP1 DUP7 AND DUP5 OR SWAP3 POP POP POP SWAP4 SWAP3 POP POP POP JUMP JUMPDEST PUSH1 0x0 DUP2 SWAP1 POP SWAP2 SWAP1 POP JUMP JUMPDEST PUSH1 0x0 DUP2 SWAP1 POP SWAP2 SWAP1 POP JUMP JUMPDEST PUSH1 0x0 PUSH3 0x46D PUSH3 0x467 PUSH3 0x461 DUP5 PUSH3 0x438 JUMP JUMPDEST PUSH3 0x442 JUMP JUMPDEST PUSH3 0x438 JUMP JUMPDEST SWAP1 POP SWAP2 SWAP1 POP JUMP JUMPDEST PUSH1 0x0 DUP2 SWAP1 POP SWAP2 SWAP1 POP JUMP JUMPDEST PUSH3 0x489 DUP4 PUSH3 0x44C JUMP JUMPDEST PUSH3 0x4A1 PUSH3 0x498 DUP3 PUSH3 0x474 JUMP JUMPDEST DUP5 DUP5 SLOAD PUSH3 0x3E2 JUMP JUMPDEST DUP3 SSTORE POP POP POP POP JUMP JUMPDEST PUSH1 0x0 SWAP1 JUMP JUMPDEST PUSH3 0x4B8 PUSH3 0x4A9 JUMP JUMPDEST PUSH3 0x4C5 DUP2 DUP5 DUP5 PUSH3 0x47E JUMP JUMPDEST POP POP POP JUMP JUMPDEST JUMPDEST DUP2 DUP2 LT ISZERO PUSH3 0x4ED JUMPI PUSH3 0x4E1 PUSH1 0x0 DUP3 PUSH3 0x4AE JUMP JUMPDEST PUSH1 0x1 DUP2 ADD SWAP1 POP PUSH3 0x4CB JUMP JUMPDEST POP POP JUMP JUMPDEST PUSH1 0x1F DUP3 GT ISZERO PUSH3 0x53C JUMPI PUSH3 0x506 DUP2 PUSH3 0x3B0 JUMP JUMPDEST PUSH3 0x511 DUP5 PUSH3 0x3C5 JUMP JUMPDEST DUP2 ADD PUSH1 0x20 DUP6 LT ISZERO PUSH3 0x521 JUMPI DUP2 SWAP1 POP JUMPDEST PUSH3 0x539 PUSH3 0x530 DUP6 PUSH3 0x3C5 JUMP JUMPDEST DUP4 ADD DUP3 PUSH3 0x4CA JUMP JUMPDEST POP POP JUMPDEST POP POP POP JUMP JUMPDEST PUSH1 0x0 DUP3 DUP3 SHR SWAP1 POP SWAP3 SWAP2 POP POP JUMP JUMPDEST PUSH1 0x0 PUSH3 0x561 PUSH1 0x0 NOT DUP5 PUSH1 0x8 MUL PUSH3 0x541 JUMP JUMPDEST NOT DUP1 DUP4 AND SWAP2 POP POP SWAP3 SWAP2 POP POP JUMP JUMPDEST PUSH1 0x0 PUSH3 0x57C DUP4 DUP4 PUSH3 0x54E JUMP JUMPDEST SWAP2 POP DUP3 PUSH1 0x2 MUL DUP3 OR SWAP1 POP SWAP3 SWAP2 POP POP JUMP JUMPDEST PUSH3 0x597 DUP3 PUSH3 0x341 JUMP JUMPDEST PUSH8 0xFFFFFFFFFFFFFFFF DUP2 GT ISZERO PUSH3 0x5B3 JUMPI PUSH3 0x5B2 PUSH3 0xD4 JUMP JUMPDEST JUMPDEST PUSH3 0x5BF DUP3 SLOAD PUSH3 0x37B JUMP JUMPDEST PUSH3 0x5CC DUP3 DUP3 DUP6 PUSH3 0x4F1 JUMP JUMPDEST PUSH1 0x0 PUSH1 0x20 SWAP1 POP PUSH1 0x1F DUP4 GT PUSH1 0x1 DUP2 EQ PUSH3 0x604 JUMPI PUSH1 0x0 DUP5 ISZERO PUSH3 0x5EF JUMPI DUP3 DUP8 ADD MLOAD SWAP1 POP JUMPDEST PUSH3 0x5FB DUP6 DUP3 PUSH3 0x56E JUMP JUMPDEST DUP7 SSTORE POP PUSH3 0x66B JUMP JUMPDEST PUSH1 0x1F NOT DUP5 AND PUSH3 0x614 DUP7 PUSH3 0x3B0 JUMP JUMPDEST PUSH1 0x0 JUMPDEST DUP3 DUP2 LT ISZERO PUSH3 0x63E JUMPI DUP5 DUP10 ADD MLOAD DUP3 SSTORE PUSH1 0x1 DUP3 ADD SWAP2 POP PUSH1 0x20 DUP6 ADD SWAP5 POP PUSH1 0x20 DUP2 ADD SWAP1 POP PUSH3 0x617 JUMP JUMPDEST DUP7 DUP4 LT ISZERO PUSH3 0x65E JUMPI DUP5 DUP10 ADD MLOAD PUSH3 0x65A PUSH1 0x1F DUP10 AND DUP3 PUSH3 0x54E JUMP JUMPDEST DUP4 SSTORE POP JUMPDEST PUSH1 0x1 PUSH1 0x2 DUP9 MUL ADD DUP9 SSTORE POP POP POP JUMPDEST POP POP POP POP POP POP JUMP JUMPDEST PUSH2 0x355 DUP1 PUSH3 0x683 PUSH1 0x0 CODECOPY PUSH1 0x0 RETURN INVALID PUSH1 0x80 PUSH1 0x40 MSTORE CALLVALUE DUP1 ISZERO PUSH2 0x10 JUMPI PUSH1 0x0 DUP1 REVERT JUMPDEST POP PUSH1 0x4 CALLDATASIZE LT PUSH2 0x2B JUMPI PUSH1 0x0 CALLDATALOAD PUSH1 0xE0 SHR DUP1 PUSH4 0x7CA5685F EQ PUSH2 0x30 JUMPI JUMPDEST PUSH1 0x0 DUP1 REVERT JUMPDEST PUSH2 0x38 PUSH2 0x50 JUMP JUMPDEST PUSH1 0x40 MLOAD PUSH2 0x47 SWAP4 SWAP3 SWAP2 SWAP1 PUSH2 0x27A JUMP JUMPDEST PUSH1 0x40 MLOAD DUP1 SWAP2 SUB SWAP1 RETURN JUMPDEST PUSH1 0x60 PUSH1 0x0 PUSH1 0x60 PUSH1 0x0 PUSH1 0x1 PUSH1 0x0 SWAP1 SLOAD SWAP1 PUSH2 0x100 EXP SWAP1 DIV PUSH20 0xFFFFFFFFFFFFFFFFFFFFFFFFFFFFFFFFFFFFFFFF AND PUSH1 0x2 DUP3 DUP1 SLOAD PUSH2 0x89 SWAP1 PUSH2 0x2EE JUMP JUMPDEST DUP1 PUSH1 0x1F ADD PUSH1 0x20 DUP1 SWAP2 DIV MUL PUSH1 0x20 ADD PUSH1 0x40 MLOAD SWAP1 DUP2 ADD PUSH1 0x40 MSTORE DUP1 SWAP3 SWAP2 SWAP1 DUP2 DUP2 MSTORE PUSH1 0x20 ADD DUP3 DUP1 SLOAD PUSH2 0xB5 SWAP1 PUSH2 0x2EE JUMP JUMPDEST DUP1 ISZERO PUSH2 0x102 JUMPI DUP1 PUSH1 0x1F LT PUSH2 0xD7 JUMPI PUSH2 0x100 DUP1 DUP4 SLOAD DIV MUL DUP4 MSTORE SWAP2 PUSH1 0x20 ADD SWAP2 PUSH2 0x102 JUMP JUMPDEST DUP3 ADD SWAP2 SWAP1 PUSH1 0x0 MSTORE PUSH1 0x20 PUSH1 0x0 KECCAK256 SWAP1 JUMPDEST DUP2 SLOAD DUP2 MSTORE SWAP1 PUSH1 0x1 ADD SWAP1 PUSH1 0x20 ADD DUP1 DUP4 GT PUSH2 0xE5 JUMPI DUP3 SWAP1 SUB PUSH1 0x1F AND DUP3 ADD SWAP2 JUMPDEST POP POP POP POP POP SWAP3 POP DUP1 DUP1 SLOAD PUSH2 0x115 SWAP1 PUSH2 0x2EE JUMP JUMPDEST DUP1 PUSH1 0x1F ADD PUSH1 0x20 DUP1 SWAP2 DIV MUL PUSH1 0x20 ADD PUSH1 0x40 MLOAD SWAP1 DUP2 ADD PUSH1 0x40 MSTORE DUP1 SWAP3 SWAP2 SWAP1 DUP2 DUP2 MSTORE PUSH1 0x20 ADD DUP3 DUP1 SLOAD PUSH2 0x141 SWAP1 PUSH2 0x2EE JUMP JUMPDEST DUP1 ISZERO PUSH2 0x18E JUMPI DUP1 PUSH1 0x1F LT PUSH2 0x163 JUMPI PUSH2 0x100 DUP1 DUP4 SLOAD DIV MUL DUP4 MSTORE SWAP2 PUSH1 0x20 ADD SWAP2 PUSH2 0x18E JUMP JUMPDEST DUP3 ADD SWAP2 SWAP1 PUSH1 0x0 MSTORE PUSH1 0x20 PUSH1 0x0 KECCAK256 SWAP1 JUMPDEST DUP2 SLOAD DUP2 MSTORE SWAP1 PUSH1 0x1 ADD SWAP1 PUSH1 0x20 ADD DUP1 DUP4 GT PUSH2 0x171 JUMPI DUP3 SWAP1 SUB PUSH1 0x1F AND DUP3 ADD SWAP2 JUMPDEST POP POP POP POP POP SWAP1 POP SWAP3 POP SWAP3 POP SWAP3 POP SWAP1 SWAP2 SWAP3 JUMP JUMPDEST PUSH1 0x0 DUP2 MLOAD SWAP1 POP SWAP2 SWAP1 POP JUMP JUMPDEST PUSH1 0x0 DUP3 DUP3 MSTORE PUSH1 0x20 DUP3 ADD SWAP1 POP SWAP3 SWAP2 POP POP JUMP JUMPDEST PUSH1 0x0 JUMPDEST DUP4 DUP2 LT ISZERO PUSH2 0x1DA JUMPI DUP1 DUP3 ADD MLOAD DUP2 DUP5 ADD MSTORE PUSH1 0x20 DUP2 ADD SWAP1 POP PUSH2 0x1BF JUMP JUMPDEST DUP4 DUP2 GT ISZERO PUSH2 0x1E9 JUMPI PUSH1 0x0 DUP5 DUP5 ADD MSTORE JUMPDEST POP POP POP POP JUMP JUMPDEST PUSH1 0x0 PUSH1 0x1F NOT PUSH1 0x1F DUP4 ADD AND SWAP1 POP SWAP2 SWAP1 POP JUMP JUMPDEST PUSH1 0x0 PUSH2 0x20B DUP3 PUSH2 0x1A0 JUMP JUMPDEST PUSH2 0x215 DUP2 DUP6 PUSH2 0x1AB JUMP JUMPDEST SWAP4 POP PUSH2 0x225 DUP2 DUP6 PUSH1 0x20 DUP7 ADD PUSH2 0x1BC JUMP JUMPDEST PUSH2 0x22E DUP2 PUSH2 0x1EF JUMP JUMPDEST DUP5 ADD SWAP2 POP POP SWAP3 SWAP2 POP POP JUMP JUMPDEST PUSH1 0x0 PUSH20 0xFFFFFFFFFFFFFFFFFFFFFFFFFFFFFFFFFFFFFFFF DUP3 AND SWAP1 POP SWAP2 SWAP1 POP JUMP JUMPDEST PUSH1 0x0 PUSH2 0x264 DUP3 PUSH2 0x239 JUMP JUMPDEST SWAP1 POP SWAP2 SWAP1 POP JUMP JUMPDEST PUSH2 0x274 DUP2 PUSH2 0x259 JUMP JUMPDEST DUP3 MSTORE POP POP JUMP JUMPDEST PUSH1 0x0 PUSH1 0x60 DUP3 ADD SWAP1 POP DUP2 DUP2 SUB PUSH1 0x0 DUP4 ADD MSTORE PUSH2 0x294 DUP2 DUP7 PUSH2 0x200 JUMP JUMPDEST SWAP1 POP PUSH2 0x2A3 PUSH1 0x20 DUP4 ADD DUP6 PUSH2 0x26B JUMP JUMPDEST DUP2 DUP2 SUB PUSH1 0x40 DUP4 ADD MSTORE PUSH2 0x2B5 DUP2 DUP5 PUSH2 0x200 JUMP JUMPDEST SWAP1 POP SWAP5 SWAP4 POP POP POP POP JUMP JUMPDEST PUSH32 0x4E487B7100000000000000000000000000000000000000000000000000000000 PUSH1 0x0 MSTORE PUSH1 0x22 PUSH1 0x4 MSTORE PUSH1 0x24 PUSH1 0x0 REVERT JUMPDEST PUSH1 0x0 PUSH1 0x2 DUP3 DIV SWAP1 POP PUSH1 0x1 DUP3 AND DUP1 PUSH2 0x306 JUMPI PUSH1 0x7F DUP3 AND SWAP2 POP JUMPDEST PUSH1 0x20 DUP3 LT DUP2 SUB PUSH2 0x319 JUMPI PUSH2 0x318 PUSH2 0x2BF JUMP JUMPDEST JUMPDEST POP SWAP2 SWAP1 POP JUMP INVALID LOG2 PUSH5 0x6970667358 0x22 SLT KECCAK256 0xC3 PUSH30 0xCD9E6139B5E2A463B8FF0C4655EDF7DF6A7F914432D6B99024ECD69AF338 PUSH5 0x736F6C6343 STOP ADDMOD 0xF STOP CALLER LOG2 PUSH5 0x6970667358 0x22 SLT KECCAK256 0xA6 DUP13 DUP13 PUSH1 0x5 0x4D NUMBER 0x4A 0xFB SLOAD RETURNDATACOPY 0xE5 MOD 0x4E SIGNEXTEND 0xBA PUSH1 0xA3 0xDE SHR 0xD0 STATICCALL 0xE1 DUP3 0x2B 0xB6 0xB9 0x26 0xA6 NUMBER SGT 0xCA PUSH5 0x736F6C6343 STOP ADDMOD 0xF STOP CALLER "},"gasEstimates":{"creation":{"codeDepositCost":"979400","executionCost":"1021","totalCost":"980421"},"external":{"getNumberOfNfts()":"2489","mint(string,string)":"infinite","nftList(uint256)":"4934","ownerMap(address,uint256)":"infinite"},"internal":{"addNftToOwner(address,address)":"infinite","getOwnedNft(address,uint256)":"infinite"}},"methodIdentifiers":{"getNumberOfNfts()":"fd296bce","mint(string,string)":"8aa0fdad","nftList(uint256)":"75bea166","ownerMap(address,uint256)":"7bc97efb"}},"storageLayout":{"storage":[{"astId":4,"contract":"Market.sol:Market","label":"nftList","offset":0,"slot":"0","type":"t_array(t_address)dyn_storage"},{"astId":9,"contract":"Market.sol:Market","label":"ownerMap","offset":0,"slot":"1","type":"t_mapping(t_address,t_array(t_address)dyn_storage)"}],"types":{"t_address":{"encoding":"inplace","label":"address","numberOfBytes":"20"},"t_array(t_address)dyn_storage":{"base":"t_address","encoding":"dynamic_array","label":"address[]","numberOfBytes":"32"},"t_mapping(t_address,t_array(t_address)dyn_storage)":{"encoding":"mapping","key":"t_address","label":"mapping(address => address[])","numberOfBytes":"32","value":"t_array(t_address)dyn_storage"}}},"userdoc":{"kind":"user","methods":{},"version":1}}