{"abi":[{"inputs":[],"name":"getNumberOfListedNfts","outputs":[{"internalType":"uint256","name":"","type":"uint256"}],"stateMutability":"view","type":"function"},{"inputs":[],"name":"getNumberOfNfts","outputs":[{"internalType":"uint256","name":"","type":"uint256"}],"stateMutability":"view","type":"function"},{"inputs":[{"internalType":"address","name":"owner","type":"address"}],"name":"getNumberOfOwnedNfts","outputs":[{"internalType":"uint256","name":"","type":"uint256"}],"stateMutability":"view","type":"function"},{"inputs":[{"internalType":"address","name":"owner","type":"address"},{"internalType":"uint256","name":"index","type":"uint256"}],"name":"getOwnedNft","outputs":[{"internalType":"address","name":"","type":"address"}],"stateMutability":"view","type":"function"},{"inputs":[{"internalType":"address","name":"nftAddress","type":"address"},{"internalType":"uint256","name":"index","type":"uint256"},{"internalType":"uint256","name":"value","type":"uint256"}],"name":"listNftForSale","outputs":[],"stateMutability":"nonpayable","type":"function"},{"inputs":[{"internalType":"uint256","name":"","type":"uint256"}],"name":"listings","outputs":[{"internalType":"uint256","name":"index","type":"uint256"},{"internalType":"uint256","name":"price","type":"uint256"}],"stateMutability":"view","type":"function"},{"inputs":[{"internalType":"string","name":"name","type":"string"},{"internalType":"string","name":"imgHash","type":"string"}],"name":"mint","outputs":[{"internalType":"address","name":"","type":"address"}],"stateMutability":"nonpayable","type":"function"},{"inputs":[{"internalType":"uint256","name":"","type":"uint256"}],"name":"nftList","outputs":[{"internalType":"address","name":"","type":"address"}],"stateMutability":"view","type":"function"},{"inputs":[{"internalType":"address","name":"","type":"address"},{"internalType":"uint256","name":"","type":"uint256"}],"name":"ownerMap","outputs":[{"internalType":"address","name":"","type":"address"}],"stateMutability":"view","type":"function"},{"inputs":[{"internalType":"address","name":"","type":"address"}],"name":"userNftStorageInfoMap","outputs":[{"internalType":"uint256","name":"nextLoc","type":"uint256"},{"internalType":"uint256","name":"numOwnedNfts","type":"uint256"}],"stateMutability":"view","type":"function"}],"devdoc":{"kind":"dev","methods":{},"version":1},"evm":{"assembly":"    /* \"Market.sol\":33:3358  contract Market {... */\n  mstore(0x40, 0x80)\n    /* \"Market.sol\":315:316  0 */\n  0x00\n    /* \"Market.sol\":295:316  uint nextNftIndex = 0 */\n  0x02\n  sstore\n    /* \"Market.sol\":33:3358  contract Market {... */\n  callvalue\n  dup1\n  iszero\n  tag_1\n  jumpi\n  0x00\n  dup1\n  revert\ntag_1:\n  pop\n  dataSize(sub_0)\n  dup1\n  dataOffset(sub_0)\n  0x00\n  codecopy\n  0x00\n  return\nstop\n\nsub_0: assembly {\n        /* \"Market.sol\":33:3358  contract Market {... */\n      mstore(0x40, 0x80)\n      callvalue\n      dup1\n      iszero\n      tag_1\n      jumpi\n      0x00\n      dup1\n      revert\n    tag_1:\n      pop\n      jumpi(tag_2, lt(calldatasize, 0x04))\n      shr(0xe0, calldataload(0x00))\n      dup1\n      0x9975905e\n      gt\n      tag_13\n      jumpi\n      dup1\n      0x9975905e\n      eq\n      tag_8\n      jumpi\n      dup1\n      0xb9f21e40\n      eq\n      tag_9\n      jumpi\n      dup1\n      0xd0e8b35f\n      eq\n      tag_10\n      jumpi\n      dup1\n      0xde74e57b\n      eq\n      tag_11\n      jumpi\n      dup1\n      0xfd296bce\n      eq\n      tag_12\n      jumpi\n      jump(tag_2)\n    tag_13:\n      dup1\n      0x7bb2ef\n      eq\n      tag_3\n      jumpi\n      dup1\n      0x4bb94baf\n      eq\n      tag_4\n      jumpi\n      dup1\n      0x75bea166\n      eq\n      tag_5\n      jumpi\n      dup1\n      0x7bc97efb\n      eq\n      tag_6\n      jumpi\n      dup1\n      0x8aa0fdad\n      eq\n      tag_7\n      jumpi\n    tag_2:\n      0x00\n      dup1\n      revert\n        /* \"Market.sol\":3256:3355  function getNumberOfListedNfts() public view returns (uint) {... */\n    tag_3:\n      tag_14\n      tag_15\n      jump\t// in\n    tag_14:\n      mload(0x40)\n      tag_16\n      swap2\n      swap1\n      tag_17\n      jump\t// in\n    tag_16:\n      mload(0x40)\n      dup1\n      swap2\n      sub\n      swap1\n      return\n        /* \"Market.sol\":2755:2891  function getNumberOfOwnedNfts(address owner) public view returns(uint) {... */\n    tag_4:\n      tag_18\n      0x04\n      dup1\n      calldatasize\n      sub\n      dup2\n      add\n      swap1\n      tag_19\n      swap2\n      swap1\n      tag_20\n      jump\t// in\n    tag_19:\n      tag_21\n      jump\t// in\n    tag_18:\n      mload(0x40)\n      tag_22\n      swap2\n      swap1\n      tag_17\n      jump\t// in\n    tag_22:\n      mload(0x40)\n      dup1\n      swap2\n      sub\n      swap1\n      return\n        /* \"Market.sol\":212:237  address [] public nftList */\n    tag_5:\n      tag_23\n      0x04\n      dup1\n      calldatasize\n      sub\n      dup2\n      add\n      swap1\n      tag_24\n      swap2\n      swap1\n      tag_25\n      jump\t// in\n    tag_24:\n      tag_26\n      jump\t// in\n    tag_23:\n      mload(0x40)\n      tag_27\n      swap2\n      swap1\n      tag_28\n      jump\t// in\n    tag_27:\n      mload(0x40)\n      dup1\n      swap2\n      sub\n      swap1\n      return\n        /* \"Market.sol\":243:289  mapping(address => address []) public ownerMap */\n    tag_6:\n      tag_29\n      0x04\n      dup1\n      calldatasize\n      sub\n      dup2\n      add\n      swap1\n      tag_30\n      swap2\n      swap1\n      tag_31\n      jump\t// in\n    tag_30:\n      tag_32\n      jump\t// in\n    tag_29:\n      mload(0x40)\n      tag_33\n      swap2\n      swap1\n      tag_28\n      jump\t// in\n    tag_33:\n      mload(0x40)\n      dup1\n      swap2\n      sub\n      swap1\n      return\n        /* \"Market.sol\":428:734  function mint(string memory name, string memory imgHash) public returns(address){... */\n    tag_7:\n      tag_34\n      0x04\n      dup1\n      calldatasize\n      sub\n      dup2\n      add\n      swap1\n      tag_35\n      swap2\n      swap1\n      tag_36\n      jump\t// in\n    tag_35:\n      tag_37\n      jump\t// in\n    tag_34:\n      mload(0x40)\n      tag_38\n      swap2\n      swap1\n      tag_28\n      jump\t// in\n    tag_38:\n      mload(0x40)\n      dup1\n      swap2\n      sub\n      swap1\n      return\n        /* \"Market.sol\":2504:2749  function getOwnedNft(address owner, uint index) public view returns (address){... */\n    tag_8:\n      tag_39\n      0x04\n      dup1\n      calldatasize\n      sub\n      dup2\n      add\n      swap1\n      tag_40\n      swap2\n      swap1\n      tag_31\n      jump\t// in\n    tag_40:\n      tag_41\n      jump\t// in\n    tag_39:\n      mload(0x40)\n      tag_42\n      swap2\n      swap1\n      tag_28\n      jump\t// in\n    tag_42:\n      mload(0x40)\n      dup1\n      swap2\n      sub\n      swap1\n      return\n        /* \"Market.sol\":354:421  mapping(address => userNftStorageInfo) public userNftStorageInfoMap */\n    tag_9:\n      tag_43\n      0x04\n      dup1\n      calldatasize\n      sub\n      dup2\n      add\n      swap1\n      tag_44\n      swap2\n      swap1\n      tag_20\n      jump\t// in\n    tag_44:\n      tag_45\n      jump\t// in\n    tag_43:\n      mload(0x40)\n      tag_46\n      swap3\n      swap2\n      swap1\n      tag_47\n      jump\t// in\n    tag_46:\n      mload(0x40)\n      dup1\n      swap2\n      sub\n      swap1\n      return\n        /* \"Market.sol\":2897:3250  function listNftForSale(address nftAddress, uint index, uint value) public {... */\n    tag_10:\n      tag_48\n      0x04\n      dup1\n      calldatasize\n      sub\n      dup2\n      add\n      swap1\n      tag_49\n      swap2\n      swap1\n      tag_50\n      jump\t// in\n    tag_49:\n      tag_51\n      jump\t// in\n    tag_48:\n      stop\n        /* \"Market.sol\":322:348  Listing [] public listings */\n    tag_11:\n      tag_52\n      0x04\n      dup1\n      calldatasize\n      sub\n      dup2\n      add\n      swap1\n      tag_53\n      swap2\n      swap1\n      tag_25\n      jump\t// in\n    tag_53:\n      tag_54\n      jump\t// in\n    tag_52:\n      mload(0x40)\n      tag_55\n      swap3\n      swap2\n      swap1\n      tag_47\n      jump\t// in\n    tag_55:\n      mload(0x40)\n      dup1\n      swap2\n      sub\n      swap1\n      return\n        /* \"Market.sol\":740:831  function getNumberOfNfts() public view returns(uint) {... */\n    tag_12:\n      tag_56\n      tag_57\n      jump\t// in\n    tag_56:\n      mload(0x40)\n      tag_58\n      swap2\n      swap1\n      tag_17\n      jump\t// in\n    tag_58:\n      mload(0x40)\n      dup1\n      swap2\n      sub\n      swap1\n      return\n        /* \"Market.sol\":3256:3355  function getNumberOfListedNfts() public view returns (uint) {... */\n    tag_15:\n        /* \"Market.sol\":3310:3314  uint */\n      0x00\n        /* \"Market.sol\":3333:3341  listings */\n      0x03\n        /* \"Market.sol\":3333:3348  listings.length */\n      dup1\n      sload\n      swap1\n      pop\n        /* \"Market.sol\":3326:3348  return listings.length */\n      swap1\n      pop\n        /* \"Market.sol\":3256:3355  function getNumberOfListedNfts() public view returns (uint) {... */\n      swap1\n      jump\t// out\n        /* \"Market.sol\":2755:2891  function getNumberOfOwnedNfts(address owner) public view returns(uint) {... */\n    tag_21:\n        /* \"Market.sol\":2820:2824  uint */\n      0x00\n        /* \"Market.sol\":2843:2864  userNftStorageInfoMap */\n      0x04\n        /* \"Market.sol\":2843:2871  userNftStorageInfoMap[owner] */\n      0x00\n        /* \"Market.sol\":2865:2870  owner */\n      dup4\n        /* \"Market.sol\":2843:2871  userNftStorageInfoMap[owner] */\n      0xffffffffffffffffffffffffffffffffffffffff\n      and\n      0xffffffffffffffffffffffffffffffffffffffff\n      and\n      dup2\n      mstore\n      0x20\n      add\n      swap1\n      dup2\n      mstore\n      0x20\n      add\n      0x00\n      keccak256\n        /* \"Market.sol\":2843:2884  userNftStorageInfoMap[owner].numOwnedNfts */\n      0x01\n      add\n      sload\n        /* \"Market.sol\":2836:2884  return userNftStorageInfoMap[owner].numOwnedNfts */\n      swap1\n      pop\n        /* \"Market.sol\":2755:2891  function getNumberOfOwnedNfts(address owner) public view returns(uint) {... */\n      swap2\n      swap1\n      pop\n      jump\t// out\n        /* \"Market.sol\":212:237  address [] public nftList */\n    tag_26:\n      0x00\n      dup2\n      dup2\n      sload\n      dup2\n      lt\n      tag_61\n      jumpi\n      0x00\n      dup1\n      revert\n    tag_61:\n      swap1\n      0x00\n      mstore\n      keccak256(0x00, 0x20)\n      add\n      0x00\n      swap2\n      pop\n      sload\n      swap1\n      0x0100\n      exp\n      swap1\n      div\n      0xffffffffffffffffffffffffffffffffffffffff\n      and\n      dup2\n      jump\t// out\n        /* \"Market.sol\":243:289  mapping(address => address []) public ownerMap */\n    tag_32:\n      mstore(0x20, 0x01)\n      dup2\n      0x00\n      mstore\n      keccak256(0x00, 0x40)\n      dup2\n      dup2\n      sload\n      dup2\n      lt\n      tag_63\n      jumpi\n      0x00\n      dup1\n      revert\n    tag_63:\n      swap1\n      0x00\n      mstore\n      keccak256(0x00, 0x20)\n      add\n      0x00\n      swap2\n      pop\n      swap2\n      pop\n      swap1\n      sload\n      swap1\n      0x0100\n      exp\n      swap1\n      div\n      0xffffffffffffffffffffffffffffffffffffffff\n      and\n      dup2\n      jump\t// out\n        /* \"Market.sol\":428:734  function mint(string memory name, string memory imgHash) public returns(address){... */\n    tag_37:\n        /* \"Market.sol\":500:507  address */\n      0x00\n        /* \"Market.sol\":518:532  address newNft */\n      dup1\n        /* \"Market.sol\":551:555  name */\n      dup4\n        /* \"Market.sol\":557:564  imgHash */\n      dup4\n        /* \"Market.sol\":566:578  nextNftIndex */\n      sload(0x02)\n        /* \"Market.sol\":588:592  this */\n      address\n        /* \"Market.sol\":543:594  new Nft(name, imgHash, nextNftIndex, address(this)) */\n      mload(0x40)\n      tag_66\n      swap1\n      tag_67\n      jump\t// in\n    tag_66:\n      tag_68\n      swap5\n      swap4\n      swap3\n      swap2\n      swap1\n      tag_69\n      jump\t// in\n    tag_68:\n      mload(0x40)\n      dup1\n      swap2\n      sub\n      swap1\n      0x00\n      create\n      dup1\n      iszero\n      dup1\n      iszero\n      tag_70\n      jumpi\n      returndatasize\n      0x00\n      dup1\n      returndatacopy\n      revert(0x00, returndatasize)\n    tag_70:\n      pop\n        /* \"Market.sol\":518:595  address newNft = address(new Nft(name, imgHash, nextNftIndex, address(this))) */\n      swap1\n      pop\n        /* \"Market.sol\":605:638  addNftToOwner(newNft, msg.sender) */\n      tag_71\n        /* \"Market.sol\":619:625  newNft */\n      dup2\n        /* \"Market.sol\":627:637  msg.sender */\n      caller\n        /* \"Market.sol\":605:618  addNftToOwner */\n      tag_72\n        /* \"Market.sol\":605:638  addNftToOwner(newNft, msg.sender) */\n      jump\t// in\n    tag_71:\n        /* \"Market.sol\":657:664  nftList */\n      0x00\n        /* \"Market.sol\":670:676  newNft */\n      dup2\n        /* \"Market.sol\":657:677  nftList.push(newNft) */\n      swap1\n      dup1\n      0x01\n      dup2\n      sload\n      add\n      dup1\n      dup3\n      sstore\n      dup1\n      swap2\n      pop\n      pop\n      0x01\n      swap1\n      sub\n      swap1\n      0x00\n      mstore\n      keccak256(0x00, 0x20)\n      add\n      0x00\n      swap1\n      swap2\n      swap1\n      swap2\n      swap1\n      swap2\n      0x0100\n      exp\n      dup2\n      sload\n      dup2\n      0xffffffffffffffffffffffffffffffffffffffff\n      mul\n      not\n      and\n      swap1\n      dup4\n      0xffffffffffffffffffffffffffffffffffffffff\n      and\n      mul\n      or\n      swap1\n      sstore\n      pop\n        /* \"Market.sol\":702:703  1 */\n      0x01\n        /* \"Market.sol\":687:699  nextNftIndex */\n      0x02\n      0x00\n        /* \"Market.sol\":687:703  nextNftIndex +=1 */\n      dup3\n      dup3\n      sload\n      tag_74\n      swap2\n      swap1\n      tag_75\n      jump\t// in\n    tag_74:\n      swap3\n      pop\n      pop\n      dup2\n      swap1\n      sstore\n      pop\n        /* \"Market.sol\":721:727  newNft */\n      dup1\n        /* \"Market.sol\":714:727  return newNft */\n      swap2\n      pop\n      pop\n        /* \"Market.sol\":428:734  function mint(string memory name, string memory imgHash) public returns(address){... */\n      swap3\n      swap2\n      pop\n      pop\n      jump\t// out\n        /* \"Market.sol\":2504:2749  function getOwnedNft(address owner, uint index) public view returns (address){... */\n    tag_41:\n        /* \"Market.sol\":2573:2580  address */\n      0x00\n        /* \"Market.sol\":2624:2625  0 */\n      dup1\n        /* \"Market.sol\":2599:2607  ownerMap */\n      0x01\n        /* \"Market.sol\":2599:2614  ownerMap[owner] */\n      0x00\n        /* \"Market.sol\":2608:2613  owner */\n      dup6\n        /* \"Market.sol\":2599:2614  ownerMap[owner] */\n      0xffffffffffffffffffffffffffffffffffffffff\n      and\n      0xffffffffffffffffffffffffffffffffffffffff\n      and\n      dup2\n      mstore\n      0x20\n      add\n      swap1\n      dup2\n      mstore\n      0x20\n      add\n      0x00\n      keccak256\n        /* \"Market.sol\":2599:2621  ownerMap[owner].length */\n      dup1\n      sload\n      swap1\n      pop\n        /* \"Market.sol\":2599:2625  ownerMap[owner].length > 0 */\n      gt\n        /* \"Market.sol\":2591:2626  require(ownerMap[owner].length > 0) */\n      tag_77\n      jumpi\n      0x00\n      dup1\n      revert\n    tag_77:\n        /* \"Market.sol\":2720:2728  ownerMap */\n      0x01\n        /* \"Market.sol\":2720:2735  ownerMap[owner] */\n      0x00\n        /* \"Market.sol\":2729:2734  owner */\n      dup5\n        /* \"Market.sol\":2720:2735  ownerMap[owner] */\n      0xffffffffffffffffffffffffffffffffffffffff\n      and\n      0xffffffffffffffffffffffffffffffffffffffff\n      and\n      dup2\n      mstore\n      0x20\n      add\n      swap1\n      dup2\n      mstore\n      0x20\n      add\n      0x00\n      keccak256\n        /* \"Market.sol\":2736:2741  index */\n      dup3\n        /* \"Market.sol\":2720:2742  ownerMap[owner][index] */\n      dup2\n      sload\n      dup2\n      lt\n      tag_78\n      jumpi\n      tag_79\n      tag_80\n      jump\t// in\n    tag_79:\n    tag_78:\n      swap1\n      0x00\n      mstore\n      keccak256(0x00, 0x20)\n      add\n      0x00\n      swap1\n      sload\n      swap1\n      0x0100\n      exp\n      swap1\n      div\n      0xffffffffffffffffffffffffffffffffffffffff\n      and\n        /* \"Market.sol\":2713:2742  return ownerMap[owner][index] */\n      swap1\n      pop\n        /* \"Market.sol\":2504:2749  function getOwnedNft(address owner, uint index) public view returns (address){... */\n      swap3\n      swap2\n      pop\n      pop\n      jump\t// out\n        /* \"Market.sol\":354:421  mapping(address => userNftStorageInfo) public userNftStorageInfoMap */\n    tag_45:\n      mstore(0x20, 0x04)\n      dup1\n      0x00\n      mstore\n      keccak256(0x00, 0x40)\n      0x00\n      swap2\n      pop\n      swap1\n      pop\n      dup1\n      0x00\n      add\n      sload\n      swap1\n      dup1\n      0x01\n      add\n      sload\n      swap1\n      pop\n      dup3\n      jump\t// out\n        /* \"Market.sol\":2897:3250  function listNftForSale(address nftAddress, uint index, uint value) public {... */\n    tag_51:\n        /* \"Market.sol\":2998:3005  nftList */\n      0x00\n        /* \"Market.sol\":2998:3012  nftList.length */\n      dup1\n      sload\n      swap1\n      pop\n        /* \"Market.sol\":2990:2995  index */\n      dup3\n        /* \"Market.sol\":2990:3012  index < nftList.length */\n      lt\n        /* \"Market.sol\":2982:3013  require(index < nftList.length) */\n      tag_83\n      jumpi\n      0x00\n      dup1\n      revert\n    tag_83:\n        /* \"Market.sol\":3104:3112  listings */\n      0x03\n        /* \"Market.sol\":3118:3139  Listing(index, value) */\n      mload(0x40)\n      dup1\n      0x40\n      add\n      0x40\n      mstore\n      dup1\n        /* \"Market.sol\":3126:3131  index */\n      dup5\n        /* \"Market.sol\":3118:3139  Listing(index, value) */\n      dup2\n      mstore\n      0x20\n      add\n        /* \"Market.sol\":3133:3138  value */\n      dup4\n        /* \"Market.sol\":3118:3139  Listing(index, value) */\n      dup2\n      mstore\n      pop\n        /* \"Market.sol\":3104:3140  listings.push(Listing(index, value)) */\n      swap1\n      dup1\n      0x01\n      dup2\n      sload\n      add\n      dup1\n      dup3\n      sstore\n      dup1\n      swap2\n      pop\n      pop\n      0x01\n      swap1\n      sub\n      swap1\n      0x00\n      mstore\n      keccak256(0x00, 0x20)\n      swap1\n      0x02\n      mul\n      add\n      0x00\n      swap1\n      swap2\n      swap1\n      swap2\n      swap1\n      swap2\n      pop\n      0x00\n      dup3\n      add\n      mload\n      dup2\n      0x00\n      add\n      sstore\n      0x20\n      dup3\n      add\n      mload\n      dup2\n      0x01\n      add\n      sstore\n      pop\n      pop\n        /* \"Market.sol\":3151:3191  addNftToOwner(nftAddress, address(this)) */\n      tag_85\n        /* \"Market.sol\":3165:3175  nftAddress */\n      dup4\n        /* \"Market.sol\":3185:3189  this */\n      address\n        /* \"Market.sol\":3151:3164  addNftToOwner */\n      tag_72\n        /* \"Market.sol\":3151:3191  addNftToOwner(nftAddress, address(this)) */\n      jump\t// in\n    tag_85:\n        /* \"Market.sol\":3201:3243  removeNftFromOwner(nftAddress, msg.sender) */\n      tag_86\n        /* \"Market.sol\":3220:3230  nftAddress */\n      dup4\n        /* \"Market.sol\":3232:3242  msg.sender */\n      caller\n        /* \"Market.sol\":3201:3219  removeNftFromOwner */\n      tag_87\n        /* \"Market.sol\":3201:3243  removeNftFromOwner(nftAddress, msg.sender) */\n      jump\t// in\n    tag_86:\n        /* \"Market.sol\":2897:3250  function listNftForSale(address nftAddress, uint index, uint value) public {... */\n      pop\n      pop\n      pop\n      jump\t// out\n        /* \"Market.sol\":322:348  Listing [] public listings */\n    tag_54:\n      0x03\n      dup2\n      dup2\n      sload\n      dup2\n      lt\n      tag_88\n      jumpi\n      0x00\n      dup1\n      revert\n    tag_88:\n      swap1\n      0x00\n      mstore\n      keccak256(0x00, 0x20)\n      swap1\n      0x02\n      mul\n      add\n      0x00\n      swap2\n      pop\n      swap1\n      pop\n      dup1\n      0x00\n      add\n      sload\n      swap1\n      dup1\n      0x01\n      add\n      sload\n      swap1\n      pop\n      dup3\n      jump\t// out\n        /* \"Market.sol\":740:831  function getNumberOfNfts() public view returns(uint) {... */\n    tag_57:\n        /* \"Market.sol\":787:791  uint */\n      0x00\n        /* \"Market.sol\":810:817  nftList */\n      dup1\n        /* \"Market.sol\":810:824  nftList.length */\n      dup1\n      sload\n      swap1\n      pop\n        /* \"Market.sol\":803:824  return nftList.length */\n      swap1\n      pop\n        /* \"Market.sol\":740:831  function getNumberOfNfts() public view returns(uint) {... */\n      swap1\n      jump\t// out\n        /* \"Market.sol\":837:1460  function addNftToOwner(address nftAddress, address owner) private {... */\n    tag_72:\n        /* \"Market.sol\":913:954  userNftStorageInfo memory userStorageInfo */\n      0x00\n        /* \"Market.sol\":957:978  userNftStorageInfoMap */\n      0x04\n        /* \"Market.sol\":957:985  userNftStorageInfoMap[owner] */\n      0x00\n        /* \"Market.sol\":979:984  owner */\n      dup4\n        /* \"Market.sol\":957:985  userNftStorageInfoMap[owner] */\n      0xffffffffffffffffffffffffffffffffffffffff\n      and\n      0xffffffffffffffffffffffffffffffffffffffff\n      and\n      dup2\n      mstore\n      0x20\n      add\n      swap1\n      dup2\n      mstore\n      0x20\n      add\n      0x00\n      keccak256\n        /* \"Market.sol\":913:985  userNftStorageInfo memory userStorageInfo = userNftStorageInfoMap[owner] */\n      mload(0x40)\n      dup1\n      0x40\n      add\n      0x40\n      mstore\n      swap1\n      dup2\n      0x00\n      dup3\n      add\n      sload\n      dup2\n      mstore\n      0x20\n      add\n      0x01\n      dup3\n      add\n      sload\n      dup2\n      mstore\n      pop\n      pop\n      swap1\n      pop\n        /* \"Market.sol\":1032:1047  userStorageInfo */\n      dup1\n        /* \"Market.sol\":1032:1055  userStorageInfo.nextLoc */\n      0x00\n      add\n      mload\n        /* \"Market.sol\":1000:1015  userStorageInfo */\n      dup2\n        /* \"Market.sol\":1000:1028  userStorageInfo.numOwnedNfts */\n      0x20\n      add\n      mload\n        /* \"Market.sol\":1000:1055  userStorageInfo.numOwnedNfts == userStorageInfo.nextLoc */\n      sub\n        /* \"Market.sol\":996:1313  if (userStorageInfo.numOwnedNfts == userStorageInfo.nextLoc) {... */\n      tag_92\n      jumpi\n        /* \"Market.sol\":1071:1079  ownerMap */\n      0x01\n        /* \"Market.sol\":1071:1086  ownerMap[owner] */\n      0x00\n        /* \"Market.sol\":1080:1085  owner */\n      dup4\n        /* \"Market.sol\":1071:1086  ownerMap[owner] */\n      0xffffffffffffffffffffffffffffffffffffffff\n      and\n      0xffffffffffffffffffffffffffffffffffffffff\n      and\n      dup2\n      mstore\n      0x20\n      add\n      swap1\n      dup2\n      mstore\n      0x20\n      add\n      0x00\n      keccak256\n        /* \"Market.sol\":1092:1102  nftAddress */\n      dup4\n        /* \"Market.sol\":1071:1103  ownerMap[owner].push(nftAddress) */\n      swap1\n      dup1\n      0x01\n      dup2\n      sload\n      add\n      dup1\n      dup3\n      sstore\n      dup1\n      swap2\n      pop\n      pop\n      0x01\n      swap1\n      sub\n      swap1\n      0x00\n      mstore\n      keccak256(0x00, 0x20)\n      add\n      0x00\n      swap1\n      swap2\n      swap1\n      swap2\n      swap1\n      swap2\n      0x0100\n      exp\n      dup2\n      sload\n      dup2\n      0xffffffffffffffffffffffffffffffffffffffff\n      mul\n      not\n      and\n      swap1\n      dup4\n      0xffffffffffffffffffffffffffffffffffffffff\n      and\n      mul\n      or\n      swap1\n      sstore\n      pop\n        /* \"Market.sol\":1144:1145  1 */\n      0x01\n        /* \"Market.sol\":1117:1132  userStorageInfo */\n      dup2\n        /* \"Market.sol\":1117:1140  userStorageInfo.nextLoc */\n      0x00\n      add\n        /* \"Market.sol\":1117:1145  userStorageInfo.nextLoc += 1 */\n      dup2\n      dup2\n      mload\n      tag_94\n      swap2\n      swap1\n      tag_75\n      jump\t// in\n    tag_94:\n      swap2\n      pop\n      dup2\n      dup2\n      mstore\n      pop\n      pop\n        /* \"Market.sol\":996:1313  if (userStorageInfo.numOwnedNfts == userStorageInfo.nextLoc) {... */\n      jump(tag_95)\n    tag_92:\n        /* \"Market.sol\":1219:1229  nftAddress */\n      dup3\n        /* \"Market.sol\":1176:1184  ownerMap */\n      0x01\n        /* \"Market.sol\":1176:1191  ownerMap[owner] */\n      0x00\n        /* \"Market.sol\":1185:1190  owner */\n      dup5\n        /* \"Market.sol\":1176:1191  ownerMap[owner] */\n      0xffffffffffffffffffffffffffffffffffffffff\n      and\n      0xffffffffffffffffffffffffffffffffffffffff\n      and\n      dup2\n      mstore\n      0x20\n      add\n      swap1\n      dup2\n      mstore\n      0x20\n      add\n      0x00\n      keccak256\n        /* \"Market.sol\":1192:1207  userStorageInfo */\n      dup3\n        /* \"Market.sol\":1192:1215  userStorageInfo.nextLoc */\n      0x00\n      add\n      mload\n        /* \"Market.sol\":1176:1216  ownerMap[owner][userStorageInfo.nextLoc] */\n      dup2\n      sload\n      dup2\n      lt\n      tag_96\n      jumpi\n      tag_97\n      tag_80\n      jump\t// in\n    tag_97:\n    tag_96:\n      swap1\n      0x00\n      mstore\n      keccak256(0x00, 0x20)\n      add\n      0x00\n        /* \"Market.sol\":1176:1229  ownerMap[owner][userStorageInfo.nextLoc] = nftAddress */\n      0x0100\n      exp\n      dup2\n      sload\n      dup2\n      0xffffffffffffffffffffffffffffffffffffffff\n      mul\n      not\n      and\n      swap1\n      dup4\n      0xffffffffffffffffffffffffffffffffffffffff\n      and\n      mul\n      or\n      swap1\n      sstore\n      pop\n        /* \"Market.sol\":1269:1302  getNextEmptyLocationForNft(owner) */\n      tag_99\n        /* \"Market.sol\":1296:1301  owner */\n      dup3\n        /* \"Market.sol\":1269:1295  getNextEmptyLocationForNft */\n      tag_100\n        /* \"Market.sol\":1269:1302  getNextEmptyLocationForNft(owner) */\n      jump\t// in\n    tag_99:\n        /* \"Market.sol\":1243:1258  userStorageInfo */\n      dup2\n        /* \"Market.sol\":1243:1266  userStorageInfo.nextLoc */\n      0x00\n      add\n        /* \"Market.sol\":1243:1302  userStorageInfo.nextLoc = getNextEmptyLocationForNft(owner) */\n      dup2\n      dup2\n      mstore\n      pop\n      pop\n        /* \"Market.sol\":996:1313  if (userStorageInfo.numOwnedNfts == userStorageInfo.nextLoc) {... */\n    tag_95:\n        /* \"Market.sol\":1355:1356  1 */\n      0x01\n        /* \"Market.sol\":1323:1338  userStorageInfo */\n      dup2\n        /* \"Market.sol\":1323:1351  userStorageInfo.numOwnedNfts */\n      0x20\n      add\n        /* \"Market.sol\":1323:1356  userStorageInfo.numOwnedNfts += 1 */\n      dup2\n      dup2\n      mload\n      tag_101\n      swap2\n      swap1\n      tag_75\n      jump\t// in\n    tag_101:\n      swap2\n      pop\n      dup2\n      dup2\n      mstore\n      pop\n      pop\n        /* \"Market.sol\":1397:1412  userStorageInfo */\n      dup1\n        /* \"Market.sol\":1366:1387  userNftStorageInfoMap */\n      0x04\n        /* \"Market.sol\":1366:1394  userNftStorageInfoMap[owner] */\n      0x00\n        /* \"Market.sol\":1388:1393  owner */\n      dup5\n        /* \"Market.sol\":1366:1394  userNftStorageInfoMap[owner] */\n      0xffffffffffffffffffffffffffffffffffffffff\n      and\n      0xffffffffffffffffffffffffffffffffffffffff\n      and\n      dup2\n      mstore\n      0x20\n      add\n      swap1\n      dup2\n      mstore\n      0x20\n      add\n      0x00\n      keccak256\n        /* \"Market.sol\":1366:1412  userNftStorageInfoMap[owner] = userStorageInfo */\n      0x00\n      dup3\n      add\n      mload\n      dup2\n      0x00\n      add\n      sstore\n      0x20\n      dup3\n      add\n      mload\n      dup2\n      0x01\n      add\n      sstore\n      swap1\n      pop\n      pop\n        /* \"Market.sol\":1426:1436  nftAddress */\n      dup3\n        /* \"Market.sol\":1422:1446  Nft(nftAddress).setOwner */\n      0xffffffffffffffffffffffffffffffffffffffff\n      and\n      0x13af4035\n        /* \"Market.sol\":1447:1452  owner */\n      dup4\n        /* \"Market.sol\":1422:1453  Nft(nftAddress).setOwner(owner) */\n      mload(0x40)\n      dup3\n      0xffffffff\n      and\n      0xe0\n      shl\n      dup2\n      mstore\n      0x04\n      add\n      tag_102\n      swap2\n      swap1\n      tag_28\n      jump\t// in\n    tag_102:\n      0x00\n      mload(0x40)\n      dup1\n      dup4\n      sub\n      dup2\n      0x00\n      dup8\n      dup1\n      extcodesize\n      iszero\n      dup1\n      iszero\n      tag_103\n      jumpi\n      0x00\n      dup1\n      revert\n    tag_103:\n      pop\n      gas\n      call\n      iszero\n      dup1\n      iszero\n      tag_105\n      jumpi\n      returndatasize\n      0x00\n      dup1\n      returndatacopy\n      revert(0x00, returndatasize)\n    tag_105:\n      pop\n      pop\n      pop\n      pop\n        /* \"Market.sol\":903:1460  {... */\n      pop\n        /* \"Market.sol\":837:1460  function addNftToOwner(address nftAddress, address owner) private {... */\n      pop\n      pop\n      jump\t// out\n        /* \"Market.sol\":1963:2498  function removeNftFromOwner(address nftAddress, address owner) private {... */\n    tag_87:\n        /* \"Market.sol\":2085:2115  address [] memory ownedNftList */\n      0x00\n        /* \"Market.sol\":2118:2126  ownerMap */\n      0x01\n        /* \"Market.sol\":2118:2133  ownerMap[owner] */\n      0x00\n        /* \"Market.sol\":2127:2132  owner */\n      dup4\n        /* \"Market.sol\":2118:2133  ownerMap[owner] */\n      0xffffffffffffffffffffffffffffffffffffffff\n      and\n      0xffffffffffffffffffffffffffffffffffffffff\n      and\n      dup2\n      mstore\n      0x20\n      add\n      swap1\n      dup2\n      mstore\n      0x20\n      add\n      0x00\n      keccak256\n        /* \"Market.sol\":2085:2133  address [] memory ownedNftList = ownerMap[owner] */\n      dup1\n      sload\n      dup1\n      0x20\n      mul\n      0x20\n      add\n      mload(0x40)\n      swap1\n      dup2\n      add\n      0x40\n      mstore\n      dup1\n      swap3\n      swap2\n      swap1\n      dup2\n      dup2\n      mstore\n      0x20\n      add\n      dup3\n      dup1\n      sload\n      dup1\n      iszero\n      tag_107\n      jumpi\n      0x20\n      mul\n      dup3\n      add\n      swap2\n      swap1\n      0x00\n      mstore\n      keccak256(0x00, 0x20)\n      swap1\n    tag_108:\n      dup2\n      0x00\n      swap1\n      sload\n      swap1\n      0x0100\n      exp\n      swap1\n      div\n      0xffffffffffffffffffffffffffffffffffffffff\n      and\n      0xffffffffffffffffffffffffffffffffffffffff\n      and\n      dup2\n      mstore\n      0x20\n      add\n      swap1\n      0x01\n      add\n      swap1\n      dup1\n      dup4\n      gt\n      tag_108\n      jumpi\n    tag_107:\n      pop\n      pop\n      pop\n      pop\n      pop\n      swap1\n      pop\n        /* \"Market.sol\":2147:2153  uint i */\n      0x00\n        /* \"Market.sol\":2143:2492  for(uint i=0; i<ownedNftList.length; i++) {... */\n    tag_109:\n        /* \"Market.sol\":2159:2171  ownedNftList */\n      dup2\n        /* \"Market.sol\":2159:2178  ownedNftList.length */\n      mload\n        /* \"Market.sol\":2157:2158  i */\n      dup2\n        /* \"Market.sol\":2157:2178  i<ownedNftList.length */\n      lt\n        /* \"Market.sol\":2143:2492  for(uint i=0; i<ownedNftList.length; i++) {... */\n      iszero\n      tag_110\n      jumpi\n        /* \"Market.sol\":2221:2231  nftAddress */\n      dup4\n        /* \"Market.sol\":2202:2231  ownedNftList[i] == nftAddress */\n      0xffffffffffffffffffffffffffffffffffffffff\n      and\n        /* \"Market.sol\":2202:2214  ownedNftList */\n      dup3\n        /* \"Market.sol\":2215:2216  i */\n      dup3\n        /* \"Market.sol\":2202:2217  ownedNftList[i] */\n      dup2\n      mload\n      dup2\n      lt\n      tag_112\n      jumpi\n      tag_113\n      tag_80\n      jump\t// in\n    tag_113:\n    tag_112:\n      0x20\n      mul\n      0x20\n      add\n      add\n      mload\n        /* \"Market.sol\":2202:2231  ownedNftList[i] == nftAddress */\n      0xffffffffffffffffffffffffffffffffffffffff\n      and\n      sub\n        /* \"Market.sol\":2199:2482  if(ownedNftList[i] == nftAddress) {... */\n      tag_114\n      jumpi\n        /* \"Market.sol\":2258:2270  ownedNftList */\n      dup2\n        /* \"Market.sol\":2271:2272  i */\n      dup2\n        /* \"Market.sol\":2258:2273  ownedNftList[i] */\n      dup2\n      mload\n      dup2\n      lt\n      tag_115\n      jumpi\n      tag_116\n      tag_80\n      jump\t// in\n    tag_116:\n    tag_115:\n      0x20\n      mul\n      0x20\n      add\n      add\n        /* \"Market.sol\":2251:2273  delete ownedNftList[i] */\n      and(0xffffffffffffffffffffffffffffffffffffffff, 0x00)\n      dup2\n      mstore\n      pop\n        /* \"Market.sol\":2309:2321  ownedNftList */\n      dup2\n        /* \"Market.sol\":2291:2299  ownerMap */\n      0x01\n        /* \"Market.sol\":2291:2306  ownerMap[owner] */\n      0x00\n        /* \"Market.sol\":2300:2305  owner */\n      dup6\n        /* \"Market.sol\":2291:2306  ownerMap[owner] */\n      0xffffffffffffffffffffffffffffffffffffffff\n      and\n      0xffffffffffffffffffffffffffffffffffffffff\n      and\n      dup2\n      mstore\n      0x20\n      add\n      swap1\n      dup2\n      mstore\n      0x20\n      add\n      0x00\n      keccak256\n        /* \"Market.sol\":2291:2321  ownerMap[owner] = ownedNftList */\n      swap1\n      dup1\n      mload\n      swap1\n      0x20\n      add\n      swap1\n      tag_117\n      swap3\n      swap2\n      swap1\n      tag_118\n      jump\t// in\n    tag_117:\n      pop\n        /* \"Market.sol\":2379:2380  i */\n      dup1\n        /* \"Market.sol\":2340:2361  userNftStorageInfoMap */\n      0x04\n        /* \"Market.sol\":2340:2368  userNftStorageInfoMap[owner] */\n      0x00\n        /* \"Market.sol\":2362:2367  owner */\n      dup6\n        /* \"Market.sol\":2340:2368  userNftStorageInfoMap[owner] */\n      0xffffffffffffffffffffffffffffffffffffffff\n      and\n      0xffffffffffffffffffffffffffffffffffffffff\n      and\n      dup2\n      mstore\n      0x20\n      add\n      swap1\n      dup2\n      mstore\n      0x20\n      add\n      0x00\n      keccak256\n        /* \"Market.sol\":2340:2376  userNftStorageInfoMap[owner].nextLoc */\n      0x00\n      add\n        /* \"Market.sol\":2340:2380  userNftStorageInfoMap[owner].nextLoc = i */\n      dup2\n      swap1\n      sstore\n      pop\n        /* \"Market.sol\":2443:2444  1 */\n      0x01\n        /* \"Market.sol\":2398:2419  userNftStorageInfoMap */\n      0x04\n        /* \"Market.sol\":2398:2426  userNftStorageInfoMap[owner] */\n      0x00\n        /* \"Market.sol\":2420:2425  owner */\n      dup6\n        /* \"Market.sol\":2398:2426  userNftStorageInfoMap[owner] */\n      0xffffffffffffffffffffffffffffffffffffffff\n      and\n      0xffffffffffffffffffffffffffffffffffffffff\n      and\n      dup2\n      mstore\n      0x20\n      add\n      swap1\n      dup2\n      mstore\n      0x20\n      add\n      0x00\n      keccak256\n        /* \"Market.sol\":2398:2439  userNftStorageInfoMap[owner].numOwnedNfts */\n      0x01\n      add\n      0x00\n        /* \"Market.sol\":2398:2444  userNftStorageInfoMap[owner].numOwnedNfts -= 1 */\n      dup3\n      dup3\n      sload\n      tag_119\n      swap2\n      swap1\n      tag_120\n      jump\t// in\n    tag_119:\n      swap3\n      pop\n      pop\n      dup2\n      swap1\n      sstore\n      pop\n        /* \"Market.sol\":2462:2467  break */\n      jump(tag_110)\n        /* \"Market.sol\":2199:2482  if(ownedNftList[i] == nftAddress) {... */\n    tag_114:\n        /* \"Market.sol\":2180:2183  i++ */\n      dup1\n      dup1\n      tag_121\n      swap1\n      tag_122\n      jump\t// in\n    tag_121:\n      swap2\n      pop\n      pop\n        /* \"Market.sol\":2143:2492  for(uint i=0; i<ownedNftList.length; i++) {... */\n      jump(tag_109)\n    tag_110:\n      pop\n        /* \"Market.sol\":2034:2498  {... */\n      pop\n        /* \"Market.sol\":1963:2498  function removeNftFromOwner(address nftAddress, address owner) private {... */\n      pop\n      pop\n      jump\t// out\n        /* \"Market.sol\":1466:1957  function getNextEmptyLocationForNft(address owner) private view returns(uint) {... */\n    tag_100:\n        /* \"Market.sol\":1538:1542  uint */\n      0x00\n        /* \"Market.sol\":1554:1573  address nullAddress */\n      dup1\n        /* \"Market.sol\":1584:1585  0 */\n      0x00\n        /* \"Market.sol\":1554:1586  address nullAddress = address(0) */\n      swap1\n      pop\n        /* \"Market.sol\":1596:1637  userNftStorageInfo memory userStorageInfo */\n      0x00\n        /* \"Market.sol\":1640:1661  userNftStorageInfoMap */\n      0x04\n        /* \"Market.sol\":1640:1668  userNftStorageInfoMap[owner] */\n      0x00\n        /* \"Market.sol\":1662:1667  owner */\n      dup6\n        /* \"Market.sol\":1640:1668  userNftStorageInfoMap[owner] */\n      0xffffffffffffffffffffffffffffffffffffffff\n      and\n      0xffffffffffffffffffffffffffffffffffffffff\n      and\n      dup2\n      mstore\n      0x20\n      add\n      swap1\n      dup2\n      mstore\n      0x20\n      add\n      0x00\n      keccak256\n        /* \"Market.sol\":1596:1668  userNftStorageInfo memory userStorageInfo = userNftStorageInfoMap[owner] */\n      mload(0x40)\n      dup1\n      0x40\n      add\n      0x40\n      mstore\n      swap1\n      dup2\n      0x00\n      dup3\n      add\n      sload\n      dup2\n      mstore\n      0x20\n      add\n      0x01\n      dup3\n      add\n      sload\n      dup2\n      mstore\n      pop\n      pop\n      swap1\n      pop\n        /* \"Market.sol\":1684:1690  uint i */\n      0x00\n        /* \"Market.sol\":1679:1865  for (uint i = 0; i < ownerMap[owner].length; i++) {... */\n    tag_124:\n        /* \"Market.sol\":1700:1708  ownerMap */\n      0x01\n        /* \"Market.sol\":1700:1715  ownerMap[owner] */\n      0x00\n        /* \"Market.sol\":1709:1714  owner */\n      dup7\n        /* \"Market.sol\":1700:1715  ownerMap[owner] */\n      0xffffffffffffffffffffffffffffffffffffffff\n      and\n      0xffffffffffffffffffffffffffffffffffffffff\n      and\n      dup2\n      mstore\n      0x20\n      add\n      swap1\n      dup2\n      mstore\n      0x20\n      add\n      0x00\n      keccak256\n        /* \"Market.sol\":1700:1722  ownerMap[owner].length */\n      dup1\n      sload\n      swap1\n      pop\n        /* \"Market.sol\":1696:1697  i */\n      dup2\n        /* \"Market.sol\":1696:1722  i < ownerMap[owner].length */\n      lt\n        /* \"Market.sol\":1679:1865  for (uint i = 0; i < ownerMap[owner].length; i++) {... */\n      iszero\n      tag_125\n      jumpi\n        /* \"Market.sol\":1769:1780  nullAddress */\n      dup3\n        /* \"Market.sol\":1747:1780  ownerMap[owner][i] == nullAddress */\n      0xffffffffffffffffffffffffffffffffffffffff\n      and\n        /* \"Market.sol\":1747:1755  ownerMap */\n      0x01\n        /* \"Market.sol\":1747:1762  ownerMap[owner] */\n      0x00\n        /* \"Market.sol\":1756:1761  owner */\n      dup8\n        /* \"Market.sol\":1747:1762  ownerMap[owner] */\n      0xffffffffffffffffffffffffffffffffffffffff\n      and\n      0xffffffffffffffffffffffffffffffffffffffff\n      and\n      dup2\n      mstore\n      0x20\n      add\n      swap1\n      dup2\n      mstore\n      0x20\n      add\n      0x00\n      keccak256\n        /* \"Market.sol\":1763:1764  i */\n      dup3\n        /* \"Market.sol\":1747:1765  ownerMap[owner][i] */\n      dup2\n      sload\n      dup2\n      lt\n      tag_127\n      jumpi\n      tag_128\n      tag_80\n      jump\t// in\n    tag_128:\n    tag_127:\n      swap1\n      0x00\n      mstore\n      keccak256(0x00, 0x20)\n      add\n      0x00\n      swap1\n      sload\n      swap1\n      0x0100\n      exp\n      swap1\n      div\n      0xffffffffffffffffffffffffffffffffffffffff\n      and\n        /* \"Market.sol\":1747:1780  ownerMap[owner][i] == nullAddress */\n      0xffffffffffffffffffffffffffffffffffffffff\n      and\n      eq\n        /* \"Market.sol\":1747:1812  ownerMap[owner][i] == nullAddress && i != userStorageInfo.nextLoc */\n      dup1\n      iszero\n      tag_130\n      jumpi\n      pop\n        /* \"Market.sol\":1789:1804  userStorageInfo */\n      dup2\n        /* \"Market.sol\":1789:1812  userStorageInfo.nextLoc */\n      0x00\n      add\n      mload\n        /* \"Market.sol\":1784:1785  i */\n      dup2\n        /* \"Market.sol\":1784:1812  i != userStorageInfo.nextLoc */\n      eq\n      iszero\n        /* \"Market.sol\":1747:1812  ownerMap[owner][i] == nullAddress && i != userStorageInfo.nextLoc */\n    tag_130:\n        /* \"Market.sol\":1743:1855  if (ownerMap[owner][i] == nullAddress && i != userStorageInfo.nextLoc) {... */\n      iszero\n      tag_131\n      jumpi\n        /* \"Market.sol\":1839:1840  i */\n      dup1\n        /* \"Market.sol\":1832:1840  return i */\n      swap4\n      pop\n      pop\n      pop\n      pop\n      jump(tag_123)\n        /* \"Market.sol\":1743:1855  if (ownerMap[owner][i] == nullAddress && i != userStorageInfo.nextLoc) {... */\n    tag_131:\n        /* \"Market.sol\":1724:1727  i++ */\n      dup1\n      dup1\n      tag_132\n      swap1\n      tag_122\n      jump\t// in\n    tag_132:\n      swap2\n      pop\n      pop\n        /* \"Market.sol\":1679:1865  for (uint i = 0; i < ownerMap[owner].length; i++) {... */\n      jump(tag_124)\n    tag_125:\n      pop\n        /* \"Market.sol\":1928:1936  ownerMap */\n      0x01\n        /* \"Market.sol\":1928:1943  ownerMap[owner] */\n      0x00\n        /* \"Market.sol\":1937:1942  owner */\n      dup6\n        /* \"Market.sol\":1928:1943  ownerMap[owner] */\n      0xffffffffffffffffffffffffffffffffffffffff\n      and\n      0xffffffffffffffffffffffffffffffffffffffff\n      and\n      dup2\n      mstore\n      0x20\n      add\n      swap1\n      dup2\n      mstore\n      0x20\n      add\n      0x00\n      keccak256\n        /* \"Market.sol\":1928:1950  ownerMap[owner].length */\n      dup1\n      sload\n      swap1\n      pop\n        /* \"Market.sol\":1921:1950  return ownerMap[owner].length */\n      swap3\n      pop\n      pop\n      pop\n        /* \"Market.sol\":1466:1957  function getNextEmptyLocationForNft(address owner) private view returns(uint) {... */\n    tag_123:\n      swap2\n      swap1\n      pop\n      jump\t// out\n    tag_67:\n      dataSize(sub_0)\n      dup1\n      dataOffset(sub_0)\n      dup4\n      codecopy\n      add\n      swap1\n      jump\t// out\n    tag_118:\n      dup3\n      dup1\n      sload\n      dup3\n      dup3\n      sstore\n      swap1\n      0x00\n      mstore\n      keccak256(0x00, 0x20)\n      swap1\n      dup2\n      add\n      swap3\n      dup3\n      iszero\n      tag_133\n      jumpi\n      swap2\n      0x20\n      mul\n      dup3\n      add\n    tag_134:\n      dup3\n      dup2\n      gt\n      iszero\n      tag_135\n      jumpi\n      dup3\n      mload\n      dup3\n      exp(0x0100, 0x00)\n      dup2\n      sload\n      dup2\n      0xffffffffffffffffffffffffffffffffffffffff\n      mul\n      not\n      and\n      swap1\n      dup4\n      0xffffffffffffffffffffffffffffffffffffffff\n      and\n      mul\n      or\n      swap1\n      sstore\n      pop\n      swap2\n      0x20\n      add\n      swap2\n      swap1\n      0x01\n      add\n      swap1\n      jump(tag_134)\n    tag_135:\n    tag_133:\n      pop\n      swap1\n      pop\n      tag_136\n      swap2\n      swap1\n      tag_137\n      jump\t// in\n    tag_136:\n      pop\n      swap1\n      jump\t// out\n    tag_137:\n    tag_138:\n      dup1\n      dup3\n      gt\n      iszero\n      tag_139\n      jumpi\n      0x00\n      dup2\n      0x00\n      swap1\n      sstore\n      pop\n      0x01\n      add\n      jump(tag_138)\n    tag_139:\n      pop\n      swap1\n      jump\t// out\n        /* \"#utility.yul\":7:84   */\n    tag_140:\n        /* \"#utility.yul\":44:51   */\n      0x00\n        /* \"#utility.yul\":73:78   */\n      dup2\n        /* \"#utility.yul\":62:78   */\n      swap1\n      pop\n        /* \"#utility.yul\":7:84   */\n      swap2\n      swap1\n      pop\n      jump\t// out\n        /* \"#utility.yul\":90:208   */\n    tag_141:\n        /* \"#utility.yul\":177:201   */\n      tag_170\n        /* \"#utility.yul\":195:200   */\n      dup2\n        /* \"#utility.yul\":177:201   */\n      tag_140\n      jump\t// in\n    tag_170:\n        /* \"#utility.yul\":172:175   */\n      dup3\n        /* \"#utility.yul\":165:202   */\n      mstore\n        /* \"#utility.yul\":90:208   */\n      pop\n      pop\n      jump\t// out\n        /* \"#utility.yul\":214:436   */\n    tag_17:\n        /* \"#utility.yul\":307:311   */\n      0x00\n        /* \"#utility.yul\":345:347   */\n      0x20\n        /* \"#utility.yul\":334:343   */\n      dup3\n        /* \"#utility.yul\":330:348   */\n      add\n        /* \"#utility.yul\":322:348   */\n      swap1\n      pop\n        /* \"#utility.yul\":358:429   */\n      tag_172\n        /* \"#utility.yul\":426:427   */\n      0x00\n        /* \"#utility.yul\":415:424   */\n      dup4\n        /* \"#utility.yul\":411:428   */\n      add\n        /* \"#utility.yul\":402:408   */\n      dup5\n        /* \"#utility.yul\":358:429   */\n      tag_141\n      jump\t// in\n    tag_172:\n        /* \"#utility.yul\":214:436   */\n      swap3\n      swap2\n      pop\n      pop\n      jump\t// out\n        /* \"#utility.yul\":442:517   */\n    tag_142:\n        /* \"#utility.yul\":475:481   */\n      0x00\n        /* \"#utility.yul\":508:510   */\n      0x40\n        /* \"#utility.yul\":502:511   */\n      mload\n        /* \"#utility.yul\":492:511   */\n      swap1\n      pop\n        /* \"#utility.yul\":442:517   */\n      swap1\n      jump\t// out\n        /* \"#utility.yul\":523:640   */\n    tag_143:\n        /* \"#utility.yul\":632:633   */\n      0x00\n        /* \"#utility.yul\":629:630   */\n      dup1\n        /* \"#utility.yul\":622:634   */\n      revert\n        /* \"#utility.yul\":646:763   */\n    tag_144:\n        /* \"#utility.yul\":755:756   */\n      0x00\n        /* \"#utility.yul\":752:753   */\n      dup1\n        /* \"#utility.yul\":745:757   */\n      revert\n        /* \"#utility.yul\":769:895   */\n    tag_145:\n        /* \"#utility.yul\":806:813   */\n      0x00\n        /* \"#utility.yul\":846:888   */\n      0xffffffffffffffffffffffffffffffffffffffff\n        /* \"#utility.yul\":839:844   */\n      dup3\n        /* \"#utility.yul\":835:889   */\n      and\n        /* \"#utility.yul\":824:889   */\n      swap1\n      pop\n        /* \"#utility.yul\":769:895   */\n      swap2\n      swap1\n      pop\n      jump\t// out\n        /* \"#utility.yul\":901:997   */\n    tag_146:\n        /* \"#utility.yul\":938:945   */\n      0x00\n        /* \"#utility.yul\":967:991   */\n      tag_178\n        /* \"#utility.yul\":985:990   */\n      dup3\n        /* \"#utility.yul\":967:991   */\n      tag_145\n      jump\t// in\n    tag_178:\n        /* \"#utility.yul\":956:991   */\n      swap1\n      pop\n        /* \"#utility.yul\":901:997   */\n      swap2\n      swap1\n      pop\n      jump\t// out\n        /* \"#utility.yul\":1003:1125   */\n    tag_147:\n        /* \"#utility.yul\":1076:1100   */\n      tag_180\n        /* \"#utility.yul\":1094:1099   */\n      dup2\n        /* \"#utility.yul\":1076:1100   */\n      tag_146\n      jump\t// in\n    tag_180:\n        /* \"#utility.yul\":1069:1074   */\n      dup2\n        /* \"#utility.yul\":1066:1101   */\n      eq\n        /* \"#utility.yul\":1056:1119   */\n      tag_181\n      jumpi\n        /* \"#utility.yul\":1115:1116   */\n      0x00\n        /* \"#utility.yul\":1112:1113   */\n      dup1\n        /* \"#utility.yul\":1105:1117   */\n      revert\n        /* \"#utility.yul\":1056:1119   */\n    tag_181:\n        /* \"#utility.yul\":1003:1125   */\n      pop\n      jump\t// out\n        /* \"#utility.yul\":1131:1270   */\n    tag_148:\n        /* \"#utility.yul\":1177:1182   */\n      0x00\n        /* \"#utility.yul\":1215:1221   */\n      dup2\n        /* \"#utility.yul\":1202:1222   */\n      calldataload\n        /* \"#utility.yul\":1193:1222   */\n      swap1\n      pop\n        /* \"#utility.yul\":1231:1264   */\n      tag_183\n        /* \"#utility.yul\":1258:1263   */\n      dup2\n        /* \"#utility.yul\":1231:1264   */\n      tag_147\n      jump\t// in\n    tag_183:\n        /* \"#utility.yul\":1131:1270   */\n      swap3\n      swap2\n      pop\n      pop\n      jump\t// out\n        /* \"#utility.yul\":1276:1605   */\n    tag_20:\n        /* \"#utility.yul\":1335:1341   */\n      0x00\n        /* \"#utility.yul\":1384:1386   */\n      0x20\n        /* \"#utility.yul\":1372:1381   */\n      dup3\n        /* \"#utility.yul\":1363:1370   */\n      dup5\n        /* \"#utility.yul\":1359:1382   */\n      sub\n        /* \"#utility.yul\":1355:1387   */\n      slt\n        /* \"#utility.yul\":1352:1471   */\n      iszero\n      tag_185\n      jumpi\n        /* \"#utility.yul\":1390:1469   */\n      tag_186\n      tag_143\n      jump\t// in\n    tag_186:\n        /* \"#utility.yul\":1352:1471   */\n    tag_185:\n        /* \"#utility.yul\":1510:1511   */\n      0x00\n        /* \"#utility.yul\":1535:1588   */\n      tag_187\n        /* \"#utility.yul\":1580:1587   */\n      dup5\n        /* \"#utility.yul\":1571:1577   */\n      dup3\n        /* \"#utility.yul\":1560:1569   */\n      dup6\n        /* \"#utility.yul\":1556:1578   */\n      add\n        /* \"#utility.yul\":1535:1588   */\n      tag_148\n      jump\t// in\n    tag_187:\n        /* \"#utility.yul\":1525:1588   */\n      swap2\n      pop\n        /* \"#utility.yul\":1481:1598   */\n      pop\n        /* \"#utility.yul\":1276:1605   */\n      swap3\n      swap2\n      pop\n      pop\n      jump\t// out\n        /* \"#utility.yul\":1611:1733   */\n    tag_149:\n        /* \"#utility.yul\":1684:1708   */\n      tag_189\n        /* \"#utility.yul\":1702:1707   */\n      dup2\n        /* \"#utility.yul\":1684:1708   */\n      tag_140\n      jump\t// in\n    tag_189:\n        /* \"#utility.yul\":1677:1682   */\n      dup2\n        /* \"#utility.yul\":1674:1709   */\n      eq\n        /* \"#utility.yul\":1664:1727   */\n      tag_190\n      jumpi\n        /* \"#utility.yul\":1723:1724   */\n      0x00\n        /* \"#utility.yul\":1720:1721   */\n      dup1\n        /* \"#utility.yul\":1713:1725   */\n      revert\n        /* \"#utility.yul\":1664:1727   */\n    tag_190:\n        /* \"#utility.yul\":1611:1733   */\n      pop\n      jump\t// out\n        /* \"#utility.yul\":1739:1878   */\n    tag_150:\n        /* \"#utility.yul\":1785:1790   */\n      0x00\n        /* \"#utility.yul\":1823:1829   */\n      dup2\n        /* \"#utility.yul\":1810:1830   */\n      calldataload\n        /* \"#utility.yul\":1801:1830   */\n      swap1\n      pop\n        /* \"#utility.yul\":1839:1872   */\n      tag_192\n        /* \"#utility.yul\":1866:1871   */\n      dup2\n        /* \"#utility.yul\":1839:1872   */\n      tag_149\n      jump\t// in\n    tag_192:\n        /* \"#utility.yul\":1739:1878   */\n      swap3\n      swap2\n      pop\n      pop\n      jump\t// out\n        /* \"#utility.yul\":1884:2213   */\n    tag_25:\n        /* \"#utility.yul\":1943:1949   */\n      0x00\n        /* \"#utility.yul\":1992:1994   */\n      0x20\n        /* \"#utility.yul\":1980:1989   */\n      dup3\n        /* \"#utility.yul\":1971:1978   */\n      dup5\n        /* \"#utility.yul\":1967:1990   */\n      sub\n        /* \"#utility.yul\":1963:1995   */\n      slt\n        /* \"#utility.yul\":1960:2079   */\n      iszero\n      tag_194\n      jumpi\n        /* \"#utility.yul\":1998:2077   */\n      tag_195\n      tag_143\n      jump\t// in\n    tag_195:\n        /* \"#utility.yul\":1960:2079   */\n    tag_194:\n        /* \"#utility.yul\":2118:2119   */\n      0x00\n        /* \"#utility.yul\":2143:2196   */\n      tag_196\n        /* \"#utility.yul\":2188:2195   */\n      dup5\n        /* \"#utility.yul\":2179:2185   */\n      dup3\n        /* \"#utility.yul\":2168:2177   */\n      dup6\n        /* \"#utility.yul\":2164:2186   */\n      add\n        /* \"#utility.yul\":2143:2196   */\n      tag_150\n      jump\t// in\n    tag_196:\n        /* \"#utility.yul\":2133:2196   */\n      swap2\n      pop\n        /* \"#utility.yul\":2089:2206   */\n      pop\n        /* \"#utility.yul\":1884:2213   */\n      swap3\n      swap2\n      pop\n      pop\n      jump\t// out\n        /* \"#utility.yul\":2219:2337   */\n    tag_151:\n        /* \"#utility.yul\":2306:2330   */\n      tag_198\n        /* \"#utility.yul\":2324:2329   */\n      dup2\n        /* \"#utility.yul\":2306:2330   */\n      tag_146\n      jump\t// in\n    tag_198:\n        /* \"#utility.yul\":2301:2304   */\n      dup3\n        /* \"#utility.yul\":2294:2331   */\n      mstore\n        /* \"#utility.yul\":2219:2337   */\n      pop\n      pop\n      jump\t// out\n        /* \"#utility.yul\":2343:2565   */\n    tag_28:\n        /* \"#utility.yul\":2436:2440   */\n      0x00\n        /* \"#utility.yul\":2474:2476   */\n      0x20\n        /* \"#utility.yul\":2463:2472   */\n      dup3\n        /* \"#utility.yul\":2459:2477   */\n      add\n        /* \"#utility.yul\":2451:2477   */\n      swap1\n      pop\n        /* \"#utility.yul\":2487:2558   */\n      tag_200\n        /* \"#utility.yul\":2555:2556   */\n      0x00\n        /* \"#utility.yul\":2544:2553   */\n      dup4\n        /* \"#utility.yul\":2540:2557   */\n      add\n        /* \"#utility.yul\":2531:2537   */\n      dup5\n        /* \"#utility.yul\":2487:2558   */\n      tag_151\n      jump\t// in\n    tag_200:\n        /* \"#utility.yul\":2343:2565   */\n      swap3\n      swap2\n      pop\n      pop\n      jump\t// out\n        /* \"#utility.yul\":2571:3045   */\n    tag_31:\n        /* \"#utility.yul\":2639:2645   */\n      0x00\n        /* \"#utility.yul\":2647:2653   */\n      dup1\n        /* \"#utility.yul\":2696:2698   */\n      0x40\n        /* \"#utility.yul\":2684:2693   */\n      dup4\n        /* \"#utility.yul\":2675:2682   */\n      dup6\n        /* \"#utility.yul\":2671:2694   */\n      sub\n        /* \"#utility.yul\":2667:2699   */\n      slt\n        /* \"#utility.yul\":2664:2783   */\n      iszero\n      tag_202\n      jumpi\n        /* \"#utility.yul\":2702:2781   */\n      tag_203\n      tag_143\n      jump\t// in\n    tag_203:\n        /* \"#utility.yul\":2664:2783   */\n    tag_202:\n        /* \"#utility.yul\":2822:2823   */\n      0x00\n        /* \"#utility.yul\":2847:2900   */\n      tag_204\n        /* \"#utility.yul\":2892:2899   */\n      dup6\n        /* \"#utility.yul\":2883:2889   */\n      dup3\n        /* \"#utility.yul\":2872:2881   */\n      dup7\n        /* \"#utility.yul\":2868:2890   */\n      add\n        /* \"#utility.yul\":2847:2900   */\n      tag_148\n      jump\t// in\n    tag_204:\n        /* \"#utility.yul\":2837:2900   */\n      swap3\n      pop\n        /* \"#utility.yul\":2793:2910   */\n      pop\n        /* \"#utility.yul\":2949:2951   */\n      0x20\n        /* \"#utility.yul\":2975:3028   */\n      tag_205\n        /* \"#utility.yul\":3020:3027   */\n      dup6\n        /* \"#utility.yul\":3011:3017   */\n      dup3\n        /* \"#utility.yul\":3000:3009   */\n      dup7\n        /* \"#utility.yul\":2996:3018   */\n      add\n        /* \"#utility.yul\":2975:3028   */\n      tag_150\n      jump\t// in\n    tag_205:\n        /* \"#utility.yul\":2965:3028   */\n      swap2\n      pop\n        /* \"#utility.yul\":2920:3038   */\n      pop\n        /* \"#utility.yul\":2571:3045   */\n      swap3\n      pop\n      swap3\n      swap1\n      pop\n      jump\t// out\n        /* \"#utility.yul\":3051:3168   */\n    tag_152:\n        /* \"#utility.yul\":3160:3161   */\n      0x00\n        /* \"#utility.yul\":3157:3158   */\n      dup1\n        /* \"#utility.yul\":3150:3162   */\n      revert\n        /* \"#utility.yul\":3174:3291   */\n    tag_153:\n        /* \"#utility.yul\":3283:3284   */\n      0x00\n        /* \"#utility.yul\":3280:3281   */\n      dup1\n        /* \"#utility.yul\":3273:3285   */\n      revert\n        /* \"#utility.yul\":3297:3399   */\n    tag_154:\n        /* \"#utility.yul\":3338:3344   */\n      0x00\n        /* \"#utility.yul\":3389:3391   */\n      0x1f\n        /* \"#utility.yul\":3385:3392   */\n      not\n        /* \"#utility.yul\":3380:3382   */\n      0x1f\n        /* \"#utility.yul\":3373:3378   */\n      dup4\n        /* \"#utility.yul\":3369:3383   */\n      add\n        /* \"#utility.yul\":3365:3393   */\n      and\n        /* \"#utility.yul\":3355:3393   */\n      swap1\n      pop\n        /* \"#utility.yul\":3297:3399   */\n      swap2\n      swap1\n      pop\n      jump\t// out\n        /* \"#utility.yul\":3405:3585   */\n    tag_155:\n        /* \"#utility.yul\":3453:3530   */\n      0x4e487b7100000000000000000000000000000000000000000000000000000000\n        /* \"#utility.yul\":3450:3451   */\n      0x00\n        /* \"#utility.yul\":3443:3531   */\n      mstore\n        /* \"#utility.yul\":3550:3554   */\n      0x41\n        /* \"#utility.yul\":3547:3548   */\n      0x04\n        /* \"#utility.yul\":3540:3555   */\n      mstore\n        /* \"#utility.yul\":3574:3578   */\n      0x24\n        /* \"#utility.yul\":3571:3572   */\n      0x00\n        /* \"#utility.yul\":3564:3579   */\n      revert\n        /* \"#utility.yul\":3591:3872   */\n    tag_156:\n        /* \"#utility.yul\":3674:3701   */\n      tag_211\n        /* \"#utility.yul\":3696:3700   */\n      dup3\n        /* \"#utility.yul\":3674:3701   */\n      tag_154\n      jump\t// in\n    tag_211:\n        /* \"#utility.yul\":3666:3672   */\n      dup2\n        /* \"#utility.yul\":3662:3702   */\n      add\n        /* \"#utility.yul\":3804:3810   */\n      dup2\n        /* \"#utility.yul\":3792:3802   */\n      dup2\n        /* \"#utility.yul\":3789:3811   */\n      lt\n        /* \"#utility.yul\":3768:3786   */\n      0xffffffffffffffff\n        /* \"#utility.yul\":3756:3766   */\n      dup3\n        /* \"#utility.yul\":3753:3787   */\n      gt\n        /* \"#utility.yul\":3750:3812   */\n      or\n        /* \"#utility.yul\":3747:3835   */\n      iszero\n      tag_212\n      jumpi\n        /* \"#utility.yul\":3815:3833   */\n      tag_213\n      tag_155\n      jump\t// in\n    tag_213:\n        /* \"#utility.yul\":3747:3835   */\n    tag_212:\n        /* \"#utility.yul\":3855:3865   */\n      dup1\n        /* \"#utility.yul\":3851:3853   */\n      0x40\n        /* \"#utility.yul\":3844:3866   */\n      mstore\n        /* \"#utility.yul\":3634:3872   */\n      pop\n        /* \"#utility.yul\":3591:3872   */\n      pop\n      pop\n      jump\t// out\n        /* \"#utility.yul\":3878:4007   */\n    tag_157:\n        /* \"#utility.yul\":3912:3918   */\n      0x00\n        /* \"#utility.yul\":3939:3959   */\n      tag_215\n      tag_142\n      jump\t// in\n    tag_215:\n        /* \"#utility.yul\":3929:3959   */\n      swap1\n      pop\n        /* \"#utility.yul\":3968:4001   */\n      tag_216\n        /* \"#utility.yul\":3996:4000   */\n      dup3\n        /* \"#utility.yul\":3988:3994   */\n      dup3\n        /* \"#utility.yul\":3968:4001   */\n      tag_156\n      jump\t// in\n    tag_216:\n        /* \"#utility.yul\":3878:4007   */\n      swap2\n      swap1\n      pop\n      jump\t// out\n        /* \"#utility.yul\":4013:4321   */\n    tag_158:\n        /* \"#utility.yul\":4075:4079   */\n      0x00\n        /* \"#utility.yul\":4165:4183   */\n      0xffffffffffffffff\n        /* \"#utility.yul\":4157:4163   */\n      dup3\n        /* \"#utility.yul\":4154:4184   */\n      gt\n        /* \"#utility.yul\":4151:4207   */\n      iszero\n      tag_218\n      jumpi\n        /* \"#utility.yul\":4187:4205   */\n      tag_219\n      tag_155\n      jump\t// in\n    tag_219:\n        /* \"#utility.yul\":4151:4207   */\n    tag_218:\n        /* \"#utility.yul\":4225:4254   */\n      tag_220\n        /* \"#utility.yul\":4247:4253   */\n      dup3\n        /* \"#utility.yul\":4225:4254   */\n      tag_154\n      jump\t// in\n    tag_220:\n        /* \"#utility.yul\":4217:4254   */\n      swap1\n      pop\n        /* \"#utility.yul\":4309:4313   */\n      0x20\n        /* \"#utility.yul\":4303:4307   */\n      dup2\n        /* \"#utility.yul\":4299:4314   */\n      add\n        /* \"#utility.yul\":4291:4314   */\n      swap1\n      pop\n        /* \"#utility.yul\":4013:4321   */\n      swap2\n      swap1\n      pop\n      jump\t// out\n        /* \"#utility.yul\":4327:4481   */\n    tag_159:\n        /* \"#utility.yul\":4411:4417   */\n      dup3\n        /* \"#utility.yul\":4406:4409   */\n      dup2\n        /* \"#utility.yul\":4401:4404   */\n      dup4\n        /* \"#utility.yul\":4388:4418   */\n      calldatacopy\n        /* \"#utility.yul\":4473:4474   */\n      0x00\n        /* \"#utility.yul\":4464:4470   */\n      dup4\n        /* \"#utility.yul\":4459:4462   */\n      dup4\n        /* \"#utility.yul\":4455:4471   */\n      add\n        /* \"#utility.yul\":4448:4475   */\n      mstore\n        /* \"#utility.yul\":4327:4481   */\n      pop\n      pop\n      pop\n      jump\t// out\n        /* \"#utility.yul\":4487:4899   */\n    tag_160:\n        /* \"#utility.yul\":4565:4570   */\n      0x00\n        /* \"#utility.yul\":4590:4656   */\n      tag_223\n        /* \"#utility.yul\":4606:4655   */\n      tag_224\n        /* \"#utility.yul\":4648:4654   */\n      dup5\n        /* \"#utility.yul\":4606:4655   */\n      tag_158\n      jump\t// in\n    tag_224:\n        /* \"#utility.yul\":4590:4656   */\n      tag_157\n      jump\t// in\n    tag_223:\n        /* \"#utility.yul\":4581:4656   */\n      swap1\n      pop\n        /* \"#utility.yul\":4679:4685   */\n      dup3\n        /* \"#utility.yul\":4672:4677   */\n      dup2\n        /* \"#utility.yul\":4665:4686   */\n      mstore\n        /* \"#utility.yul\":4717:4721   */\n      0x20\n        /* \"#utility.yul\":4710:4715   */\n      dup2\n        /* \"#utility.yul\":4706:4722   */\n      add\n        /* \"#utility.yul\":4755:4758   */\n      dup5\n        /* \"#utility.yul\":4746:4752   */\n      dup5\n        /* \"#utility.yul\":4741:4744   */\n      dup5\n        /* \"#utility.yul\":4737:4753   */\n      add\n        /* \"#utility.yul\":4734:4759   */\n      gt\n        /* \"#utility.yul\":4731:4843   */\n      iszero\n      tag_225\n      jumpi\n        /* \"#utility.yul\":4762:4841   */\n      tag_226\n      tag_153\n      jump\t// in\n    tag_226:\n        /* \"#utility.yul\":4731:4843   */\n    tag_225:\n        /* \"#utility.yul\":4852:4893   */\n      tag_227\n        /* \"#utility.yul\":4886:4892   */\n      dup5\n        /* \"#utility.yul\":4881:4884   */\n      dup3\n        /* \"#utility.yul\":4876:4879   */\n      dup6\n        /* \"#utility.yul\":4852:4893   */\n      tag_159\n      jump\t// in\n    tag_227:\n        /* \"#utility.yul\":4571:4899   */\n      pop\n        /* \"#utility.yul\":4487:4899   */\n      swap4\n      swap3\n      pop\n      pop\n      pop\n      jump\t// out\n        /* \"#utility.yul\":4919:5259   */\n    tag_161:\n        /* \"#utility.yul\":4975:4980   */\n      0x00\n        /* \"#utility.yul\":5024:5027   */\n      dup3\n        /* \"#utility.yul\":5017:5021   */\n      0x1f\n        /* \"#utility.yul\":5009:5015   */\n      dup4\n        /* \"#utility.yul\":5005:5022   */\n      add\n        /* \"#utility.yul\":5001:5028   */\n      slt\n        /* \"#utility.yul\":4991:5113   */\n      tag_229\n      jumpi\n        /* \"#utility.yul\":5032:5111   */\n      tag_230\n      tag_152\n      jump\t// in\n    tag_230:\n        /* \"#utility.yul\":4991:5113   */\n    tag_229:\n        /* \"#utility.yul\":5149:5155   */\n      dup2\n        /* \"#utility.yul\":5136:5156   */\n      calldataload\n        /* \"#utility.yul\":5174:5253   */\n      tag_231\n        /* \"#utility.yul\":5249:5252   */\n      dup5\n        /* \"#utility.yul\":5241:5247   */\n      dup3\n        /* \"#utility.yul\":5234:5238   */\n      0x20\n        /* \"#utility.yul\":5226:5232   */\n      dup7\n        /* \"#utility.yul\":5222:5239   */\n      add\n        /* \"#utility.yul\":5174:5253   */\n      tag_160\n      jump\t// in\n    tag_231:\n        /* \"#utility.yul\":5165:5253   */\n      swap2\n      pop\n        /* \"#utility.yul\":4981:5259   */\n      pop\n        /* \"#utility.yul\":4919:5259   */\n      swap3\n      swap2\n      pop\n      pop\n      jump\t// out\n        /* \"#utility.yul\":5265:6099   */\n    tag_36:\n        /* \"#utility.yul\":5353:5359   */\n      0x00\n        /* \"#utility.yul\":5361:5367   */\n      dup1\n        /* \"#utility.yul\":5410:5412   */\n      0x40\n        /* \"#utility.yul\":5398:5407   */\n      dup4\n        /* \"#utility.yul\":5389:5396   */\n      dup6\n        /* \"#utility.yul\":5385:5408   */\n      sub\n        /* \"#utility.yul\":5381:5413   */\n      slt\n        /* \"#utility.yul\":5378:5497   */\n      iszero\n      tag_233\n      jumpi\n        /* \"#utility.yul\":5416:5495   */\n      tag_234\n      tag_143\n      jump\t// in\n    tag_234:\n        /* \"#utility.yul\":5378:5497   */\n    tag_233:\n        /* \"#utility.yul\":5564:5565   */\n      0x00\n        /* \"#utility.yul\":5553:5562   */\n      dup4\n        /* \"#utility.yul\":5549:5566   */\n      add\n        /* \"#utility.yul\":5536:5567   */\n      calldataload\n        /* \"#utility.yul\":5594:5612   */\n      0xffffffffffffffff\n        /* \"#utility.yul\":5586:5592   */\n      dup2\n        /* \"#utility.yul\":5583:5613   */\n      gt\n        /* \"#utility.yul\":5580:5697   */\n      iszero\n      tag_235\n      jumpi\n        /* \"#utility.yul\":5616:5695   */\n      tag_236\n      tag_144\n      jump\t// in\n    tag_236:\n        /* \"#utility.yul\":5580:5697   */\n    tag_235:\n        /* \"#utility.yul\":5721:5784   */\n      tag_237\n        /* \"#utility.yul\":5776:5783   */\n      dup6\n        /* \"#utility.yul\":5767:5773   */\n      dup3\n        /* \"#utility.yul\":5756:5765   */\n      dup7\n        /* \"#utility.yul\":5752:5774   */\n      add\n        /* \"#utility.yul\":5721:5784   */\n      tag_161\n      jump\t// in\n    tag_237:\n        /* \"#utility.yul\":5711:5784   */\n      swap3\n      pop\n        /* \"#utility.yul\":5507:5794   */\n      pop\n        /* \"#utility.yul\":5861:5863   */\n      0x20\n        /* \"#utility.yul\":5850:5859   */\n      dup4\n        /* \"#utility.yul\":5846:5864   */\n      add\n        /* \"#utility.yul\":5833:5865   */\n      calldataload\n        /* \"#utility.yul\":5892:5910   */\n      0xffffffffffffffff\n        /* \"#utility.yul\":5884:5890   */\n      dup2\n        /* \"#utility.yul\":5881:5911   */\n      gt\n        /* \"#utility.yul\":5878:5995   */\n      iszero\n      tag_238\n      jumpi\n        /* \"#utility.yul\":5914:5993   */\n      tag_239\n      tag_144\n      jump\t// in\n    tag_239:\n        /* \"#utility.yul\":5878:5995   */\n    tag_238:\n        /* \"#utility.yul\":6019:6082   */\n      tag_240\n        /* \"#utility.yul\":6074:6081   */\n      dup6\n        /* \"#utility.yul\":6065:6071   */\n      dup3\n        /* \"#utility.yul\":6054:6063   */\n      dup7\n        /* \"#utility.yul\":6050:6072   */\n      add\n        /* \"#utility.yul\":6019:6082   */\n      tag_161\n      jump\t// in\n    tag_240:\n        /* \"#utility.yul\":6009:6082   */\n      swap2\n      pop\n        /* \"#utility.yul\":5804:6092   */\n      pop\n        /* \"#utility.yul\":5265:6099   */\n      swap3\n      pop\n      swap3\n      swap1\n      pop\n      jump\t// out\n        /* \"#utility.yul\":6105:6437   */\n    tag_47:\n        /* \"#utility.yul\":6226:6230   */\n      0x00\n        /* \"#utility.yul\":6264:6266   */\n      0x40\n        /* \"#utility.yul\":6253:6262   */\n      dup3\n        /* \"#utility.yul\":6249:6267   */\n      add\n        /* \"#utility.yul\":6241:6267   */\n      swap1\n      pop\n        /* \"#utility.yul\":6277:6348   */\n      tag_242\n        /* \"#utility.yul\":6345:6346   */\n      0x00\n        /* \"#utility.yul\":6334:6343   */\n      dup4\n        /* \"#utility.yul\":6330:6347   */\n      add\n        /* \"#utility.yul\":6321:6327   */\n      dup6\n        /* \"#utility.yul\":6277:6348   */\n      tag_141\n      jump\t// in\n    tag_242:\n        /* \"#utility.yul\":6358:6430   */\n      tag_243\n        /* \"#utility.yul\":6426:6428   */\n      0x20\n        /* \"#utility.yul\":6415:6424   */\n      dup4\n        /* \"#utility.yul\":6411:6429   */\n      add\n        /* \"#utility.yul\":6402:6408   */\n      dup5\n        /* \"#utility.yul\":6358:6430   */\n      tag_141\n      jump\t// in\n    tag_243:\n        /* \"#utility.yul\":6105:6437   */\n      swap4\n      swap3\n      pop\n      pop\n      pop\n      jump\t// out\n        /* \"#utility.yul\":6443:7062   */\n    tag_50:\n        /* \"#utility.yul\":6520:6526   */\n      0x00\n        /* \"#utility.yul\":6528:6534   */\n      dup1\n        /* \"#utility.yul\":6536:6542   */\n      0x00\n        /* \"#utility.yul\":6585:6587   */\n      0x60\n        /* \"#utility.yul\":6573:6582   */\n      dup5\n        /* \"#utility.yul\":6564:6571   */\n      dup7\n        /* \"#utility.yul\":6560:6583   */\n      sub\n        /* \"#utility.yul\":6556:6588   */\n      slt\n        /* \"#utility.yul\":6553:6672   */\n      iszero\n      tag_245\n      jumpi\n        /* \"#utility.yul\":6591:6670   */\n      tag_246\n      tag_143\n      jump\t// in\n    tag_246:\n        /* \"#utility.yul\":6553:6672   */\n    tag_245:\n        /* \"#utility.yul\":6711:6712   */\n      0x00\n        /* \"#utility.yul\":6736:6789   */\n      tag_247\n        /* \"#utility.yul\":6781:6788   */\n      dup7\n        /* \"#utility.yul\":6772:6778   */\n      dup3\n        /* \"#utility.yul\":6761:6770   */\n      dup8\n        /* \"#utility.yul\":6757:6779   */\n      add\n        /* \"#utility.yul\":6736:6789   */\n      tag_148\n      jump\t// in\n    tag_247:\n        /* \"#utility.yul\":6726:6789   */\n      swap4\n      pop\n        /* \"#utility.yul\":6682:6799   */\n      pop\n        /* \"#utility.yul\":6838:6840   */\n      0x20\n        /* \"#utility.yul\":6864:6917   */\n      tag_248\n        /* \"#utility.yul\":6909:6916   */\n      dup7\n        /* \"#utility.yul\":6900:6906   */\n      dup3\n        /* \"#utility.yul\":6889:6898   */\n      dup8\n        /* \"#utility.yul\":6885:6907   */\n      add\n        /* \"#utility.yul\":6864:6917   */\n      tag_150\n      jump\t// in\n    tag_248:\n        /* \"#utility.yul\":6854:6917   */\n      swap3\n      pop\n        /* \"#utility.yul\":6809:6927   */\n      pop\n        /* \"#utility.yul\":6966:6968   */\n      0x40\n        /* \"#utility.yul\":6992:7045   */\n      tag_249\n        /* \"#utility.yul\":7037:7044   */\n      dup7\n        /* \"#utility.yul\":7028:7034   */\n      dup3\n        /* \"#utility.yul\":7017:7026   */\n      dup8\n        /* \"#utility.yul\":7013:7035   */\n      add\n        /* \"#utility.yul\":6992:7045   */\n      tag_150\n      jump\t// in\n    tag_249:\n        /* \"#utility.yul\":6982:7045   */\n      swap2\n      pop\n        /* \"#utility.yul\":6937:7055   */\n      pop\n        /* \"#utility.yul\":6443:7062   */\n      swap3\n      pop\n      swap3\n      pop\n      swap3\n      jump\t// out\n        /* \"#utility.yul\":7068:7167   */\n    tag_162:\n        /* \"#utility.yul\":7120:7126   */\n      0x00\n        /* \"#utility.yul\":7154:7159   */\n      dup2\n        /* \"#utility.yul\":7148:7160   */\n      mload\n        /* \"#utility.yul\":7138:7160   */\n      swap1\n      pop\n        /* \"#utility.yul\":7068:7167   */\n      swap2\n      swap1\n      pop\n      jump\t// out\n        /* \"#utility.yul\":7173:7342   */\n    tag_163:\n        /* \"#utility.yul\":7257:7268   */\n      0x00\n        /* \"#utility.yul\":7291:7297   */\n      dup3\n        /* \"#utility.yul\":7286:7289   */\n      dup3\n        /* \"#utility.yul\":7279:7298   */\n      mstore\n        /* \"#utility.yul\":7331:7335   */\n      0x20\n        /* \"#utility.yul\":7326:7329   */\n      dup3\n        /* \"#utility.yul\":7322:7336   */\n      add\n        /* \"#utility.yul\":7307:7336   */\n      swap1\n      pop\n        /* \"#utility.yul\":7173:7342   */\n      swap3\n      swap2\n      pop\n      pop\n      jump\t// out\n        /* \"#utility.yul\":7348:7655   */\n    tag_164:\n        /* \"#utility.yul\":7416:7417   */\n      0x00\n        /* \"#utility.yul\":7426:7539   */\n    tag_253:\n        /* \"#utility.yul\":7440:7446   */\n      dup4\n        /* \"#utility.yul\":7437:7438   */\n      dup2\n        /* \"#utility.yul\":7434:7447   */\n      lt\n        /* \"#utility.yul\":7426:7539   */\n      iszero\n      tag_255\n      jumpi\n        /* \"#utility.yul\":7525:7526   */\n      dup1\n        /* \"#utility.yul\":7520:7523   */\n      dup3\n        /* \"#utility.yul\":7516:7527   */\n      add\n        /* \"#utility.yul\":7510:7528   */\n      mload\n        /* \"#utility.yul\":7506:7507   */\n      dup2\n        /* \"#utility.yul\":7501:7504   */\n      dup5\n        /* \"#utility.yul\":7497:7508   */\n      add\n        /* \"#utility.yul\":7490:7529   */\n      mstore\n        /* \"#utility.yul\":7462:7464   */\n      0x20\n        /* \"#utility.yul\":7459:7460   */\n      dup2\n        /* \"#utility.yul\":7455:7465   */\n      add\n        /* \"#utility.yul\":7450:7465   */\n      swap1\n      pop\n        /* \"#utility.yul\":7426:7539   */\n      jump(tag_253)\n    tag_255:\n        /* \"#utility.yul\":7557:7563   */\n      dup4\n        /* \"#utility.yul\":7554:7555   */\n      dup2\n        /* \"#utility.yul\":7551:7564   */\n      gt\n        /* \"#utility.yul\":7548:7649   */\n      iszero\n      tag_256\n      jumpi\n        /* \"#utility.yul\":7637:7638   */\n      0x00\n        /* \"#utility.yul\":7628:7634   */\n      dup5\n        /* \"#utility.yul\":7623:7626   */\n      dup5\n        /* \"#utility.yul\":7619:7635   */\n      add\n        /* \"#utility.yul\":7612:7639   */\n      mstore\n        /* \"#utility.yul\":7548:7649   */\n    tag_256:\n        /* \"#utility.yul\":7397:7655   */\n      pop\n        /* \"#utility.yul\":7348:7655   */\n      pop\n      pop\n      pop\n      jump\t// out\n        /* \"#utility.yul\":7661:8025   */\n    tag_165:\n        /* \"#utility.yul\":7749:7752   */\n      0x00\n        /* \"#utility.yul\":7777:7816   */\n      tag_258\n        /* \"#utility.yul\":7810:7815   */\n      dup3\n        /* \"#utility.yul\":7777:7816   */\n      tag_162\n      jump\t// in\n    tag_258:\n        /* \"#utility.yul\":7832:7903   */\n      tag_259\n        /* \"#utility.yul\":7896:7902   */\n      dup2\n        /* \"#utility.yul\":7891:7894   */\n      dup6\n        /* \"#utility.yul\":7832:7903   */\n      tag_163\n      jump\t// in\n    tag_259:\n        /* \"#utility.yul\":7825:7903   */\n      swap4\n      pop\n        /* \"#utility.yul\":7912:7964   */\n      tag_260\n        /* \"#utility.yul\":7957:7963   */\n      dup2\n        /* \"#utility.yul\":7952:7955   */\n      dup6\n        /* \"#utility.yul\":7945:7949   */\n      0x20\n        /* \"#utility.yul\":7938:7943   */\n      dup7\n        /* \"#utility.yul\":7934:7950   */\n      add\n        /* \"#utility.yul\":7912:7964   */\n      tag_164\n      jump\t// in\n    tag_260:\n        /* \"#utility.yul\":7989:8018   */\n      tag_261\n        /* \"#utility.yul\":8011:8017   */\n      dup2\n        /* \"#utility.yul\":7989:8018   */\n      tag_154\n      jump\t// in\n    tag_261:\n        /* \"#utility.yul\":7984:7987   */\n      dup5\n        /* \"#utility.yul\":7980:8019   */\n      add\n        /* \"#utility.yul\":7973:8019   */\n      swap2\n      pop\n        /* \"#utility.yul\":7753:8025   */\n      pop\n        /* \"#utility.yul\":7661:8025   */\n      swap3\n      swap2\n      pop\n      pop\n      jump\t// out\n        /* \"#utility.yul\":8031:8766   */\n    tag_69:\n        /* \"#utility.yul\":8248:8252   */\n      0x00\n        /* \"#utility.yul\":8286:8289   */\n      0x80\n        /* \"#utility.yul\":8275:8284   */\n      dup3\n        /* \"#utility.yul\":8271:8290   */\n      add\n        /* \"#utility.yul\":8263:8290   */\n      swap1\n      pop\n        /* \"#utility.yul\":8336:8345   */\n      dup2\n        /* \"#utility.yul\":8330:8334   */\n      dup2\n        /* \"#utility.yul\":8326:8346   */\n      sub\n        /* \"#utility.yul\":8322:8323   */\n      0x00\n        /* \"#utility.yul\":8311:8320   */\n      dup4\n        /* \"#utility.yul\":8307:8324   */\n      add\n        /* \"#utility.yul\":8300:8347   */\n      mstore\n        /* \"#utility.yul\":8364:8442   */\n      tag_263\n        /* \"#utility.yul\":8437:8441   */\n      dup2\n        /* \"#utility.yul\":8428:8434   */\n      dup8\n        /* \"#utility.yul\":8364:8442   */\n      tag_165\n      jump\t// in\n    tag_263:\n        /* \"#utility.yul\":8356:8442   */\n      swap1\n      pop\n        /* \"#utility.yul\":8489:8498   */\n      dup2\n        /* \"#utility.yul\":8483:8487   */\n      dup2\n        /* \"#utility.yul\":8479:8499   */\n      sub\n        /* \"#utility.yul\":8474:8476   */\n      0x20\n        /* \"#utility.yul\":8463:8472   */\n      dup4\n        /* \"#utility.yul\":8459:8477   */\n      add\n        /* \"#utility.yul\":8452:8500   */\n      mstore\n        /* \"#utility.yul\":8517:8595   */\n      tag_264\n        /* \"#utility.yul\":8590:8594   */\n      dup2\n        /* \"#utility.yul\":8581:8587   */\n      dup7\n        /* \"#utility.yul\":8517:8595   */\n      tag_165\n      jump\t// in\n    tag_264:\n        /* \"#utility.yul\":8509:8595   */\n      swap1\n      pop\n        /* \"#utility.yul\":8605:8677   */\n      tag_265\n        /* \"#utility.yul\":8673:8675   */\n      0x40\n        /* \"#utility.yul\":8662:8671   */\n      dup4\n        /* \"#utility.yul\":8658:8676   */\n      add\n        /* \"#utility.yul\":8649:8655   */\n      dup6\n        /* \"#utility.yul\":8605:8677   */\n      tag_141\n      jump\t// in\n    tag_265:\n        /* \"#utility.yul\":8687:8759   */\n      tag_266\n        /* \"#utility.yul\":8755:8757   */\n      0x60\n        /* \"#utility.yul\":8744:8753   */\n      dup4\n        /* \"#utility.yul\":8740:8758   */\n      add\n        /* \"#utility.yul\":8731:8737   */\n      dup5\n        /* \"#utility.yul\":8687:8759   */\n      tag_151\n      jump\t// in\n    tag_266:\n        /* \"#utility.yul\":8031:8766   */\n      swap6\n      swap5\n      pop\n      pop\n      pop\n      pop\n      pop\n      jump\t// out\n        /* \"#utility.yul\":8772:8952   */\n    tag_166:\n        /* \"#utility.yul\":8820:8897   */\n      0x4e487b7100000000000000000000000000000000000000000000000000000000\n        /* \"#utility.yul\":8817:8818   */\n      0x00\n        /* \"#utility.yul\":8810:8898   */\n      mstore\n        /* \"#utility.yul\":8917:8921   */\n      0x11\n        /* \"#utility.yul\":8914:8915   */\n      0x04\n        /* \"#utility.yul\":8907:8922   */\n      mstore\n        /* \"#utility.yul\":8941:8945   */\n      0x24\n        /* \"#utility.yul\":8938:8939   */\n      0x00\n        /* \"#utility.yul\":8931:8946   */\n      revert\n        /* \"#utility.yul\":8958:9263   */\n    tag_75:\n        /* \"#utility.yul\":8998:9001   */\n      0x00\n        /* \"#utility.yul\":9017:9037   */\n      tag_269\n        /* \"#utility.yul\":9035:9036   */\n      dup3\n        /* \"#utility.yul\":9017:9037   */\n      tag_140\n      jump\t// in\n    tag_269:\n        /* \"#utility.yul\":9012:9037   */\n      swap2\n      pop\n        /* \"#utility.yul\":9051:9071   */\n      tag_270\n        /* \"#utility.yul\":9069:9070   */\n      dup4\n        /* \"#utility.yul\":9051:9071   */\n      tag_140\n      jump\t// in\n    tag_270:\n        /* \"#utility.yul\":9046:9071   */\n      swap3\n      pop\n        /* \"#utility.yul\":9205:9206   */\n      dup3\n        /* \"#utility.yul\":9137:9203   */\n      0xffffffffffffffffffffffffffffffffffffffffffffffffffffffffffffffff\n        /* \"#utility.yul\":9133:9207   */\n      sub\n        /* \"#utility.yul\":9130:9131   */\n      dup3\n        /* \"#utility.yul\":9127:9208   */\n      gt\n        /* \"#utility.yul\":9124:9231   */\n      iszero\n      tag_271\n      jumpi\n        /* \"#utility.yul\":9211:9229   */\n      tag_272\n      tag_166\n      jump\t// in\n    tag_272:\n        /* \"#utility.yul\":9124:9231   */\n    tag_271:\n        /* \"#utility.yul\":9255:9256   */\n      dup3\n        /* \"#utility.yul\":9252:9253   */\n      dup3\n        /* \"#utility.yul\":9248:9257   */\n      add\n        /* \"#utility.yul\":9241:9257   */\n      swap1\n      pop\n        /* \"#utility.yul\":8958:9263   */\n      swap3\n      swap2\n      pop\n      pop\n      jump\t// out\n        /* \"#utility.yul\":9269:9449   */\n    tag_80:\n        /* \"#utility.yul\":9317:9394   */\n      0x4e487b7100000000000000000000000000000000000000000000000000000000\n        /* \"#utility.yul\":9314:9315   */\n      0x00\n        /* \"#utility.yul\":9307:9395   */\n      mstore\n        /* \"#utility.yul\":9414:9418   */\n      0x32\n        /* \"#utility.yul\":9411:9412   */\n      0x04\n        /* \"#utility.yul\":9404:9419   */\n      mstore\n        /* \"#utility.yul\":9438:9442   */\n      0x24\n        /* \"#utility.yul\":9435:9436   */\n      0x00\n        /* \"#utility.yul\":9428:9443   */\n      revert\n        /* \"#utility.yul\":9455:9646   */\n    tag_120:\n        /* \"#utility.yul\":9495:9499   */\n      0x00\n        /* \"#utility.yul\":9515:9535   */\n      tag_275\n        /* \"#utility.yul\":9533:9534   */\n      dup3\n        /* \"#utility.yul\":9515:9535   */\n      tag_140\n      jump\t// in\n    tag_275:\n        /* \"#utility.yul\":9510:9535   */\n      swap2\n      pop\n        /* \"#utility.yul\":9549:9569   */\n      tag_276\n        /* \"#utility.yul\":9567:9568   */\n      dup4\n        /* \"#utility.yul\":9549:9569   */\n      tag_140\n      jump\t// in\n    tag_276:\n        /* \"#utility.yul\":9544:9569   */\n      swap3\n      pop\n        /* \"#utility.yul\":9588:9589   */\n      dup3\n        /* \"#utility.yul\":9585:9586   */\n      dup3\n        /* \"#utility.yul\":9582:9590   */\n      lt\n        /* \"#utility.yul\":9579:9613   */\n      iszero\n      tag_277\n      jumpi\n        /* \"#utility.yul\":9593:9611   */\n      tag_278\n      tag_166\n      jump\t// in\n    tag_278:\n        /* \"#utility.yul\":9579:9613   */\n    tag_277:\n        /* \"#utility.yul\":9638:9639   */\n      dup3\n        /* \"#utility.yul\":9635:9636   */\n      dup3\n        /* \"#utility.yul\":9631:9640   */\n      sub\n        /* \"#utility.yul\":9623:9640   */\n      swap1\n      pop\n        /* \"#utility.yul\":9455:9646   */\n      swap3\n      swap2\n      pop\n      pop\n      jump\t// out\n        /* \"#utility.yul\":9652:9885   */\n    tag_122:\n        /* \"#utility.yul\":9691:9694   */\n      0x00\n        /* \"#utility.yul\":9714:9738   */\n      tag_280\n        /* \"#utility.yul\":9732:9737   */\n      dup3\n        /* \"#utility.yul\":9714:9738   */\n      tag_140\n      jump\t// in\n    tag_280:\n        /* \"#utility.yul\":9705:9738   */\n      swap2\n      pop\n        /* \"#utility.yul\":9760:9826   */\n      0xffffffffffffffffffffffffffffffffffffffffffffffffffffffffffffffff\n        /* \"#utility.yul\":9753:9758   */\n      dup3\n        /* \"#utility.yul\":9750:9827   */\n      sub\n        /* \"#utility.yul\":9747:9850   */\n      tag_281\n      jumpi\n        /* \"#utility.yul\":9830:9848   */\n      tag_282\n      tag_166\n      jump\t// in\n    tag_282:\n        /* \"#utility.yul\":9747:9850   */\n    tag_281:\n        /* \"#utility.yul\":9877:9878   */\n      0x01\n        /* \"#utility.yul\":9870:9875   */\n      dup3\n        /* \"#utility.yul\":9866:9879   */\n      add\n        /* \"#utility.yul\":9859:9879   */\n      swap1\n      pop\n        /* \"#utility.yul\":9652:9885   */\n      swap2\n      swap1\n      pop\n      jump\t// out\n    stop\n\n    sub_0: assembly {\n            /* \"Market.sol\":3361:4121  contract Nft {... */\n          mstore(0x40, 0x80)\n            /* \"Market.sol\":3568:3793  constructor (string memory assetName, string memory ipfsHash, uint globalIndex, address owningMarket) {... */\n          callvalue\n          dup1\n          iszero\n          tag_1\n          jumpi\n          0x00\n          dup1\n          revert\n        tag_1:\n          pop\n          mload(0x40)\n          sub(codesize, bytecodeSize)\n          dup1\n          bytecodeSize\n          dup4\n          codecopy\n          dup2\n          dup2\n          add\n          0x40\n          mstore\n          dup2\n          add\n          swap1\n          tag_2\n          swap2\n          swap1\n          tag_3\n          jump\t// in\n        tag_2:\n            /* \"Market.sol\":3687:3696  assetName */\n          dup4\n            /* \"Market.sol\":3680:3684  name */\n          0x00\n            /* \"Market.sol\":3680:3696  name = assetName */\n          swap1\n          dup2\n          tag_6\n          swap2\n          swap1\n          tag_7\n          jump\t// in\n        tag_6:\n          pop\n            /* \"Market.sol\":3718:3726  ipfsHash */\n          dup3\n            /* \"Market.sol\":3706:3715  imageHash */\n          0x02\n            /* \"Market.sol\":3706:3726  imageHash = ipfsHash */\n          swap1\n          dup2\n          tag_8\n          swap2\n          swap1\n          tag_7\n          jump\t// in\n        tag_8:\n          pop\n            /* \"Market.sol\":3744:3755  globalIndex */\n          dup2\n            /* \"Market.sol\":3736:3741  index */\n          0x03\n            /* \"Market.sol\":3736:3755  index = globalIndex */\n          dup2\n          swap1\n          sstore\n          pop\n            /* \"Market.sol\":3774:3786  owningMarket */\n          dup1\n            /* \"Market.sol\":3765:3771  market */\n          0x04\n          0x00\n            /* \"Market.sol\":3765:3786  market = owningMarket */\n          0x0100\n          exp\n          dup2\n          sload\n          dup2\n          0xffffffffffffffffffffffffffffffffffffffff\n          mul\n          not\n          and\n          swap1\n          dup4\n          0xffffffffffffffffffffffffffffffffffffffff\n          and\n          mul\n          or\n          swap1\n          sstore\n          pop\n            /* \"Market.sol\":3568:3793  constructor (string memory assetName, string memory ipfsHash, uint globalIndex, address owningMarket) {... */\n          pop\n          pop\n          pop\n          pop\n            /* \"Market.sol\":3361:4121  contract Nft {... */\n          jump(tag_9)\n            /* \"#utility.yul\":7:82   */\n        tag_10:\n            /* \"#utility.yul\":40:46   */\n          0x00\n            /* \"#utility.yul\":73:75   */\n          0x40\n            /* \"#utility.yul\":67:76   */\n          mload\n            /* \"#utility.yul\":57:76   */\n          swap1\n          pop\n            /* \"#utility.yul\":7:82   */\n          swap1\n          jump\t// out\n            /* \"#utility.yul\":88:205   */\n        tag_11:\n            /* \"#utility.yul\":197:198   */\n          0x00\n            /* \"#utility.yul\":194:195   */\n          dup1\n            /* \"#utility.yul\":187:199   */\n          revert\n            /* \"#utility.yul\":211:328   */\n        tag_12:\n            /* \"#utility.yul\":320:321   */\n          0x00\n            /* \"#utility.yul\":317:318   */\n          dup1\n            /* \"#utility.yul\":310:322   */\n          revert\n            /* \"#utility.yul\":334:451   */\n        tag_13:\n            /* \"#utility.yul\":443:444   */\n          0x00\n            /* \"#utility.yul\":440:441   */\n          dup1\n            /* \"#utility.yul\":433:445   */\n          revert\n            /* \"#utility.yul\":457:574   */\n        tag_14:\n            /* \"#utility.yul\":566:567   */\n          0x00\n            /* \"#utility.yul\":563:564   */\n          dup1\n            /* \"#utility.yul\":556:568   */\n          revert\n            /* \"#utility.yul\":580:682   */\n        tag_15:\n            /* \"#utility.yul\":621:627   */\n          0x00\n            /* \"#utility.yul\":672:674   */\n          0x1f\n            /* \"#utility.yul\":668:675   */\n          not\n            /* \"#utility.yul\":663:665   */\n          0x1f\n            /* \"#utility.yul\":656:661   */\n          dup4\n            /* \"#utility.yul\":652:666   */\n          add\n            /* \"#utility.yul\":648:676   */\n          and\n            /* \"#utility.yul\":638:676   */\n          swap1\n          pop\n            /* \"#utility.yul\":580:682   */\n          swap2\n          swap1\n          pop\n          jump\t// out\n            /* \"#utility.yul\":688:868   */\n        tag_16:\n            /* \"#utility.yul\":736:813   */\n          0x4e487b7100000000000000000000000000000000000000000000000000000000\n            /* \"#utility.yul\":733:734   */\n          0x00\n            /* \"#utility.yul\":726:814   */\n          mstore\n            /* \"#utility.yul\":833:837   */\n          0x41\n            /* \"#utility.yul\":830:831   */\n          0x04\n            /* \"#utility.yul\":823:838   */\n          mstore\n            /* \"#utility.yul\":857:861   */\n          0x24\n            /* \"#utility.yul\":854:855   */\n          0x00\n            /* \"#utility.yul\":847:862   */\n          revert\n            /* \"#utility.yul\":874:1155   */\n        tag_17:\n            /* \"#utility.yul\":957:984   */\n          tag_57\n            /* \"#utility.yul\":979:983   */\n          dup3\n            /* \"#utility.yul\":957:984   */\n          tag_15\n          jump\t// in\n        tag_57:\n            /* \"#utility.yul\":949:955   */\n          dup2\n            /* \"#utility.yul\":945:985   */\n          add\n            /* \"#utility.yul\":1087:1093   */\n          dup2\n            /* \"#utility.yul\":1075:1085   */\n          dup2\n            /* \"#utility.yul\":1072:1094   */\n          lt\n            /* \"#utility.yul\":1051:1069   */\n          0xffffffffffffffff\n            /* \"#utility.yul\":1039:1049   */\n          dup3\n            /* \"#utility.yul\":1036:1070   */\n          gt\n            /* \"#utility.yul\":1033:1095   */\n          or\n            /* \"#utility.yul\":1030:1118   */\n          iszero\n          tag_58\n          jumpi\n            /* \"#utility.yul\":1098:1116   */\n          tag_59\n          tag_16\n          jump\t// in\n        tag_59:\n            /* \"#utility.yul\":1030:1118   */\n        tag_58:\n            /* \"#utility.yul\":1138:1148   */\n          dup1\n            /* \"#utility.yul\":1134:1136   */\n          0x40\n            /* \"#utility.yul\":1127:1149   */\n          mstore\n            /* \"#utility.yul\":917:1155   */\n          pop\n            /* \"#utility.yul\":874:1155   */\n          pop\n          pop\n          jump\t// out\n            /* \"#utility.yul\":1161:1290   */\n        tag_18:\n            /* \"#utility.yul\":1195:1201   */\n          0x00\n            /* \"#utility.yul\":1222:1242   */\n          tag_61\n          tag_10\n          jump\t// in\n        tag_61:\n            /* \"#utility.yul\":1212:1242   */\n          swap1\n          pop\n            /* \"#utility.yul\":1251:1284   */\n          tag_62\n            /* \"#utility.yul\":1279:1283   */\n          dup3\n            /* \"#utility.yul\":1271:1277   */\n          dup3\n            /* \"#utility.yul\":1251:1284   */\n          tag_17\n          jump\t// in\n        tag_62:\n            /* \"#utility.yul\":1161:1290   */\n          swap2\n          swap1\n          pop\n          jump\t// out\n            /* \"#utility.yul\":1296:1604   */\n        tag_19:\n            /* \"#utility.yul\":1358:1362   */\n          0x00\n            /* \"#utility.yul\":1448:1466   */\n          0xffffffffffffffff\n            /* \"#utility.yul\":1440:1446   */\n          dup3\n            /* \"#utility.yul\":1437:1467   */\n          gt\n            /* \"#utility.yul\":1434:1490   */\n          iszero\n          tag_64\n          jumpi\n            /* \"#utility.yul\":1470:1488   */\n          tag_65\n          tag_16\n          jump\t// in\n        tag_65:\n            /* \"#utility.yul\":1434:1490   */\n        tag_64:\n            /* \"#utility.yul\":1508:1537   */\n          tag_66\n            /* \"#utility.yul\":1530:1536   */\n          dup3\n            /* \"#utility.yul\":1508:1537   */\n          tag_15\n          jump\t// in\n        tag_66:\n            /* \"#utility.yul\":1500:1537   */\n          swap1\n          pop\n            /* \"#utility.yul\":1592:1596   */\n          0x20\n            /* \"#utility.yul\":1586:1590   */\n          dup2\n            /* \"#utility.yul\":1582:1597   */\n          add\n            /* \"#utility.yul\":1574:1597   */\n          swap1\n          pop\n            /* \"#utility.yul\":1296:1604   */\n          swap2\n          swap1\n          pop\n          jump\t// out\n            /* \"#utility.yul\":1610:1917   */\n        tag_20:\n            /* \"#utility.yul\":1678:1679   */\n          0x00\n            /* \"#utility.yul\":1688:1801   */\n        tag_68:\n            /* \"#utility.yul\":1702:1708   */\n          dup4\n            /* \"#utility.yul\":1699:1700   */\n          dup2\n            /* \"#utility.yul\":1696:1709   */\n          lt\n            /* \"#utility.yul\":1688:1801   */\n          iszero\n          tag_70\n          jumpi\n            /* \"#utility.yul\":1787:1788   */\n          dup1\n            /* \"#utility.yul\":1782:1785   */\n          dup3\n            /* \"#utility.yul\":1778:1789   */\n          add\n            /* \"#utility.yul\":1772:1790   */\n          mload\n            /* \"#utility.yul\":1768:1769   */\n          dup2\n            /* \"#utility.yul\":1763:1766   */\n          dup5\n            /* \"#utility.yul\":1759:1770   */\n          add\n            /* \"#utility.yul\":1752:1791   */\n          mstore\n            /* \"#utility.yul\":1724:1726   */\n          0x20\n            /* \"#utility.yul\":1721:1722   */\n          dup2\n            /* \"#utility.yul\":1717:1727   */\n          add\n            /* \"#utility.yul\":1712:1727   */\n          swap1\n          pop\n            /* \"#utility.yul\":1688:1801   */\n          jump(tag_68)\n        tag_70:\n            /* \"#utility.yul\":1819:1825   */\n          dup4\n            /* \"#utility.yul\":1816:1817   */\n          dup2\n            /* \"#utility.yul\":1813:1826   */\n          gt\n            /* \"#utility.yul\":1810:1911   */\n          iszero\n          tag_71\n          jumpi\n            /* \"#utility.yul\":1899:1900   */\n          0x00\n            /* \"#utility.yul\":1890:1896   */\n          dup5\n            /* \"#utility.yul\":1885:1888   */\n          dup5\n            /* \"#utility.yul\":1881:1897   */\n          add\n            /* \"#utility.yul\":1874:1901   */\n          mstore\n            /* \"#utility.yul\":1810:1911   */\n        tag_71:\n            /* \"#utility.yul\":1659:1917   */\n          pop\n            /* \"#utility.yul\":1610:1917   */\n          pop\n          pop\n          pop\n          jump\t// out\n            /* \"#utility.yul\":1923:2344   */\n        tag_21:\n            /* \"#utility.yul\":2012:2017   */\n          0x00\n            /* \"#utility.yul\":2037:2103   */\n          tag_73\n            /* \"#utility.yul\":2053:2102   */\n          tag_74\n            /* \"#utility.yul\":2095:2101   */\n          dup5\n            /* \"#utility.yul\":2053:2102   */\n          tag_19\n          jump\t// in\n        tag_74:\n            /* \"#utility.yul\":2037:2103   */\n          tag_18\n          jump\t// in\n        tag_73:\n            /* \"#utility.yul\":2028:2103   */\n          swap1\n          pop\n            /* \"#utility.yul\":2126:2132   */\n          dup3\n            /* \"#utility.yul\":2119:2124   */\n          dup2\n            /* \"#utility.yul\":2112:2133   */\n          mstore\n            /* \"#utility.yul\":2164:2168   */\n          0x20\n            /* \"#utility.yul\":2157:2162   */\n          dup2\n            /* \"#utility.yul\":2153:2169   */\n          add\n            /* \"#utility.yul\":2202:2205   */\n          dup5\n            /* \"#utility.yul\":2193:2199   */\n          dup5\n            /* \"#utility.yul\":2188:2191   */\n          dup5\n            /* \"#utility.yul\":2184:2200   */\n          add\n            /* \"#utility.yul\":2181:2206   */\n          gt\n            /* \"#utility.yul\":2178:2290   */\n          iszero\n          tag_75\n          jumpi\n            /* \"#utility.yul\":2209:2288   */\n          tag_76\n          tag_14\n          jump\t// in\n        tag_76:\n            /* \"#utility.yul\":2178:2290   */\n        tag_75:\n            /* \"#utility.yul\":2299:2338   */\n          tag_77\n            /* \"#utility.yul\":2331:2337   */\n          dup5\n            /* \"#utility.yul\":2326:2329   */\n          dup3\n            /* \"#utility.yul\":2321:2324   */\n          dup6\n            /* \"#utility.yul\":2299:2338   */\n          tag_20\n          jump\t// in\n        tag_77:\n            /* \"#utility.yul\":2018:2344   */\n          pop\n            /* \"#utility.yul\":1923:2344   */\n          swap4\n          swap3\n          pop\n          pop\n          pop\n          jump\t// out\n            /* \"#utility.yul\":2364:2719   */\n        tag_22:\n            /* \"#utility.yul\":2431:2436   */\n          0x00\n            /* \"#utility.yul\":2480:2483   */\n          dup3\n            /* \"#utility.yul\":2473:2477   */\n          0x1f\n            /* \"#utility.yul\":2465:2471   */\n          dup4\n            /* \"#utility.yul\":2461:2478   */\n          add\n            /* \"#utility.yul\":2457:2484   */\n          slt\n            /* \"#utility.yul\":2447:2569   */\n          tag_79\n          jumpi\n            /* \"#utility.yul\":2488:2567   */\n          tag_80\n          tag_13\n          jump\t// in\n        tag_80:\n            /* \"#utility.yul\":2447:2569   */\n        tag_79:\n            /* \"#utility.yul\":2598:2604   */\n          dup2\n            /* \"#utility.yul\":2592:2605   */\n          mload\n            /* \"#utility.yul\":2623:2713   */\n          tag_81\n            /* \"#utility.yul\":2709:2712   */\n          dup5\n            /* \"#utility.yul\":2701:2707   */\n          dup3\n            /* \"#utility.yul\":2694:2698   */\n          0x20\n            /* \"#utility.yul\":2686:2692   */\n          dup7\n            /* \"#utility.yul\":2682:2699   */\n          add\n            /* \"#utility.yul\":2623:2713   */\n          tag_21\n          jump\t// in\n        tag_81:\n            /* \"#utility.yul\":2614:2713   */\n          swap2\n          pop\n            /* \"#utility.yul\":2437:2719   */\n          pop\n            /* \"#utility.yul\":2364:2719   */\n          swap3\n          swap2\n          pop\n          pop\n          jump\t// out\n            /* \"#utility.yul\":2725:2802   */\n        tag_23:\n            /* \"#utility.yul\":2762:2769   */\n          0x00\n            /* \"#utility.yul\":2791:2796   */\n          dup2\n            /* \"#utility.yul\":2780:2796   */\n          swap1\n          pop\n            /* \"#utility.yul\":2725:2802   */\n          swap2\n          swap1\n          pop\n          jump\t// out\n            /* \"#utility.yul\":2808:2930   */\n        tag_24:\n            /* \"#utility.yul\":2881:2905   */\n          tag_84\n            /* \"#utility.yul\":2899:2904   */\n          dup2\n            /* \"#utility.yul\":2881:2905   */\n          tag_23\n          jump\t// in\n        tag_84:\n            /* \"#utility.yul\":2874:2879   */\n          dup2\n            /* \"#utility.yul\":2871:2906   */\n          eq\n            /* \"#utility.yul\":2861:2924   */\n          tag_85\n          jumpi\n            /* \"#utility.yul\":2920:2921   */\n          0x00\n            /* \"#utility.yul\":2917:2918   */\n          dup1\n            /* \"#utility.yul\":2910:2922   */\n          revert\n            /* \"#utility.yul\":2861:2924   */\n        tag_85:\n            /* \"#utility.yul\":2808:2930   */\n          pop\n          jump\t// out\n            /* \"#utility.yul\":2936:3079   */\n        tag_25:\n            /* \"#utility.yul\":2993:2998   */\n          0x00\n            /* \"#utility.yul\":3024:3030   */\n          dup2\n            /* \"#utility.yul\":3018:3031   */\n          mload\n            /* \"#utility.yul\":3009:3031   */\n          swap1\n          pop\n            /* \"#utility.yul\":3040:3073   */\n          tag_87\n            /* \"#utility.yul\":3067:3072   */\n          dup2\n            /* \"#utility.yul\":3040:3073   */\n          tag_24\n          jump\t// in\n        tag_87:\n            /* \"#utility.yul\":2936:3079   */\n          swap3\n          swap2\n          pop\n          pop\n          jump\t// out\n            /* \"#utility.yul\":3085:3211   */\n        tag_26:\n            /* \"#utility.yul\":3122:3129   */\n          0x00\n            /* \"#utility.yul\":3162:3204   */\n          0xffffffffffffffffffffffffffffffffffffffff\n            /* \"#utility.yul\":3155:3160   */\n          dup3\n            /* \"#utility.yul\":3151:3205   */\n          and\n            /* \"#utility.yul\":3140:3205   */\n          swap1\n          pop\n            /* \"#utility.yul\":3085:3211   */\n          swap2\n          swap1\n          pop\n          jump\t// out\n            /* \"#utility.yul\":3217:3313   */\n        tag_27:\n            /* \"#utility.yul\":3254:3261   */\n          0x00\n            /* \"#utility.yul\":3283:3307   */\n          tag_90\n            /* \"#utility.yul\":3301:3306   */\n          dup3\n            /* \"#utility.yul\":3283:3307   */\n          tag_26\n          jump\t// in\n        tag_90:\n            /* \"#utility.yul\":3272:3307   */\n          swap1\n          pop\n            /* \"#utility.yul\":3217:3313   */\n          swap2\n          swap1\n          pop\n          jump\t// out\n            /* \"#utility.yul\":3319:3441   */\n        tag_28:\n            /* \"#utility.yul\":3392:3416   */\n          tag_92\n            /* \"#utility.yul\":3410:3415   */\n          dup2\n            /* \"#utility.yul\":3392:3416   */\n          tag_27\n          jump\t// in\n        tag_92:\n            /* \"#utility.yul\":3385:3390   */\n          dup2\n            /* \"#utility.yul\":3382:3417   */\n          eq\n            /* \"#utility.yul\":3372:3435   */\n          tag_93\n          jumpi\n            /* \"#utility.yul\":3431:3432   */\n          0x00\n            /* \"#utility.yul\":3428:3429   */\n          dup1\n            /* \"#utility.yul\":3421:3433   */\n          revert\n            /* \"#utility.yul\":3372:3435   */\n        tag_93:\n            /* \"#utility.yul\":3319:3441   */\n          pop\n          jump\t// out\n            /* \"#utility.yul\":3447:3590   */\n        tag_29:\n            /* \"#utility.yul\":3504:3509   */\n          0x00\n            /* \"#utility.yul\":3535:3541   */\n          dup2\n            /* \"#utility.yul\":3529:3542   */\n          mload\n            /* \"#utility.yul\":3520:3542   */\n          swap1\n          pop\n            /* \"#utility.yul\":3551:3584   */\n          tag_95\n            /* \"#utility.yul\":3578:3583   */\n          dup2\n            /* \"#utility.yul\":3551:3584   */\n          tag_28\n          jump\t// in\n        tag_95:\n            /* \"#utility.yul\":3447:3590   */\n          swap3\n          swap2\n          pop\n          pop\n          jump\t// out\n            /* \"#utility.yul\":3596:4762   */\n        tag_3:\n            /* \"#utility.yul\":3713:3719   */\n          0x00\n            /* \"#utility.yul\":3721:3727   */\n          dup1\n            /* \"#utility.yul\":3729:3735   */\n          0x00\n            /* \"#utility.yul\":3737:3743   */\n          dup1\n            /* \"#utility.yul\":3786:3789   */\n          0x80\n            /* \"#utility.yul\":3774:3783   */\n          dup6\n            /* \"#utility.yul\":3765:3772   */\n          dup8\n            /* \"#utility.yul\":3761:3784   */\n          sub\n            /* \"#utility.yul\":3757:3790   */\n          slt\n            /* \"#utility.yul\":3754:3874   */\n          iszero\n          tag_97\n          jumpi\n            /* \"#utility.yul\":3793:3872   */\n          tag_98\n          tag_11\n          jump\t// in\n        tag_98:\n            /* \"#utility.yul\":3754:3874   */\n        tag_97:\n            /* \"#utility.yul\":3934:3935   */\n          0x00\n            /* \"#utility.yul\":3923:3932   */\n          dup6\n            /* \"#utility.yul\":3919:3936   */\n          add\n            /* \"#utility.yul\":3913:3937   */\n          mload\n            /* \"#utility.yul\":3964:3982   */\n          0xffffffffffffffff\n            /* \"#utility.yul\":3956:3962   */\n          dup2\n            /* \"#utility.yul\":3953:3983   */\n          gt\n            /* \"#utility.yul\":3950:4067   */\n          iszero\n          tag_99\n          jumpi\n            /* \"#utility.yul\":3986:4065   */\n          tag_100\n          tag_12\n          jump\t// in\n        tag_100:\n            /* \"#utility.yul\":3950:4067   */\n        tag_99:\n            /* \"#utility.yul\":4091:4165   */\n          tag_101\n            /* \"#utility.yul\":4157:4164   */\n          dup8\n            /* \"#utility.yul\":4148:4154   */\n          dup3\n            /* \"#utility.yul\":4137:4146   */\n          dup9\n            /* \"#utility.yul\":4133:4155   */\n          add\n            /* \"#utility.yul\":4091:4165   */\n          tag_22\n          jump\t// in\n        tag_101:\n            /* \"#utility.yul\":4081:4165   */\n          swap5\n          pop\n            /* \"#utility.yul\":3884:4175   */\n          pop\n            /* \"#utility.yul\":4235:4237   */\n          0x20\n            /* \"#utility.yul\":4224:4233   */\n          dup6\n            /* \"#utility.yul\":4220:4238   */\n          add\n            /* \"#utility.yul\":4214:4239   */\n          mload\n            /* \"#utility.yul\":4266:4284   */\n          0xffffffffffffffff\n            /* \"#utility.yul\":4258:4264   */\n          dup2\n            /* \"#utility.yul\":4255:4285   */\n          gt\n            /* \"#utility.yul\":4252:4369   */\n          iszero\n          tag_102\n          jumpi\n            /* \"#utility.yul\":4288:4367   */\n          tag_103\n          tag_12\n          jump\t// in\n        tag_103:\n            /* \"#utility.yul\":4252:4369   */\n        tag_102:\n            /* \"#utility.yul\":4393:4467   */\n          tag_104\n            /* \"#utility.yul\":4459:4466   */\n          dup8\n            /* \"#utility.yul\":4450:4456   */\n          dup3\n            /* \"#utility.yul\":4439:4448   */\n          dup9\n            /* \"#utility.yul\":4435:4457   */\n          add\n            /* \"#utility.yul\":4393:4467   */\n          tag_22\n          jump\t// in\n        tag_104:\n            /* \"#utility.yul\":4383:4467   */\n          swap4\n          pop\n            /* \"#utility.yul\":4185:4477   */\n          pop\n            /* \"#utility.yul\":4516:4518   */\n          0x40\n            /* \"#utility.yul\":4542:4606   */\n          tag_105\n            /* \"#utility.yul\":4598:4605   */\n          dup8\n            /* \"#utility.yul\":4589:4595   */\n          dup3\n            /* \"#utility.yul\":4578:4587   */\n          dup9\n            /* \"#utility.yul\":4574:4596   */\n          add\n            /* \"#utility.yul\":4542:4606   */\n          tag_25\n          jump\t// in\n        tag_105:\n            /* \"#utility.yul\":4532:4606   */\n          swap3\n          pop\n            /* \"#utility.yul\":4487:4616   */\n          pop\n            /* \"#utility.yul\":4655:4657   */\n          0x60\n            /* \"#utility.yul\":4681:4745   */\n          tag_106\n            /* \"#utility.yul\":4737:4744   */\n          dup8\n            /* \"#utility.yul\":4728:4734   */\n          dup3\n            /* \"#utility.yul\":4717:4726   */\n          dup9\n            /* \"#utility.yul\":4713:4735   */\n          add\n            /* \"#utility.yul\":4681:4745   */\n          tag_29\n          jump\t// in\n        tag_106:\n            /* \"#utility.yul\":4671:4745   */\n          swap2\n          pop\n            /* \"#utility.yul\":4626:4755   */\n          pop\n            /* \"#utility.yul\":3596:4762   */\n          swap3\n          swap6\n          swap2\n          swap5\n          pop\n          swap3\n          pop\n          jump\t// out\n            /* \"#utility.yul\":4768:4867   */\n        tag_30:\n            /* \"#utility.yul\":4820:4826   */\n          0x00\n            /* \"#utility.yul\":4854:4859   */\n          dup2\n            /* \"#utility.yul\":4848:4860   */\n          mload\n            /* \"#utility.yul\":4838:4860   */\n          swap1\n          pop\n            /* \"#utility.yul\":4768:4867   */\n          swap2\n          swap1\n          pop\n          jump\t// out\n            /* \"#utility.yul\":4873:5053   */\n        tag_31:\n            /* \"#utility.yul\":4921:4998   */\n          0x4e487b7100000000000000000000000000000000000000000000000000000000\n            /* \"#utility.yul\":4918:4919   */\n          0x00\n            /* \"#utility.yul\":4911:4999   */\n          mstore\n            /* \"#utility.yul\":5018:5022   */\n          0x22\n            /* \"#utility.yul\":5015:5016   */\n          0x04\n            /* \"#utility.yul\":5008:5023   */\n          mstore\n            /* \"#utility.yul\":5042:5046   */\n          0x24\n            /* \"#utility.yul\":5039:5040   */\n          0x00\n            /* \"#utility.yul\":5032:5047   */\n          revert\n            /* \"#utility.yul\":5059:5379   */\n        tag_32:\n            /* \"#utility.yul\":5103:5109   */\n          0x00\n            /* \"#utility.yul\":5140:5141   */\n          0x02\n            /* \"#utility.yul\":5134:5138   */\n          dup3\n            /* \"#utility.yul\":5130:5142   */\n          div\n            /* \"#utility.yul\":5120:5142   */\n          swap1\n          pop\n            /* \"#utility.yul\":5187:5188   */\n          0x01\n            /* \"#utility.yul\":5181:5185   */\n          dup3\n            /* \"#utility.yul\":5177:5189   */\n          and\n            /* \"#utility.yul\":5208:5226   */\n          dup1\n            /* \"#utility.yul\":5198:5279   */\n          tag_110\n          jumpi\n            /* \"#utility.yul\":5264:5268   */\n          0x7f\n            /* \"#utility.yul\":5256:5262   */\n          dup3\n            /* \"#utility.yul\":5252:5269   */\n          and\n            /* \"#utility.yul\":5242:5269   */\n          swap2\n          pop\n            /* \"#utility.yul\":5198:5279   */\n        tag_110:\n            /* \"#utility.yul\":5326:5328   */\n          0x20\n            /* \"#utility.yul\":5318:5324   */\n          dup3\n            /* \"#utility.yul\":5315:5329   */\n          lt\n            /* \"#utility.yul\":5295:5313   */\n          dup2\n            /* \"#utility.yul\":5292:5330   */\n          sub\n            /* \"#utility.yul\":5289:5373   */\n          tag_111\n          jumpi\n            /* \"#utility.yul\":5345:5363   */\n          tag_112\n          tag_31\n          jump\t// in\n        tag_112:\n            /* \"#utility.yul\":5289:5373   */\n        tag_111:\n            /* \"#utility.yul\":5110:5379   */\n          pop\n            /* \"#utility.yul\":5059:5379   */\n          swap2\n          swap1\n          pop\n          jump\t// out\n            /* \"#utility.yul\":5385:5526   */\n        tag_33:\n            /* \"#utility.yul\":5434:5438   */\n          0x00\n            /* \"#utility.yul\":5457:5460   */\n          dup2\n            /* \"#utility.yul\":5449:5460   */\n          swap1\n          pop\n            /* \"#utility.yul\":5480:5483   */\n          dup2\n            /* \"#utility.yul\":5477:5478   */\n          0x00\n            /* \"#utility.yul\":5470:5484   */\n          mstore\n            /* \"#utility.yul\":5514:5518   */\n          0x20\n            /* \"#utility.yul\":5511:5512   */\n          0x00\n            /* \"#utility.yul\":5501:5519   */\n          keccak256\n            /* \"#utility.yul\":5493:5519   */\n          swap1\n          pop\n            /* \"#utility.yul\":5385:5526   */\n          swap2\n          swap1\n          pop\n          jump\t// out\n            /* \"#utility.yul\":5532:5625   */\n        tag_34:\n            /* \"#utility.yul\":5569:5575   */\n          0x00\n            /* \"#utility.yul\":5616:5618   */\n          0x20\n            /* \"#utility.yul\":5611:5613   */\n          0x1f\n            /* \"#utility.yul\":5604:5609   */\n          dup4\n            /* \"#utility.yul\":5600:5614   */\n          add\n            /* \"#utility.yul\":5596:5619   */\n          div\n            /* \"#utility.yul\":5586:5619   */\n          swap1\n          pop\n            /* \"#utility.yul\":5532:5625   */\n          swap2\n          swap1\n          pop\n          jump\t// out\n            /* \"#utility.yul\":5631:5738   */\n        tag_35:\n            /* \"#utility.yul\":5675:5683   */\n          0x00\n            /* \"#utility.yul\":5725:5730   */\n          dup3\n            /* \"#utility.yul\":5719:5723   */\n          dup3\n            /* \"#utility.yul\":5715:5731   */\n          shl\n            /* \"#utility.yul\":5694:5731   */\n          swap1\n          pop\n            /* \"#utility.yul\":5631:5738   */\n          swap3\n          swap2\n          pop\n          pop\n          jump\t// out\n            /* \"#utility.yul\":5744:6137   */\n        tag_36:\n            /* \"#utility.yul\":5813:5819   */\n          0x00\n            /* \"#utility.yul\":5863:5864   */\n          0x08\n            /* \"#utility.yul\":5851:5861   */\n          dup4\n            /* \"#utility.yul\":5847:5865   */\n          mul\n            /* \"#utility.yul\":5886:5983   */\n          tag_117\n            /* \"#utility.yul\":5916:5982   */\n          0xffffffffffffffffffffffffffffffffffffffffffffffffffffffffffffffff\n            /* \"#utility.yul\":5905:5914   */\n          dup3\n            /* \"#utility.yul\":5886:5983   */\n          tag_35\n          jump\t// in\n        tag_117:\n            /* \"#utility.yul\":6004:6043   */\n          tag_118\n            /* \"#utility.yul\":6034:6042   */\n          dup7\n            /* \"#utility.yul\":6023:6032   */\n          dup4\n            /* \"#utility.yul\":6004:6043   */\n          tag_35\n          jump\t// in\n        tag_118:\n            /* \"#utility.yul\":5992:6043   */\n          swap6\n          pop\n            /* \"#utility.yul\":6076:6080   */\n          dup1\n            /* \"#utility.yul\":6072:6081   */\n          not\n            /* \"#utility.yul\":6065:6070   */\n          dup5\n            /* \"#utility.yul\":6061:6082   */\n          and\n            /* \"#utility.yul\":6052:6082   */\n          swap4\n          pop\n            /* \"#utility.yul\":6125:6129   */\n          dup1\n            /* \"#utility.yul\":6115:6123   */\n          dup7\n            /* \"#utility.yul\":6111:6130   */\n          and\n            /* \"#utility.yul\":6104:6109   */\n          dup5\n            /* \"#utility.yul\":6101:6131   */\n          or\n            /* \"#utility.yul\":6091:6131   */\n          swap3\n          pop\n            /* \"#utility.yul\":5820:6137   */\n          pop\n          pop\n            /* \"#utility.yul\":5744:6137   */\n          swap4\n          swap3\n          pop\n          pop\n          pop\n          jump\t// out\n            /* \"#utility.yul\":6143:6203   */\n        tag_37:\n            /* \"#utility.yul\":6171:6174   */\n          0x00\n            /* \"#utility.yul\":6192:6197   */\n          dup2\n            /* \"#utility.yul\":6185:6197   */\n          swap1\n          pop\n            /* \"#utility.yul\":6143:6203   */\n          swap2\n          swap1\n          pop\n          jump\t// out\n            /* \"#utility.yul\":6209:6351   */\n        tag_38:\n            /* \"#utility.yul\":6259:6268   */\n          0x00\n            /* \"#utility.yul\":6292:6345   */\n          tag_121\n            /* \"#utility.yul\":6310:6344   */\n          tag_122\n            /* \"#utility.yul\":6319:6343   */\n          tag_123\n            /* \"#utility.yul\":6337:6342   */\n          dup5\n            /* \"#utility.yul\":6319:6343   */\n          tag_23\n          jump\t// in\n        tag_123:\n            /* \"#utility.yul\":6310:6344   */\n          tag_37\n          jump\t// in\n        tag_122:\n            /* \"#utility.yul\":6292:6345   */\n          tag_23\n          jump\t// in\n        tag_121:\n            /* \"#utility.yul\":6279:6345   */\n          swap1\n          pop\n            /* \"#utility.yul\":6209:6351   */\n          swap2\n          swap1\n          pop\n          jump\t// out\n            /* \"#utility.yul\":6357:6432   */\n        tag_39:\n            /* \"#utility.yul\":6400:6403   */\n          0x00\n            /* \"#utility.yul\":6421:6426   */\n          dup2\n            /* \"#utility.yul\":6414:6426   */\n          swap1\n          pop\n            /* \"#utility.yul\":6357:6432   */\n          swap2\n          swap1\n          pop\n          jump\t// out\n            /* \"#utility.yul\":6438:6707   */\n        tag_40:\n            /* \"#utility.yul\":6548:6587   */\n          tag_126\n            /* \"#utility.yul\":6579:6586   */\n          dup4\n            /* \"#utility.yul\":6548:6587   */\n          tag_38\n          jump\t// in\n        tag_126:\n            /* \"#utility.yul\":6609:6700   */\n          tag_127\n            /* \"#utility.yul\":6658:6699   */\n          tag_128\n            /* \"#utility.yul\":6682:6698   */\n          dup3\n            /* \"#utility.yul\":6658:6699   */\n          tag_39\n          jump\t// in\n        tag_128:\n            /* \"#utility.yul\":6650:6656   */\n          dup5\n            /* \"#utility.yul\":6643:6647   */\n          dup5\n            /* \"#utility.yul\":6637:6648   */\n          sload\n            /* \"#utility.yul\":6609:6700   */\n          tag_36\n          jump\t// in\n        tag_127:\n            /* \"#utility.yul\":6603:6607   */\n          dup3\n            /* \"#utility.yul\":6596:6701   */\n          sstore\n            /* \"#utility.yul\":6514:6707   */\n          pop\n            /* \"#utility.yul\":6438:6707   */\n          pop\n          pop\n          pop\n          jump\t// out\n            /* \"#utility.yul\":6713:6786   */\n        tag_41:\n            /* \"#utility.yul\":6758:6761   */\n          0x00\n            /* \"#utility.yul\":6713:6786   */\n          swap1\n          jump\t// out\n            /* \"#utility.yul\":6792:6981   */\n        tag_42:\n            /* \"#utility.yul\":6869:6901   */\n          tag_131\n          tag_41\n          jump\t// in\n        tag_131:\n            /* \"#utility.yul\":6910:6975   */\n          tag_132\n            /* \"#utility.yul\":6968:6974   */\n          dup2\n            /* \"#utility.yul\":6960:6966   */\n          dup5\n            /* \"#utility.yul\":6954:6958   */\n          dup5\n            /* \"#utility.yul\":6910:6975   */\n          tag_40\n          jump\t// in\n        tag_132:\n            /* \"#utility.yul\":6845:6981   */\n          pop\n            /* \"#utility.yul\":6792:6981   */\n          pop\n          pop\n          jump\t// out\n            /* \"#utility.yul\":6987:7173   */\n        tag_43:\n            /* \"#utility.yul\":7047:7167   */\n        tag_134:\n            /* \"#utility.yul\":7064:7067   */\n          dup2\n            /* \"#utility.yul\":7057:7062   */\n          dup2\n            /* \"#utility.yul\":7054:7068   */\n          lt\n            /* \"#utility.yul\":7047:7167   */\n          iszero\n          tag_136\n          jumpi\n            /* \"#utility.yul\":7118:7157   */\n          tag_137\n            /* \"#utility.yul\":7155:7156   */\n          0x00\n            /* \"#utility.yul\":7148:7153   */\n          dup3\n            /* \"#utility.yul\":7118:7157   */\n          tag_42\n          jump\t// in\n        tag_137:\n            /* \"#utility.yul\":7091:7092   */\n          0x01\n            /* \"#utility.yul\":7084:7089   */\n          dup2\n            /* \"#utility.yul\":7080:7093   */\n          add\n            /* \"#utility.yul\":7071:7093   */\n          swap1\n          pop\n            /* \"#utility.yul\":7047:7167   */\n          jump(tag_134)\n        tag_136:\n            /* \"#utility.yul\":6987:7173   */\n          pop\n          pop\n          jump\t// out\n            /* \"#utility.yul\":7179:7722   */\n        tag_44:\n            /* \"#utility.yul\":7280:7282   */\n          0x1f\n            /* \"#utility.yul\":7275:7278   */\n          dup3\n            /* \"#utility.yul\":7272:7283   */\n          gt\n            /* \"#utility.yul\":7269:7715   */\n          iszero\n          tag_139\n          jumpi\n            /* \"#utility.yul\":7314:7352   */\n          tag_140\n            /* \"#utility.yul\":7346:7351   */\n          dup2\n            /* \"#utility.yul\":7314:7352   */\n          tag_33\n          jump\t// in\n        tag_140:\n            /* \"#utility.yul\":7398:7427   */\n          tag_141\n            /* \"#utility.yul\":7416:7426   */\n          dup5\n            /* \"#utility.yul\":7398:7427   */\n          tag_34\n          jump\t// in\n        tag_141:\n            /* \"#utility.yul\":7388:7396   */\n          dup2\n            /* \"#utility.yul\":7384:7428   */\n          add\n            /* \"#utility.yul\":7581:7583   */\n          0x20\n            /* \"#utility.yul\":7569:7579   */\n          dup6\n            /* \"#utility.yul\":7566:7584   */\n          lt\n            /* \"#utility.yul\":7563:7612   */\n          iszero\n          tag_142\n          jumpi\n            /* \"#utility.yul\":7602:7610   */\n          dup2\n            /* \"#utility.yul\":7587:7610   */\n          swap1\n          pop\n            /* \"#utility.yul\":7563:7612   */\n        tag_142:\n            /* \"#utility.yul\":7625:7705   */\n          tag_143\n            /* \"#utility.yul\":7681:7703   */\n          tag_144\n            /* \"#utility.yul\":7699:7702   */\n          dup6\n            /* \"#utility.yul\":7681:7703   */\n          tag_34\n          jump\t// in\n        tag_144:\n            /* \"#utility.yul\":7671:7679   */\n          dup4\n            /* \"#utility.yul\":7667:7704   */\n          add\n            /* \"#utility.yul\":7654:7665   */\n          dup3\n            /* \"#utility.yul\":7625:7705   */\n          tag_43\n          jump\t// in\n        tag_143:\n            /* \"#utility.yul\":7284:7715   */\n          pop\n          pop\n            /* \"#utility.yul\":7269:7715   */\n        tag_139:\n            /* \"#utility.yul\":7179:7722   */\n          pop\n          pop\n          pop\n          jump\t// out\n            /* \"#utility.yul\":7728:7845   */\n        tag_45:\n            /* \"#utility.yul\":7782:7790   */\n          0x00\n            /* \"#utility.yul\":7832:7837   */\n          dup3\n            /* \"#utility.yul\":7826:7830   */\n          dup3\n            /* \"#utility.yul\":7822:7838   */\n          shr\n            /* \"#utility.yul\":7801:7838   */\n          swap1\n          pop\n            /* \"#utility.yul\":7728:7845   */\n          swap3\n          swap2\n          pop\n          pop\n          jump\t// out\n            /* \"#utility.yul\":7851:8020   */\n        tag_46:\n            /* \"#utility.yul\":7895:7901   */\n          0x00\n            /* \"#utility.yul\":7928:7979   */\n          tag_147\n            /* \"#utility.yul\":7976:7977   */\n          0x00\n            /* \"#utility.yul\":7972:7978   */\n          not\n            /* \"#utility.yul\":7964:7969   */\n          dup5\n            /* \"#utility.yul\":7961:7962   */\n          0x08\n            /* \"#utility.yul\":7957:7970   */\n          mul\n            /* \"#utility.yul\":7928:7979   */\n          tag_45\n          jump\t// in\n        tag_147:\n            /* \"#utility.yul\":7924:7980   */\n          not\n            /* \"#utility.yul\":8009:8013   */\n          dup1\n            /* \"#utility.yul\":8003:8007   */\n          dup4\n            /* \"#utility.yul\":7999:8014   */\n          and\n            /* \"#utility.yul\":7989:8014   */\n          swap2\n          pop\n            /* \"#utility.yul\":7902:8020   */\n          pop\n            /* \"#utility.yul\":7851:8020   */\n          swap3\n          swap2\n          pop\n          pop\n          jump\t// out\n            /* \"#utility.yul\":8025:8320   */\n        tag_47:\n            /* \"#utility.yul\":8101:8105   */\n          0x00\n            /* \"#utility.yul\":8247:8276   */\n          tag_149\n            /* \"#utility.yul\":8272:8275   */\n          dup4\n            /* \"#utility.yul\":8266:8270   */\n          dup4\n            /* \"#utility.yul\":8247:8276   */\n          tag_46\n          jump\t// in\n        tag_149:\n            /* \"#utility.yul\":8239:8276   */\n          swap2\n          pop\n            /* \"#utility.yul\":8309:8312   */\n          dup3\n            /* \"#utility.yul\":8306:8307   */\n          0x02\n            /* \"#utility.yul\":8302:8313   */\n          mul\n            /* \"#utility.yul\":8296:8300   */\n          dup3\n            /* \"#utility.yul\":8293:8314   */\n          or\n            /* \"#utility.yul\":8285:8314   */\n          swap1\n          pop\n            /* \"#utility.yul\":8025:8320   */\n          swap3\n          swap2\n          pop\n          pop\n          jump\t// out\n            /* \"#utility.yul\":8325:9720   */\n        tag_7:\n            /* \"#utility.yul\":8442:8479   */\n          tag_151\n            /* \"#utility.yul\":8475:8478   */\n          dup3\n            /* \"#utility.yul\":8442:8479   */\n          tag_30\n          jump\t// in\n        tag_151:\n            /* \"#utility.yul\":8544:8562   */\n          0xffffffffffffffff\n            /* \"#utility.yul\":8536:8542   */\n          dup2\n            /* \"#utility.yul\":8533:8563   */\n          gt\n            /* \"#utility.yul\":8530:8586   */\n          iszero\n          tag_152\n          jumpi\n            /* \"#utility.yul\":8566:8584   */\n          tag_153\n          tag_16\n          jump\t// in\n        tag_153:\n            /* \"#utility.yul\":8530:8586   */\n        tag_152:\n            /* \"#utility.yul\":8610:8648   */\n          tag_154\n            /* \"#utility.yul\":8642:8646   */\n          dup3\n            /* \"#utility.yul\":8636:8647   */\n          sload\n            /* \"#utility.yul\":8610:8648   */\n          tag_32\n          jump\t// in\n        tag_154:\n            /* \"#utility.yul\":8695:8762   */\n          tag_155\n            /* \"#utility.yul\":8755:8761   */\n          dup3\n            /* \"#utility.yul\":8747:8753   */\n          dup3\n            /* \"#utility.yul\":8741:8745   */\n          dup6\n            /* \"#utility.yul\":8695:8762   */\n          tag_44\n          jump\t// in\n        tag_155:\n            /* \"#utility.yul\":8789:8790   */\n          0x00\n            /* \"#utility.yul\":8813:8817   */\n          0x20\n            /* \"#utility.yul\":8800:8817   */\n          swap1\n          pop\n            /* \"#utility.yul\":8845:8847   */\n          0x1f\n            /* \"#utility.yul\":8837:8843   */\n          dup4\n            /* \"#utility.yul\":8834:8848   */\n          gt\n            /* \"#utility.yul\":8862:8863   */\n          0x01\n            /* \"#utility.yul\":8857:9475   */\n          dup2\n          eq\n          tag_157\n          jumpi\n            /* \"#utility.yul\":9519:9520   */\n          0x00\n            /* \"#utility.yul\":9536:9542   */\n          dup5\n            /* \"#utility.yul\":9533:9610   */\n          iszero\n          tag_158\n          jumpi\n            /* \"#utility.yul\":9585:9594   */\n          dup3\n            /* \"#utility.yul\":9580:9583   */\n          dup8\n            /* \"#utility.yul\":9576:9595   */\n          add\n            /* \"#utility.yul\":9570:9596   */\n          mload\n            /* \"#utility.yul\":9561:9596   */\n          swap1\n          pop\n            /* \"#utility.yul\":9533:9610   */\n        tag_158:\n            /* \"#utility.yul\":9636:9703   */\n          tag_159\n            /* \"#utility.yul\":9696:9702   */\n          dup6\n            /* \"#utility.yul\":9689:9694   */\n          dup3\n            /* \"#utility.yul\":9636:9703   */\n          tag_47\n          jump\t// in\n        tag_159:\n            /* \"#utility.yul\":9630:9634   */\n          dup7\n            /* \"#utility.yul\":9623:9704   */\n          sstore\n            /* \"#utility.yul\":9492:9714   */\n          pop\n            /* \"#utility.yul\":8827:9714   */\n          jump(tag_156)\n            /* \"#utility.yul\":8857:9475   */\n        tag_157:\n            /* \"#utility.yul\":8909:8913   */\n          0x1f\n            /* \"#utility.yul\":8905:8914   */\n          not\n            /* \"#utility.yul\":8897:8903   */\n          dup5\n            /* \"#utility.yul\":8893:8915   */\n          and\n            /* \"#utility.yul\":8943:8980   */\n          tag_160\n            /* \"#utility.yul\":8975:8979   */\n          dup7\n            /* \"#utility.yul\":8943:8980   */\n          tag_33\n          jump\t// in\n        tag_160:\n            /* \"#utility.yul\":9002:9003   */\n          0x00\n            /* \"#utility.yul\":9016:9224   */\n        tag_161:\n            /* \"#utility.yul\":9030:9037   */\n          dup3\n            /* \"#utility.yul\":9027:9028   */\n          dup2\n            /* \"#utility.yul\":9024:9038   */\n          lt\n            /* \"#utility.yul\":9016:9224   */\n          iszero\n          tag_163\n          jumpi\n            /* \"#utility.yul\":9109:9118   */\n          dup5\n            /* \"#utility.yul\":9104:9107   */\n          dup10\n            /* \"#utility.yul\":9100:9119   */\n          add\n            /* \"#utility.yul\":9094:9120   */\n          mload\n            /* \"#utility.yul\":9086:9092   */\n          dup3\n            /* \"#utility.yul\":9079:9121   */\n          sstore\n            /* \"#utility.yul\":9160:9161   */\n          0x01\n            /* \"#utility.yul\":9152:9158   */\n          dup3\n            /* \"#utility.yul\":9148:9162   */\n          add\n            /* \"#utility.yul\":9138:9162   */\n          swap2\n          pop\n            /* \"#utility.yul\":9207:9209   */\n          0x20\n            /* \"#utility.yul\":9196:9205   */\n          dup6\n            /* \"#utility.yul\":9192:9210   */\n          add\n            /* \"#utility.yul\":9179:9210   */\n          swap5\n          pop\n            /* \"#utility.yul\":9053:9057   */\n          0x20\n            /* \"#utility.yul\":9050:9051   */\n          dup2\n            /* \"#utility.yul\":9046:9058   */\n          add\n            /* \"#utility.yul\":9041:9058   */\n          swap1\n          pop\n            /* \"#utility.yul\":9016:9224   */\n          jump(tag_161)\n        tag_163:\n            /* \"#utility.yul\":9252:9258   */\n          dup7\n            /* \"#utility.yul\":9243:9250   */\n          dup4\n            /* \"#utility.yul\":9240:9259   */\n          lt\n            /* \"#utility.yul\":9237:9416   */\n          iszero\n          tag_164\n          jumpi\n            /* \"#utility.yul\":9310:9319   */\n          dup5\n            /* \"#utility.yul\":9305:9308   */\n          dup10\n            /* \"#utility.yul\":9301:9320   */\n          add\n            /* \"#utility.yul\":9295:9321   */\n          mload\n            /* \"#utility.yul\":9353:9401   */\n          tag_165\n            /* \"#utility.yul\":9395:9399   */\n          0x1f\n            /* \"#utility.yul\":9387:9393   */\n          dup10\n            /* \"#utility.yul\":9383:9400   */\n          and\n            /* \"#utility.yul\":9372:9381   */\n          dup3\n            /* \"#utility.yul\":9353:9401   */\n          tag_46\n          jump\t// in\n        tag_165:\n            /* \"#utility.yul\":9345:9351   */\n          dup4\n            /* \"#utility.yul\":9338:9402   */\n          sstore\n            /* \"#utility.yul\":9260:9416   */\n          pop\n            /* \"#utility.yul\":9237:9416   */\n        tag_164:\n            /* \"#utility.yul\":9462:9463   */\n          0x01\n            /* \"#utility.yul\":9458:9459   */\n          0x02\n            /* \"#utility.yul\":9450:9456   */\n          dup9\n            /* \"#utility.yul\":9446:9460   */\n          mul\n            /* \"#utility.yul\":9442:9464   */\n          add\n            /* \"#utility.yul\":9436:9440   */\n          dup9\n            /* \"#utility.yul\":9429:9465   */\n          sstore\n            /* \"#utility.yul\":8864:9475   */\n          pop\n          pop\n          pop\n            /* \"#utility.yul\":8827:9714   */\n        tag_156:\n          pop\n            /* \"#utility.yul\":8417:9720   */\n          pop\n          pop\n          pop\n            /* \"#utility.yul\":8325:9720   */\n          pop\n          pop\n          jump\t// out\n            /* \"Market.sol\":3361:4121  contract Nft {... */\n        tag_9:\n          dataSize(sub_0)\n          dup1\n          dataOffset(sub_0)\n          0x00\n          codecopy\n          0x00\n          return\n        stop\n\n        sub_0: assembly {\n                /* \"Market.sol\":3361:4121  contract Nft {... */\n              mstore(0x40, 0x80)\n              callvalue\n              dup1\n              iszero\n              tag_1\n              jumpi\n              0x00\n              dup1\n              revert\n            tag_1:\n              pop\n              jumpi(tag_2, lt(calldatasize, 0x04))\n              shr(0xe0, calldataload(0x00))\n              dup1\n              0x13af4035\n              eq\n              tag_3\n              jumpi\n              dup1\n              0x7ca5685f\n              eq\n              tag_4\n              jumpi\n            tag_2:\n              0x00\n              dup1\n              revert\n                /* \"Market.sol\":3799:3909  function setOwner(address addressNewOwner) public onlyOwningMarketCan {... */\n            tag_3:\n              tag_5\n              0x04\n              dup1\n              calldatasize\n              sub\n              dup2\n              add\n              swap1\n              tag_6\n              swap2\n              swap1\n              tag_7\n              jump\t// in\n            tag_6:\n              tag_8\n              jump\t// in\n            tag_5:\n              stop\n                /* \"Market.sol\":3918:4118  function getNftInfo() public view returns (string memory, address, string memory, uint){... */\n            tag_4:\n              tag_9\n              tag_10\n              jump\t// in\n            tag_9:\n              mload(0x40)\n              tag_11\n              swap5\n              swap4\n              swap3\n              swap2\n              swap1\n              tag_12\n              jump\t// in\n            tag_11:\n              mload(0x40)\n              dup1\n              swap2\n              sub\n              swap1\n              return\n                /* \"Market.sol\":3799:3909  function setOwner(address addressNewOwner) public onlyOwningMarketCan {... */\n            tag_8:\n                /* \"Market.sol\":3537:3543  market */\n              0x04\n              0x00\n              swap1\n              sload\n              swap1\n              0x0100\n              exp\n              swap1\n              div\n              0xffffffffffffffffffffffffffffffffffffffff\n              and\n                /* \"Market.sol\":3523:3543  msg.sender == market */\n              0xffffffffffffffffffffffffffffffffffffffff\n              and\n                /* \"Market.sol\":3523:3533  msg.sender */\n              caller\n                /* \"Market.sol\":3523:3543  msg.sender == market */\n              0xffffffffffffffffffffffffffffffffffffffff\n              and\n              eq\n                /* \"Market.sol\":3515:3544  require(msg.sender == market) */\n              tag_14\n              jumpi\n              0x00\n              dup1\n              revert\n            tag_14:\n                /* \"Market.sol\":3887:3902  addressNewOwner */\n              dup1\n                /* \"Market.sol\":3879:3884  owner */\n              0x01\n              0x00\n                /* \"Market.sol\":3879:3902  owner = addressNewOwner */\n              0x0100\n              exp\n              dup2\n              sload\n              dup2\n              0xffffffffffffffffffffffffffffffffffffffff\n              mul\n              not\n              and\n              swap1\n              dup4\n              0xffffffffffffffffffffffffffffffffffffffff\n              and\n              mul\n              or\n              swap1\n              sstore\n              pop\n                /* \"Market.sol\":3799:3909  function setOwner(address addressNewOwner) public onlyOwningMarketCan {... */\n              pop\n              jump\t// out\n                /* \"Market.sol\":3918:4118  function getNftInfo() public view returns (string memory, address, string memory, uint){... */\n            tag_10:\n                /* \"Market.sol\":3961:3974  string memory */\n              0x60\n                /* \"Market.sol\":3976:3983  address */\n              0x00\n                /* \"Market.sol\":3985:3998  string memory */\n              0x60\n                /* \"Market.sol\":4000:4004  uint */\n              0x00\n                /* \"Market.sol\":4036:4040  name */\n              dup1\n                /* \"Market.sol\":4054:4059  owner */\n              0x01\n              0x00\n              swap1\n              sload\n              swap1\n              0x0100\n              exp\n              swap1\n              div\n              0xffffffffffffffffffffffffffffffffffffffff\n              and\n                /* \"Market.sol\":4073:4082  imageHash */\n              0x02\n                /* \"Market.sol\":4096:4101  index */\n              sload(0x03)\n                /* \"Market.sol\":4015:4111  return (... */\n              dup4\n              dup1\n              sload\n              tag_17\n              swap1\n              tag_18\n              jump\t// in\n            tag_17:\n              dup1\n              0x1f\n              add\n              0x20\n              dup1\n              swap2\n              div\n              mul\n              0x20\n              add\n              mload(0x40)\n              swap1\n              dup2\n              add\n              0x40\n              mstore\n              dup1\n              swap3\n              swap2\n              swap1\n              dup2\n              dup2\n              mstore\n              0x20\n              add\n              dup3\n              dup1\n              sload\n              tag_19\n              swap1\n              tag_18\n              jump\t// in\n            tag_19:\n              dup1\n              iszero\n              tag_20\n              jumpi\n              dup1\n              0x1f\n              lt\n              tag_21\n              jumpi\n              0x0100\n              dup1\n              dup4\n              sload\n              div\n              mul\n              dup4\n              mstore\n              swap2\n              0x20\n              add\n              swap2\n              jump(tag_20)\n            tag_21:\n              dup3\n              add\n              swap2\n              swap1\n              0x00\n              mstore\n              keccak256(0x00, 0x20)\n              swap1\n            tag_22:\n              dup2\n              sload\n              dup2\n              mstore\n              swap1\n              0x01\n              add\n              swap1\n              0x20\n              add\n              dup1\n              dup4\n              gt\n              tag_22\n              jumpi\n              dup3\n              swap1\n              sub\n              0x1f\n              and\n              dup3\n              add\n              swap2\n            tag_20:\n              pop\n              pop\n              pop\n              pop\n              pop\n              swap4\n              pop\n              dup2\n              dup1\n              sload\n              tag_23\n              swap1\n              tag_18\n              jump\t// in\n            tag_23:\n              dup1\n              0x1f\n              add\n              0x20\n              dup1\n              swap2\n              div\n              mul\n              0x20\n              add\n              mload(0x40)\n              swap1\n              dup2\n              add\n              0x40\n              mstore\n              dup1\n              swap3\n              swap2\n              swap1\n              dup2\n              dup2\n              mstore\n              0x20\n              add\n              dup3\n              dup1\n              sload\n              tag_24\n              swap1\n              tag_18\n              jump\t// in\n            tag_24:\n              dup1\n              iszero\n              tag_25\n              jumpi\n              dup1\n              0x1f\n              lt\n              tag_26\n              jumpi\n              0x0100\n              dup1\n              dup4\n              sload\n              div\n              mul\n              dup4\n              mstore\n              swap2\n              0x20\n              add\n              swap2\n              jump(tag_25)\n            tag_26:\n              dup3\n              add\n              swap2\n              swap1\n              0x00\n              mstore\n              keccak256(0x00, 0x20)\n              swap1\n            tag_27:\n              dup2\n              sload\n              dup2\n              mstore\n              swap1\n              0x01\n              add\n              swap1\n              0x20\n              add\n              dup1\n              dup4\n              gt\n              tag_27\n              jumpi\n              dup3\n              swap1\n              sub\n              0x1f\n              and\n              dup3\n              add\n              swap2\n            tag_25:\n              pop\n              pop\n              pop\n              pop\n              pop\n              swap2\n              pop\n              swap4\n              pop\n              swap4\n              pop\n              swap4\n              pop\n              swap4\n              pop\n                /* \"Market.sol\":3918:4118  function getNftInfo() public view returns (string memory, address, string memory, uint){... */\n              swap1\n              swap2\n              swap3\n              swap4\n              jump\t// out\n                /* \"#utility.yul\":88:205   */\n            tag_29:\n                /* \"#utility.yul\":197:198   */\n              0x00\n                /* \"#utility.yul\":194:195   */\n              dup1\n                /* \"#utility.yul\":187:199   */\n              revert\n                /* \"#utility.yul\":334:460   */\n            tag_31:\n                /* \"#utility.yul\":371:378   */\n              0x00\n                /* \"#utility.yul\":411:453   */\n              0xffffffffffffffffffffffffffffffffffffffff\n                /* \"#utility.yul\":404:409   */\n              dup3\n                /* \"#utility.yul\":400:454   */\n              and\n                /* \"#utility.yul\":389:454   */\n              swap1\n              pop\n                /* \"#utility.yul\":334:460   */\n              swap2\n              swap1\n              pop\n              jump\t// out\n                /* \"#utility.yul\":466:562   */\n            tag_32:\n                /* \"#utility.yul\":503:510   */\n              0x00\n                /* \"#utility.yul\":532:556   */\n              tag_50\n                /* \"#utility.yul\":550:555   */\n              dup3\n                /* \"#utility.yul\":532:556   */\n              tag_31\n              jump\t// in\n            tag_50:\n                /* \"#utility.yul\":521:556   */\n              swap1\n              pop\n                /* \"#utility.yul\":466:562   */\n              swap2\n              swap1\n              pop\n              jump\t// out\n                /* \"#utility.yul\":568:690   */\n            tag_33:\n                /* \"#utility.yul\":641:665   */\n              tag_52\n                /* \"#utility.yul\":659:664   */\n              dup2\n                /* \"#utility.yul\":641:665   */\n              tag_32\n              jump\t// in\n            tag_52:\n                /* \"#utility.yul\":634:639   */\n              dup2\n                /* \"#utility.yul\":631:666   */\n              eq\n                /* \"#utility.yul\":621:684   */\n              tag_53\n              jumpi\n                /* \"#utility.yul\":680:681   */\n              0x00\n                /* \"#utility.yul\":677:678   */\n              dup1\n                /* \"#utility.yul\":670:682   */\n              revert\n                /* \"#utility.yul\":621:684   */\n            tag_53:\n                /* \"#utility.yul\":568:690   */\n              pop\n              jump\t// out\n                /* \"#utility.yul\":696:835   */\n            tag_34:\n                /* \"#utility.yul\":742:747   */\n              0x00\n                /* \"#utility.yul\":780:786   */\n              dup2\n                /* \"#utility.yul\":767:787   */\n              calldataload\n                /* \"#utility.yul\":758:787   */\n              swap1\n              pop\n                /* \"#utility.yul\":796:829   */\n              tag_55\n                /* \"#utility.yul\":823:828   */\n              dup2\n                /* \"#utility.yul\":796:829   */\n              tag_33\n              jump\t// in\n            tag_55:\n                /* \"#utility.yul\":696:835   */\n              swap3\n              swap2\n              pop\n              pop\n              jump\t// out\n                /* \"#utility.yul\":841:1170   */\n            tag_7:\n                /* \"#utility.yul\":900:906   */\n              0x00\n                /* \"#utility.yul\":949:951   */\n              0x20\n                /* \"#utility.yul\":937:946   */\n              dup3\n                /* \"#utility.yul\":928:935   */\n              dup5\n                /* \"#utility.yul\":924:947   */\n              sub\n                /* \"#utility.yul\":920:952   */\n              slt\n                /* \"#utility.yul\":917:1036   */\n              iszero\n              tag_57\n              jumpi\n                /* \"#utility.yul\":955:1034   */\n              tag_58\n              tag_29\n              jump\t// in\n            tag_58:\n                /* \"#utility.yul\":917:1036   */\n            tag_57:\n                /* \"#utility.yul\":1075:1076   */\n              0x00\n                /* \"#utility.yul\":1100:1153   */\n              tag_59\n                /* \"#utility.yul\":1145:1152   */\n              dup5\n                /* \"#utility.yul\":1136:1142   */\n              dup3\n                /* \"#utility.yul\":1125:1134   */\n              dup6\n                /* \"#utility.yul\":1121:1143   */\n              add\n                /* \"#utility.yul\":1100:1153   */\n              tag_34\n              jump\t// in\n            tag_59:\n                /* \"#utility.yul\":1090:1153   */\n              swap2\n              pop\n                /* \"#utility.yul\":1046:1163   */\n              pop\n                /* \"#utility.yul\":841:1170   */\n              swap3\n              swap2\n              pop\n              pop\n              jump\t// out\n                /* \"#utility.yul\":1176:1275   */\n            tag_35:\n                /* \"#utility.yul\":1228:1234   */\n              0x00\n                /* \"#utility.yul\":1262:1267   */\n              dup2\n                /* \"#utility.yul\":1256:1268   */\n              mload\n                /* \"#utility.yul\":1246:1268   */\n              swap1\n              pop\n                /* \"#utility.yul\":1176:1275   */\n              swap2\n              swap1\n              pop\n              jump\t// out\n                /* \"#utility.yul\":1281:1450   */\n            tag_36:\n                /* \"#utility.yul\":1365:1376   */\n              0x00\n                /* \"#utility.yul\":1399:1405   */\n              dup3\n                /* \"#utility.yul\":1394:1397   */\n              dup3\n                /* \"#utility.yul\":1387:1406   */\n              mstore\n                /* \"#utility.yul\":1439:1443   */\n              0x20\n                /* \"#utility.yul\":1434:1437   */\n              dup3\n                /* \"#utility.yul\":1430:1444   */\n              add\n                /* \"#utility.yul\":1415:1444   */\n              swap1\n              pop\n                /* \"#utility.yul\":1281:1450   */\n              swap3\n              swap2\n              pop\n              pop\n              jump\t// out\n                /* \"#utility.yul\":1456:1763   */\n            tag_37:\n                /* \"#utility.yul\":1524:1525   */\n              0x00\n                /* \"#utility.yul\":1534:1647   */\n            tag_63:\n                /* \"#utility.yul\":1548:1554   */\n              dup4\n                /* \"#utility.yul\":1545:1546   */\n              dup2\n                /* \"#utility.yul\":1542:1555   */\n              lt\n                /* \"#utility.yul\":1534:1647   */\n              iszero\n              tag_65\n              jumpi\n                /* \"#utility.yul\":1633:1634   */\n              dup1\n                /* \"#utility.yul\":1628:1631   */\n              dup3\n                /* \"#utility.yul\":1624:1635   */\n              add\n                /* \"#utility.yul\":1618:1636   */\n              mload\n                /* \"#utility.yul\":1614:1615   */\n              dup2\n                /* \"#utility.yul\":1609:1612   */\n              dup5\n                /* \"#utility.yul\":1605:1616   */\n              add\n                /* \"#utility.yul\":1598:1637   */\n              mstore\n                /* \"#utility.yul\":1570:1572   */\n              0x20\n                /* \"#utility.yul\":1567:1568   */\n              dup2\n                /* \"#utility.yul\":1563:1573   */\n              add\n                /* \"#utility.yul\":1558:1573   */\n              swap1\n              pop\n                /* \"#utility.yul\":1534:1647   */\n              jump(tag_63)\n            tag_65:\n                /* \"#utility.yul\":1665:1671   */\n              dup4\n                /* \"#utility.yul\":1662:1663   */\n              dup2\n                /* \"#utility.yul\":1659:1672   */\n              gt\n                /* \"#utility.yul\":1656:1757   */\n              iszero\n              tag_66\n              jumpi\n                /* \"#utility.yul\":1745:1746   */\n              0x00\n                /* \"#utility.yul\":1736:1742   */\n              dup5\n                /* \"#utility.yul\":1731:1734   */\n              dup5\n                /* \"#utility.yul\":1727:1743   */\n              add\n                /* \"#utility.yul\":1720:1747   */\n              mstore\n                /* \"#utility.yul\":1656:1757   */\n            tag_66:\n                /* \"#utility.yul\":1505:1763   */\n              pop\n                /* \"#utility.yul\":1456:1763   */\n              pop\n              pop\n              pop\n              jump\t// out\n                /* \"#utility.yul\":1769:1871   */\n            tag_38:\n                /* \"#utility.yul\":1810:1816   */\n              0x00\n                /* \"#utility.yul\":1861:1863   */\n              0x1f\n                /* \"#utility.yul\":1857:1864   */\n              not\n                /* \"#utility.yul\":1852:1854   */\n              0x1f\n                /* \"#utility.yul\":1845:1850   */\n              dup4\n                /* \"#utility.yul\":1841:1855   */\n              add\n                /* \"#utility.yul\":1837:1865   */\n              and\n                /* \"#utility.yul\":1827:1865   */\n              swap1\n              pop\n                /* \"#utility.yul\":1769:1871   */\n              swap2\n              swap1\n              pop\n              jump\t// out\n                /* \"#utility.yul\":1877:2241   */\n            tag_39:\n                /* \"#utility.yul\":1965:1968   */\n              0x00\n                /* \"#utility.yul\":1993:2032   */\n              tag_69\n                /* \"#utility.yul\":2026:2031   */\n              dup3\n                /* \"#utility.yul\":1993:2032   */\n              tag_35\n              jump\t// in\n            tag_69:\n                /* \"#utility.yul\":2048:2119   */\n              tag_70\n                /* \"#utility.yul\":2112:2118   */\n              dup2\n                /* \"#utility.yul\":2107:2110   */\n              dup6\n                /* \"#utility.yul\":2048:2119   */\n              tag_36\n              jump\t// in\n            tag_70:\n                /* \"#utility.yul\":2041:2119   */\n              swap4\n              pop\n                /* \"#utility.yul\":2128:2180   */\n              tag_71\n                /* \"#utility.yul\":2173:2179   */\n              dup2\n                /* \"#utility.yul\":2168:2171   */\n              dup6\n                /* \"#utility.yul\":2161:2165   */\n              0x20\n                /* \"#utility.yul\":2154:2159   */\n              dup7\n                /* \"#utility.yul\":2150:2166   */\n              add\n                /* \"#utility.yul\":2128:2180   */\n              tag_37\n              jump\t// in\n            tag_71:\n                /* \"#utility.yul\":2205:2234   */\n              tag_72\n                /* \"#utility.yul\":2227:2233   */\n              dup2\n                /* \"#utility.yul\":2205:2234   */\n              tag_38\n              jump\t// in\n            tag_72:\n                /* \"#utility.yul\":2200:2203   */\n              dup5\n                /* \"#utility.yul\":2196:2235   */\n              add\n                /* \"#utility.yul\":2189:2235   */\n              swap2\n              pop\n                /* \"#utility.yul\":1969:2241   */\n              pop\n                /* \"#utility.yul\":1877:2241   */\n              swap3\n              swap2\n              pop\n              pop\n              jump\t// out\n                /* \"#utility.yul\":2247:2365   */\n            tag_40:\n                /* \"#utility.yul\":2334:2358   */\n              tag_74\n                /* \"#utility.yul\":2352:2357   */\n              dup2\n                /* \"#utility.yul\":2334:2358   */\n              tag_32\n              jump\t// in\n            tag_74:\n                /* \"#utility.yul\":2329:2332   */\n              dup3\n                /* \"#utility.yul\":2322:2359   */\n              mstore\n                /* \"#utility.yul\":2247:2365   */\n              pop\n              pop\n              jump\t// out\n                /* \"#utility.yul\":2371:2448   */\n            tag_41:\n                /* \"#utility.yul\":2408:2415   */\n              0x00\n                /* \"#utility.yul\":2437:2442   */\n              dup2\n                /* \"#utility.yul\":2426:2442   */\n              swap1\n              pop\n                /* \"#utility.yul\":2371:2448   */\n              swap2\n              swap1\n              pop\n              jump\t// out\n                /* \"#utility.yul\":2454:2572   */\n            tag_42:\n                /* \"#utility.yul\":2541:2565   */\n              tag_77\n                /* \"#utility.yul\":2559:2564   */\n              dup2\n                /* \"#utility.yul\":2541:2565   */\n              tag_41\n              jump\t// in\n            tag_77:\n                /* \"#utility.yul\":2536:2539   */\n              dup3\n                /* \"#utility.yul\":2529:2566   */\n              mstore\n                /* \"#utility.yul\":2454:2572   */\n              pop\n              pop\n              jump\t// out\n                /* \"#utility.yul\":2578:3313   */\n            tag_12:\n                /* \"#utility.yul\":2795:2799   */\n              0x00\n                /* \"#utility.yul\":2833:2836   */\n              0x80\n                /* \"#utility.yul\":2822:2831   */\n              dup3\n                /* \"#utility.yul\":2818:2837   */\n              add\n                /* \"#utility.yul\":2810:2837   */\n              swap1\n              pop\n                /* \"#utility.yul\":2883:2892   */\n              dup2\n                /* \"#utility.yul\":2877:2881   */\n              dup2\n                /* \"#utility.yul\":2873:2893   */\n              sub\n                /* \"#utility.yul\":2869:2870   */\n              0x00\n                /* \"#utility.yul\":2858:2867   */\n              dup4\n                /* \"#utility.yul\":2854:2871   */\n              add\n                /* \"#utility.yul\":2847:2894   */\n              mstore\n                /* \"#utility.yul\":2911:2989   */\n              tag_79\n                /* \"#utility.yul\":2984:2988   */\n              dup2\n                /* \"#utility.yul\":2975:2981   */\n              dup8\n                /* \"#utility.yul\":2911:2989   */\n              tag_39\n              jump\t// in\n            tag_79:\n                /* \"#utility.yul\":2903:2989   */\n              swap1\n              pop\n                /* \"#utility.yul\":2999:3071   */\n              tag_80\n                /* \"#utility.yul\":3067:3069   */\n              0x20\n                /* \"#utility.yul\":3056:3065   */\n              dup4\n                /* \"#utility.yul\":3052:3070   */\n              add\n                /* \"#utility.yul\":3043:3049   */\n              dup7\n                /* \"#utility.yul\":2999:3071   */\n              tag_40\n              jump\t// in\n            tag_80:\n                /* \"#utility.yul\":3118:3127   */\n              dup2\n                /* \"#utility.yul\":3112:3116   */\n              dup2\n                /* \"#utility.yul\":3108:3128   */\n              sub\n                /* \"#utility.yul\":3103:3105   */\n              0x40\n                /* \"#utility.yul\":3092:3101   */\n              dup4\n                /* \"#utility.yul\":3088:3106   */\n              add\n                /* \"#utility.yul\":3081:3129   */\n              mstore\n                /* \"#utility.yul\":3146:3224   */\n              tag_81\n                /* \"#utility.yul\":3219:3223   */\n              dup2\n                /* \"#utility.yul\":3210:3216   */\n              dup6\n                /* \"#utility.yul\":3146:3224   */\n              tag_39\n              jump\t// in\n            tag_81:\n                /* \"#utility.yul\":3138:3224   */\n              swap1\n              pop\n                /* \"#utility.yul\":3234:3306   */\n              tag_82\n                /* \"#utility.yul\":3302:3304   */\n              0x60\n                /* \"#utility.yul\":3291:3300   */\n              dup4\n                /* \"#utility.yul\":3287:3305   */\n              add\n                /* \"#utility.yul\":3278:3284   */\n              dup5\n                /* \"#utility.yul\":3234:3306   */\n              tag_42\n              jump\t// in\n            tag_82:\n                /* \"#utility.yul\":2578:3313   */\n              swap6\n              swap5\n              pop\n              pop\n              pop\n              pop\n              pop\n              jump\t// out\n                /* \"#utility.yul\":3319:3499   */\n            tag_43:\n                /* \"#utility.yul\":3367:3444   */\n              0x4e487b7100000000000000000000000000000000000000000000000000000000\n                /* \"#utility.yul\":3364:3365   */\n              0x00\n                /* \"#utility.yul\":3357:3445   */\n              mstore\n                /* \"#utility.yul\":3464:3468   */\n              0x22\n                /* \"#utility.yul\":3461:3462   */\n              0x04\n                /* \"#utility.yul\":3454:3469   */\n              mstore\n                /* \"#utility.yul\":3488:3492   */\n              0x24\n                /* \"#utility.yul\":3485:3486   */\n              0x00\n                /* \"#utility.yul\":3478:3493   */\n              revert\n                /* \"#utility.yul\":3505:3825   */\n            tag_18:\n                /* \"#utility.yul\":3549:3555   */\n              0x00\n                /* \"#utility.yul\":3586:3587   */\n              0x02\n                /* \"#utility.yul\":3580:3584   */\n              dup3\n                /* \"#utility.yul\":3576:3588   */\n              div\n                /* \"#utility.yul\":3566:3588   */\n              swap1\n              pop\n                /* \"#utility.yul\":3633:3634   */\n              0x01\n                /* \"#utility.yul\":3627:3631   */\n              dup3\n                /* \"#utility.yul\":3623:3635   */\n              and\n                /* \"#utility.yul\":3654:3672   */\n              dup1\n                /* \"#utility.yul\":3644:3725   */\n              tag_85\n              jumpi\n                /* \"#utility.yul\":3710:3714   */\n              0x7f\n                /* \"#utility.yul\":3702:3708   */\n              dup3\n                /* \"#utility.yul\":3698:3715   */\n              and\n                /* \"#utility.yul\":3688:3715   */\n              swap2\n              pop\n                /* \"#utility.yul\":3644:3725   */\n            tag_85:\n                /* \"#utility.yul\":3772:3774   */\n              0x20\n                /* \"#utility.yul\":3764:3770   */\n              dup3\n                /* \"#utility.yul\":3761:3775   */\n              lt\n                /* \"#utility.yul\":3741:3759   */\n              dup2\n                /* \"#utility.yul\":3738:3776   */\n              sub\n                /* \"#utility.yul\":3735:3819   */\n              tag_86\n              jumpi\n                /* \"#utility.yul\":3791:3809   */\n              tag_87\n              tag_43\n              jump\t// in\n            tag_87:\n                /* \"#utility.yul\":3735:3819   */\n            tag_86:\n                /* \"#utility.yul\":3556:3825   */\n              pop\n                /* \"#utility.yul\":3505:3825   */\n              swap2\n              swap1\n              pop\n              jump\t// out\n\n            auxdata: 0xa2646970667358221220bb7c15eba478bb89b15637fe076ef913a14e8a17ef9cc1ef6c021cd0f48647b464736f6c634300080f0033\n        }\n    }\n\n    auxdata: 0xa2646970667358221220ee5a6162b9ca8d6da66fd90809289b45431d8c1291acbbfd0d37c5fc3607af2464736f6c634300080f0033\n}\n","bytecode":{"linkReferences":{},"object":"6080604052600060025534801561001557600080fd5b50612013806100256000396000f3fe60806040523480156200001157600080fd5b5060043610620000ab5760003560e01c80639975905e116200006f5780639975905e14620001aa578063b9f21e4014620001e0578063d0e8b35f1462000217578063de74e57b1462000237578063fd296bce146200026e57620000ab565b80627bb2ef14620000b05780634bb94baf14620000d257806375bea16614620001085780637bc97efb146200013e5780638aa0fdad1462000174575b600080fd5b620000ba62000290565b604051620000c9919062000e23565b60405180910390f35b620000f06004803603810190620000ea919062000eb9565b6200029d565b604051620000ff919062000e23565b60405180910390f35b62000126600480360381019062000120919062000f1c565b620002e9565b60405162000135919062000f5f565b60405180910390f35b6200015c600480360381019062000156919062000f7c565b62000329565b6040516200016b919062000f5f565b60405180910390f35b6200019260048036038101906200018c919062001125565b62000378565b604051620001a1919062000f5f565b60405180910390f35b620001c86004803603810190620001c2919062000f7c565b62000453565b604051620001d7919062000f5f565b60405180910390f35b620001fe6004803603810190620001f8919062000eb9565b6200052b565b6040516200020e929190620011aa565b60405180910390f35b6200023560048036038101906200022f9190620011d7565b6200054f565b005b6200025560048036038101906200024f919062000f1c565b620005d4565b60405162000265929190620011aa565b60405180910390f35b6200027862000609565b60405162000287919062000e23565b60405180910390f35b6000600380549050905090565b6000600460008373ffffffffffffffffffffffffffffffffffffffff1673ffffffffffffffffffffffffffffffffffffffff168152602001908152602001600020600101549050919050565b60008181548110620002fa57600080fd5b906000526020600020016000915054906101000a900473ffffffffffffffffffffffffffffffffffffffff1681565b600160205281600052604060002081815481106200034657600080fd5b906000526020600020016000915091509054906101000a900473ffffffffffffffffffffffffffffffffffffffff1681565b6000808383600254306040516200038f9062000d4c565b6200039e9493929190620012c6565b604051809103906000f080158015620003bb573d6000803e3d6000fd5b509050620003ca813362000615565b6000819080600181540180825580915050600190039060005260206000200160009091909190916101000a81548173ffffffffffffffffffffffffffffffffffffffff021916908373ffffffffffffffffffffffffffffffffffffffff16021790555060016002600082825462000442919062001350565b925050819055508091505092915050565b600080600160008573ffffffffffffffffffffffffffffffffffffffff1673ffffffffffffffffffffffffffffffffffffffff1681526020019081526020016000208054905011620004a457600080fd5b600160008473ffffffffffffffffffffffffffffffffffffffff1673ffffffffffffffffffffffffffffffffffffffff1681526020019081526020016000208281548110620004f857620004f7620013ad565b5b9060005260206000200160009054906101000a900473ffffffffffffffffffffffffffffffffffffffff16905092915050565b60046020528060005260406000206000915090508060000154908060010154905082565b60008054905082106200056157600080fd5b6003604051806040016040528084815260200183815250908060018154018082558091505060019003906000526020600020906002020160009091909190915060008201518160000155602082015181600101555050620005c3833062000615565b620005cf8333620008e6565b505050565b60038181548110620005e557600080fd5b90600052602060002090600202016000915090508060000154908060010154905082565b60008080549050905090565b6000600460008373ffffffffffffffffffffffffffffffffffffffff1673ffffffffffffffffffffffffffffffffffffffff16815260200190815260200160002060405180604001604052908160008201548152602001600182015481525050905080600001518160200151036200074957600160008373ffffffffffffffffffffffffffffffffffffffff1673ffffffffffffffffffffffffffffffffffffffff168152602001908152602001600020839080600181540180825580915050600190039060005260206000200160009091909190916101000a81548173ffffffffffffffffffffffffffffffffffffffff021916908373ffffffffffffffffffffffffffffffffffffffff1602179055506001816000018181516200073c919062001350565b91508181525050620007ff565b82600160008473ffffffffffffffffffffffffffffffffffffffff1673ffffffffffffffffffffffffffffffffffffffff168152602001908152602001600020826000015181548110620007a257620007a1620013ad565b5b9060005260206000200160006101000a81548173ffffffffffffffffffffffffffffffffffffffff021916908373ffffffffffffffffffffffffffffffffffffffff160217905550620007f58262000b61565b8160000181815250505b60018160200181815162000814919062001350565b9150818152505080600460008473ffffffffffffffffffffffffffffffffffffffff1673ffffffffffffffffffffffffffffffffffffffff16815260200190815260200160002060008201518160000155602082015181600101559050508273ffffffffffffffffffffffffffffffffffffffff166313af4035836040518263ffffffff1660e01b8152600401620008ad919062000f5f565b600060405180830381600087803b158015620008c857600080fd5b505af1158015620008dd573d6000803e3d6000fd5b50505050505050565b6000600160008373ffffffffffffffffffffffffffffffffffffffff1673ffffffffffffffffffffffffffffffffffffffff168152602001908152602001600020805480602002602001604051908101604052809291908181526020018280548015620009a957602002820191906000526020600020905b8160009054906101000a900473ffffffffffffffffffffffffffffffffffffffff1673ffffffffffffffffffffffffffffffffffffffff16815260200190600101908083116200095e575b5050505050905060005b815181101562000b5b578373ffffffffffffffffffffffffffffffffffffffff16828281518110620009ea57620009e9620013ad565b5b602002602001015173ffffffffffffffffffffffffffffffffffffffff160362000b455781818151811062000a245762000a23620013ad565b5b60200260200101600073ffffffffffffffffffffffffffffffffffffffff1681525081600160008573ffffffffffffffffffffffffffffffffffffffff1673ffffffffffffffffffffffffffffffffffffffff168152602001908152602001600020908051906020019062000a9b92919062000d5a565b5080600460008573ffffffffffffffffffffffffffffffffffffffff1673ffffffffffffffffffffffffffffffffffffffff168152602001908152602001600020600001819055506001600460008573ffffffffffffffffffffffffffffffffffffffff1673ffffffffffffffffffffffffffffffffffffffff168152602001908152602001600020600101600082825462000b389190620013dc565b9250508190555062000b5b565b808062000b529062001417565b915050620009b3565b50505050565b600080600090506000600460008573ffffffffffffffffffffffffffffffffffffffff1673ffffffffffffffffffffffffffffffffffffffff16815260200190815260200160002060405180604001604052908160008201548152602001600182015481525050905060005b600160008673ffffffffffffffffffffffffffffffffffffffff1673ffffffffffffffffffffffffffffffffffffffff1681526020019081526020016000208054905081101562000cfe578273ffffffffffffffffffffffffffffffffffffffff16600160008773ffffffffffffffffffffffffffffffffffffffff1673ffffffffffffffffffffffffffffffffffffffff168152602001908152602001600020828154811062000c835762000c82620013ad565b5b9060005260206000200160009054906101000a900473ffffffffffffffffffffffffffffffffffffffff1673ffffffffffffffffffffffffffffffffffffffff1614801562000cd6575081600001518114155b1562000ce85780935050505062000d47565b808062000cf59062001417565b91505062000bcd565b50600160008573ffffffffffffffffffffffffffffffffffffffff1673ffffffffffffffffffffffffffffffffffffffff16815260200190815260200160002080549050925050505b919050565b610b79806200146583390190565b82805482825590600052602060002090810192821562000dd6579160200282015b8281111562000dd55782518260006101000a81548173ffffffffffffffffffffffffffffffffffffffff021916908373ffffffffffffffffffffffffffffffffffffffff1602179055509160200191906001019062000d7b565b5b50905062000de5919062000de9565b5090565b5b8082111562000e0457600081600090555060010162000dea565b5090565b6000819050919050565b62000e1d8162000e08565b82525050565b600060208201905062000e3a600083018462000e12565b92915050565b6000604051905090565b600080fd5b600080fd5b600073ffffffffffffffffffffffffffffffffffffffff82169050919050565b600062000e818262000e54565b9050919050565b62000e938162000e74565b811462000e9f57600080fd5b50565b60008135905062000eb38162000e88565b92915050565b60006020828403121562000ed25762000ed162000e4a565b5b600062000ee28482850162000ea2565b91505092915050565b62000ef68162000e08565b811462000f0257600080fd5b50565b60008135905062000f168162000eeb565b92915050565b60006020828403121562000f355762000f3462000e4a565b5b600062000f458482850162000f05565b91505092915050565b62000f598162000e74565b82525050565b600060208201905062000f76600083018462000f4e565b92915050565b6000806040838503121562000f965762000f9562000e4a565b5b600062000fa68582860162000ea2565b925050602062000fb98582860162000f05565b9150509250929050565b600080fd5b600080fd5b6000601f19601f8301169050919050565b7f4e487b7100000000000000000000000000000000000000000000000000000000600052604160045260246000fd5b620010188262000fcd565b810181811067ffffffffffffffff821117156200103a576200103962000fde565b5b80604052505050565b60006200104f62000e40565b90506200105d82826200100d565b919050565b600067ffffffffffffffff82111562001080576200107f62000fde565b5b6200108b8262000fcd565b9050602081019050919050565b82818337600083830152505050565b6000620010be620010b88462001062565b62001043565b905082815260208101848484011115620010dd57620010dc62000fc8565b5b620010ea84828562001098565b509392505050565b600082601f8301126200110a576200110962000fc3565b5b81356200111c848260208601620010a7565b91505092915050565b600080604083850312156200113f576200113e62000e4a565b5b600083013567ffffffffffffffff81111562001160576200115f62000e4f565b5b6200116e85828601620010f2565b925050602083013567ffffffffffffffff81111562001192576200119162000e4f565b5b620011a085828601620010f2565b9150509250929050565b6000604082019050620011c1600083018562000e12565b620011d0602083018462000e12565b9392505050565b600080600060608486031215620011f357620011f262000e4a565b5b6000620012038682870162000ea2565b9350506020620012168682870162000f05565b9250506040620012298682870162000f05565b9150509250925092565b600081519050919050565b600082825260208201905092915050565b60005b838110156200126f57808201518184015260208101905062001252565b838111156200127f576000848401525b50505050565b6000620012928262001233565b6200129e81856200123e565b9350620012b08185602086016200124f565b620012bb8162000fcd565b840191505092915050565b60006080820190508181036000830152620012e2818762001285565b90508181036020830152620012f8818662001285565b905062001309604083018562000e12565b62001318606083018462000f4e565b95945050505050565b7f4e487b7100000000000000000000000000000000000000000000000000000000600052601160045260246000fd5b60006200135d8262000e08565b91506200136a8362000e08565b9250827fffffffffffffffffffffffffffffffffffffffffffffffffffffffffffffffff03821115620013a257620013a162001321565b5b828201905092915050565b7f4e487b7100000000000000000000000000000000000000000000000000000000600052603260045260246000fd5b6000620013e98262000e08565b9150620013f68362000e08565b9250828210156200140c576200140b62001321565b5b828203905092915050565b6000620014248262000e08565b91507fffffffffffffffffffffffffffffffffffffffffffffffffffffffffffffffff820362001459576200145862001321565b5b60018201905091905056fe60806040523480156200001157600080fd5b5060405162000b7938038062000b798339818101604052810190620000379190620002ea565b8360009081620000489190620005db565b5082600290816200005a9190620005db565b508160038190555080600460006101000a81548173ffffffffffffffffffffffffffffffffffffffff021916908373ffffffffffffffffffffffffffffffffffffffff16021790555050505050620006c2565b6000604051905090565b600080fd5b600080fd5b600080fd5b600080fd5b6000601f19601f8301169050919050565b7f4e487b7100000000000000000000000000000000000000000000000000000000600052604160045260246000fd5b6200011682620000cb565b810181811067ffffffffffffffff82111715620001385762000137620000dc565b5b80604052505050565b60006200014d620000ad565b90506200015b82826200010b565b919050565b600067ffffffffffffffff8211156200017e576200017d620000dc565b5b6200018982620000cb565b9050602081019050919050565b60005b83811015620001b657808201518184015260208101905062000199565b83811115620001c6576000848401525b50505050565b6000620001e3620001dd8462000160565b62000141565b905082815260208101848484011115620002025762000201620000c6565b5b6200020f84828562000196565b509392505050565b600082601f8301126200022f576200022e620000c1565b5b815162000241848260208601620001cc565b91505092915050565b6000819050919050565b6200025f816200024a565b81146200026b57600080fd5b50565b6000815190506200027f8162000254565b92915050565b600073ffffffffffffffffffffffffffffffffffffffff82169050919050565b6000620002b28262000285565b9050919050565b620002c481620002a5565b8114620002d057600080fd5b50565b600081519050620002e481620002b9565b92915050565b60008060008060808587031215620003075762000306620000b7565b5b600085015167ffffffffffffffff811115620003285762000327620000bc565b5b620003368782880162000217565b945050602085015167ffffffffffffffff8111156200035a5762000359620000bc565b5b620003688782880162000217565b93505060406200037b878288016200026e565b92505060606200038e87828801620002d3565b91505092959194509250565b600081519050919050565b7f4e487b7100000000000000000000000000000000000000000000000000000000600052602260045260246000fd5b60006002820490506001821680620003ed57607f821691505b602082108103620004035762000402620003a5565b5b50919050565b60008190508160005260206000209050919050565b60006020601f8301049050919050565b600082821b905092915050565b6000600883026200046d7fffffffffffffffffffffffffffffffffffffffffffffffffffffffffffffffff826200042e565b6200047986836200042e565b95508019841693508086168417925050509392505050565b6000819050919050565b6000620004bc620004b6620004b0846200024a565b62000491565b6200024a565b9050919050565b6000819050919050565b620004d8836200049b565b620004f0620004e782620004c3565b8484546200043b565b825550505050565b600090565b62000507620004f8565b62000514818484620004cd565b505050565b5b818110156200053c5762000530600082620004fd565b6001810190506200051a565b5050565b601f8211156200058b57620005558162000409565b62000560846200041e565b8101602085101562000570578190505b620005886200057f856200041e565b83018262000519565b50505b505050565b600082821c905092915050565b6000620005b06000198460080262000590565b1980831691505092915050565b6000620005cb83836200059d565b9150826002028217905092915050565b620005e6826200039a565b67ffffffffffffffff811115620006025762000601620000dc565b5b6200060e8254620003d4565b6200061b82828562000540565b600060209050601f8311600181146200065357600084156200063e578287015190505b6200064a8582620005bd565b865550620006ba565b601f198416620006638662000409565b60005b828110156200068d5784890151825560018201915060208501945060208101905062000666565b86831015620006ad5784890151620006a9601f8916826200059d565b8355505b6001600288020188555050505b505050505050565b6104a780620006d26000396000f3fe608060405234801561001057600080fd5b50600436106100365760003560e01c806313af40351461003b5780637ca5685f14610057575b600080fd5b610055600480360381019061005091906102d0565b610078565b005b61005f610116565b60405161006f94939291906103be565b60405180910390f35b600460009054906101000a900473ffffffffffffffffffffffffffffffffffffffff1673ffffffffffffffffffffffffffffffffffffffff163373ffffffffffffffffffffffffffffffffffffffff16146100d257600080fd5b80600160006101000a81548173ffffffffffffffffffffffffffffffffffffffff021916908373ffffffffffffffffffffffffffffffffffffffff16021790555050565b606060006060600080600160009054906101000a900473ffffffffffffffffffffffffffffffffffffffff16600260035483805461015390610440565b80601f016020809104026020016040519081016040528092919081815260200182805461017f90610440565b80156101cc5780601f106101a1576101008083540402835291602001916101cc565b820191906000526020600020905b8154815290600101906020018083116101af57829003601f168201915b505050505093508180546101df90610440565b80601f016020809104026020016040519081016040528092919081815260200182805461020b90610440565b80156102585780601f1061022d57610100808354040283529160200191610258565b820191906000526020600020905b81548152906001019060200180831161023b57829003601f168201915b50505050509150935093509350935090919293565b600080fd5b600073ffffffffffffffffffffffffffffffffffffffff82169050919050565b600061029d82610272565b9050919050565b6102ad81610292565b81146102b857600080fd5b50565b6000813590506102ca816102a4565b92915050565b6000602082840312156102e6576102e561026d565b5b60006102f4848285016102bb565b91505092915050565b600081519050919050565b600082825260208201905092915050565b60005b8381101561033757808201518184015260208101905061031c565b83811115610346576000848401525b50505050565b6000601f19601f8301169050919050565b6000610368826102fd565b6103728185610308565b9350610382818560208601610319565b61038b8161034c565b840191505092915050565b61039f81610292565b82525050565b6000819050919050565b6103b8816103a5565b82525050565b600060808201905081810360008301526103d8818761035d565b90506103e76020830186610396565b81810360408301526103f9818561035d565b905061040860608301846103af565b95945050505050565b7f4e487b7100000000000000000000000000000000000000000000000000000000600052602260045260246000fd5b6000600282049050600182168061045857607f821691505b60208210810361046b5761046a610411565b5b5091905056fea2646970667358221220bb7c15eba478bb89b15637fe076ef913a14e8a17ef9cc1ef6c021cd0f48647b464736f6c634300080f0033a2646970667358221220ee5a6162b9ca8d6da66fd90809289b45431d8c1291acbbfd0d37c5fc3607af2464736f6c634300080f0033","opcodes":"PUSH1 0x80 PUSH1 0x40 MSTORE PUSH1 0x0 PUSH1 0x2 SSTORE CALLVALUE DUP1 ISZERO PUSH2 0x15 JUMPI PUSH1 0x0 DUP1 REVERT JUMPDEST POP PUSH2 0x2013 DUP1 PUSH2 0x25 PUSH1 0x0 CODECOPY PUSH1 0x0 RETURN INVALID PUSH1 0x80 PUSH1 0x40 MSTORE CALLVALUE DUP1 ISZERO PUSH3 0x11 JUMPI PUSH1 0x0 DUP1 REVERT JUMPDEST POP PUSH1 0x4 CALLDATASIZE LT PUSH3 0xAB JUMPI PUSH1 0x0 CALLDATALOAD PUSH1 0xE0 SHR DUP1 PUSH4 0x9975905E GT PUSH3 0x6F JUMPI DUP1 PUSH4 0x9975905E EQ PUSH3 0x1AA JUMPI DUP1 PUSH4 0xB9F21E40 EQ PUSH3 0x1E0 JUMPI DUP1 PUSH4 0xD0E8B35F EQ PUSH3 0x217 JUMPI DUP1 PUSH4 0xDE74E57B EQ PUSH3 0x237 JUMPI DUP1 PUSH4 0xFD296BCE EQ PUSH3 0x26E JUMPI PUSH3 0xAB JUMP JUMPDEST DUP1 PUSH3 0x7BB2EF EQ PUSH3 0xB0 JUMPI DUP1 PUSH4 0x4BB94BAF EQ PUSH3 0xD2 JUMPI DUP1 PUSH4 0x75BEA166 EQ PUSH3 0x108 JUMPI DUP1 PUSH4 0x7BC97EFB EQ PUSH3 0x13E JUMPI DUP1 PUSH4 0x8AA0FDAD EQ PUSH3 0x174 JUMPI JUMPDEST PUSH1 0x0 DUP1 REVERT JUMPDEST PUSH3 0xBA PUSH3 0x290 JUMP JUMPDEST PUSH1 0x40 MLOAD PUSH3 0xC9 SWAP2 SWAP1 PUSH3 0xE23 JUMP JUMPDEST PUSH1 0x40 MLOAD DUP1 SWAP2 SUB SWAP1 RETURN JUMPDEST PUSH3 0xF0 PUSH1 0x4 DUP1 CALLDATASIZE SUB DUP2 ADD SWAP1 PUSH3 0xEA SWAP2 SWAP1 PUSH3 0xEB9 JUMP JUMPDEST PUSH3 0x29D JUMP JUMPDEST PUSH1 0x40 MLOAD PUSH3 0xFF SWAP2 SWAP1 PUSH3 0xE23 JUMP JUMPDEST PUSH1 0x40 MLOAD DUP1 SWAP2 SUB SWAP1 RETURN JUMPDEST PUSH3 0x126 PUSH1 0x4 DUP1 CALLDATASIZE SUB DUP2 ADD SWAP1 PUSH3 0x120 SWAP2 SWAP1 PUSH3 0xF1C JUMP JUMPDEST PUSH3 0x2E9 JUMP JUMPDEST PUSH1 0x40 MLOAD PUSH3 0x135 SWAP2 SWAP1 PUSH3 0xF5F JUMP JUMPDEST PUSH1 0x40 MLOAD DUP1 SWAP2 SUB SWAP1 RETURN JUMPDEST PUSH3 0x15C PUSH1 0x4 DUP1 CALLDATASIZE SUB DUP2 ADD SWAP1 PUSH3 0x156 SWAP2 SWAP1 PUSH3 0xF7C JUMP JUMPDEST PUSH3 0x329 JUMP JUMPDEST PUSH1 0x40 MLOAD PUSH3 0x16B SWAP2 SWAP1 PUSH3 0xF5F JUMP JUMPDEST PUSH1 0x40 MLOAD DUP1 SWAP2 SUB SWAP1 RETURN JUMPDEST PUSH3 0x192 PUSH1 0x4 DUP1 CALLDATASIZE SUB DUP2 ADD SWAP1 PUSH3 0x18C SWAP2 SWAP1 PUSH3 0x1125 JUMP JUMPDEST PUSH3 0x378 JUMP JUMPDEST PUSH1 0x40 MLOAD PUSH3 0x1A1 SWAP2 SWAP1 PUSH3 0xF5F JUMP JUMPDEST PUSH1 0x40 MLOAD DUP1 SWAP2 SUB SWAP1 RETURN JUMPDEST PUSH3 0x1C8 PUSH1 0x4 DUP1 CALLDATASIZE SUB DUP2 ADD SWAP1 PUSH3 0x1C2 SWAP2 SWAP1 PUSH3 0xF7C JUMP JUMPDEST PUSH3 0x453 JUMP JUMPDEST PUSH1 0x40 MLOAD PUSH3 0x1D7 SWAP2 SWAP1 PUSH3 0xF5F JUMP JUMPDEST PUSH1 0x40 MLOAD DUP1 SWAP2 SUB SWAP1 RETURN JUMPDEST PUSH3 0x1FE PUSH1 0x4 DUP1 CALLDATASIZE SUB DUP2 ADD SWAP1 PUSH3 0x1F8 SWAP2 SWAP1 PUSH3 0xEB9 JUMP JUMPDEST PUSH3 0x52B JUMP JUMPDEST PUSH1 0x40 MLOAD PUSH3 0x20E SWAP3 SWAP2 SWAP1 PUSH3 0x11AA JUMP JUMPDEST PUSH1 0x40 MLOAD DUP1 SWAP2 SUB SWAP1 RETURN JUMPDEST PUSH3 0x235 PUSH1 0x4 DUP1 CALLDATASIZE SUB DUP2 ADD SWAP1 PUSH3 0x22F SWAP2 SWAP1 PUSH3 0x11D7 JUMP JUMPDEST PUSH3 0x54F JUMP JUMPDEST STOP JUMPDEST PUSH3 0x255 PUSH1 0x4 DUP1 CALLDATASIZE SUB DUP2 ADD SWAP1 PUSH3 0x24F SWAP2 SWAP1 PUSH3 0xF1C JUMP JUMPDEST PUSH3 0x5D4 JUMP JUMPDEST PUSH1 0x40 MLOAD PUSH3 0x265 SWAP3 SWAP2 SWAP1 PUSH3 0x11AA JUMP JUMPDEST PUSH1 0x40 MLOAD DUP1 SWAP2 SUB SWAP1 RETURN JUMPDEST PUSH3 0x278 PUSH3 0x609 JUMP JUMPDEST PUSH1 0x40 MLOAD PUSH3 0x287 SWAP2 SWAP1 PUSH3 0xE23 JUMP JUMPDEST PUSH1 0x40 MLOAD DUP1 SWAP2 SUB SWAP1 RETURN JUMPDEST PUSH1 0x0 PUSH1 0x3 DUP1 SLOAD SWAP1 POP SWAP1 POP SWAP1 JUMP JUMPDEST PUSH1 0x0 PUSH1 0x4 PUSH1 0x0 DUP4 PUSH20 0xFFFFFFFFFFFFFFFFFFFFFFFFFFFFFFFFFFFFFFFF AND PUSH20 0xFFFFFFFFFFFFFFFFFFFFFFFFFFFFFFFFFFFFFFFF AND DUP2 MSTORE PUSH1 0x20 ADD SWAP1 DUP2 MSTORE PUSH1 0x20 ADD PUSH1 0x0 KECCAK256 PUSH1 0x1 ADD SLOAD SWAP1 POP SWAP2 SWAP1 POP JUMP JUMPDEST PUSH1 0x0 DUP2 DUP2 SLOAD DUP2 LT PUSH3 0x2FA JUMPI PUSH1 0x0 DUP1 REVERT JUMPDEST SWAP1 PUSH1 0x0 MSTORE PUSH1 0x20 PUSH1 0x0 KECCAK256 ADD PUSH1 0x0 SWAP2 POP SLOAD SWAP1 PUSH2 0x100 EXP SWAP1 DIV PUSH20 0xFFFFFFFFFFFFFFFFFFFFFFFFFFFFFFFFFFFFFFFF AND DUP2 JUMP JUMPDEST PUSH1 0x1 PUSH1 0x20 MSTORE DUP2 PUSH1 0x0 MSTORE PUSH1 0x40 PUSH1 0x0 KECCAK256 DUP2 DUP2 SLOAD DUP2 LT PUSH3 0x346 JUMPI PUSH1 0x0 DUP1 REVERT JUMPDEST SWAP1 PUSH1 0x0 MSTORE PUSH1 0x20 PUSH1 0x0 KECCAK256 ADD PUSH1 0x0 SWAP2 POP SWAP2 POP SWAP1 SLOAD SWAP1 PUSH2 0x100 EXP SWAP1 DIV PUSH20 0xFFFFFFFFFFFFFFFFFFFFFFFFFFFFFFFFFFFFFFFF AND DUP2 JUMP JUMPDEST PUSH1 0x0 DUP1 DUP4 DUP4 PUSH1 0x2 SLOAD ADDRESS PUSH1 0x40 MLOAD PUSH3 0x38F SWAP1 PUSH3 0xD4C JUMP JUMPDEST PUSH3 0x39E SWAP5 SWAP4 SWAP3 SWAP2 SWAP1 PUSH3 0x12C6 JUMP JUMPDEST PUSH1 0x40 MLOAD DUP1 SWAP2 SUB SWAP1 PUSH1 0x0 CREATE DUP1 ISZERO DUP1 ISZERO PUSH3 0x3BB JUMPI RETURNDATASIZE PUSH1 0x0 DUP1 RETURNDATACOPY RETURNDATASIZE PUSH1 0x0 REVERT JUMPDEST POP SWAP1 POP PUSH3 0x3CA DUP2 CALLER PUSH3 0x615 JUMP JUMPDEST PUSH1 0x0 DUP2 SWAP1 DUP1 PUSH1 0x1 DUP2 SLOAD ADD DUP1 DUP3 SSTORE DUP1 SWAP2 POP POP PUSH1 0x1 SWAP1 SUB SWAP1 PUSH1 0x0 MSTORE PUSH1 0x20 PUSH1 0x0 KECCAK256 ADD PUSH1 0x0 SWAP1 SWAP2 SWAP1 SWAP2 SWAP1 SWAP2 PUSH2 0x100 EXP DUP2 SLOAD DUP2 PUSH20 0xFFFFFFFFFFFFFFFFFFFFFFFFFFFFFFFFFFFFFFFF MUL NOT AND SWAP1 DUP4 PUSH20 0xFFFFFFFFFFFFFFFFFFFFFFFFFFFFFFFFFFFFFFFF AND MUL OR SWAP1 SSTORE POP PUSH1 0x1 PUSH1 0x2 PUSH1 0x0 DUP3 DUP3 SLOAD PUSH3 0x442 SWAP2 SWAP1 PUSH3 0x1350 JUMP JUMPDEST SWAP3 POP POP DUP2 SWAP1 SSTORE POP DUP1 SWAP2 POP POP SWAP3 SWAP2 POP POP JUMP JUMPDEST PUSH1 0x0 DUP1 PUSH1 0x1 PUSH1 0x0 DUP6 PUSH20 0xFFFFFFFFFFFFFFFFFFFFFFFFFFFFFFFFFFFFFFFF AND PUSH20 0xFFFFFFFFFFFFFFFFFFFFFFFFFFFFFFFFFFFFFFFF AND DUP2 MSTORE PUSH1 0x20 ADD SWAP1 DUP2 MSTORE PUSH1 0x20 ADD PUSH1 0x0 KECCAK256 DUP1 SLOAD SWAP1 POP GT PUSH3 0x4A4 JUMPI PUSH1 0x0 DUP1 REVERT JUMPDEST PUSH1 0x1 PUSH1 0x0 DUP5 PUSH20 0xFFFFFFFFFFFFFFFFFFFFFFFFFFFFFFFFFFFFFFFF AND PUSH20 0xFFFFFFFFFFFFFFFFFFFFFFFFFFFFFFFFFFFFFFFF AND DUP2 MSTORE PUSH1 0x20 ADD SWAP1 DUP2 MSTORE PUSH1 0x20 ADD PUSH1 0x0 KECCAK256 DUP3 DUP2 SLOAD DUP2 LT PUSH3 0x4F8 JUMPI PUSH3 0x4F7 PUSH3 0x13AD JUMP JUMPDEST JUMPDEST SWAP1 PUSH1 0x0 MSTORE PUSH1 0x20 PUSH1 0x0 KECCAK256 ADD PUSH1 0x0 SWAP1 SLOAD SWAP1 PUSH2 0x100 EXP SWAP1 DIV PUSH20 0xFFFFFFFFFFFFFFFFFFFFFFFFFFFFFFFFFFFFFFFF AND SWAP1 POP SWAP3 SWAP2 POP POP JUMP JUMPDEST PUSH1 0x4 PUSH1 0x20 MSTORE DUP1 PUSH1 0x0 MSTORE PUSH1 0x40 PUSH1 0x0 KECCAK256 PUSH1 0x0 SWAP2 POP SWAP1 POP DUP1 PUSH1 0x0 ADD SLOAD SWAP1 DUP1 PUSH1 0x1 ADD SLOAD SWAP1 POP DUP3 JUMP JUMPDEST PUSH1 0x0 DUP1 SLOAD SWAP1 POP DUP3 LT PUSH3 0x561 JUMPI PUSH1 0x0 DUP1 REVERT JUMPDEST PUSH1 0x3 PUSH1 0x40 MLOAD DUP1 PUSH1 0x40 ADD PUSH1 0x40 MSTORE DUP1 DUP5 DUP2 MSTORE PUSH1 0x20 ADD DUP4 DUP2 MSTORE POP SWAP1 DUP1 PUSH1 0x1 DUP2 SLOAD ADD DUP1 DUP3 SSTORE DUP1 SWAP2 POP POP PUSH1 0x1 SWAP1 SUB SWAP1 PUSH1 0x0 MSTORE PUSH1 0x20 PUSH1 0x0 KECCAK256 SWAP1 PUSH1 0x2 MUL ADD PUSH1 0x0 SWAP1 SWAP2 SWAP1 SWAP2 SWAP1 SWAP2 POP PUSH1 0x0 DUP3 ADD MLOAD DUP2 PUSH1 0x0 ADD SSTORE PUSH1 0x20 DUP3 ADD MLOAD DUP2 PUSH1 0x1 ADD SSTORE POP POP PUSH3 0x5C3 DUP4 ADDRESS PUSH3 0x615 JUMP JUMPDEST PUSH3 0x5CF DUP4 CALLER PUSH3 0x8E6 JUMP JUMPDEST POP POP POP JUMP JUMPDEST PUSH1 0x3 DUP2 DUP2 SLOAD DUP2 LT PUSH3 0x5E5 JUMPI PUSH1 0x0 DUP1 REVERT JUMPDEST SWAP1 PUSH1 0x0 MSTORE PUSH1 0x20 PUSH1 0x0 KECCAK256 SWAP1 PUSH1 0x2 MUL ADD PUSH1 0x0 SWAP2 POP SWAP1 POP DUP1 PUSH1 0x0 ADD SLOAD SWAP1 DUP1 PUSH1 0x1 ADD SLOAD SWAP1 POP DUP3 JUMP JUMPDEST PUSH1 0x0 DUP1 DUP1 SLOAD SWAP1 POP SWAP1 POP SWAP1 JUMP JUMPDEST PUSH1 0x0 PUSH1 0x4 PUSH1 0x0 DUP4 PUSH20 0xFFFFFFFFFFFFFFFFFFFFFFFFFFFFFFFFFFFFFFFF AND PUSH20 0xFFFFFFFFFFFFFFFFFFFFFFFFFFFFFFFFFFFFFFFF AND DUP2 MSTORE PUSH1 0x20 ADD SWAP1 DUP2 MSTORE PUSH1 0x20 ADD PUSH1 0x0 KECCAK256 PUSH1 0x40 MLOAD DUP1 PUSH1 0x40 ADD PUSH1 0x40 MSTORE SWAP1 DUP2 PUSH1 0x0 DUP3 ADD SLOAD DUP2 MSTORE PUSH1 0x20 ADD PUSH1 0x1 DUP3 ADD SLOAD DUP2 MSTORE POP POP SWAP1 POP DUP1 PUSH1 0x0 ADD MLOAD DUP2 PUSH1 0x20 ADD MLOAD SUB PUSH3 0x749 JUMPI PUSH1 0x1 PUSH1 0x0 DUP4 PUSH20 0xFFFFFFFFFFFFFFFFFFFFFFFFFFFFFFFFFFFFFFFF AND PUSH20 0xFFFFFFFFFFFFFFFFFFFFFFFFFFFFFFFFFFFFFFFF AND DUP2 MSTORE PUSH1 0x20 ADD SWAP1 DUP2 MSTORE PUSH1 0x20 ADD PUSH1 0x0 KECCAK256 DUP4 SWAP1 DUP1 PUSH1 0x1 DUP2 SLOAD ADD DUP1 DUP3 SSTORE DUP1 SWAP2 POP POP PUSH1 0x1 SWAP1 SUB SWAP1 PUSH1 0x0 MSTORE PUSH1 0x20 PUSH1 0x0 KECCAK256 ADD PUSH1 0x0 SWAP1 SWAP2 SWAP1 SWAP2 SWAP1 SWAP2 PUSH2 0x100 EXP DUP2 SLOAD DUP2 PUSH20 0xFFFFFFFFFFFFFFFFFFFFFFFFFFFFFFFFFFFFFFFF MUL NOT AND SWAP1 DUP4 PUSH20 0xFFFFFFFFFFFFFFFFFFFFFFFFFFFFFFFFFFFFFFFF AND MUL OR SWAP1 SSTORE POP PUSH1 0x1 DUP2 PUSH1 0x0 ADD DUP2 DUP2 MLOAD PUSH3 0x73C SWAP2 SWAP1 PUSH3 0x1350 JUMP JUMPDEST SWAP2 POP DUP2 DUP2 MSTORE POP POP PUSH3 0x7FF JUMP JUMPDEST DUP3 PUSH1 0x1 PUSH1 0x0 DUP5 PUSH20 0xFFFFFFFFFFFFFFFFFFFFFFFFFFFFFFFFFFFFFFFF AND PUSH20 0xFFFFFFFFFFFFFFFFFFFFFFFFFFFFFFFFFFFFFFFF AND DUP2 MSTORE PUSH1 0x20 ADD SWAP1 DUP2 MSTORE PUSH1 0x20 ADD PUSH1 0x0 KECCAK256 DUP3 PUSH1 0x0 ADD MLOAD DUP2 SLOAD DUP2 LT PUSH3 0x7A2 JUMPI PUSH3 0x7A1 PUSH3 0x13AD JUMP JUMPDEST JUMPDEST SWAP1 PUSH1 0x0 MSTORE PUSH1 0x20 PUSH1 0x0 KECCAK256 ADD PUSH1 0x0 PUSH2 0x100 EXP DUP2 SLOAD DUP2 PUSH20 0xFFFFFFFFFFFFFFFFFFFFFFFFFFFFFFFFFFFFFFFF MUL NOT AND SWAP1 DUP4 PUSH20 0xFFFFFFFFFFFFFFFFFFFFFFFFFFFFFFFFFFFFFFFF AND MUL OR SWAP1 SSTORE POP PUSH3 0x7F5 DUP3 PUSH3 0xB61 JUMP JUMPDEST DUP2 PUSH1 0x0 ADD DUP2 DUP2 MSTORE POP POP JUMPDEST PUSH1 0x1 DUP2 PUSH1 0x20 ADD DUP2 DUP2 MLOAD PUSH3 0x814 SWAP2 SWAP1 PUSH3 0x1350 JUMP JUMPDEST SWAP2 POP DUP2 DUP2 MSTORE POP POP DUP1 PUSH1 0x4 PUSH1 0x0 DUP5 PUSH20 0xFFFFFFFFFFFFFFFFFFFFFFFFFFFFFFFFFFFFFFFF AND PUSH20 0xFFFFFFFFFFFFFFFFFFFFFFFFFFFFFFFFFFFFFFFF AND DUP2 MSTORE PUSH1 0x20 ADD SWAP1 DUP2 MSTORE PUSH1 0x20 ADD PUSH1 0x0 KECCAK256 PUSH1 0x0 DUP3 ADD MLOAD DUP2 PUSH1 0x0 ADD SSTORE PUSH1 0x20 DUP3 ADD MLOAD DUP2 PUSH1 0x1 ADD SSTORE SWAP1 POP POP DUP3 PUSH20 0xFFFFFFFFFFFFFFFFFFFFFFFFFFFFFFFFFFFFFFFF AND PUSH4 0x13AF4035 DUP4 PUSH1 0x40 MLOAD DUP3 PUSH4 0xFFFFFFFF AND PUSH1 0xE0 SHL DUP2 MSTORE PUSH1 0x4 ADD PUSH3 0x8AD SWAP2 SWAP1 PUSH3 0xF5F JUMP JUMPDEST PUSH1 0x0 PUSH1 0x40 MLOAD DUP1 DUP4 SUB DUP2 PUSH1 0x0 DUP8 DUP1 EXTCODESIZE ISZERO DUP1 ISZERO PUSH3 0x8C8 JUMPI PUSH1 0x0 DUP1 REVERT JUMPDEST POP GAS CALL ISZERO DUP1 ISZERO PUSH3 0x8DD JUMPI RETURNDATASIZE PUSH1 0x0 DUP1 RETURNDATACOPY RETURNDATASIZE PUSH1 0x0 REVERT JUMPDEST POP POP POP POP POP POP POP JUMP JUMPDEST PUSH1 0x0 PUSH1 0x1 PUSH1 0x0 DUP4 PUSH20 0xFFFFFFFFFFFFFFFFFFFFFFFFFFFFFFFFFFFFFFFF AND PUSH20 0xFFFFFFFFFFFFFFFFFFFFFFFFFFFFFFFFFFFFFFFF AND DUP2 MSTORE PUSH1 0x20 ADD SWAP1 DUP2 MSTORE PUSH1 0x20 ADD PUSH1 0x0 KECCAK256 DUP1 SLOAD DUP1 PUSH1 0x20 MUL PUSH1 0x20 ADD PUSH1 0x40 MLOAD SWAP1 DUP2 ADD PUSH1 0x40 MSTORE DUP1 SWAP3 SWAP2 SWAP1 DUP2 DUP2 MSTORE PUSH1 0x20 ADD DUP3 DUP1 SLOAD DUP1 ISZERO PUSH3 0x9A9 JUMPI PUSH1 0x20 MUL DUP3 ADD SWAP2 SWAP1 PUSH1 0x0 MSTORE PUSH1 0x20 PUSH1 0x0 KECCAK256 SWAP1 JUMPDEST DUP2 PUSH1 0x0 SWAP1 SLOAD SWAP1 PUSH2 0x100 EXP SWAP1 DIV PUSH20 0xFFFFFFFFFFFFFFFFFFFFFFFFFFFFFFFFFFFFFFFF AND PUSH20 0xFFFFFFFFFFFFFFFFFFFFFFFFFFFFFFFFFFFFFFFF AND DUP2 MSTORE PUSH1 0x20 ADD SWAP1 PUSH1 0x1 ADD SWAP1 DUP1 DUP4 GT PUSH3 0x95E JUMPI JUMPDEST POP POP POP POP POP SWAP1 POP PUSH1 0x0 JUMPDEST DUP2 MLOAD DUP2 LT ISZERO PUSH3 0xB5B JUMPI DUP4 PUSH20 0xFFFFFFFFFFFFFFFFFFFFFFFFFFFFFFFFFFFFFFFF AND DUP3 DUP3 DUP2 MLOAD DUP2 LT PUSH3 0x9EA JUMPI PUSH3 0x9E9 PUSH3 0x13AD JUMP JUMPDEST JUMPDEST PUSH1 0x20 MUL PUSH1 0x20 ADD ADD MLOAD PUSH20 0xFFFFFFFFFFFFFFFFFFFFFFFFFFFFFFFFFFFFFFFF AND SUB PUSH3 0xB45 JUMPI DUP2 DUP2 DUP2 MLOAD DUP2 LT PUSH3 0xA24 JUMPI PUSH3 0xA23 PUSH3 0x13AD JUMP JUMPDEST JUMPDEST PUSH1 0x20 MUL PUSH1 0x20 ADD ADD PUSH1 0x0 PUSH20 0xFFFFFFFFFFFFFFFFFFFFFFFFFFFFFFFFFFFFFFFF AND DUP2 MSTORE POP DUP2 PUSH1 0x1 PUSH1 0x0 DUP6 PUSH20 0xFFFFFFFFFFFFFFFFFFFFFFFFFFFFFFFFFFFFFFFF AND PUSH20 0xFFFFFFFFFFFFFFFFFFFFFFFFFFFFFFFFFFFFFFFF AND DUP2 MSTORE PUSH1 0x20 ADD SWAP1 DUP2 MSTORE PUSH1 0x20 ADD PUSH1 0x0 KECCAK256 SWAP1 DUP1 MLOAD SWAP1 PUSH1 0x20 ADD SWAP1 PUSH3 0xA9B SWAP3 SWAP2 SWAP1 PUSH3 0xD5A JUMP JUMPDEST POP DUP1 PUSH1 0x4 PUSH1 0x0 DUP6 PUSH20 0xFFFFFFFFFFFFFFFFFFFFFFFFFFFFFFFFFFFFFFFF AND PUSH20 0xFFFFFFFFFFFFFFFFFFFFFFFFFFFFFFFFFFFFFFFF AND DUP2 MSTORE PUSH1 0x20 ADD SWAP1 DUP2 MSTORE PUSH1 0x20 ADD PUSH1 0x0 KECCAK256 PUSH1 0x0 ADD DUP2 SWAP1 SSTORE POP PUSH1 0x1 PUSH1 0x4 PUSH1 0x0 DUP6 PUSH20 0xFFFFFFFFFFFFFFFFFFFFFFFFFFFFFFFFFFFFFFFF AND PUSH20 0xFFFFFFFFFFFFFFFFFFFFFFFFFFFFFFFFFFFFFFFF AND DUP2 MSTORE PUSH1 0x20 ADD SWAP1 DUP2 MSTORE PUSH1 0x20 ADD PUSH1 0x0 KECCAK256 PUSH1 0x1 ADD PUSH1 0x0 DUP3 DUP3 SLOAD PUSH3 0xB38 SWAP2 SWAP1 PUSH3 0x13DC JUMP JUMPDEST SWAP3 POP POP DUP2 SWAP1 SSTORE POP PUSH3 0xB5B JUMP JUMPDEST DUP1 DUP1 PUSH3 0xB52 SWAP1 PUSH3 0x1417 JUMP JUMPDEST SWAP2 POP POP PUSH3 0x9B3 JUMP JUMPDEST POP POP POP POP JUMP JUMPDEST PUSH1 0x0 DUP1 PUSH1 0x0 SWAP1 POP PUSH1 0x0 PUSH1 0x4 PUSH1 0x0 DUP6 PUSH20 0xFFFFFFFFFFFFFFFFFFFFFFFFFFFFFFFFFFFFFFFF AND PUSH20 0xFFFFFFFFFFFFFFFFFFFFFFFFFFFFFFFFFFFFFFFF AND DUP2 MSTORE PUSH1 0x20 ADD SWAP1 DUP2 MSTORE PUSH1 0x20 ADD PUSH1 0x0 KECCAK256 PUSH1 0x40 MLOAD DUP1 PUSH1 0x40 ADD PUSH1 0x40 MSTORE SWAP1 DUP2 PUSH1 0x0 DUP3 ADD SLOAD DUP2 MSTORE PUSH1 0x20 ADD PUSH1 0x1 DUP3 ADD SLOAD DUP2 MSTORE POP POP SWAP1 POP PUSH1 0x0 JUMPDEST PUSH1 0x1 PUSH1 0x0 DUP7 PUSH20 0xFFFFFFFFFFFFFFFFFFFFFFFFFFFFFFFFFFFFFFFF AND PUSH20 0xFFFFFFFFFFFFFFFFFFFFFFFFFFFFFFFFFFFFFFFF AND DUP2 MSTORE PUSH1 0x20 ADD SWAP1 DUP2 MSTORE PUSH1 0x20 ADD PUSH1 0x0 KECCAK256 DUP1 SLOAD SWAP1 POP DUP2 LT ISZERO PUSH3 0xCFE JUMPI DUP3 PUSH20 0xFFFFFFFFFFFFFFFFFFFFFFFFFFFFFFFFFFFFFFFF AND PUSH1 0x1 PUSH1 0x0 DUP8 PUSH20 0xFFFFFFFFFFFFFFFFFFFFFFFFFFFFFFFFFFFFFFFF AND PUSH20 0xFFFFFFFFFFFFFFFFFFFFFFFFFFFFFFFFFFFFFFFF AND DUP2 MSTORE PUSH1 0x20 ADD SWAP1 DUP2 MSTORE PUSH1 0x20 ADD PUSH1 0x0 KECCAK256 DUP3 DUP2 SLOAD DUP2 LT PUSH3 0xC83 JUMPI PUSH3 0xC82 PUSH3 0x13AD JUMP JUMPDEST JUMPDEST SWAP1 PUSH1 0x0 MSTORE PUSH1 0x20 PUSH1 0x0 KECCAK256 ADD PUSH1 0x0 SWAP1 SLOAD SWAP1 PUSH2 0x100 EXP SWAP1 DIV PUSH20 0xFFFFFFFFFFFFFFFFFFFFFFFFFFFFFFFFFFFFFFFF AND PUSH20 0xFFFFFFFFFFFFFFFFFFFFFFFFFFFFFFFFFFFFFFFF AND EQ DUP1 ISZERO PUSH3 0xCD6 JUMPI POP DUP2 PUSH1 0x0 ADD MLOAD DUP2 EQ ISZERO JUMPDEST ISZERO PUSH3 0xCE8 JUMPI DUP1 SWAP4 POP POP POP POP PUSH3 0xD47 JUMP JUMPDEST DUP1 DUP1 PUSH3 0xCF5 SWAP1 PUSH3 0x1417 JUMP JUMPDEST SWAP2 POP POP PUSH3 0xBCD JUMP JUMPDEST POP PUSH1 0x1 PUSH1 0x0 DUP6 PUSH20 0xFFFFFFFFFFFFFFFFFFFFFFFFFFFFFFFFFFFFFFFF AND PUSH20 0xFFFFFFFFFFFFFFFFFFFFFFFFFFFFFFFFFFFFFFFF AND DUP2 MSTORE PUSH1 0x20 ADD SWAP1 DUP2 MSTORE PUSH1 0x20 ADD PUSH1 0x0 KECCAK256 DUP1 SLOAD SWAP1 POP SWAP3 POP POP POP JUMPDEST SWAP2 SWAP1 POP JUMP JUMPDEST PUSH2 0xB79 DUP1 PUSH3 0x1465 DUP4 CODECOPY ADD SWAP1 JUMP JUMPDEST DUP3 DUP1 SLOAD DUP3 DUP3 SSTORE SWAP1 PUSH1 0x0 MSTORE PUSH1 0x20 PUSH1 0x0 KECCAK256 SWAP1 DUP2 ADD SWAP3 DUP3 ISZERO PUSH3 0xDD6 JUMPI SWAP2 PUSH1 0x20 MUL DUP3 ADD JUMPDEST DUP3 DUP2 GT ISZERO PUSH3 0xDD5 JUMPI DUP3 MLOAD DUP3 PUSH1 0x0 PUSH2 0x100 EXP DUP2 SLOAD DUP2 PUSH20 0xFFFFFFFFFFFFFFFFFFFFFFFFFFFFFFFFFFFFFFFF MUL NOT AND SWAP1 DUP4 PUSH20 0xFFFFFFFFFFFFFFFFFFFFFFFFFFFFFFFFFFFFFFFF AND MUL OR SWAP1 SSTORE POP SWAP2 PUSH1 0x20 ADD SWAP2 SWAP1 PUSH1 0x1 ADD SWAP1 PUSH3 0xD7B JUMP JUMPDEST JUMPDEST POP SWAP1 POP PUSH3 0xDE5 SWAP2 SWAP1 PUSH3 0xDE9 JUMP JUMPDEST POP SWAP1 JUMP JUMPDEST JUMPDEST DUP1 DUP3 GT ISZERO PUSH3 0xE04 JUMPI PUSH1 0x0 DUP2 PUSH1 0x0 SWAP1 SSTORE POP PUSH1 0x1 ADD PUSH3 0xDEA JUMP JUMPDEST POP SWAP1 JUMP JUMPDEST PUSH1 0x0 DUP2 SWAP1 POP SWAP2 SWAP1 POP JUMP JUMPDEST PUSH3 0xE1D DUP2 PUSH3 0xE08 JUMP JUMPDEST DUP3 MSTORE POP POP JUMP JUMPDEST PUSH1 0x0 PUSH1 0x20 DUP3 ADD SWAP1 POP PUSH3 0xE3A PUSH1 0x0 DUP4 ADD DUP5 PUSH3 0xE12 JUMP JUMPDEST SWAP3 SWAP2 POP POP JUMP JUMPDEST PUSH1 0x0 PUSH1 0x40 MLOAD SWAP1 POP SWAP1 JUMP JUMPDEST PUSH1 0x0 DUP1 REVERT JUMPDEST PUSH1 0x0 DUP1 REVERT JUMPDEST PUSH1 0x0 PUSH20 0xFFFFFFFFFFFFFFFFFFFFFFFFFFFFFFFFFFFFFFFF DUP3 AND SWAP1 POP SWAP2 SWAP1 POP JUMP JUMPDEST PUSH1 0x0 PUSH3 0xE81 DUP3 PUSH3 0xE54 JUMP JUMPDEST SWAP1 POP SWAP2 SWAP1 POP JUMP JUMPDEST PUSH3 0xE93 DUP2 PUSH3 0xE74 JUMP JUMPDEST DUP2 EQ PUSH3 0xE9F JUMPI PUSH1 0x0 DUP1 REVERT JUMPDEST POP JUMP JUMPDEST PUSH1 0x0 DUP2 CALLDATALOAD SWAP1 POP PUSH3 0xEB3 DUP2 PUSH3 0xE88 JUMP JUMPDEST SWAP3 SWAP2 POP POP JUMP JUMPDEST PUSH1 0x0 PUSH1 0x20 DUP3 DUP5 SUB SLT ISZERO PUSH3 0xED2 JUMPI PUSH3 0xED1 PUSH3 0xE4A JUMP JUMPDEST JUMPDEST PUSH1 0x0 PUSH3 0xEE2 DUP5 DUP3 DUP6 ADD PUSH3 0xEA2 JUMP JUMPDEST SWAP2 POP POP SWAP3 SWAP2 POP POP JUMP JUMPDEST PUSH3 0xEF6 DUP2 PUSH3 0xE08 JUMP JUMPDEST DUP2 EQ PUSH3 0xF02 JUMPI PUSH1 0x0 DUP1 REVERT JUMPDEST POP JUMP JUMPDEST PUSH1 0x0 DUP2 CALLDATALOAD SWAP1 POP PUSH3 0xF16 DUP2 PUSH3 0xEEB JUMP JUMPDEST SWAP3 SWAP2 POP POP JUMP JUMPDEST PUSH1 0x0 PUSH1 0x20 DUP3 DUP5 SUB SLT ISZERO PUSH3 0xF35 JUMPI PUSH3 0xF34 PUSH3 0xE4A JUMP JUMPDEST JUMPDEST PUSH1 0x0 PUSH3 0xF45 DUP5 DUP3 DUP6 ADD PUSH3 0xF05 JUMP JUMPDEST SWAP2 POP POP SWAP3 SWAP2 POP POP JUMP JUMPDEST PUSH3 0xF59 DUP2 PUSH3 0xE74 JUMP JUMPDEST DUP3 MSTORE POP POP JUMP JUMPDEST PUSH1 0x0 PUSH1 0x20 DUP3 ADD SWAP1 POP PUSH3 0xF76 PUSH1 0x0 DUP4 ADD DUP5 PUSH3 0xF4E JUMP JUMPDEST SWAP3 SWAP2 POP POP JUMP JUMPDEST PUSH1 0x0 DUP1 PUSH1 0x40 DUP4 DUP6 SUB SLT ISZERO PUSH3 0xF96 JUMPI PUSH3 0xF95 PUSH3 0xE4A JUMP JUMPDEST JUMPDEST PUSH1 0x0 PUSH3 0xFA6 DUP6 DUP3 DUP7 ADD PUSH3 0xEA2 JUMP JUMPDEST SWAP3 POP POP PUSH1 0x20 PUSH3 0xFB9 DUP6 DUP3 DUP7 ADD PUSH3 0xF05 JUMP JUMPDEST SWAP2 POP POP SWAP3 POP SWAP3 SWAP1 POP JUMP JUMPDEST PUSH1 0x0 DUP1 REVERT JUMPDEST PUSH1 0x0 DUP1 REVERT JUMPDEST PUSH1 0x0 PUSH1 0x1F NOT PUSH1 0x1F DUP4 ADD AND SWAP1 POP SWAP2 SWAP1 POP JUMP JUMPDEST PUSH32 0x4E487B7100000000000000000000000000000000000000000000000000000000 PUSH1 0x0 MSTORE PUSH1 0x41 PUSH1 0x4 MSTORE PUSH1 0x24 PUSH1 0x0 REVERT JUMPDEST PUSH3 0x1018 DUP3 PUSH3 0xFCD JUMP JUMPDEST DUP2 ADD DUP2 DUP2 LT PUSH8 0xFFFFFFFFFFFFFFFF DUP3 GT OR ISZERO PUSH3 0x103A JUMPI PUSH3 0x1039 PUSH3 0xFDE JUMP JUMPDEST JUMPDEST DUP1 PUSH1 0x40 MSTORE POP POP POP JUMP JUMPDEST PUSH1 0x0 PUSH3 0x104F PUSH3 0xE40 JUMP JUMPDEST SWAP1 POP PUSH3 0x105D DUP3 DUP3 PUSH3 0x100D JUMP JUMPDEST SWAP2 SWAP1 POP JUMP JUMPDEST PUSH1 0x0 PUSH8 0xFFFFFFFFFFFFFFFF DUP3 GT ISZERO PUSH3 0x1080 JUMPI PUSH3 0x107F PUSH3 0xFDE JUMP JUMPDEST JUMPDEST PUSH3 0x108B DUP3 PUSH3 0xFCD JUMP JUMPDEST SWAP1 POP PUSH1 0x20 DUP2 ADD SWAP1 POP SWAP2 SWAP1 POP JUMP JUMPDEST DUP3 DUP2 DUP4 CALLDATACOPY PUSH1 0x0 DUP4 DUP4 ADD MSTORE POP POP POP JUMP JUMPDEST PUSH1 0x0 PUSH3 0x10BE PUSH3 0x10B8 DUP5 PUSH3 0x1062 JUMP JUMPDEST PUSH3 0x1043 JUMP JUMPDEST SWAP1 POP DUP3 DUP2 MSTORE PUSH1 0x20 DUP2 ADD DUP5 DUP5 DUP5 ADD GT ISZERO PUSH3 0x10DD JUMPI PUSH3 0x10DC PUSH3 0xFC8 JUMP JUMPDEST JUMPDEST PUSH3 0x10EA DUP5 DUP3 DUP6 PUSH3 0x1098 JUMP JUMPDEST POP SWAP4 SWAP3 POP POP POP JUMP JUMPDEST PUSH1 0x0 DUP3 PUSH1 0x1F DUP4 ADD SLT PUSH3 0x110A JUMPI PUSH3 0x1109 PUSH3 0xFC3 JUMP JUMPDEST JUMPDEST DUP2 CALLDATALOAD PUSH3 0x111C DUP5 DUP3 PUSH1 0x20 DUP7 ADD PUSH3 0x10A7 JUMP JUMPDEST SWAP2 POP POP SWAP3 SWAP2 POP POP JUMP JUMPDEST PUSH1 0x0 DUP1 PUSH1 0x40 DUP4 DUP6 SUB SLT ISZERO PUSH3 0x113F JUMPI PUSH3 0x113E PUSH3 0xE4A JUMP JUMPDEST JUMPDEST PUSH1 0x0 DUP4 ADD CALLDATALOAD PUSH8 0xFFFFFFFFFFFFFFFF DUP2 GT ISZERO PUSH3 0x1160 JUMPI PUSH3 0x115F PUSH3 0xE4F JUMP JUMPDEST JUMPDEST PUSH3 0x116E DUP6 DUP3 DUP7 ADD PUSH3 0x10F2 JUMP JUMPDEST SWAP3 POP POP PUSH1 0x20 DUP4 ADD CALLDATALOAD PUSH8 0xFFFFFFFFFFFFFFFF DUP2 GT ISZERO PUSH3 0x1192 JUMPI PUSH3 0x1191 PUSH3 0xE4F JUMP JUMPDEST JUMPDEST PUSH3 0x11A0 DUP6 DUP3 DUP7 ADD PUSH3 0x10F2 JUMP JUMPDEST SWAP2 POP POP SWAP3 POP SWAP3 SWAP1 POP JUMP JUMPDEST PUSH1 0x0 PUSH1 0x40 DUP3 ADD SWAP1 POP PUSH3 0x11C1 PUSH1 0x0 DUP4 ADD DUP6 PUSH3 0xE12 JUMP JUMPDEST PUSH3 0x11D0 PUSH1 0x20 DUP4 ADD DUP5 PUSH3 0xE12 JUMP JUMPDEST SWAP4 SWAP3 POP POP POP JUMP JUMPDEST PUSH1 0x0 DUP1 PUSH1 0x0 PUSH1 0x60 DUP5 DUP7 SUB SLT ISZERO PUSH3 0x11F3 JUMPI PUSH3 0x11F2 PUSH3 0xE4A JUMP JUMPDEST JUMPDEST PUSH1 0x0 PUSH3 0x1203 DUP7 DUP3 DUP8 ADD PUSH3 0xEA2 JUMP JUMPDEST SWAP4 POP POP PUSH1 0x20 PUSH3 0x1216 DUP7 DUP3 DUP8 ADD PUSH3 0xF05 JUMP JUMPDEST SWAP3 POP POP PUSH1 0x40 PUSH3 0x1229 DUP7 DUP3 DUP8 ADD PUSH3 0xF05 JUMP JUMPDEST SWAP2 POP POP SWAP3 POP SWAP3 POP SWAP3 JUMP JUMPDEST PUSH1 0x0 DUP2 MLOAD SWAP1 POP SWAP2 SWAP1 POP JUMP JUMPDEST PUSH1 0x0 DUP3 DUP3 MSTORE PUSH1 0x20 DUP3 ADD SWAP1 POP SWAP3 SWAP2 POP POP JUMP JUMPDEST PUSH1 0x0 JUMPDEST DUP4 DUP2 LT ISZERO PUSH3 0x126F JUMPI DUP1 DUP3 ADD MLOAD DUP2 DUP5 ADD MSTORE PUSH1 0x20 DUP2 ADD SWAP1 POP PUSH3 0x1252 JUMP JUMPDEST DUP4 DUP2 GT ISZERO PUSH3 0x127F JUMPI PUSH1 0x0 DUP5 DUP5 ADD MSTORE JUMPDEST POP POP POP POP JUMP JUMPDEST PUSH1 0x0 PUSH3 0x1292 DUP3 PUSH3 0x1233 JUMP JUMPDEST PUSH3 0x129E DUP2 DUP6 PUSH3 0x123E JUMP JUMPDEST SWAP4 POP PUSH3 0x12B0 DUP2 DUP6 PUSH1 0x20 DUP7 ADD PUSH3 0x124F JUMP JUMPDEST PUSH3 0x12BB DUP2 PUSH3 0xFCD JUMP JUMPDEST DUP5 ADD SWAP2 POP POP SWAP3 SWAP2 POP POP JUMP JUMPDEST PUSH1 0x0 PUSH1 0x80 DUP3 ADD SWAP1 POP DUP2 DUP2 SUB PUSH1 0x0 DUP4 ADD MSTORE PUSH3 0x12E2 DUP2 DUP8 PUSH3 0x1285 JUMP JUMPDEST SWAP1 POP DUP2 DUP2 SUB PUSH1 0x20 DUP4 ADD MSTORE PUSH3 0x12F8 DUP2 DUP7 PUSH3 0x1285 JUMP JUMPDEST SWAP1 POP PUSH3 0x1309 PUSH1 0x40 DUP4 ADD DUP6 PUSH3 0xE12 JUMP JUMPDEST PUSH3 0x1318 PUSH1 0x60 DUP4 ADD DUP5 PUSH3 0xF4E JUMP JUMPDEST SWAP6 SWAP5 POP POP POP POP POP JUMP JUMPDEST PUSH32 0x4E487B7100000000000000000000000000000000000000000000000000000000 PUSH1 0x0 MSTORE PUSH1 0x11 PUSH1 0x4 MSTORE PUSH1 0x24 PUSH1 0x0 REVERT JUMPDEST PUSH1 0x0 PUSH3 0x135D DUP3 PUSH3 0xE08 JUMP JUMPDEST SWAP2 POP PUSH3 0x136A DUP4 PUSH3 0xE08 JUMP JUMPDEST SWAP3 POP DUP3 PUSH32 0xFFFFFFFFFFFFFFFFFFFFFFFFFFFFFFFFFFFFFFFFFFFFFFFFFFFFFFFFFFFFFFFF SUB DUP3 GT ISZERO PUSH3 0x13A2 JUMPI PUSH3 0x13A1 PUSH3 0x1321 JUMP JUMPDEST JUMPDEST DUP3 DUP3 ADD SWAP1 POP SWAP3 SWAP2 POP POP JUMP JUMPDEST PUSH32 0x4E487B7100000000000000000000000000000000000000000000000000000000 PUSH1 0x0 MSTORE PUSH1 0x32 PUSH1 0x4 MSTORE PUSH1 0x24 PUSH1 0x0 REVERT JUMPDEST PUSH1 0x0 PUSH3 0x13E9 DUP3 PUSH3 0xE08 JUMP JUMPDEST SWAP2 POP PUSH3 0x13F6 DUP4 PUSH3 0xE08 JUMP JUMPDEST SWAP3 POP DUP3 DUP3 LT ISZERO PUSH3 0x140C JUMPI PUSH3 0x140B PUSH3 0x1321 JUMP JUMPDEST JUMPDEST DUP3 DUP3 SUB SWAP1 POP SWAP3 SWAP2 POP POP JUMP JUMPDEST PUSH1 0x0 PUSH3 0x1424 DUP3 PUSH3 0xE08 JUMP JUMPDEST SWAP2 POP PUSH32 0xFFFFFFFFFFFFFFFFFFFFFFFFFFFFFFFFFFFFFFFFFFFFFFFFFFFFFFFFFFFFFFFF DUP3 SUB PUSH3 0x1459 JUMPI PUSH3 0x1458 PUSH3 0x1321 JUMP JUMPDEST JUMPDEST PUSH1 0x1 DUP3 ADD SWAP1 POP SWAP2 SWAP1 POP JUMP INVALID PUSH1 0x80 PUSH1 0x40 MSTORE CALLVALUE DUP1 ISZERO PUSH3 0x11 JUMPI PUSH1 0x0 DUP1 REVERT JUMPDEST POP PUSH1 0x40 MLOAD PUSH3 0xB79 CODESIZE SUB DUP1 PUSH3 0xB79 DUP4 CODECOPY DUP2 DUP2 ADD PUSH1 0x40 MSTORE DUP2 ADD SWAP1 PUSH3 0x37 SWAP2 SWAP1 PUSH3 0x2EA JUMP JUMPDEST DUP4 PUSH1 0x0 SWAP1 DUP2 PUSH3 0x48 SWAP2 SWAP1 PUSH3 0x5DB JUMP JUMPDEST POP DUP3 PUSH1 0x2 SWAP1 DUP2 PUSH3 0x5A SWAP2 SWAP1 PUSH3 0x5DB JUMP JUMPDEST POP DUP2 PUSH1 0x3 DUP2 SWAP1 SSTORE POP DUP1 PUSH1 0x4 PUSH1 0x0 PUSH2 0x100 EXP DUP2 SLOAD DUP2 PUSH20 0xFFFFFFFFFFFFFFFFFFFFFFFFFFFFFFFFFFFFFFFF MUL NOT AND SWAP1 DUP4 PUSH20 0xFFFFFFFFFFFFFFFFFFFFFFFFFFFFFFFFFFFFFFFF AND MUL OR SWAP1 SSTORE POP POP POP POP POP PUSH3 0x6C2 JUMP JUMPDEST PUSH1 0x0 PUSH1 0x40 MLOAD SWAP1 POP SWAP1 JUMP JUMPDEST PUSH1 0x0 DUP1 REVERT JUMPDEST PUSH1 0x0 DUP1 REVERT JUMPDEST PUSH1 0x0 DUP1 REVERT JUMPDEST PUSH1 0x0 DUP1 REVERT JUMPDEST PUSH1 0x0 PUSH1 0x1F NOT PUSH1 0x1F DUP4 ADD AND SWAP1 POP SWAP2 SWAP1 POP JUMP JUMPDEST PUSH32 0x4E487B7100000000000000000000000000000000000000000000000000000000 PUSH1 0x0 MSTORE PUSH1 0x41 PUSH1 0x4 MSTORE PUSH1 0x24 PUSH1 0x0 REVERT JUMPDEST PUSH3 0x116 DUP3 PUSH3 0xCB JUMP JUMPDEST DUP2 ADD DUP2 DUP2 LT PUSH8 0xFFFFFFFFFFFFFFFF DUP3 GT OR ISZERO PUSH3 0x138 JUMPI PUSH3 0x137 PUSH3 0xDC JUMP JUMPDEST JUMPDEST DUP1 PUSH1 0x40 MSTORE POP POP POP JUMP JUMPDEST PUSH1 0x0 PUSH3 0x14D PUSH3 0xAD JUMP JUMPDEST SWAP1 POP PUSH3 0x15B DUP3 DUP3 PUSH3 0x10B JUMP JUMPDEST SWAP2 SWAP1 POP JUMP JUMPDEST PUSH1 0x0 PUSH8 0xFFFFFFFFFFFFFFFF DUP3 GT ISZERO PUSH3 0x17E JUMPI PUSH3 0x17D PUSH3 0xDC JUMP JUMPDEST JUMPDEST PUSH3 0x189 DUP3 PUSH3 0xCB JUMP JUMPDEST SWAP1 POP PUSH1 0x20 DUP2 ADD SWAP1 POP SWAP2 SWAP1 POP JUMP JUMPDEST PUSH1 0x0 JUMPDEST DUP4 DUP2 LT ISZERO PUSH3 0x1B6 JUMPI DUP1 DUP3 ADD MLOAD DUP2 DUP5 ADD MSTORE PUSH1 0x20 DUP2 ADD SWAP1 POP PUSH3 0x199 JUMP JUMPDEST DUP4 DUP2 GT ISZERO PUSH3 0x1C6 JUMPI PUSH1 0x0 DUP5 DUP5 ADD MSTORE JUMPDEST POP POP POP POP JUMP JUMPDEST PUSH1 0x0 PUSH3 0x1E3 PUSH3 0x1DD DUP5 PUSH3 0x160 JUMP JUMPDEST PUSH3 0x141 JUMP JUMPDEST SWAP1 POP DUP3 DUP2 MSTORE PUSH1 0x20 DUP2 ADD DUP5 DUP5 DUP5 ADD GT ISZERO PUSH3 0x202 JUMPI PUSH3 0x201 PUSH3 0xC6 JUMP JUMPDEST JUMPDEST PUSH3 0x20F DUP5 DUP3 DUP6 PUSH3 0x196 JUMP JUMPDEST POP SWAP4 SWAP3 POP POP POP JUMP JUMPDEST PUSH1 0x0 DUP3 PUSH1 0x1F DUP4 ADD SLT PUSH3 0x22F JUMPI PUSH3 0x22E PUSH3 0xC1 JUMP JUMPDEST JUMPDEST DUP2 MLOAD PUSH3 0x241 DUP5 DUP3 PUSH1 0x20 DUP7 ADD PUSH3 0x1CC JUMP JUMPDEST SWAP2 POP POP SWAP3 SWAP2 POP POP JUMP JUMPDEST PUSH1 0x0 DUP2 SWAP1 POP SWAP2 SWAP1 POP JUMP JUMPDEST PUSH3 0x25F DUP2 PUSH3 0x24A JUMP JUMPDEST DUP2 EQ PUSH3 0x26B JUMPI PUSH1 0x0 DUP1 REVERT JUMPDEST POP JUMP JUMPDEST PUSH1 0x0 DUP2 MLOAD SWAP1 POP PUSH3 0x27F DUP2 PUSH3 0x254 JUMP JUMPDEST SWAP3 SWAP2 POP POP JUMP JUMPDEST PUSH1 0x0 PUSH20 0xFFFFFFFFFFFFFFFFFFFFFFFFFFFFFFFFFFFFFFFF DUP3 AND SWAP1 POP SWAP2 SWAP1 POP JUMP JUMPDEST PUSH1 0x0 PUSH3 0x2B2 DUP3 PUSH3 0x285 JUMP JUMPDEST SWAP1 POP SWAP2 SWAP1 POP JUMP JUMPDEST PUSH3 0x2C4 DUP2 PUSH3 0x2A5 JUMP JUMPDEST DUP2 EQ PUSH3 0x2D0 JUMPI PUSH1 0x0 DUP1 REVERT JUMPDEST POP JUMP JUMPDEST PUSH1 0x0 DUP2 MLOAD SWAP1 POP PUSH3 0x2E4 DUP2 PUSH3 0x2B9 JUMP JUMPDEST SWAP3 SWAP2 POP POP JUMP JUMPDEST PUSH1 0x0 DUP1 PUSH1 0x0 DUP1 PUSH1 0x80 DUP6 DUP8 SUB SLT ISZERO PUSH3 0x307 JUMPI PUSH3 0x306 PUSH3 0xB7 JUMP JUMPDEST JUMPDEST PUSH1 0x0 DUP6 ADD MLOAD PUSH8 0xFFFFFFFFFFFFFFFF DUP2 GT ISZERO PUSH3 0x328 JUMPI PUSH3 0x327 PUSH3 0xBC JUMP JUMPDEST JUMPDEST PUSH3 0x336 DUP8 DUP3 DUP9 ADD PUSH3 0x217 JUMP JUMPDEST SWAP5 POP POP PUSH1 0x20 DUP6 ADD MLOAD PUSH8 0xFFFFFFFFFFFFFFFF DUP2 GT ISZERO PUSH3 0x35A JUMPI PUSH3 0x359 PUSH3 0xBC JUMP JUMPDEST JUMPDEST PUSH3 0x368 DUP8 DUP3 DUP9 ADD PUSH3 0x217 JUMP JUMPDEST SWAP4 POP POP PUSH1 0x40 PUSH3 0x37B DUP8 DUP3 DUP9 ADD PUSH3 0x26E JUMP JUMPDEST SWAP3 POP POP PUSH1 0x60 PUSH3 0x38E DUP8 DUP3 DUP9 ADD PUSH3 0x2D3 JUMP JUMPDEST SWAP2 POP POP SWAP3 SWAP6 SWAP2 SWAP5 POP SWAP3 POP JUMP JUMPDEST PUSH1 0x0 DUP2 MLOAD SWAP1 POP SWAP2 SWAP1 POP JUMP JUMPDEST PUSH32 0x4E487B7100000000000000000000000000000000000000000000000000000000 PUSH1 0x0 MSTORE PUSH1 0x22 PUSH1 0x4 MSTORE PUSH1 0x24 PUSH1 0x0 REVERT JUMPDEST PUSH1 0x0 PUSH1 0x2 DUP3 DIV SWAP1 POP PUSH1 0x1 DUP3 AND DUP1 PUSH3 0x3ED JUMPI PUSH1 0x7F DUP3 AND SWAP2 POP JUMPDEST PUSH1 0x20 DUP3 LT DUP2 SUB PUSH3 0x403 JUMPI PUSH3 0x402 PUSH3 0x3A5 JUMP JUMPDEST JUMPDEST POP SWAP2 SWAP1 POP JUMP JUMPDEST PUSH1 0x0 DUP2 SWAP1 POP DUP2 PUSH1 0x0 MSTORE PUSH1 0x20 PUSH1 0x0 KECCAK256 SWAP1 POP SWAP2 SWAP1 POP JUMP JUMPDEST PUSH1 0x0 PUSH1 0x20 PUSH1 0x1F DUP4 ADD DIV SWAP1 POP SWAP2 SWAP1 POP JUMP JUMPDEST PUSH1 0x0 DUP3 DUP3 SHL SWAP1 POP SWAP3 SWAP2 POP POP JUMP JUMPDEST PUSH1 0x0 PUSH1 0x8 DUP4 MUL PUSH3 0x46D PUSH32 0xFFFFFFFFFFFFFFFFFFFFFFFFFFFFFFFFFFFFFFFFFFFFFFFFFFFFFFFFFFFFFFFF DUP3 PUSH3 0x42E JUMP JUMPDEST PUSH3 0x479 DUP7 DUP4 PUSH3 0x42E JUMP JUMPDEST SWAP6 POP DUP1 NOT DUP5 AND SWAP4 POP DUP1 DUP7 AND DUP5 OR SWAP3 POP POP POP SWAP4 SWAP3 POP POP POP JUMP JUMPDEST PUSH1 0x0 DUP2 SWAP1 POP SWAP2 SWAP1 POP JUMP JUMPDEST PUSH1 0x0 PUSH3 0x4BC PUSH3 0x4B6 PUSH3 0x4B0 DUP5 PUSH3 0x24A JUMP JUMPDEST PUSH3 0x491 JUMP JUMPDEST PUSH3 0x24A JUMP JUMPDEST SWAP1 POP SWAP2 SWAP1 POP JUMP JUMPDEST PUSH1 0x0 DUP2 SWAP1 POP SWAP2 SWAP1 POP JUMP JUMPDEST PUSH3 0x4D8 DUP4 PUSH3 0x49B JUMP JUMPDEST PUSH3 0x4F0 PUSH3 0x4E7 DUP3 PUSH3 0x4C3 JUMP JUMPDEST DUP5 DUP5 SLOAD PUSH3 0x43B JUMP JUMPDEST DUP3 SSTORE POP POP POP POP JUMP JUMPDEST PUSH1 0x0 SWAP1 JUMP JUMPDEST PUSH3 0x507 PUSH3 0x4F8 JUMP JUMPDEST PUSH3 0x514 DUP2 DUP5 DUP5 PUSH3 0x4CD JUMP JUMPDEST POP POP POP JUMP JUMPDEST JUMPDEST DUP2 DUP2 LT ISZERO PUSH3 0x53C JUMPI PUSH3 0x530 PUSH1 0x0 DUP3 PUSH3 0x4FD JUMP JUMPDEST PUSH1 0x1 DUP2 ADD SWAP1 POP PUSH3 0x51A JUMP JUMPDEST POP POP JUMP JUMPDEST PUSH1 0x1F DUP3 GT ISZERO PUSH3 0x58B JUMPI PUSH3 0x555 DUP2 PUSH3 0x409 JUMP JUMPDEST PUSH3 0x560 DUP5 PUSH3 0x41E JUMP JUMPDEST DUP2 ADD PUSH1 0x20 DUP6 LT ISZERO PUSH3 0x570 JUMPI DUP2 SWAP1 POP JUMPDEST PUSH3 0x588 PUSH3 0x57F DUP6 PUSH3 0x41E JUMP JUMPDEST DUP4 ADD DUP3 PUSH3 0x519 JUMP JUMPDEST POP POP JUMPDEST POP POP POP JUMP JUMPDEST PUSH1 0x0 DUP3 DUP3 SHR SWAP1 POP SWAP3 SWAP2 POP POP JUMP JUMPDEST PUSH1 0x0 PUSH3 0x5B0 PUSH1 0x0 NOT DUP5 PUSH1 0x8 MUL PUSH3 0x590 JUMP JUMPDEST NOT DUP1 DUP4 AND SWAP2 POP POP SWAP3 SWAP2 POP POP JUMP JUMPDEST PUSH1 0x0 PUSH3 0x5CB DUP4 DUP4 PUSH3 0x59D JUMP JUMPDEST SWAP2 POP DUP3 PUSH1 0x2 MUL DUP3 OR SWAP1 POP SWAP3 SWAP2 POP POP JUMP JUMPDEST PUSH3 0x5E6 DUP3 PUSH3 0x39A JUMP JUMPDEST PUSH8 0xFFFFFFFFFFFFFFFF DUP2 GT ISZERO PUSH3 0x602 JUMPI PUSH3 0x601 PUSH3 0xDC JUMP JUMPDEST JUMPDEST PUSH3 0x60E DUP3 SLOAD PUSH3 0x3D4 JUMP JUMPDEST PUSH3 0x61B DUP3 DUP3 DUP6 PUSH3 0x540 JUMP JUMPDEST PUSH1 0x0 PUSH1 0x20 SWAP1 POP PUSH1 0x1F DUP4 GT PUSH1 0x1 DUP2 EQ PUSH3 0x653 JUMPI PUSH1 0x0 DUP5 ISZERO PUSH3 0x63E JUMPI DUP3 DUP8 ADD MLOAD SWAP1 POP JUMPDEST PUSH3 0x64A DUP6 DUP3 PUSH3 0x5BD JUMP JUMPDEST DUP7 SSTORE POP PUSH3 0x6BA JUMP JUMPDEST PUSH1 0x1F NOT DUP5 AND PUSH3 0x663 DUP7 PUSH3 0x409 JUMP JUMPDEST PUSH1 0x0 JUMPDEST DUP3 DUP2 LT ISZERO PUSH3 0x68D JUMPI DUP5 DUP10 ADD MLOAD DUP3 SSTORE PUSH1 0x1 DUP3 ADD SWAP2 POP PUSH1 0x20 DUP6 ADD SWAP5 POP PUSH1 0x20 DUP2 ADD SWAP1 POP PUSH3 0x666 JUMP JUMPDEST DUP7 DUP4 LT ISZERO PUSH3 0x6AD JUMPI DUP5 DUP10 ADD MLOAD PUSH3 0x6A9 PUSH1 0x1F DUP10 AND DUP3 PUSH3 0x59D JUMP JUMPDEST DUP4 SSTORE POP JUMPDEST PUSH1 0x1 PUSH1 0x2 DUP9 MUL ADD DUP9 SSTORE POP POP POP JUMPDEST POP POP POP POP POP POP JUMP JUMPDEST PUSH2 0x4A7 DUP1 PUSH3 0x6D2 PUSH1 0x0 CODECOPY PUSH1 0x0 RETURN INVALID PUSH1 0x80 PUSH1 0x40 MSTORE CALLVALUE DUP1 ISZERO PUSH2 0x10 JUMPI PUSH1 0x0 DUP1 REVERT JUMPDEST POP PUSH1 0x4 CALLDATASIZE LT PUSH2 0x36 JUMPI PUSH1 0x0 CALLDATALOAD PUSH1 0xE0 SHR DUP1 PUSH4 0x13AF4035 EQ PUSH2 0x3B JUMPI DUP1 PUSH4 0x7CA5685F EQ PUSH2 0x57 JUMPI JUMPDEST PUSH1 0x0 DUP1 REVERT JUMPDEST PUSH2 0x55 PUSH1 0x4 DUP1 CALLDATASIZE SUB DUP2 ADD SWAP1 PUSH2 0x50 SWAP2 SWAP1 PUSH2 0x2D0 JUMP JUMPDEST PUSH2 0x78 JUMP JUMPDEST STOP JUMPDEST PUSH2 0x5F PUSH2 0x116 JUMP JUMPDEST PUSH1 0x40 MLOAD PUSH2 0x6F SWAP5 SWAP4 SWAP3 SWAP2 SWAP1 PUSH2 0x3BE JUMP JUMPDEST PUSH1 0x40 MLOAD DUP1 SWAP2 SUB SWAP1 RETURN JUMPDEST PUSH1 0x4 PUSH1 0x0 SWAP1 SLOAD SWAP1 PUSH2 0x100 EXP SWAP1 DIV PUSH20 0xFFFFFFFFFFFFFFFFFFFFFFFFFFFFFFFFFFFFFFFF AND PUSH20 0xFFFFFFFFFFFFFFFFFFFFFFFFFFFFFFFFFFFFFFFF AND CALLER PUSH20 0xFFFFFFFFFFFFFFFFFFFFFFFFFFFFFFFFFFFFFFFF AND EQ PUSH2 0xD2 JUMPI PUSH1 0x0 DUP1 REVERT JUMPDEST DUP1 PUSH1 0x1 PUSH1 0x0 PUSH2 0x100 EXP DUP2 SLOAD DUP2 PUSH20 0xFFFFFFFFFFFFFFFFFFFFFFFFFFFFFFFFFFFFFFFF MUL NOT AND SWAP1 DUP4 PUSH20 0xFFFFFFFFFFFFFFFFFFFFFFFFFFFFFFFFFFFFFFFF AND MUL OR SWAP1 SSTORE POP POP JUMP JUMPDEST PUSH1 0x60 PUSH1 0x0 PUSH1 0x60 PUSH1 0x0 DUP1 PUSH1 0x1 PUSH1 0x0 SWAP1 SLOAD SWAP1 PUSH2 0x100 EXP SWAP1 DIV PUSH20 0xFFFFFFFFFFFFFFFFFFFFFFFFFFFFFFFFFFFFFFFF AND PUSH1 0x2 PUSH1 0x3 SLOAD DUP4 DUP1 SLOAD PUSH2 0x153 SWAP1 PUSH2 0x440 JUMP JUMPDEST DUP1 PUSH1 0x1F ADD PUSH1 0x20 DUP1 SWAP2 DIV MUL PUSH1 0x20 ADD PUSH1 0x40 MLOAD SWAP1 DUP2 ADD PUSH1 0x40 MSTORE DUP1 SWAP3 SWAP2 SWAP1 DUP2 DUP2 MSTORE PUSH1 0x20 ADD DUP3 DUP1 SLOAD PUSH2 0x17F SWAP1 PUSH2 0x440 JUMP JUMPDEST DUP1 ISZERO PUSH2 0x1CC JUMPI DUP1 PUSH1 0x1F LT PUSH2 0x1A1 JUMPI PUSH2 0x100 DUP1 DUP4 SLOAD DIV MUL DUP4 MSTORE SWAP2 PUSH1 0x20 ADD SWAP2 PUSH2 0x1CC JUMP JUMPDEST DUP3 ADD SWAP2 SWAP1 PUSH1 0x0 MSTORE PUSH1 0x20 PUSH1 0x0 KECCAK256 SWAP1 JUMPDEST DUP2 SLOAD DUP2 MSTORE SWAP1 PUSH1 0x1 ADD SWAP1 PUSH1 0x20 ADD DUP1 DUP4 GT PUSH2 0x1AF JUMPI DUP3 SWAP1 SUB PUSH1 0x1F AND DUP3 ADD SWAP2 JUMPDEST POP POP POP POP POP SWAP4 POP DUP2 DUP1 SLOAD PUSH2 0x1DF SWAP1 PUSH2 0x440 JUMP JUMPDEST DUP1 PUSH1 0x1F ADD PUSH1 0x20 DUP1 SWAP2 DIV MUL PUSH1 0x20 ADD PUSH1 0x40 MLOAD SWAP1 DUP2 ADD PUSH1 0x40 MSTORE DUP1 SWAP3 SWAP2 SWAP1 DUP2 DUP2 MSTORE PUSH1 0x20 ADD DUP3 DUP1 SLOAD PUSH2 0x20B SWAP1 PUSH2 0x440 JUMP JUMPDEST DUP1 ISZERO PUSH2 0x258 JUMPI DUP1 PUSH1 0x1F LT PUSH2 0x22D JUMPI PUSH2 0x100 DUP1 DUP4 SLOAD DIV MUL DUP4 MSTORE SWAP2 PUSH1 0x20 ADD SWAP2 PUSH2 0x258 JUMP JUMPDEST DUP3 ADD SWAP2 SWAP1 PUSH1 0x0 MSTORE PUSH1 0x20 PUSH1 0x0 KECCAK256 SWAP1 JUMPDEST DUP2 SLOAD DUP2 MSTORE SWAP1 PUSH1 0x1 ADD SWAP1 PUSH1 0x20 ADD DUP1 DUP4 GT PUSH2 0x23B JUMPI DUP3 SWAP1 SUB PUSH1 0x1F AND DUP3 ADD SWAP2 JUMPDEST POP POP POP POP POP SWAP2 POP SWAP4 POP SWAP4 POP SWAP4 POP SWAP4 POP SWAP1 SWAP2 SWAP3 SWAP4 JUMP JUMPDEST PUSH1 0x0 DUP1 REVERT JUMPDEST PUSH1 0x0 PUSH20 0xFFFFFFFFFFFFFFFFFFFFFFFFFFFFFFFFFFFFFFFF DUP3 AND SWAP1 POP SWAP2 SWAP1 POP JUMP JUMPDEST PUSH1 0x0 PUSH2 0x29D DUP3 PUSH2 0x272 JUMP JUMPDEST SWAP1 POP SWAP2 SWAP1 POP JUMP JUMPDEST PUSH2 0x2AD DUP2 PUSH2 0x292 JUMP JUMPDEST DUP2 EQ PUSH2 0x2B8 JUMPI PUSH1 0x0 DUP1 REVERT JUMPDEST POP JUMP JUMPDEST PUSH1 0x0 DUP2 CALLDATALOAD SWAP1 POP PUSH2 0x2CA DUP2 PUSH2 0x2A4 JUMP JUMPDEST SWAP3 SWAP2 POP POP JUMP JUMPDEST PUSH1 0x0 PUSH1 0x20 DUP3 DUP5 SUB SLT ISZERO PUSH2 0x2E6 JUMPI PUSH2 0x2E5 PUSH2 0x26D JUMP JUMPDEST JUMPDEST PUSH1 0x0 PUSH2 0x2F4 DUP5 DUP3 DUP6 ADD PUSH2 0x2BB JUMP JUMPDEST SWAP2 POP POP SWAP3 SWAP2 POP POP JUMP JUMPDEST PUSH1 0x0 DUP2 MLOAD SWAP1 POP SWAP2 SWAP1 POP JUMP JUMPDEST PUSH1 0x0 DUP3 DUP3 MSTORE PUSH1 0x20 DUP3 ADD SWAP1 POP SWAP3 SWAP2 POP POP JUMP JUMPDEST PUSH1 0x0 JUMPDEST DUP4 DUP2 LT ISZERO PUSH2 0x337 JUMPI DUP1 DUP3 ADD MLOAD DUP2 DUP5 ADD MSTORE PUSH1 0x20 DUP2 ADD SWAP1 POP PUSH2 0x31C JUMP JUMPDEST DUP4 DUP2 GT ISZERO PUSH2 0x346 JUMPI PUSH1 0x0 DUP5 DUP5 ADD MSTORE JUMPDEST POP POP POP POP JUMP JUMPDEST PUSH1 0x0 PUSH1 0x1F NOT PUSH1 0x1F DUP4 ADD AND SWAP1 POP SWAP2 SWAP1 POP JUMP JUMPDEST PUSH1 0x0 PUSH2 0x368 DUP3 PUSH2 0x2FD JUMP JUMPDEST PUSH2 0x372 DUP2 DUP6 PUSH2 0x308 JUMP JUMPDEST SWAP4 POP PUSH2 0x382 DUP2 DUP6 PUSH1 0x20 DUP7 ADD PUSH2 0x319 JUMP JUMPDEST PUSH2 0x38B DUP2 PUSH2 0x34C JUMP JUMPDEST DUP5 ADD SWAP2 POP POP SWAP3 SWAP2 POP POP JUMP JUMPDEST PUSH2 0x39F DUP2 PUSH2 0x292 JUMP JUMPDEST DUP3 MSTORE POP POP JUMP JUMPDEST PUSH1 0x0 DUP2 SWAP1 POP SWAP2 SWAP1 POP JUMP JUMPDEST PUSH2 0x3B8 DUP2 PUSH2 0x3A5 JUMP JUMPDEST DUP3 MSTORE POP POP JUMP JUMPDEST PUSH1 0x0 PUSH1 0x80 DUP3 ADD SWAP1 POP DUP2 DUP2 SUB PUSH1 0x0 DUP4 ADD MSTORE PUSH2 0x3D8 DUP2 DUP8 PUSH2 0x35D JUMP JUMPDEST SWAP1 POP PUSH2 0x3E7 PUSH1 0x20 DUP4 ADD DUP7 PUSH2 0x396 JUMP JUMPDEST DUP2 DUP2 SUB PUSH1 0x40 DUP4 ADD MSTORE PUSH2 0x3F9 DUP2 DUP6 PUSH2 0x35D JUMP JUMPDEST SWAP1 POP PUSH2 0x408 PUSH1 0x60 DUP4 ADD DUP5 PUSH2 0x3AF JUMP JUMPDEST SWAP6 SWAP5 POP POP POP POP POP JUMP JUMPDEST PUSH32 0x4E487B7100000000000000000000000000000000000000000000000000000000 PUSH1 0x0 MSTORE PUSH1 0x22 PUSH1 0x4 MSTORE PUSH1 0x24 PUSH1 0x0 REVERT JUMPDEST PUSH1 0x0 PUSH1 0x2 DUP3 DIV SWAP1 POP PUSH1 0x1 DUP3 AND DUP1 PUSH2 0x458 JUMPI PUSH1 0x7F DUP3 AND SWAP2 POP JUMPDEST PUSH1 0x20 DUP3 LT DUP2 SUB PUSH2 0x46B JUMPI PUSH2 0x46A PUSH2 0x411 JUMP JUMPDEST JUMPDEST POP SWAP2 SWAP1 POP JUMP INVALID LOG2 PUSH5 0x6970667358 0x22 SLT KECCAK256 0xBB PUSH29 0x15EBA478BB89B15637FE076EF913A14E8A17EF9CC1EF6C021CD0F48647 0xB4 PUSH5 0x736F6C6343 STOP ADDMOD 0xF STOP CALLER LOG2 PUSH5 0x6970667358 0x22 SLT KECCAK256 0xEE GAS PUSH2 0x62B9 0xCA DUP14 PUSH14 0xA66FD90809289B45431D8C1291AC 0xBB REVERT 0xD CALLDATACOPY 0xC5 0xFC CALLDATASIZE SMOD 0xAF 0x24 PUSH5 0x736F6C6343 STOP ADDMOD 0xF STOP CALLER "},"gasEstimates":{"creation":{"codeDepositCost":"1642200","executionCost":"6728","totalCost":"1648928"},"external":{"getNumberOfListedNfts()":"2446","getNumberOfNfts()":"2533","getNumberOfOwnedNfts(address)":"2870","getOwnedNft(address,uint256)":"infinite","listNftForSale(address,uint256,uint256)":"infinite","listings(uint256)":"infinite","mint(string,string)":"infinite","nftList(uint256)":"5001","ownerMap(address,uint256)":"infinite","userNftStorageInfoMap(address)":"infinite"},"internal":{"addNftToOwner(address,address)":"infinite","getNextEmptyLocationForNft(address)":"infinite","removeNftFromOwner(address,address)":"infinite"}},"methodIdentifiers":{"getNumberOfListedNfts()":"007bb2ef","getNumberOfNfts()":"fd296bce","getNumberOfOwnedNfts(address)":"4bb94baf","getOwnedNft(address,uint256)":"9975905e","listNftForSale(address,uint256,uint256)":"d0e8b35f","listings(uint256)":"de74e57b","mint(string,string)":"8aa0fdad","nftList(uint256)":"75bea166","ownerMap(address,uint256)":"7bc97efb","userNftStorageInfoMap(address)":"b9f21e40"}},"storageLayout":{"storage":[{"astId":14,"contract":"Market.sol:Market","label":"nftList","offset":0,"slot":"0","type":"t_array(t_address)dyn_storage"},{"astId":19,"contract":"Market.sol:Market","label":"ownerMap","offset":0,"slot":"1","type":"t_mapping(t_address,t_array(t_address)dyn_storage)"},{"astId":22,"contract":"Market.sol:Market","label":"nextNftIndex","offset":0,"slot":"2","type":"t_uint256"},{"astId":26,"contract":"Market.sol:Market","label":"listings","offset":0,"slot":"3","type":"t_array(t_struct(Listing)6_storage)dyn_storage"},{"astId":31,"contract":"Market.sol:Market","label":"userNftStorageInfoMap","offset":0,"slot":"4","type":"t_mapping(t_address,t_struct(userNftStorageInfo)11_storage)"}],"types":{"t_address":{"encoding":"inplace","label":"address","numberOfBytes":"20"},"t_array(t_address)dyn_storage":{"base":"t_address","encoding":"dynamic_array","label":"address[]","numberOfBytes":"32"},"t_array(t_struct(Listing)6_storage)dyn_storage":{"base":"t_struct(Listing)6_storage","encoding":"dynamic_array","label":"struct Market.Listing[]","numberOfBytes":"32"},"t_mapping(t_address,t_array(t_address)dyn_storage)":{"encoding":"mapping","key":"t_address","label":"mapping(address => address[])","numberOfBytes":"32","value":"t_array(t_address)dyn_storage"},"t_mapping(t_address,t_struct(userNftStorageInfo)11_storage)":{"encoding":"mapping","key":"t_address","label":"mapping(address => struct Market.userNftStorageInfo)","numberOfBytes":"32","value":"t_struct(userNftStorageInfo)11_storage"},"t_struct(Listing)6_storage":{"encoding":"inplace","label":"struct Market.Listing","members":[{"astId":3,"contract":"Market.sol:Market","label":"index","offset":0,"slot":"0","type":"t_uint256"},{"astId":5,"contract":"Market.sol:Market","label":"price","offset":0,"slot":"1","type":"t_uint256"}],"numberOfBytes":"64"},"t_struct(userNftStorageInfo)11_storage":{"encoding":"inplace","label":"struct Market.userNftStorageInfo","members":[{"astId":8,"contract":"Market.sol:Market","label":"nextLoc","offset":0,"slot":"0","type":"t_uint256"},{"astId":10,"contract":"Market.sol:Market","label":"numOwnedNfts","offset":0,"slot":"1","type":"t_uint256"}],"numberOfBytes":"64"},"t_uint256":{"encoding":"inplace","label":"uint256","numberOfBytes":"32"}}},"userdoc":{"kind":"user","methods":{},"version":1}}