{"abi":[{"inputs":[{"internalType":"string","name":"assetName","type":"string"},{"internalType":"address","name":"assetOwner","type":"address"},{"internalType":"string","name":"ipfsHash","type":"string"}],"stateMutability":"nonpayable","type":"constructor"},{"inputs":[],"name":"getImageHash","outputs":[{"internalType":"string","name":"","type":"string"}],"stateMutability":"view","type":"function"},{"inputs":[],"name":"getName","outputs":[{"internalType":"string","name":"","type":"string"}],"stateMutability":"view","type":"function"},{"inputs":[],"name":"getOwner","outputs":[{"internalType":"address","name":"","type":"address"}],"stateMutability":"view","type":"function"}],"devdoc":{"kind":"dev","methods":{},"version":1},"evm":{"assembly":"    /* \"Market.sol\":877:1405  contract Nft {... */\n  mstore(0x40, 0x80)\n    /* \"Market.sol\":956:1129  constructor (string memory assetName, address assetOwner, string memory ipfsHash) {... */\n  callvalue\n  dup1\n  iszero\n  tag_1\n  jumpi\n  0x00\n  dup1\n  revert\ntag_1:\n  pop\n  mload(0x40)\n  sub(codesize, bytecodeSize)\n  dup1\n  bytecodeSize\n  dup4\n  codecopy\n  dup2\n  dup2\n  add\n  0x40\n  mstore\n  dup2\n  add\n  swap1\n  tag_2\n  swap2\n  swap1\n  tag_3\n  jump\t// in\ntag_2:\n    /* \"Market.sol\":1055:1064  assetName */\n  dup3\n    /* \"Market.sol\":1048:1052  name */\n  0x00\n    /* \"Market.sol\":1048:1064  name = assetName */\n  swap1\n  dup2\n  tag_6\n  swap2\n  swap1\n  tag_7\n  jump\t// in\ntag_6:\n  pop\n    /* \"Market.sol\":1082:1092  assetOwner */\n  dup2\n    /* \"Market.sol\":1074:1079  owner */\n  0x01\n  0x00\n    /* \"Market.sol\":1074:1092  owner = assetOwner */\n  0x0100\n  exp\n  dup2\n  sload\n  dup2\n  0xffffffffffffffffffffffffffffffffffffffff\n  mul\n  not\n  and\n  swap1\n  dup4\n  0xffffffffffffffffffffffffffffffffffffffff\n  and\n  mul\n  or\n  swap1\n  sstore\n  pop\n    /* \"Market.sol\":1114:1122  ipfsHash */\n  dup1\n    /* \"Market.sol\":1102:1111  imageHash */\n  0x02\n    /* \"Market.sol\":1102:1122  imageHash = ipfsHash */\n  swap1\n  dup2\n  tag_8\n  swap2\n  swap1\n  tag_7\n  jump\t// in\ntag_8:\n  pop\n    /* \"Market.sol\":956:1129  constructor (string memory assetName, address assetOwner, string memory ipfsHash) {... */\n  pop\n  pop\n  pop\n    /* \"Market.sol\":877:1405  contract Nft {... */\n  jump(tag_9)\n    /* \"#utility.yul\":7:82   */\ntag_10:\n    /* \"#utility.yul\":40:46   */\n  0x00\n    /* \"#utility.yul\":73:75   */\n  0x40\n    /* \"#utility.yul\":67:76   */\n  mload\n    /* \"#utility.yul\":57:76   */\n  swap1\n  pop\n    /* \"#utility.yul\":7:82   */\n  swap1\n  jump\t// out\n    /* \"#utility.yul\":88:205   */\ntag_11:\n    /* \"#utility.yul\":197:198   */\n  0x00\n    /* \"#utility.yul\":194:195   */\n  dup1\n    /* \"#utility.yul\":187:199   */\n  revert\n    /* \"#utility.yul\":211:328   */\ntag_12:\n    /* \"#utility.yul\":320:321   */\n  0x00\n    /* \"#utility.yul\":317:318   */\n  dup1\n    /* \"#utility.yul\":310:322   */\n  revert\n    /* \"#utility.yul\":334:451   */\ntag_13:\n    /* \"#utility.yul\":443:444   */\n  0x00\n    /* \"#utility.yul\":440:441   */\n  dup1\n    /* \"#utility.yul\":433:445   */\n  revert\n    /* \"#utility.yul\":457:574   */\ntag_14:\n    /* \"#utility.yul\":566:567   */\n  0x00\n    /* \"#utility.yul\":563:564   */\n  dup1\n    /* \"#utility.yul\":556:568   */\n  revert\n    /* \"#utility.yul\":580:682   */\ntag_15:\n    /* \"#utility.yul\":621:627   */\n  0x00\n    /* \"#utility.yul\":672:674   */\n  0x1f\n    /* \"#utility.yul\":668:675   */\n  not\n    /* \"#utility.yul\":663:665   */\n  0x1f\n    /* \"#utility.yul\":656:661   */\n  dup4\n    /* \"#utility.yul\":652:666   */\n  add\n    /* \"#utility.yul\":648:676   */\n  and\n    /* \"#utility.yul\":638:676   */\n  swap1\n  pop\n    /* \"#utility.yul\":580:682   */\n  swap2\n  swap1\n  pop\n  jump\t// out\n    /* \"#utility.yul\":688:868   */\ntag_16:\n    /* \"#utility.yul\":736:813   */\n  0x4e487b7100000000000000000000000000000000000000000000000000000000\n    /* \"#utility.yul\":733:734   */\n  0x00\n    /* \"#utility.yul\":726:814   */\n  mstore\n    /* \"#utility.yul\":833:837   */\n  0x41\n    /* \"#utility.yul\":830:831   */\n  0x04\n    /* \"#utility.yul\":823:838   */\n  mstore\n    /* \"#utility.yul\":857:861   */\n  0x24\n    /* \"#utility.yul\":854:855   */\n  0x00\n    /* \"#utility.yul\":847:862   */\n  revert\n    /* \"#utility.yul\":874:1155   */\ntag_17:\n    /* \"#utility.yul\":957:984   */\n  tag_55\n    /* \"#utility.yul\":979:983   */\n  dup3\n    /* \"#utility.yul\":957:984   */\n  tag_15\n  jump\t// in\ntag_55:\n    /* \"#utility.yul\":949:955   */\n  dup2\n    /* \"#utility.yul\":945:985   */\n  add\n    /* \"#utility.yul\":1087:1093   */\n  dup2\n    /* \"#utility.yul\":1075:1085   */\n  dup2\n    /* \"#utility.yul\":1072:1094   */\n  lt\n    /* \"#utility.yul\":1051:1069   */\n  0xffffffffffffffff\n    /* \"#utility.yul\":1039:1049   */\n  dup3\n    /* \"#utility.yul\":1036:1070   */\n  gt\n    /* \"#utility.yul\":1033:1095   */\n  or\n    /* \"#utility.yul\":1030:1118   */\n  iszero\n  tag_56\n  jumpi\n    /* \"#utility.yul\":1098:1116   */\n  tag_57\n  tag_16\n  jump\t// in\ntag_57:\n    /* \"#utility.yul\":1030:1118   */\ntag_56:\n    /* \"#utility.yul\":1138:1148   */\n  dup1\n    /* \"#utility.yul\":1134:1136   */\n  0x40\n    /* \"#utility.yul\":1127:1149   */\n  mstore\n    /* \"#utility.yul\":917:1155   */\n  pop\n    /* \"#utility.yul\":874:1155   */\n  pop\n  pop\n  jump\t// out\n    /* \"#utility.yul\":1161:1290   */\ntag_18:\n    /* \"#utility.yul\":1195:1201   */\n  0x00\n    /* \"#utility.yul\":1222:1242   */\n  tag_59\n  tag_10\n  jump\t// in\ntag_59:\n    /* \"#utility.yul\":1212:1242   */\n  swap1\n  pop\n    /* \"#utility.yul\":1251:1284   */\n  tag_60\n    /* \"#utility.yul\":1279:1283   */\n  dup3\n    /* \"#utility.yul\":1271:1277   */\n  dup3\n    /* \"#utility.yul\":1251:1284   */\n  tag_17\n  jump\t// in\ntag_60:\n    /* \"#utility.yul\":1161:1290   */\n  swap2\n  swap1\n  pop\n  jump\t// out\n    /* \"#utility.yul\":1296:1604   */\ntag_19:\n    /* \"#utility.yul\":1358:1362   */\n  0x00\n    /* \"#utility.yul\":1448:1466   */\n  0xffffffffffffffff\n    /* \"#utility.yul\":1440:1446   */\n  dup3\n    /* \"#utility.yul\":1437:1467   */\n  gt\n    /* \"#utility.yul\":1434:1490   */\n  iszero\n  tag_62\n  jumpi\n    /* \"#utility.yul\":1470:1488   */\n  tag_63\n  tag_16\n  jump\t// in\ntag_63:\n    /* \"#utility.yul\":1434:1490   */\ntag_62:\n    /* \"#utility.yul\":1508:1537   */\n  tag_64\n    /* \"#utility.yul\":1530:1536   */\n  dup3\n    /* \"#utility.yul\":1508:1537   */\n  tag_15\n  jump\t// in\ntag_64:\n    /* \"#utility.yul\":1500:1537   */\n  swap1\n  pop\n    /* \"#utility.yul\":1592:1596   */\n  0x20\n    /* \"#utility.yul\":1586:1590   */\n  dup2\n    /* \"#utility.yul\":1582:1597   */\n  add\n    /* \"#utility.yul\":1574:1597   */\n  swap1\n  pop\n    /* \"#utility.yul\":1296:1604   */\n  swap2\n  swap1\n  pop\n  jump\t// out\n    /* \"#utility.yul\":1610:1917   */\ntag_20:\n    /* \"#utility.yul\":1678:1679   */\n  0x00\n    /* \"#utility.yul\":1688:1801   */\ntag_66:\n    /* \"#utility.yul\":1702:1708   */\n  dup4\n    /* \"#utility.yul\":1699:1700   */\n  dup2\n    /* \"#utility.yul\":1696:1709   */\n  lt\n    /* \"#utility.yul\":1688:1801   */\n  iszero\n  tag_68\n  jumpi\n    /* \"#utility.yul\":1787:1788   */\n  dup1\n    /* \"#utility.yul\":1782:1785   */\n  dup3\n    /* \"#utility.yul\":1778:1789   */\n  add\n    /* \"#utility.yul\":1772:1790   */\n  mload\n    /* \"#utility.yul\":1768:1769   */\n  dup2\n    /* \"#utility.yul\":1763:1766   */\n  dup5\n    /* \"#utility.yul\":1759:1770   */\n  add\n    /* \"#utility.yul\":1752:1791   */\n  mstore\n    /* \"#utility.yul\":1724:1726   */\n  0x20\n    /* \"#utility.yul\":1721:1722   */\n  dup2\n    /* \"#utility.yul\":1717:1727   */\n  add\n    /* \"#utility.yul\":1712:1727   */\n  swap1\n  pop\n    /* \"#utility.yul\":1688:1801   */\n  jump(tag_66)\ntag_68:\n    /* \"#utility.yul\":1819:1825   */\n  dup4\n    /* \"#utility.yul\":1816:1817   */\n  dup2\n    /* \"#utility.yul\":1813:1826   */\n  gt\n    /* \"#utility.yul\":1810:1911   */\n  iszero\n  tag_69\n  jumpi\n    /* \"#utility.yul\":1899:1900   */\n  0x00\n    /* \"#utility.yul\":1890:1896   */\n  dup5\n    /* \"#utility.yul\":1885:1888   */\n  dup5\n    /* \"#utility.yul\":1881:1897   */\n  add\n    /* \"#utility.yul\":1874:1901   */\n  mstore\n    /* \"#utility.yul\":1810:1911   */\ntag_69:\n    /* \"#utility.yul\":1659:1917   */\n  pop\n    /* \"#utility.yul\":1610:1917   */\n  pop\n  pop\n  pop\n  jump\t// out\n    /* \"#utility.yul\":1923:2344   */\ntag_21:\n    /* \"#utility.yul\":2012:2017   */\n  0x00\n    /* \"#utility.yul\":2037:2103   */\n  tag_71\n    /* \"#utility.yul\":2053:2102   */\n  tag_72\n    /* \"#utility.yul\":2095:2101   */\n  dup5\n    /* \"#utility.yul\":2053:2102   */\n  tag_19\n  jump\t// in\ntag_72:\n    /* \"#utility.yul\":2037:2103   */\n  tag_18\n  jump\t// in\ntag_71:\n    /* \"#utility.yul\":2028:2103   */\n  swap1\n  pop\n    /* \"#utility.yul\":2126:2132   */\n  dup3\n    /* \"#utility.yul\":2119:2124   */\n  dup2\n    /* \"#utility.yul\":2112:2133   */\n  mstore\n    /* \"#utility.yul\":2164:2168   */\n  0x20\n    /* \"#utility.yul\":2157:2162   */\n  dup2\n    /* \"#utility.yul\":2153:2169   */\n  add\n    /* \"#utility.yul\":2202:2205   */\n  dup5\n    /* \"#utility.yul\":2193:2199   */\n  dup5\n    /* \"#utility.yul\":2188:2191   */\n  dup5\n    /* \"#utility.yul\":2184:2200   */\n  add\n    /* \"#utility.yul\":2181:2206   */\n  gt\n    /* \"#utility.yul\":2178:2290   */\n  iszero\n  tag_73\n  jumpi\n    /* \"#utility.yul\":2209:2288   */\n  tag_74\n  tag_14\n  jump\t// in\ntag_74:\n    /* \"#utility.yul\":2178:2290   */\ntag_73:\n    /* \"#utility.yul\":2299:2338   */\n  tag_75\n    /* \"#utility.yul\":2331:2337   */\n  dup5\n    /* \"#utility.yul\":2326:2329   */\n  dup3\n    /* \"#utility.yul\":2321:2324   */\n  dup6\n    /* \"#utility.yul\":2299:2338   */\n  tag_20\n  jump\t// in\ntag_75:\n    /* \"#utility.yul\":2018:2344   */\n  pop\n    /* \"#utility.yul\":1923:2344   */\n  swap4\n  swap3\n  pop\n  pop\n  pop\n  jump\t// out\n    /* \"#utility.yul\":2364:2719   */\ntag_22:\n    /* \"#utility.yul\":2431:2436   */\n  0x00\n    /* \"#utility.yul\":2480:2483   */\n  dup3\n    /* \"#utility.yul\":2473:2477   */\n  0x1f\n    /* \"#utility.yul\":2465:2471   */\n  dup4\n    /* \"#utility.yul\":2461:2478   */\n  add\n    /* \"#utility.yul\":2457:2484   */\n  slt\n    /* \"#utility.yul\":2447:2569   */\n  tag_77\n  jumpi\n    /* \"#utility.yul\":2488:2567   */\n  tag_78\n  tag_13\n  jump\t// in\ntag_78:\n    /* \"#utility.yul\":2447:2569   */\ntag_77:\n    /* \"#utility.yul\":2598:2604   */\n  dup2\n    /* \"#utility.yul\":2592:2605   */\n  mload\n    /* \"#utility.yul\":2623:2713   */\n  tag_79\n    /* \"#utility.yul\":2709:2712   */\n  dup5\n    /* \"#utility.yul\":2701:2707   */\n  dup3\n    /* \"#utility.yul\":2694:2698   */\n  0x20\n    /* \"#utility.yul\":2686:2692   */\n  dup7\n    /* \"#utility.yul\":2682:2699   */\n  add\n    /* \"#utility.yul\":2623:2713   */\n  tag_21\n  jump\t// in\ntag_79:\n    /* \"#utility.yul\":2614:2713   */\n  swap2\n  pop\n    /* \"#utility.yul\":2437:2719   */\n  pop\n    /* \"#utility.yul\":2364:2719   */\n  swap3\n  swap2\n  pop\n  pop\n  jump\t// out\n    /* \"#utility.yul\":2725:2851   */\ntag_23:\n    /* \"#utility.yul\":2762:2769   */\n  0x00\n    /* \"#utility.yul\":2802:2844   */\n  0xffffffffffffffffffffffffffffffffffffffff\n    /* \"#utility.yul\":2795:2800   */\n  dup3\n    /* \"#utility.yul\":2791:2845   */\n  and\n    /* \"#utility.yul\":2780:2845   */\n  swap1\n  pop\n    /* \"#utility.yul\":2725:2851   */\n  swap2\n  swap1\n  pop\n  jump\t// out\n    /* \"#utility.yul\":2857:2953   */\ntag_24:\n    /* \"#utility.yul\":2894:2901   */\n  0x00\n    /* \"#utility.yul\":2923:2947   */\n  tag_82\n    /* \"#utility.yul\":2941:2946   */\n  dup3\n    /* \"#utility.yul\":2923:2947   */\n  tag_23\n  jump\t// in\ntag_82:\n    /* \"#utility.yul\":2912:2947   */\n  swap1\n  pop\n    /* \"#utility.yul\":2857:2953   */\n  swap2\n  swap1\n  pop\n  jump\t// out\n    /* \"#utility.yul\":2959:3081   */\ntag_25:\n    /* \"#utility.yul\":3032:3056   */\n  tag_84\n    /* \"#utility.yul\":3050:3055   */\n  dup2\n    /* \"#utility.yul\":3032:3056   */\n  tag_24\n  jump\t// in\ntag_84:\n    /* \"#utility.yul\":3025:3030   */\n  dup2\n    /* \"#utility.yul\":3022:3057   */\n  eq\n    /* \"#utility.yul\":3012:3075   */\n  tag_85\n  jumpi\n    /* \"#utility.yul\":3071:3072   */\n  0x00\n    /* \"#utility.yul\":3068:3069   */\n  dup1\n    /* \"#utility.yul\":3061:3073   */\n  revert\n    /* \"#utility.yul\":3012:3075   */\ntag_85:\n    /* \"#utility.yul\":2959:3081   */\n  pop\n  jump\t// out\n    /* \"#utility.yul\":3087:3230   */\ntag_26:\n    /* \"#utility.yul\":3144:3149   */\n  0x00\n    /* \"#utility.yul\":3175:3181   */\n  dup2\n    /* \"#utility.yul\":3169:3182   */\n  mload\n    /* \"#utility.yul\":3160:3182   */\n  swap1\n  pop\n    /* \"#utility.yul\":3191:3224   */\n  tag_87\n    /* \"#utility.yul\":3218:3223   */\n  dup2\n    /* \"#utility.yul\":3191:3224   */\n  tag_25\n  jump\t// in\ntag_87:\n    /* \"#utility.yul\":3087:3230   */\n  swap3\n  swap2\n  pop\n  pop\n  jump\t// out\n    /* \"#utility.yul\":3236:4245   */\ntag_3:\n    /* \"#utility.yul\":3344:3350   */\n  0x00\n    /* \"#utility.yul\":3352:3358   */\n  dup1\n    /* \"#utility.yul\":3360:3366   */\n  0x00\n    /* \"#utility.yul\":3409:3411   */\n  0x60\n    /* \"#utility.yul\":3397:3406   */\n  dup5\n    /* \"#utility.yul\":3388:3395   */\n  dup7\n    /* \"#utility.yul\":3384:3407   */\n  sub\n    /* \"#utility.yul\":3380:3412   */\n  slt\n    /* \"#utility.yul\":3377:3496   */\n  iszero\n  tag_89\n  jumpi\n    /* \"#utility.yul\":3415:3494   */\n  tag_90\n  tag_11\n  jump\t// in\ntag_90:\n    /* \"#utility.yul\":3377:3496   */\ntag_89:\n    /* \"#utility.yul\":3556:3557   */\n  0x00\n    /* \"#utility.yul\":3545:3554   */\n  dup5\n    /* \"#utility.yul\":3541:3558   */\n  add\n    /* \"#utility.yul\":3535:3559   */\n  mload\n    /* \"#utility.yul\":3586:3604   */\n  0xffffffffffffffff\n    /* \"#utility.yul\":3578:3584   */\n  dup2\n    /* \"#utility.yul\":3575:3605   */\n  gt\n    /* \"#utility.yul\":3572:3689   */\n  iszero\n  tag_91\n  jumpi\n    /* \"#utility.yul\":3608:3687   */\n  tag_92\n  tag_12\n  jump\t// in\ntag_92:\n    /* \"#utility.yul\":3572:3689   */\ntag_91:\n    /* \"#utility.yul\":3713:3787   */\n  tag_93\n    /* \"#utility.yul\":3779:3786   */\n  dup7\n    /* \"#utility.yul\":3770:3776   */\n  dup3\n    /* \"#utility.yul\":3759:3768   */\n  dup8\n    /* \"#utility.yul\":3755:3777   */\n  add\n    /* \"#utility.yul\":3713:3787   */\n  tag_22\n  jump\t// in\ntag_93:\n    /* \"#utility.yul\":3703:3787   */\n  swap4\n  pop\n    /* \"#utility.yul\":3506:3797   */\n  pop\n    /* \"#utility.yul\":3836:3838   */\n  0x20\n    /* \"#utility.yul\":3862:3926   */\n  tag_94\n    /* \"#utility.yul\":3918:3925   */\n  dup7\n    /* \"#utility.yul\":3909:3915   */\n  dup3\n    /* \"#utility.yul\":3898:3907   */\n  dup8\n    /* \"#utility.yul\":3894:3916   */\n  add\n    /* \"#utility.yul\":3862:3926   */\n  tag_26\n  jump\t// in\ntag_94:\n    /* \"#utility.yul\":3852:3926   */\n  swap3\n  pop\n    /* \"#utility.yul\":3807:3936   */\n  pop\n    /* \"#utility.yul\":3996:3998   */\n  0x40\n    /* \"#utility.yul\":3985:3994   */\n  dup5\n    /* \"#utility.yul\":3981:3999   */\n  add\n    /* \"#utility.yul\":3975:4000   */\n  mload\n    /* \"#utility.yul\":4027:4045   */\n  0xffffffffffffffff\n    /* \"#utility.yul\":4019:4025   */\n  dup2\n    /* \"#utility.yul\":4016:4046   */\n  gt\n    /* \"#utility.yul\":4013:4130   */\n  iszero\n  tag_95\n  jumpi\n    /* \"#utility.yul\":4049:4128   */\n  tag_96\n  tag_12\n  jump\t// in\ntag_96:\n    /* \"#utility.yul\":4013:4130   */\ntag_95:\n    /* \"#utility.yul\":4154:4228   */\n  tag_97\n    /* \"#utility.yul\":4220:4227   */\n  dup7\n    /* \"#utility.yul\":4211:4217   */\n  dup3\n    /* \"#utility.yul\":4200:4209   */\n  dup8\n    /* \"#utility.yul\":4196:4218   */\n  add\n    /* \"#utility.yul\":4154:4228   */\n  tag_22\n  jump\t// in\ntag_97:\n    /* \"#utility.yul\":4144:4228   */\n  swap2\n  pop\n    /* \"#utility.yul\":3946:4238   */\n  pop\n    /* \"#utility.yul\":3236:4245   */\n  swap3\n  pop\n  swap3\n  pop\n  swap3\n  jump\t// out\n    /* \"#utility.yul\":4251:4350   */\ntag_27:\n    /* \"#utility.yul\":4303:4309   */\n  0x00\n    /* \"#utility.yul\":4337:4342   */\n  dup2\n    /* \"#utility.yul\":4331:4343   */\n  mload\n    /* \"#utility.yul\":4321:4343   */\n  swap1\n  pop\n    /* \"#utility.yul\":4251:4350   */\n  swap2\n  swap1\n  pop\n  jump\t// out\n    /* \"#utility.yul\":4356:4536   */\ntag_28:\n    /* \"#utility.yul\":4404:4481   */\n  0x4e487b7100000000000000000000000000000000000000000000000000000000\n    /* \"#utility.yul\":4401:4402   */\n  0x00\n    /* \"#utility.yul\":4394:4482   */\n  mstore\n    /* \"#utility.yul\":4501:4505   */\n  0x22\n    /* \"#utility.yul\":4498:4499   */\n  0x04\n    /* \"#utility.yul\":4491:4506   */\n  mstore\n    /* \"#utility.yul\":4525:4529   */\n  0x24\n    /* \"#utility.yul\":4522:4523   */\n  0x00\n    /* \"#utility.yul\":4515:4530   */\n  revert\n    /* \"#utility.yul\":4542:4862   */\ntag_29:\n    /* \"#utility.yul\":4586:4592   */\n  0x00\n    /* \"#utility.yul\":4623:4624   */\n  0x02\n    /* \"#utility.yul\":4617:4621   */\n  dup3\n    /* \"#utility.yul\":4613:4625   */\n  div\n    /* \"#utility.yul\":4603:4625   */\n  swap1\n  pop\n    /* \"#utility.yul\":4670:4671   */\n  0x01\n    /* \"#utility.yul\":4664:4668   */\n  dup3\n    /* \"#utility.yul\":4660:4672   */\n  and\n    /* \"#utility.yul\":4691:4709   */\n  dup1\n    /* \"#utility.yul\":4681:4762   */\n  tag_101\n  jumpi\n    /* \"#utility.yul\":4747:4751   */\n  0x7f\n    /* \"#utility.yul\":4739:4745   */\n  dup3\n    /* \"#utility.yul\":4735:4752   */\n  and\n    /* \"#utility.yul\":4725:4752   */\n  swap2\n  pop\n    /* \"#utility.yul\":4681:4762   */\ntag_101:\n    /* \"#utility.yul\":4809:4811   */\n  0x20\n    /* \"#utility.yul\":4801:4807   */\n  dup3\n    /* \"#utility.yul\":4798:4812   */\n  lt\n    /* \"#utility.yul\":4778:4796   */\n  dup2\n    /* \"#utility.yul\":4775:4813   */\n  sub\n    /* \"#utility.yul\":4772:4856   */\n  tag_102\n  jumpi\n    /* \"#utility.yul\":4828:4846   */\n  tag_103\n  tag_28\n  jump\t// in\ntag_103:\n    /* \"#utility.yul\":4772:4856   */\ntag_102:\n    /* \"#utility.yul\":4593:4862   */\n  pop\n    /* \"#utility.yul\":4542:4862   */\n  swap2\n  swap1\n  pop\n  jump\t// out\n    /* \"#utility.yul\":4868:5009   */\ntag_30:\n    /* \"#utility.yul\":4917:4921   */\n  0x00\n    /* \"#utility.yul\":4940:4943   */\n  dup2\n    /* \"#utility.yul\":4932:4943   */\n  swap1\n  pop\n    /* \"#utility.yul\":4963:4966   */\n  dup2\n    /* \"#utility.yul\":4960:4961   */\n  0x00\n    /* \"#utility.yul\":4953:4967   */\n  mstore\n    /* \"#utility.yul\":4997:5001   */\n  0x20\n    /* \"#utility.yul\":4994:4995   */\n  0x00\n    /* \"#utility.yul\":4984:5002   */\n  keccak256\n    /* \"#utility.yul\":4976:5002   */\n  swap1\n  pop\n    /* \"#utility.yul\":4868:5009   */\n  swap2\n  swap1\n  pop\n  jump\t// out\n    /* \"#utility.yul\":5015:5108   */\ntag_31:\n    /* \"#utility.yul\":5052:5058   */\n  0x00\n    /* \"#utility.yul\":5099:5101   */\n  0x20\n    /* \"#utility.yul\":5094:5096   */\n  0x1f\n    /* \"#utility.yul\":5087:5092   */\n  dup4\n    /* \"#utility.yul\":5083:5097   */\n  add\n    /* \"#utility.yul\":5079:5102   */\n  div\n    /* \"#utility.yul\":5069:5102   */\n  swap1\n  pop\n    /* \"#utility.yul\":5015:5108   */\n  swap2\n  swap1\n  pop\n  jump\t// out\n    /* \"#utility.yul\":5114:5221   */\ntag_32:\n    /* \"#utility.yul\":5158:5166   */\n  0x00\n    /* \"#utility.yul\":5208:5213   */\n  dup3\n    /* \"#utility.yul\":5202:5206   */\n  dup3\n    /* \"#utility.yul\":5198:5214   */\n  shl\n    /* \"#utility.yul\":5177:5214   */\n  swap1\n  pop\n    /* \"#utility.yul\":5114:5221   */\n  swap3\n  swap2\n  pop\n  pop\n  jump\t// out\n    /* \"#utility.yul\":5227:5620   */\ntag_33:\n    /* \"#utility.yul\":5296:5302   */\n  0x00\n    /* \"#utility.yul\":5346:5347   */\n  0x08\n    /* \"#utility.yul\":5334:5344   */\n  dup4\n    /* \"#utility.yul\":5330:5348   */\n  mul\n    /* \"#utility.yul\":5369:5466   */\n  tag_108\n    /* \"#utility.yul\":5399:5465   */\n  0xffffffffffffffffffffffffffffffffffffffffffffffffffffffffffffffff\n    /* \"#utility.yul\":5388:5397   */\n  dup3\n    /* \"#utility.yul\":5369:5466   */\n  tag_32\n  jump\t// in\ntag_108:\n    /* \"#utility.yul\":5487:5526   */\n  tag_109\n    /* \"#utility.yul\":5517:5525   */\n  dup7\n    /* \"#utility.yul\":5506:5515   */\n  dup4\n    /* \"#utility.yul\":5487:5526   */\n  tag_32\n  jump\t// in\ntag_109:\n    /* \"#utility.yul\":5475:5526   */\n  swap6\n  pop\n    /* \"#utility.yul\":5559:5563   */\n  dup1\n    /* \"#utility.yul\":5555:5564   */\n  not\n    /* \"#utility.yul\":5548:5553   */\n  dup5\n    /* \"#utility.yul\":5544:5565   */\n  and\n    /* \"#utility.yul\":5535:5565   */\n  swap4\n  pop\n    /* \"#utility.yul\":5608:5612   */\n  dup1\n    /* \"#utility.yul\":5598:5606   */\n  dup7\n    /* \"#utility.yul\":5594:5613   */\n  and\n    /* \"#utility.yul\":5587:5592   */\n  dup5\n    /* \"#utility.yul\":5584:5614   */\n  or\n    /* \"#utility.yul\":5574:5614   */\n  swap3\n  pop\n    /* \"#utility.yul\":5303:5620   */\n  pop\n  pop\n    /* \"#utility.yul\":5227:5620   */\n  swap4\n  swap3\n  pop\n  pop\n  pop\n  jump\t// out\n    /* \"#utility.yul\":5626:5703   */\ntag_34:\n    /* \"#utility.yul\":5663:5670   */\n  0x00\n    /* \"#utility.yul\":5692:5697   */\n  dup2\n    /* \"#utility.yul\":5681:5697   */\n  swap1\n  pop\n    /* \"#utility.yul\":5626:5703   */\n  swap2\n  swap1\n  pop\n  jump\t// out\n    /* \"#utility.yul\":5709:5769   */\ntag_35:\n    /* \"#utility.yul\":5737:5740   */\n  0x00\n    /* \"#utility.yul\":5758:5763   */\n  dup2\n    /* \"#utility.yul\":5751:5763   */\n  swap1\n  pop\n    /* \"#utility.yul\":5709:5769   */\n  swap2\n  swap1\n  pop\n  jump\t// out\n    /* \"#utility.yul\":5775:5917   */\ntag_36:\n    /* \"#utility.yul\":5825:5834   */\n  0x00\n    /* \"#utility.yul\":5858:5911   */\n  tag_113\n    /* \"#utility.yul\":5876:5910   */\n  tag_114\n    /* \"#utility.yul\":5885:5909   */\n  tag_115\n    /* \"#utility.yul\":5903:5908   */\n  dup5\n    /* \"#utility.yul\":5885:5909   */\n  tag_34\n  jump\t// in\ntag_115:\n    /* \"#utility.yul\":5876:5910   */\n  tag_35\n  jump\t// in\ntag_114:\n    /* \"#utility.yul\":5858:5911   */\n  tag_34\n  jump\t// in\ntag_113:\n    /* \"#utility.yul\":5845:5911   */\n  swap1\n  pop\n    /* \"#utility.yul\":5775:5917   */\n  swap2\n  swap1\n  pop\n  jump\t// out\n    /* \"#utility.yul\":5923:5998   */\ntag_37:\n    /* \"#utility.yul\":5966:5969   */\n  0x00\n    /* \"#utility.yul\":5987:5992   */\n  dup2\n    /* \"#utility.yul\":5980:5992   */\n  swap1\n  pop\n    /* \"#utility.yul\":5923:5998   */\n  swap2\n  swap1\n  pop\n  jump\t// out\n    /* \"#utility.yul\":6004:6273   */\ntag_38:\n    /* \"#utility.yul\":6114:6153   */\n  tag_118\n    /* \"#utility.yul\":6145:6152   */\n  dup4\n    /* \"#utility.yul\":6114:6153   */\n  tag_36\n  jump\t// in\ntag_118:\n    /* \"#utility.yul\":6175:6266   */\n  tag_119\n    /* \"#utility.yul\":6224:6265   */\n  tag_120\n    /* \"#utility.yul\":6248:6264   */\n  dup3\n    /* \"#utility.yul\":6224:6265   */\n  tag_37\n  jump\t// in\ntag_120:\n    /* \"#utility.yul\":6216:6222   */\n  dup5\n    /* \"#utility.yul\":6209:6213   */\n  dup5\n    /* \"#utility.yul\":6203:6214   */\n  sload\n    /* \"#utility.yul\":6175:6266   */\n  tag_33\n  jump\t// in\ntag_119:\n    /* \"#utility.yul\":6169:6173   */\n  dup3\n    /* \"#utility.yul\":6162:6267   */\n  sstore\n    /* \"#utility.yul\":6080:6273   */\n  pop\n    /* \"#utility.yul\":6004:6273   */\n  pop\n  pop\n  pop\n  jump\t// out\n    /* \"#utility.yul\":6279:6352   */\ntag_39:\n    /* \"#utility.yul\":6324:6327   */\n  0x00\n    /* \"#utility.yul\":6279:6352   */\n  swap1\n  jump\t// out\n    /* \"#utility.yul\":6358:6547   */\ntag_40:\n    /* \"#utility.yul\":6435:6467   */\n  tag_123\n  tag_39\n  jump\t// in\ntag_123:\n    /* \"#utility.yul\":6476:6541   */\n  tag_124\n    /* \"#utility.yul\":6534:6540   */\n  dup2\n    /* \"#utility.yul\":6526:6532   */\n  dup5\n    /* \"#utility.yul\":6520:6524   */\n  dup5\n    /* \"#utility.yul\":6476:6541   */\n  tag_38\n  jump\t// in\ntag_124:\n    /* \"#utility.yul\":6411:6547   */\n  pop\n    /* \"#utility.yul\":6358:6547   */\n  pop\n  pop\n  jump\t// out\n    /* \"#utility.yul\":6553:6739   */\ntag_41:\n    /* \"#utility.yul\":6613:6733   */\ntag_126:\n    /* \"#utility.yul\":6630:6633   */\n  dup2\n    /* \"#utility.yul\":6623:6628   */\n  dup2\n    /* \"#utility.yul\":6620:6634   */\n  lt\n    /* \"#utility.yul\":6613:6733   */\n  iszero\n  tag_128\n  jumpi\n    /* \"#utility.yul\":6684:6723   */\n  tag_129\n    /* \"#utility.yul\":6721:6722   */\n  0x00\n    /* \"#utility.yul\":6714:6719   */\n  dup3\n    /* \"#utility.yul\":6684:6723   */\n  tag_40\n  jump\t// in\ntag_129:\n    /* \"#utility.yul\":6657:6658   */\n  0x01\n    /* \"#utility.yul\":6650:6655   */\n  dup2\n    /* \"#utility.yul\":6646:6659   */\n  add\n    /* \"#utility.yul\":6637:6659   */\n  swap1\n  pop\n    /* \"#utility.yul\":6613:6733   */\n  jump(tag_126)\ntag_128:\n    /* \"#utility.yul\":6553:6739   */\n  pop\n  pop\n  jump\t// out\n    /* \"#utility.yul\":6745:7288   */\ntag_42:\n    /* \"#utility.yul\":6846:6848   */\n  0x1f\n    /* \"#utility.yul\":6841:6844   */\n  dup3\n    /* \"#utility.yul\":6838:6849   */\n  gt\n    /* \"#utility.yul\":6835:7281   */\n  iszero\n  tag_131\n  jumpi\n    /* \"#utility.yul\":6880:6918   */\n  tag_132\n    /* \"#utility.yul\":6912:6917   */\n  dup2\n    /* \"#utility.yul\":6880:6918   */\n  tag_30\n  jump\t// in\ntag_132:\n    /* \"#utility.yul\":6964:6993   */\n  tag_133\n    /* \"#utility.yul\":6982:6992   */\n  dup5\n    /* \"#utility.yul\":6964:6993   */\n  tag_31\n  jump\t// in\ntag_133:\n    /* \"#utility.yul\":6954:6962   */\n  dup2\n    /* \"#utility.yul\":6950:6994   */\n  add\n    /* \"#utility.yul\":7147:7149   */\n  0x20\n    /* \"#utility.yul\":7135:7145   */\n  dup6\n    /* \"#utility.yul\":7132:7150   */\n  lt\n    /* \"#utility.yul\":7129:7178   */\n  iszero\n  tag_134\n  jumpi\n    /* \"#utility.yul\":7168:7176   */\n  dup2\n    /* \"#utility.yul\":7153:7176   */\n  swap1\n  pop\n    /* \"#utility.yul\":7129:7178   */\ntag_134:\n    /* \"#utility.yul\":7191:7271   */\n  tag_135\n    /* \"#utility.yul\":7247:7269   */\n  tag_136\n    /* \"#utility.yul\":7265:7268   */\n  dup6\n    /* \"#utility.yul\":7247:7269   */\n  tag_31\n  jump\t// in\ntag_136:\n    /* \"#utility.yul\":7237:7245   */\n  dup4\n    /* \"#utility.yul\":7233:7270   */\n  add\n    /* \"#utility.yul\":7220:7231   */\n  dup3\n    /* \"#utility.yul\":7191:7271   */\n  tag_41\n  jump\t// in\ntag_135:\n    /* \"#utility.yul\":6850:7281   */\n  pop\n  pop\n    /* \"#utility.yul\":6835:7281   */\ntag_131:\n    /* \"#utility.yul\":6745:7288   */\n  pop\n  pop\n  pop\n  jump\t// out\n    /* \"#utility.yul\":7294:7411   */\ntag_43:\n    /* \"#utility.yul\":7348:7356   */\n  0x00\n    /* \"#utility.yul\":7398:7403   */\n  dup3\n    /* \"#utility.yul\":7392:7396   */\n  dup3\n    /* \"#utility.yul\":7388:7404   */\n  shr\n    /* \"#utility.yul\":7367:7404   */\n  swap1\n  pop\n    /* \"#utility.yul\":7294:7411   */\n  swap3\n  swap2\n  pop\n  pop\n  jump\t// out\n    /* \"#utility.yul\":7417:7586   */\ntag_44:\n    /* \"#utility.yul\":7461:7467   */\n  0x00\n    /* \"#utility.yul\":7494:7545   */\n  tag_139\n    /* \"#utility.yul\":7542:7543   */\n  0x00\n    /* \"#utility.yul\":7538:7544   */\n  not\n    /* \"#utility.yul\":7530:7535   */\n  dup5\n    /* \"#utility.yul\":7527:7528   */\n  0x08\n    /* \"#utility.yul\":7523:7536   */\n  mul\n    /* \"#utility.yul\":7494:7545   */\n  tag_43\n  jump\t// in\ntag_139:\n    /* \"#utility.yul\":7490:7546   */\n  not\n    /* \"#utility.yul\":7575:7579   */\n  dup1\n    /* \"#utility.yul\":7569:7573   */\n  dup4\n    /* \"#utility.yul\":7565:7580   */\n  and\n    /* \"#utility.yul\":7555:7580   */\n  swap2\n  pop\n    /* \"#utility.yul\":7468:7586   */\n  pop\n    /* \"#utility.yul\":7417:7586   */\n  swap3\n  swap2\n  pop\n  pop\n  jump\t// out\n    /* \"#utility.yul\":7591:7886   */\ntag_45:\n    /* \"#utility.yul\":7667:7671   */\n  0x00\n    /* \"#utility.yul\":7813:7842   */\n  tag_141\n    /* \"#utility.yul\":7838:7841   */\n  dup4\n    /* \"#utility.yul\":7832:7836   */\n  dup4\n    /* \"#utility.yul\":7813:7842   */\n  tag_44\n  jump\t// in\ntag_141:\n    /* \"#utility.yul\":7805:7842   */\n  swap2\n  pop\n    /* \"#utility.yul\":7875:7878   */\n  dup3\n    /* \"#utility.yul\":7872:7873   */\n  0x02\n    /* \"#utility.yul\":7868:7879   */\n  mul\n    /* \"#utility.yul\":7862:7866   */\n  dup3\n    /* \"#utility.yul\":7859:7880   */\n  or\n    /* \"#utility.yul\":7851:7880   */\n  swap1\n  pop\n    /* \"#utility.yul\":7591:7886   */\n  swap3\n  swap2\n  pop\n  pop\n  jump\t// out\n    /* \"#utility.yul\":7891:9286   */\ntag_7:\n    /* \"#utility.yul\":8008:8045   */\n  tag_143\n    /* \"#utility.yul\":8041:8044   */\n  dup3\n    /* \"#utility.yul\":8008:8045   */\n  tag_27\n  jump\t// in\ntag_143:\n    /* \"#utility.yul\":8110:8128   */\n  0xffffffffffffffff\n    /* \"#utility.yul\":8102:8108   */\n  dup2\n    /* \"#utility.yul\":8099:8129   */\n  gt\n    /* \"#utility.yul\":8096:8152   */\n  iszero\n  tag_144\n  jumpi\n    /* \"#utility.yul\":8132:8150   */\n  tag_145\n  tag_16\n  jump\t// in\ntag_145:\n    /* \"#utility.yul\":8096:8152   */\ntag_144:\n    /* \"#utility.yul\":8176:8214   */\n  tag_146\n    /* \"#utility.yul\":8208:8212   */\n  dup3\n    /* \"#utility.yul\":8202:8213   */\n  sload\n    /* \"#utility.yul\":8176:8214   */\n  tag_29\n  jump\t// in\ntag_146:\n    /* \"#utility.yul\":8261:8328   */\n  tag_147\n    /* \"#utility.yul\":8321:8327   */\n  dup3\n    /* \"#utility.yul\":8313:8319   */\n  dup3\n    /* \"#utility.yul\":8307:8311   */\n  dup6\n    /* \"#utility.yul\":8261:8328   */\n  tag_42\n  jump\t// in\ntag_147:\n    /* \"#utility.yul\":8355:8356   */\n  0x00\n    /* \"#utility.yul\":8379:8383   */\n  0x20\n    /* \"#utility.yul\":8366:8383   */\n  swap1\n  pop\n    /* \"#utility.yul\":8411:8413   */\n  0x1f\n    /* \"#utility.yul\":8403:8409   */\n  dup4\n    /* \"#utility.yul\":8400:8414   */\n  gt\n    /* \"#utility.yul\":8428:8429   */\n  0x01\n    /* \"#utility.yul\":8423:9041   */\n  dup2\n  eq\n  tag_149\n  jumpi\n    /* \"#utility.yul\":9085:9086   */\n  0x00\n    /* \"#utility.yul\":9102:9108   */\n  dup5\n    /* \"#utility.yul\":9099:9176   */\n  iszero\n  tag_150\n  jumpi\n    /* \"#utility.yul\":9151:9160   */\n  dup3\n    /* \"#utility.yul\":9146:9149   */\n  dup8\n    /* \"#utility.yul\":9142:9161   */\n  add\n    /* \"#utility.yul\":9136:9162   */\n  mload\n    /* \"#utility.yul\":9127:9162   */\n  swap1\n  pop\n    /* \"#utility.yul\":9099:9176   */\ntag_150:\n    /* \"#utility.yul\":9202:9269   */\n  tag_151\n    /* \"#utility.yul\":9262:9268   */\n  dup6\n    /* \"#utility.yul\":9255:9260   */\n  dup3\n    /* \"#utility.yul\":9202:9269   */\n  tag_45\n  jump\t// in\ntag_151:\n    /* \"#utility.yul\":9196:9200   */\n  dup7\n    /* \"#utility.yul\":9189:9270   */\n  sstore\n    /* \"#utility.yul\":9058:9280   */\n  pop\n    /* \"#utility.yul\":8393:9280   */\n  jump(tag_148)\n    /* \"#utility.yul\":8423:9041   */\ntag_149:\n    /* \"#utility.yul\":8475:8479   */\n  0x1f\n    /* \"#utility.yul\":8471:8480   */\n  not\n    /* \"#utility.yul\":8463:8469   */\n  dup5\n    /* \"#utility.yul\":8459:8481   */\n  and\n    /* \"#utility.yul\":8509:8546   */\n  tag_152\n    /* \"#utility.yul\":8541:8545   */\n  dup7\n    /* \"#utility.yul\":8509:8546   */\n  tag_30\n  jump\t// in\ntag_152:\n    /* \"#utility.yul\":8568:8569   */\n  0x00\n    /* \"#utility.yul\":8582:8790   */\ntag_153:\n    /* \"#utility.yul\":8596:8603   */\n  dup3\n    /* \"#utility.yul\":8593:8594   */\n  dup2\n    /* \"#utility.yul\":8590:8604   */\n  lt\n    /* \"#utility.yul\":8582:8790   */\n  iszero\n  tag_155\n  jumpi\n    /* \"#utility.yul\":8675:8684   */\n  dup5\n    /* \"#utility.yul\":8670:8673   */\n  dup10\n    /* \"#utility.yul\":8666:8685   */\n  add\n    /* \"#utility.yul\":8660:8686   */\n  mload\n    /* \"#utility.yul\":8652:8658   */\n  dup3\n    /* \"#utility.yul\":8645:8687   */\n  sstore\n    /* \"#utility.yul\":8726:8727   */\n  0x01\n    /* \"#utility.yul\":8718:8724   */\n  dup3\n    /* \"#utility.yul\":8714:8728   */\n  add\n    /* \"#utility.yul\":8704:8728   */\n  swap2\n  pop\n    /* \"#utility.yul\":8773:8775   */\n  0x20\n    /* \"#utility.yul\":8762:8771   */\n  dup6\n    /* \"#utility.yul\":8758:8776   */\n  add\n    /* \"#utility.yul\":8745:8776   */\n  swap5\n  pop\n    /* \"#utility.yul\":8619:8623   */\n  0x20\n    /* \"#utility.yul\":8616:8617   */\n  dup2\n    /* \"#utility.yul\":8612:8624   */\n  add\n    /* \"#utility.yul\":8607:8624   */\n  swap1\n  pop\n    /* \"#utility.yul\":8582:8790   */\n  jump(tag_153)\ntag_155:\n    /* \"#utility.yul\":8818:8824   */\n  dup7\n    /* \"#utility.yul\":8809:8816   */\n  dup4\n    /* \"#utility.yul\":8806:8825   */\n  lt\n    /* \"#utility.yul\":8803:8982   */\n  iszero\n  tag_156\n  jumpi\n    /* \"#utility.yul\":8876:8885   */\n  dup5\n    /* \"#utility.yul\":8871:8874   */\n  dup10\n    /* \"#utility.yul\":8867:8886   */\n  add\n    /* \"#utility.yul\":8861:8887   */\n  mload\n    /* \"#utility.yul\":8919:8967   */\n  tag_157\n    /* \"#utility.yul\":8961:8965   */\n  0x1f\n    /* \"#utility.yul\":8953:8959   */\n  dup10\n    /* \"#utility.yul\":8949:8966   */\n  and\n    /* \"#utility.yul\":8938:8947   */\n  dup3\n    /* \"#utility.yul\":8919:8967   */\n  tag_44\n  jump\t// in\ntag_157:\n    /* \"#utility.yul\":8911:8917   */\n  dup4\n    /* \"#utility.yul\":8904:8968   */\n  sstore\n    /* \"#utility.yul\":8826:8982   */\n  pop\n    /* \"#utility.yul\":8803:8982   */\ntag_156:\n    /* \"#utility.yul\":9028:9029   */\n  0x01\n    /* \"#utility.yul\":9024:9025   */\n  0x02\n    /* \"#utility.yul\":9016:9022   */\n  dup9\n    /* \"#utility.yul\":9012:9026   */\n  mul\n    /* \"#utility.yul\":9008:9030   */\n  add\n    /* \"#utility.yul\":9002:9006   */\n  dup9\n    /* \"#utility.yul\":8995:9031   */\n  sstore\n    /* \"#utility.yul\":8430:9041   */\n  pop\n  pop\n  pop\n    /* \"#utility.yul\":8393:9280   */\ntag_148:\n  pop\n    /* \"#utility.yul\":7983:9286   */\n  pop\n  pop\n  pop\n    /* \"#utility.yul\":7891:9286   */\n  pop\n  pop\n  jump\t// out\n    /* \"Market.sol\":877:1405  contract Nft {... */\ntag_9:\n  dataSize(sub_0)\n  dup1\n  dataOffset(sub_0)\n  0x00\n  codecopy\n  0x00\n  return\nstop\n\nsub_0: assembly {\n        /* \"Market.sol\":877:1405  contract Nft {... */\n      mstore(0x40, 0x80)\n      callvalue\n      dup1\n      iszero\n      tag_1\n      jumpi\n      0x00\n      dup1\n      revert\n    tag_1:\n      pop\n      jumpi(tag_2, lt(calldatasize, 0x04))\n      shr(0xe0, calldataload(0x00))\n      dup1\n      0x17d7de7c\n      eq\n      tag_3\n      jumpi\n      dup1\n      0x2c695e66\n      eq\n      tag_4\n      jumpi\n      dup1\n      0x893d20e8\n      eq\n      tag_5\n      jumpi\n    tag_2:\n      0x00\n      dup1\n      revert\n        /* \"Market.sol\":1220:1303  function getName() public view  returns (string memory){... */\n    tag_3:\n      tag_6\n      tag_7\n      jump\t// in\n    tag_6:\n      mload(0x40)\n      tag_8\n      swap2\n      swap1\n      tag_9\n      jump\t// in\n    tag_8:\n      mload(0x40)\n      dup1\n      swap2\n      sub\n      swap1\n      return\n        /* \"Market.sol\":1309:1402  function getImageHash() public view  returns (string memory){... */\n    tag_4:\n      tag_10\n      tag_11\n      jump\t// in\n    tag_10:\n      mload(0x40)\n      tag_12\n      swap2\n      swap1\n      tag_9\n      jump\t// in\n    tag_12:\n      mload(0x40)\n      dup1\n      swap2\n      sub\n      swap1\n      return\n        /* \"Market.sol\":1135:1214  function getOwner() public view  returns (address){... */\n    tag_5:\n      tag_13\n      tag_14\n      jump\t// in\n    tag_13:\n      mload(0x40)\n      tag_15\n      swap2\n      swap1\n      tag_16\n      jump\t// in\n    tag_15:\n      mload(0x40)\n      dup1\n      swap2\n      sub\n      swap1\n      return\n        /* \"Market.sol\":1220:1303  function getName() public view  returns (string memory){... */\n    tag_7:\n        /* \"Market.sol\":1261:1274  string memory */\n      0x60\n        /* \"Market.sol\":1292:1296  name */\n      0x00\n        /* \"Market.sol\":1285:1296  return name */\n      dup1\n      sload\n      tag_18\n      swap1\n      tag_19\n      jump\t// in\n    tag_18:\n      dup1\n      0x1f\n      add\n      0x20\n      dup1\n      swap2\n      div\n      mul\n      0x20\n      add\n      mload(0x40)\n      swap1\n      dup2\n      add\n      0x40\n      mstore\n      dup1\n      swap3\n      swap2\n      swap1\n      dup2\n      dup2\n      mstore\n      0x20\n      add\n      dup3\n      dup1\n      sload\n      tag_20\n      swap1\n      tag_19\n      jump\t// in\n    tag_20:\n      dup1\n      iszero\n      tag_21\n      jumpi\n      dup1\n      0x1f\n      lt\n      tag_22\n      jumpi\n      0x0100\n      dup1\n      dup4\n      sload\n      div\n      mul\n      dup4\n      mstore\n      swap2\n      0x20\n      add\n      swap2\n      jump(tag_21)\n    tag_22:\n      dup3\n      add\n      swap2\n      swap1\n      0x00\n      mstore\n      keccak256(0x00, 0x20)\n      swap1\n    tag_23:\n      dup2\n      sload\n      dup2\n      mstore\n      swap1\n      0x01\n      add\n      swap1\n      0x20\n      add\n      dup1\n      dup4\n      gt\n      tag_23\n      jumpi\n      dup3\n      swap1\n      sub\n      0x1f\n      and\n      dup3\n      add\n      swap2\n    tag_21:\n      pop\n      pop\n      pop\n      pop\n      pop\n      swap1\n      pop\n        /* \"Market.sol\":1220:1303  function getName() public view  returns (string memory){... */\n      swap1\n      jump\t// out\n        /* \"Market.sol\":1309:1402  function getImageHash() public view  returns (string memory){... */\n    tag_11:\n        /* \"Market.sol\":1355:1368  string memory */\n      0x60\n        /* \"Market.sol\":1386:1395  imageHash */\n      0x02\n        /* \"Market.sol\":1379:1395  return imageHash */\n      dup1\n      sload\n      tag_25\n      swap1\n      tag_19\n      jump\t// in\n    tag_25:\n      dup1\n      0x1f\n      add\n      0x20\n      dup1\n      swap2\n      div\n      mul\n      0x20\n      add\n      mload(0x40)\n      swap1\n      dup2\n      add\n      0x40\n      mstore\n      dup1\n      swap3\n      swap2\n      swap1\n      dup2\n      dup2\n      mstore\n      0x20\n      add\n      dup3\n      dup1\n      sload\n      tag_26\n      swap1\n      tag_19\n      jump\t// in\n    tag_26:\n      dup1\n      iszero\n      tag_27\n      jumpi\n      dup1\n      0x1f\n      lt\n      tag_28\n      jumpi\n      0x0100\n      dup1\n      dup4\n      sload\n      div\n      mul\n      dup4\n      mstore\n      swap2\n      0x20\n      add\n      swap2\n      jump(tag_27)\n    tag_28:\n      dup3\n      add\n      swap2\n      swap1\n      0x00\n      mstore\n      keccak256(0x00, 0x20)\n      swap1\n    tag_29:\n      dup2\n      sload\n      dup2\n      mstore\n      swap1\n      0x01\n      add\n      swap1\n      0x20\n      add\n      dup1\n      dup4\n      gt\n      tag_29\n      jumpi\n      dup3\n      swap1\n      sub\n      0x1f\n      and\n      dup3\n      add\n      swap2\n    tag_27:\n      pop\n      pop\n      pop\n      pop\n      pop\n      swap1\n      pop\n        /* \"Market.sol\":1309:1402  function getImageHash() public view  returns (string memory){... */\n      swap1\n      jump\t// out\n        /* \"Market.sol\":1135:1214  function getOwner() public view  returns (address){... */\n    tag_14:\n        /* \"Market.sol\":1177:1184  address */\n      0x00\n        /* \"Market.sol\":1202:1207  owner */\n      0x01\n      0x00\n      swap1\n      sload\n      swap1\n      0x0100\n      exp\n      swap1\n      div\n      0xffffffffffffffffffffffffffffffffffffffff\n      and\n        /* \"Market.sol\":1195:1207  return owner */\n      swap1\n      pop\n        /* \"Market.sol\":1135:1214  function getOwner() public view  returns (address){... */\n      swap1\n      jump\t// out\n        /* \"#utility.yul\":7:106   */\n    tag_31:\n        /* \"#utility.yul\":59:65   */\n      0x00\n        /* \"#utility.yul\":93:98   */\n      dup2\n        /* \"#utility.yul\":87:99   */\n      mload\n        /* \"#utility.yul\":77:99   */\n      swap1\n      pop\n        /* \"#utility.yul\":7:106   */\n      swap2\n      swap1\n      pop\n      jump\t// out\n        /* \"#utility.yul\":112:281   */\n    tag_32:\n        /* \"#utility.yul\":196:207   */\n      0x00\n        /* \"#utility.yul\":230:236   */\n      dup3\n        /* \"#utility.yul\":225:228   */\n      dup3\n        /* \"#utility.yul\":218:237   */\n      mstore\n        /* \"#utility.yul\":270:274   */\n      0x20\n        /* \"#utility.yul\":265:268   */\n      dup3\n        /* \"#utility.yul\":261:275   */\n      add\n        /* \"#utility.yul\":246:275   */\n      swap1\n      pop\n        /* \"#utility.yul\":112:281   */\n      swap3\n      swap2\n      pop\n      pop\n      jump\t// out\n        /* \"#utility.yul\":287:594   */\n    tag_33:\n        /* \"#utility.yul\":355:356   */\n      0x00\n        /* \"#utility.yul\":365:478   */\n    tag_44:\n        /* \"#utility.yul\":379:385   */\n      dup4\n        /* \"#utility.yul\":376:377   */\n      dup2\n        /* \"#utility.yul\":373:386   */\n      lt\n        /* \"#utility.yul\":365:478   */\n      iszero\n      tag_46\n      jumpi\n        /* \"#utility.yul\":464:465   */\n      dup1\n        /* \"#utility.yul\":459:462   */\n      dup3\n        /* \"#utility.yul\":455:466   */\n      add\n        /* \"#utility.yul\":449:467   */\n      mload\n        /* \"#utility.yul\":445:446   */\n      dup2\n        /* \"#utility.yul\":440:443   */\n      dup5\n        /* \"#utility.yul\":436:447   */\n      add\n        /* \"#utility.yul\":429:468   */\n      mstore\n        /* \"#utility.yul\":401:403   */\n      0x20\n        /* \"#utility.yul\":398:399   */\n      dup2\n        /* \"#utility.yul\":394:404   */\n      add\n        /* \"#utility.yul\":389:404   */\n      swap1\n      pop\n        /* \"#utility.yul\":365:478   */\n      jump(tag_44)\n    tag_46:\n        /* \"#utility.yul\":496:502   */\n      dup4\n        /* \"#utility.yul\":493:494   */\n      dup2\n        /* \"#utility.yul\":490:503   */\n      gt\n        /* \"#utility.yul\":487:588   */\n      iszero\n      tag_47\n      jumpi\n        /* \"#utility.yul\":576:577   */\n      0x00\n        /* \"#utility.yul\":567:573   */\n      dup5\n        /* \"#utility.yul\":562:565   */\n      dup5\n        /* \"#utility.yul\":558:574   */\n      add\n        /* \"#utility.yul\":551:578   */\n      mstore\n        /* \"#utility.yul\":487:588   */\n    tag_47:\n        /* \"#utility.yul\":336:594   */\n      pop\n        /* \"#utility.yul\":287:594   */\n      pop\n      pop\n      pop\n      jump\t// out\n        /* \"#utility.yul\":600:702   */\n    tag_34:\n        /* \"#utility.yul\":641:647   */\n      0x00\n        /* \"#utility.yul\":692:694   */\n      0x1f\n        /* \"#utility.yul\":688:695   */\n      not\n        /* \"#utility.yul\":683:685   */\n      0x1f\n        /* \"#utility.yul\":676:681   */\n      dup4\n        /* \"#utility.yul\":672:686   */\n      add\n        /* \"#utility.yul\":668:696   */\n      and\n        /* \"#utility.yul\":658:696   */\n      swap1\n      pop\n        /* \"#utility.yul\":600:702   */\n      swap2\n      swap1\n      pop\n      jump\t// out\n        /* \"#utility.yul\":708:1072   */\n    tag_35:\n        /* \"#utility.yul\":796:799   */\n      0x00\n        /* \"#utility.yul\":824:863   */\n      tag_50\n        /* \"#utility.yul\":857:862   */\n      dup3\n        /* \"#utility.yul\":824:863   */\n      tag_31\n      jump\t// in\n    tag_50:\n        /* \"#utility.yul\":879:950   */\n      tag_51\n        /* \"#utility.yul\":943:949   */\n      dup2\n        /* \"#utility.yul\":938:941   */\n      dup6\n        /* \"#utility.yul\":879:950   */\n      tag_32\n      jump\t// in\n    tag_51:\n        /* \"#utility.yul\":872:950   */\n      swap4\n      pop\n        /* \"#utility.yul\":959:1011   */\n      tag_52\n        /* \"#utility.yul\":1004:1010   */\n      dup2\n        /* \"#utility.yul\":999:1002   */\n      dup6\n        /* \"#utility.yul\":992:996   */\n      0x20\n        /* \"#utility.yul\":985:990   */\n      dup7\n        /* \"#utility.yul\":981:997   */\n      add\n        /* \"#utility.yul\":959:1011   */\n      tag_33\n      jump\t// in\n    tag_52:\n        /* \"#utility.yul\":1036:1065   */\n      tag_53\n        /* \"#utility.yul\":1058:1064   */\n      dup2\n        /* \"#utility.yul\":1036:1065   */\n      tag_34\n      jump\t// in\n    tag_53:\n        /* \"#utility.yul\":1031:1034   */\n      dup5\n        /* \"#utility.yul\":1027:1066   */\n      add\n        /* \"#utility.yul\":1020:1066   */\n      swap2\n      pop\n        /* \"#utility.yul\":800:1072   */\n      pop\n        /* \"#utility.yul\":708:1072   */\n      swap3\n      swap2\n      pop\n      pop\n      jump\t// out\n        /* \"#utility.yul\":1078:1391   */\n    tag_9:\n        /* \"#utility.yul\":1191:1195   */\n      0x00\n        /* \"#utility.yul\":1229:1231   */\n      0x20\n        /* \"#utility.yul\":1218:1227   */\n      dup3\n        /* \"#utility.yul\":1214:1232   */\n      add\n        /* \"#utility.yul\":1206:1232   */\n      swap1\n      pop\n        /* \"#utility.yul\":1278:1287   */\n      dup2\n        /* \"#utility.yul\":1272:1276   */\n      dup2\n        /* \"#utility.yul\":1268:1288   */\n      sub\n        /* \"#utility.yul\":1264:1265   */\n      0x00\n        /* \"#utility.yul\":1253:1262   */\n      dup4\n        /* \"#utility.yul\":1249:1266   */\n      add\n        /* \"#utility.yul\":1242:1289   */\n      mstore\n        /* \"#utility.yul\":1306:1384   */\n      tag_55\n        /* \"#utility.yul\":1379:1383   */\n      dup2\n        /* \"#utility.yul\":1370:1376   */\n      dup5\n        /* \"#utility.yul\":1306:1384   */\n      tag_35\n      jump\t// in\n    tag_55:\n        /* \"#utility.yul\":1298:1384   */\n      swap1\n      pop\n        /* \"#utility.yul\":1078:1391   */\n      swap3\n      swap2\n      pop\n      pop\n      jump\t// out\n        /* \"#utility.yul\":1397:1523   */\n    tag_36:\n        /* \"#utility.yul\":1434:1441   */\n      0x00\n        /* \"#utility.yul\":1474:1516   */\n      0xffffffffffffffffffffffffffffffffffffffff\n        /* \"#utility.yul\":1467:1472   */\n      dup3\n        /* \"#utility.yul\":1463:1517   */\n      and\n        /* \"#utility.yul\":1452:1517   */\n      swap1\n      pop\n        /* \"#utility.yul\":1397:1523   */\n      swap2\n      swap1\n      pop\n      jump\t// out\n        /* \"#utility.yul\":1529:1625   */\n    tag_37:\n        /* \"#utility.yul\":1566:1573   */\n      0x00\n        /* \"#utility.yul\":1595:1619   */\n      tag_58\n        /* \"#utility.yul\":1613:1618   */\n      dup3\n        /* \"#utility.yul\":1595:1619   */\n      tag_36\n      jump\t// in\n    tag_58:\n        /* \"#utility.yul\":1584:1619   */\n      swap1\n      pop\n        /* \"#utility.yul\":1529:1625   */\n      swap2\n      swap1\n      pop\n      jump\t// out\n        /* \"#utility.yul\":1631:1749   */\n    tag_38:\n        /* \"#utility.yul\":1718:1742   */\n      tag_60\n        /* \"#utility.yul\":1736:1741   */\n      dup2\n        /* \"#utility.yul\":1718:1742   */\n      tag_37\n      jump\t// in\n    tag_60:\n        /* \"#utility.yul\":1713:1716   */\n      dup3\n        /* \"#utility.yul\":1706:1743   */\n      mstore\n        /* \"#utility.yul\":1631:1749   */\n      pop\n      pop\n      jump\t// out\n        /* \"#utility.yul\":1755:1977   */\n    tag_16:\n        /* \"#utility.yul\":1848:1852   */\n      0x00\n        /* \"#utility.yul\":1886:1888   */\n      0x20\n        /* \"#utility.yul\":1875:1884   */\n      dup3\n        /* \"#utility.yul\":1871:1889   */\n      add\n        /* \"#utility.yul\":1863:1889   */\n      swap1\n      pop\n        /* \"#utility.yul\":1899:1970   */\n      tag_62\n        /* \"#utility.yul\":1967:1968   */\n      0x00\n        /* \"#utility.yul\":1956:1965   */\n      dup4\n        /* \"#utility.yul\":1952:1969   */\n      add\n        /* \"#utility.yul\":1943:1949   */\n      dup5\n        /* \"#utility.yul\":1899:1970   */\n      tag_38\n      jump\t// in\n    tag_62:\n        /* \"#utility.yul\":1755:1977   */\n      swap3\n      swap2\n      pop\n      pop\n      jump\t// out\n        /* \"#utility.yul\":1983:2163   */\n    tag_39:\n        /* \"#utility.yul\":2031:2108   */\n      0x4e487b7100000000000000000000000000000000000000000000000000000000\n        /* \"#utility.yul\":2028:2029   */\n      0x00\n        /* \"#utility.yul\":2021:2109   */\n      mstore\n        /* \"#utility.yul\":2128:2132   */\n      0x22\n        /* \"#utility.yul\":2125:2126   */\n      0x04\n        /* \"#utility.yul\":2118:2133   */\n      mstore\n        /* \"#utility.yul\":2152:2156   */\n      0x24\n        /* \"#utility.yul\":2149:2150   */\n      0x00\n        /* \"#utility.yul\":2142:2157   */\n      revert\n        /* \"#utility.yul\":2169:2489   */\n    tag_19:\n        /* \"#utility.yul\":2213:2219   */\n      0x00\n        /* \"#utility.yul\":2250:2251   */\n      0x02\n        /* \"#utility.yul\":2244:2248   */\n      dup3\n        /* \"#utility.yul\":2240:2252   */\n      div\n        /* \"#utility.yul\":2230:2252   */\n      swap1\n      pop\n        /* \"#utility.yul\":2297:2298   */\n      0x01\n        /* \"#utility.yul\":2291:2295   */\n      dup3\n        /* \"#utility.yul\":2287:2299   */\n      and\n        /* \"#utility.yul\":2318:2336   */\n      dup1\n        /* \"#utility.yul\":2308:2389   */\n      tag_65\n      jumpi\n        /* \"#utility.yul\":2374:2378   */\n      0x7f\n        /* \"#utility.yul\":2366:2372   */\n      dup3\n        /* \"#utility.yul\":2362:2379   */\n      and\n        /* \"#utility.yul\":2352:2379   */\n      swap2\n      pop\n        /* \"#utility.yul\":2308:2389   */\n    tag_65:\n        /* \"#utility.yul\":2436:2438   */\n      0x20\n        /* \"#utility.yul\":2428:2434   */\n      dup3\n        /* \"#utility.yul\":2425:2439   */\n      lt\n        /* \"#utility.yul\":2405:2423   */\n      dup2\n        /* \"#utility.yul\":2402:2440   */\n      sub\n        /* \"#utility.yul\":2399:2483   */\n      tag_66\n      jumpi\n        /* \"#utility.yul\":2455:2473   */\n      tag_67\n      tag_39\n      jump\t// in\n    tag_67:\n        /* \"#utility.yul\":2399:2483   */\n    tag_66:\n        /* \"#utility.yul\":2220:2489   */\n      pop\n        /* \"#utility.yul\":2169:2489   */\n      swap2\n      swap1\n      pop\n      jump\t// out\n\n    auxdata: 0xa26469706673582212201e18cbc00d6fe723f8f9ee146e5e4e8b61dd305434bb23102fc1b2ae1525892164736f6c634300080f0033\n}\n","bytecode":{"linkReferences":{},"object":"60806040523480156200001157600080fd5b5060405162000a1e38038062000a1e8339818101604052810190620000379190620002a7565b82600090816200004891906200058c565b5081600160006101000a81548173ffffffffffffffffffffffffffffffffffffffff021916908373ffffffffffffffffffffffffffffffffffffffff16021790555080600290816200009b91906200058c565b5050505062000673565b6000604051905090565b600080fd5b600080fd5b600080fd5b600080fd5b6000601f19601f8301169050919050565b7f4e487b7100000000000000000000000000000000000000000000000000000000600052604160045260246000fd5b6200010e82620000c3565b810181811067ffffffffffffffff8211171562000130576200012f620000d4565b5b80604052505050565b600062000145620000a5565b905062000153828262000103565b919050565b600067ffffffffffffffff821115620001765762000175620000d4565b5b6200018182620000c3565b9050602081019050919050565b60005b83811015620001ae57808201518184015260208101905062000191565b83811115620001be576000848401525b50505050565b6000620001db620001d58462000158565b62000139565b905082815260208101848484011115620001fa57620001f9620000be565b5b620002078482856200018e565b509392505050565b600082601f830112620002275762000226620000b9565b5b815162000239848260208601620001c4565b91505092915050565b600073ffffffffffffffffffffffffffffffffffffffff82169050919050565b60006200026f8262000242565b9050919050565b620002818162000262565b81146200028d57600080fd5b50565b600081519050620002a18162000276565b92915050565b600080600060608486031215620002c357620002c2620000af565b5b600084015167ffffffffffffffff811115620002e457620002e3620000b4565b5b620002f2868287016200020f565b9350506020620003058682870162000290565b925050604084015167ffffffffffffffff811115620003295762000328620000b4565b5b62000337868287016200020f565b9150509250925092565b600081519050919050565b7f4e487b7100000000000000000000000000000000000000000000000000000000600052602260045260246000fd5b600060028204905060018216806200039457607f821691505b602082108103620003aa57620003a96200034c565b5b50919050565b60008190508160005260206000209050919050565b60006020601f8301049050919050565b600082821b905092915050565b600060088302620004147fffffffffffffffffffffffffffffffffffffffffffffffffffffffffffffffff82620003d5565b620004208683620003d5565b95508019841693508086168417925050509392505050565b6000819050919050565b6000819050919050565b60006200046d62000467620004618462000438565b62000442565b62000438565b9050919050565b6000819050919050565b62000489836200044c565b620004a1620004988262000474565b848454620003e2565b825550505050565b600090565b620004b8620004a9565b620004c58184846200047e565b505050565b5b81811015620004ed57620004e1600082620004ae565b600181019050620004cb565b5050565b601f8211156200053c576200050681620003b0565b6200051184620003c5565b8101602085101562000521578190505b620005396200053085620003c5565b830182620004ca565b50505b505050565b600082821c905092915050565b6000620005616000198460080262000541565b1980831691505092915050565b60006200057c83836200054e565b9150826002028217905092915050565b620005978262000341565b67ffffffffffffffff811115620005b357620005b2620000d4565b5b620005bf82546200037b565b620005cc828285620004f1565b600060209050601f831160018114620006045760008415620005ef578287015190505b620005fb85826200056e565b8655506200066b565b601f1984166200061486620003b0565b60005b828110156200063e5784890151825560018201915060208501945060208101905062000617565b868310156200065e57848901516200065a601f8916826200054e565b8355505b6001600288020188555050505b505050505050565b61039b80620006836000396000f3fe608060405234801561001057600080fd5b50600436106100415760003560e01c806317d7de7c146100465780632c695e6614610064578063893d20e814610082575b600080fd5b61004e6100a0565b60405161005b9190610287565b60405180910390f35b61006c610132565b6040516100799190610287565b60405180910390f35b61008a6101c4565b60405161009791906102ea565b60405180910390f35b6060600080546100af90610334565b80601f01602080910402602001604051908101604052809291908181526020018280546100db90610334565b80156101285780601f106100fd57610100808354040283529160200191610128565b820191906000526020600020905b81548152906001019060200180831161010b57829003601f168201915b5050505050905090565b60606002805461014190610334565b80601f016020809104026020016040519081016040528092919081815260200182805461016d90610334565b80156101ba5780601f1061018f576101008083540402835291602001916101ba565b820191906000526020600020905b81548152906001019060200180831161019d57829003601f168201915b5050505050905090565b6000600160009054906101000a900473ffffffffffffffffffffffffffffffffffffffff16905090565b600081519050919050565b600082825260208201905092915050565b60005b8381101561022857808201518184015260208101905061020d565b83811115610237576000848401525b50505050565b6000601f19601f8301169050919050565b6000610259826101ee565b61026381856101f9565b935061027381856020860161020a565b61027c8161023d565b840191505092915050565b600060208201905081810360008301526102a1818461024e565b905092915050565b600073ffffffffffffffffffffffffffffffffffffffff82169050919050565b60006102d4826102a9565b9050919050565b6102e4816102c9565b82525050565b60006020820190506102ff60008301846102db565b92915050565b7f4e487b7100000000000000000000000000000000000000000000000000000000600052602260045260246000fd5b6000600282049050600182168061034c57607f821691505b60208210810361035f5761035e610305565b5b5091905056fea26469706673582212201e18cbc00d6fe723f8f9ee146e5e4e8b61dd305434bb23102fc1b2ae1525892164736f6c634300080f0033","opcodes":"PUSH1 0x80 PUSH1 0x40 MSTORE CALLVALUE DUP1 ISZERO PUSH3 0x11 JUMPI PUSH1 0x0 DUP1 REVERT JUMPDEST POP PUSH1 0x40 MLOAD PUSH3 0xA1E CODESIZE SUB DUP1 PUSH3 0xA1E DUP4 CODECOPY DUP2 DUP2 ADD PUSH1 0x40 MSTORE DUP2 ADD SWAP1 PUSH3 0x37 SWAP2 SWAP1 PUSH3 0x2A7 JUMP JUMPDEST DUP3 PUSH1 0x0 SWAP1 DUP2 PUSH3 0x48 SWAP2 SWAP1 PUSH3 0x58C JUMP JUMPDEST POP DUP2 PUSH1 0x1 PUSH1 0x0 PUSH2 0x100 EXP DUP2 SLOAD DUP2 PUSH20 0xFFFFFFFFFFFFFFFFFFFFFFFFFFFFFFFFFFFFFFFF MUL NOT AND SWAP1 DUP4 PUSH20 0xFFFFFFFFFFFFFFFFFFFFFFFFFFFFFFFFFFFFFFFF AND MUL OR SWAP1 SSTORE POP DUP1 PUSH1 0x2 SWAP1 DUP2 PUSH3 0x9B SWAP2 SWAP1 PUSH3 0x58C JUMP JUMPDEST POP POP POP POP PUSH3 0x673 JUMP JUMPDEST PUSH1 0x0 PUSH1 0x40 MLOAD SWAP1 POP SWAP1 JUMP JUMPDEST PUSH1 0x0 DUP1 REVERT JUMPDEST PUSH1 0x0 DUP1 REVERT JUMPDEST PUSH1 0x0 DUP1 REVERT JUMPDEST PUSH1 0x0 DUP1 REVERT JUMPDEST PUSH1 0x0 PUSH1 0x1F NOT PUSH1 0x1F DUP4 ADD AND SWAP1 POP SWAP2 SWAP1 POP JUMP JUMPDEST PUSH32 0x4E487B7100000000000000000000000000000000000000000000000000000000 PUSH1 0x0 MSTORE PUSH1 0x41 PUSH1 0x4 MSTORE PUSH1 0x24 PUSH1 0x0 REVERT JUMPDEST PUSH3 0x10E DUP3 PUSH3 0xC3 JUMP JUMPDEST DUP2 ADD DUP2 DUP2 LT PUSH8 0xFFFFFFFFFFFFFFFF DUP3 GT OR ISZERO PUSH3 0x130 JUMPI PUSH3 0x12F PUSH3 0xD4 JUMP JUMPDEST JUMPDEST DUP1 PUSH1 0x40 MSTORE POP POP POP JUMP JUMPDEST PUSH1 0x0 PUSH3 0x145 PUSH3 0xA5 JUMP JUMPDEST SWAP1 POP PUSH3 0x153 DUP3 DUP3 PUSH3 0x103 JUMP JUMPDEST SWAP2 SWAP1 POP JUMP JUMPDEST PUSH1 0x0 PUSH8 0xFFFFFFFFFFFFFFFF DUP3 GT ISZERO PUSH3 0x176 JUMPI PUSH3 0x175 PUSH3 0xD4 JUMP JUMPDEST JUMPDEST PUSH3 0x181 DUP3 PUSH3 0xC3 JUMP JUMPDEST SWAP1 POP PUSH1 0x20 DUP2 ADD SWAP1 POP SWAP2 SWAP1 POP JUMP JUMPDEST PUSH1 0x0 JUMPDEST DUP4 DUP2 LT ISZERO PUSH3 0x1AE JUMPI DUP1 DUP3 ADD MLOAD DUP2 DUP5 ADD MSTORE PUSH1 0x20 DUP2 ADD SWAP1 POP PUSH3 0x191 JUMP JUMPDEST DUP4 DUP2 GT ISZERO PUSH3 0x1BE JUMPI PUSH1 0x0 DUP5 DUP5 ADD MSTORE JUMPDEST POP POP POP POP JUMP JUMPDEST PUSH1 0x0 PUSH3 0x1DB PUSH3 0x1D5 DUP5 PUSH3 0x158 JUMP JUMPDEST PUSH3 0x139 JUMP JUMPDEST SWAP1 POP DUP3 DUP2 MSTORE PUSH1 0x20 DUP2 ADD DUP5 DUP5 DUP5 ADD GT ISZERO PUSH3 0x1FA JUMPI PUSH3 0x1F9 PUSH3 0xBE JUMP JUMPDEST JUMPDEST PUSH3 0x207 DUP5 DUP3 DUP6 PUSH3 0x18E JUMP JUMPDEST POP SWAP4 SWAP3 POP POP POP JUMP JUMPDEST PUSH1 0x0 DUP3 PUSH1 0x1F DUP4 ADD SLT PUSH3 0x227 JUMPI PUSH3 0x226 PUSH3 0xB9 JUMP JUMPDEST JUMPDEST DUP2 MLOAD PUSH3 0x239 DUP5 DUP3 PUSH1 0x20 DUP7 ADD PUSH3 0x1C4 JUMP JUMPDEST SWAP2 POP POP SWAP3 SWAP2 POP POP JUMP JUMPDEST PUSH1 0x0 PUSH20 0xFFFFFFFFFFFFFFFFFFFFFFFFFFFFFFFFFFFFFFFF DUP3 AND SWAP1 POP SWAP2 SWAP1 POP JUMP JUMPDEST PUSH1 0x0 PUSH3 0x26F DUP3 PUSH3 0x242 JUMP JUMPDEST SWAP1 POP SWAP2 SWAP1 POP JUMP JUMPDEST PUSH3 0x281 DUP2 PUSH3 0x262 JUMP JUMPDEST DUP2 EQ PUSH3 0x28D JUMPI PUSH1 0x0 DUP1 REVERT JUMPDEST POP JUMP JUMPDEST PUSH1 0x0 DUP2 MLOAD SWAP1 POP PUSH3 0x2A1 DUP2 PUSH3 0x276 JUMP JUMPDEST SWAP3 SWAP2 POP POP JUMP JUMPDEST PUSH1 0x0 DUP1 PUSH1 0x0 PUSH1 0x60 DUP5 DUP7 SUB SLT ISZERO PUSH3 0x2C3 JUMPI PUSH3 0x2C2 PUSH3 0xAF JUMP JUMPDEST JUMPDEST PUSH1 0x0 DUP5 ADD MLOAD PUSH8 0xFFFFFFFFFFFFFFFF DUP2 GT ISZERO PUSH3 0x2E4 JUMPI PUSH3 0x2E3 PUSH3 0xB4 JUMP JUMPDEST JUMPDEST PUSH3 0x2F2 DUP7 DUP3 DUP8 ADD PUSH3 0x20F JUMP JUMPDEST SWAP4 POP POP PUSH1 0x20 PUSH3 0x305 DUP7 DUP3 DUP8 ADD PUSH3 0x290 JUMP JUMPDEST SWAP3 POP POP PUSH1 0x40 DUP5 ADD MLOAD PUSH8 0xFFFFFFFFFFFFFFFF DUP2 GT ISZERO PUSH3 0x329 JUMPI PUSH3 0x328 PUSH3 0xB4 JUMP JUMPDEST JUMPDEST PUSH3 0x337 DUP7 DUP3 DUP8 ADD PUSH3 0x20F JUMP JUMPDEST SWAP2 POP POP SWAP3 POP SWAP3 POP SWAP3 JUMP JUMPDEST PUSH1 0x0 DUP2 MLOAD SWAP1 POP SWAP2 SWAP1 POP JUMP JUMPDEST PUSH32 0x4E487B7100000000000000000000000000000000000000000000000000000000 PUSH1 0x0 MSTORE PUSH1 0x22 PUSH1 0x4 MSTORE PUSH1 0x24 PUSH1 0x0 REVERT JUMPDEST PUSH1 0x0 PUSH1 0x2 DUP3 DIV SWAP1 POP PUSH1 0x1 DUP3 AND DUP1 PUSH3 0x394 JUMPI PUSH1 0x7F DUP3 AND SWAP2 POP JUMPDEST PUSH1 0x20 DUP3 LT DUP2 SUB PUSH3 0x3AA JUMPI PUSH3 0x3A9 PUSH3 0x34C JUMP JUMPDEST JUMPDEST POP SWAP2 SWAP1 POP JUMP JUMPDEST PUSH1 0x0 DUP2 SWAP1 POP DUP2 PUSH1 0x0 MSTORE PUSH1 0x20 PUSH1 0x0 KECCAK256 SWAP1 POP SWAP2 SWAP1 POP JUMP JUMPDEST PUSH1 0x0 PUSH1 0x20 PUSH1 0x1F DUP4 ADD DIV SWAP1 POP SWAP2 SWAP1 POP JUMP JUMPDEST PUSH1 0x0 DUP3 DUP3 SHL SWAP1 POP SWAP3 SWAP2 POP POP JUMP JUMPDEST PUSH1 0x0 PUSH1 0x8 DUP4 MUL PUSH3 0x414 PUSH32 0xFFFFFFFFFFFFFFFFFFFFFFFFFFFFFFFFFFFFFFFFFFFFFFFFFFFFFFFFFFFFFFFF DUP3 PUSH3 0x3D5 JUMP JUMPDEST PUSH3 0x420 DUP7 DUP4 PUSH3 0x3D5 JUMP JUMPDEST SWAP6 POP DUP1 NOT DUP5 AND SWAP4 POP DUP1 DUP7 AND DUP5 OR SWAP3 POP POP POP SWAP4 SWAP3 POP POP POP JUMP JUMPDEST PUSH1 0x0 DUP2 SWAP1 POP SWAP2 SWAP1 POP JUMP JUMPDEST PUSH1 0x0 DUP2 SWAP1 POP SWAP2 SWAP1 POP JUMP JUMPDEST PUSH1 0x0 PUSH3 0x46D PUSH3 0x467 PUSH3 0x461 DUP5 PUSH3 0x438 JUMP JUMPDEST PUSH3 0x442 JUMP JUMPDEST PUSH3 0x438 JUMP JUMPDEST SWAP1 POP SWAP2 SWAP1 POP JUMP JUMPDEST PUSH1 0x0 DUP2 SWAP1 POP SWAP2 SWAP1 POP JUMP JUMPDEST PUSH3 0x489 DUP4 PUSH3 0x44C JUMP JUMPDEST PUSH3 0x4A1 PUSH3 0x498 DUP3 PUSH3 0x474 JUMP JUMPDEST DUP5 DUP5 SLOAD PUSH3 0x3E2 JUMP JUMPDEST DUP3 SSTORE POP POP POP POP JUMP JUMPDEST PUSH1 0x0 SWAP1 JUMP JUMPDEST PUSH3 0x4B8 PUSH3 0x4A9 JUMP JUMPDEST PUSH3 0x4C5 DUP2 DUP5 DUP5 PUSH3 0x47E JUMP JUMPDEST POP POP POP JUMP JUMPDEST JUMPDEST DUP2 DUP2 LT ISZERO PUSH3 0x4ED JUMPI PUSH3 0x4E1 PUSH1 0x0 DUP3 PUSH3 0x4AE JUMP JUMPDEST PUSH1 0x1 DUP2 ADD SWAP1 POP PUSH3 0x4CB JUMP JUMPDEST POP POP JUMP JUMPDEST PUSH1 0x1F DUP3 GT ISZERO PUSH3 0x53C JUMPI PUSH3 0x506 DUP2 PUSH3 0x3B0 JUMP JUMPDEST PUSH3 0x511 DUP5 PUSH3 0x3C5 JUMP JUMPDEST DUP2 ADD PUSH1 0x20 DUP6 LT ISZERO PUSH3 0x521 JUMPI DUP2 SWAP1 POP JUMPDEST PUSH3 0x539 PUSH3 0x530 DUP6 PUSH3 0x3C5 JUMP JUMPDEST DUP4 ADD DUP3 PUSH3 0x4CA JUMP JUMPDEST POP POP JUMPDEST POP POP POP JUMP JUMPDEST PUSH1 0x0 DUP3 DUP3 SHR SWAP1 POP SWAP3 SWAP2 POP POP JUMP JUMPDEST PUSH1 0x0 PUSH3 0x561 PUSH1 0x0 NOT DUP5 PUSH1 0x8 MUL PUSH3 0x541 JUMP JUMPDEST NOT DUP1 DUP4 AND SWAP2 POP POP SWAP3 SWAP2 POP POP JUMP JUMPDEST PUSH1 0x0 PUSH3 0x57C DUP4 DUP4 PUSH3 0x54E JUMP JUMPDEST SWAP2 POP DUP3 PUSH1 0x2 MUL DUP3 OR SWAP1 POP SWAP3 SWAP2 POP POP JUMP JUMPDEST PUSH3 0x597 DUP3 PUSH3 0x341 JUMP JUMPDEST PUSH8 0xFFFFFFFFFFFFFFFF DUP2 GT ISZERO PUSH3 0x5B3 JUMPI PUSH3 0x5B2 PUSH3 0xD4 JUMP JUMPDEST JUMPDEST PUSH3 0x5BF DUP3 SLOAD PUSH3 0x37B JUMP JUMPDEST PUSH3 0x5CC DUP3 DUP3 DUP6 PUSH3 0x4F1 JUMP JUMPDEST PUSH1 0x0 PUSH1 0x20 SWAP1 POP PUSH1 0x1F DUP4 GT PUSH1 0x1 DUP2 EQ PUSH3 0x604 JUMPI PUSH1 0x0 DUP5 ISZERO PUSH3 0x5EF JUMPI DUP3 DUP8 ADD MLOAD SWAP1 POP JUMPDEST PUSH3 0x5FB DUP6 DUP3 PUSH3 0x56E JUMP JUMPDEST DUP7 SSTORE POP PUSH3 0x66B JUMP JUMPDEST PUSH1 0x1F NOT DUP5 AND PUSH3 0x614 DUP7 PUSH3 0x3B0 JUMP JUMPDEST PUSH1 0x0 JUMPDEST DUP3 DUP2 LT ISZERO PUSH3 0x63E JUMPI DUP5 DUP10 ADD MLOAD DUP3 SSTORE PUSH1 0x1 DUP3 ADD SWAP2 POP PUSH1 0x20 DUP6 ADD SWAP5 POP PUSH1 0x20 DUP2 ADD SWAP1 POP PUSH3 0x617 JUMP JUMPDEST DUP7 DUP4 LT ISZERO PUSH3 0x65E JUMPI DUP5 DUP10 ADD MLOAD PUSH3 0x65A PUSH1 0x1F DUP10 AND DUP3 PUSH3 0x54E JUMP JUMPDEST DUP4 SSTORE POP JUMPDEST PUSH1 0x1 PUSH1 0x2 DUP9 MUL ADD DUP9 SSTORE POP POP POP JUMPDEST POP POP POP POP POP POP JUMP JUMPDEST PUSH2 0x39B DUP1 PUSH3 0x683 PUSH1 0x0 CODECOPY PUSH1 0x0 RETURN INVALID PUSH1 0x80 PUSH1 0x40 MSTORE CALLVALUE DUP1 ISZERO PUSH2 0x10 JUMPI PUSH1 0x0 DUP1 REVERT JUMPDEST POP PUSH1 0x4 CALLDATASIZE LT PUSH2 0x41 JUMPI PUSH1 0x0 CALLDATALOAD PUSH1 0xE0 SHR DUP1 PUSH4 0x17D7DE7C EQ PUSH2 0x46 JUMPI DUP1 PUSH4 0x2C695E66 EQ PUSH2 0x64 JUMPI DUP1 PUSH4 0x893D20E8 EQ PUSH2 0x82 JUMPI JUMPDEST PUSH1 0x0 DUP1 REVERT JUMPDEST PUSH2 0x4E PUSH2 0xA0 JUMP JUMPDEST PUSH1 0x40 MLOAD PUSH2 0x5B SWAP2 SWAP1 PUSH2 0x287 JUMP JUMPDEST PUSH1 0x40 MLOAD DUP1 SWAP2 SUB SWAP1 RETURN JUMPDEST PUSH2 0x6C PUSH2 0x132 JUMP JUMPDEST PUSH1 0x40 MLOAD PUSH2 0x79 SWAP2 SWAP1 PUSH2 0x287 JUMP JUMPDEST PUSH1 0x40 MLOAD DUP1 SWAP2 SUB SWAP1 RETURN JUMPDEST PUSH2 0x8A PUSH2 0x1C4 JUMP JUMPDEST PUSH1 0x40 MLOAD PUSH2 0x97 SWAP2 SWAP1 PUSH2 0x2EA JUMP JUMPDEST PUSH1 0x40 MLOAD DUP1 SWAP2 SUB SWAP1 RETURN JUMPDEST PUSH1 0x60 PUSH1 0x0 DUP1 SLOAD PUSH2 0xAF SWAP1 PUSH2 0x334 JUMP JUMPDEST DUP1 PUSH1 0x1F ADD PUSH1 0x20 DUP1 SWAP2 DIV MUL PUSH1 0x20 ADD PUSH1 0x40 MLOAD SWAP1 DUP2 ADD PUSH1 0x40 MSTORE DUP1 SWAP3 SWAP2 SWAP1 DUP2 DUP2 MSTORE PUSH1 0x20 ADD DUP3 DUP1 SLOAD PUSH2 0xDB SWAP1 PUSH2 0x334 JUMP JUMPDEST DUP1 ISZERO PUSH2 0x128 JUMPI DUP1 PUSH1 0x1F LT PUSH2 0xFD JUMPI PUSH2 0x100 DUP1 DUP4 SLOAD DIV MUL DUP4 MSTORE SWAP2 PUSH1 0x20 ADD SWAP2 PUSH2 0x128 JUMP JUMPDEST DUP3 ADD SWAP2 SWAP1 PUSH1 0x0 MSTORE PUSH1 0x20 PUSH1 0x0 KECCAK256 SWAP1 JUMPDEST DUP2 SLOAD DUP2 MSTORE SWAP1 PUSH1 0x1 ADD SWAP1 PUSH1 0x20 ADD DUP1 DUP4 GT PUSH2 0x10B JUMPI DUP3 SWAP1 SUB PUSH1 0x1F AND DUP3 ADD SWAP2 JUMPDEST POP POP POP POP POP SWAP1 POP SWAP1 JUMP JUMPDEST PUSH1 0x60 PUSH1 0x2 DUP1 SLOAD PUSH2 0x141 SWAP1 PUSH2 0x334 JUMP JUMPDEST DUP1 PUSH1 0x1F ADD PUSH1 0x20 DUP1 SWAP2 DIV MUL PUSH1 0x20 ADD PUSH1 0x40 MLOAD SWAP1 DUP2 ADD PUSH1 0x40 MSTORE DUP1 SWAP3 SWAP2 SWAP1 DUP2 DUP2 MSTORE PUSH1 0x20 ADD DUP3 DUP1 SLOAD PUSH2 0x16D SWAP1 PUSH2 0x334 JUMP JUMPDEST DUP1 ISZERO PUSH2 0x1BA JUMPI DUP1 PUSH1 0x1F LT PUSH2 0x18F JUMPI PUSH2 0x100 DUP1 DUP4 SLOAD DIV MUL DUP4 MSTORE SWAP2 PUSH1 0x20 ADD SWAP2 PUSH2 0x1BA JUMP JUMPDEST DUP3 ADD SWAP2 SWAP1 PUSH1 0x0 MSTORE PUSH1 0x20 PUSH1 0x0 KECCAK256 SWAP1 JUMPDEST DUP2 SLOAD DUP2 MSTORE SWAP1 PUSH1 0x1 ADD SWAP1 PUSH1 0x20 ADD DUP1 DUP4 GT PUSH2 0x19D JUMPI DUP3 SWAP1 SUB PUSH1 0x1F AND DUP3 ADD SWAP2 JUMPDEST POP POP POP POP POP SWAP1 POP SWAP1 JUMP JUMPDEST PUSH1 0x0 PUSH1 0x1 PUSH1 0x0 SWAP1 SLOAD SWAP1 PUSH2 0x100 EXP SWAP1 DIV PUSH20 0xFFFFFFFFFFFFFFFFFFFFFFFFFFFFFFFFFFFFFFFF AND SWAP1 POP SWAP1 JUMP JUMPDEST PUSH1 0x0 DUP2 MLOAD SWAP1 POP SWAP2 SWAP1 POP JUMP JUMPDEST PUSH1 0x0 DUP3 DUP3 MSTORE PUSH1 0x20 DUP3 ADD SWAP1 POP SWAP3 SWAP2 POP POP JUMP JUMPDEST PUSH1 0x0 JUMPDEST DUP4 DUP2 LT ISZERO PUSH2 0x228 JUMPI DUP1 DUP3 ADD MLOAD DUP2 DUP5 ADD MSTORE PUSH1 0x20 DUP2 ADD SWAP1 POP PUSH2 0x20D JUMP JUMPDEST DUP4 DUP2 GT ISZERO PUSH2 0x237 JUMPI PUSH1 0x0 DUP5 DUP5 ADD MSTORE JUMPDEST POP POP POP POP JUMP JUMPDEST PUSH1 0x0 PUSH1 0x1F NOT PUSH1 0x1F DUP4 ADD AND SWAP1 POP SWAP2 SWAP1 POP JUMP JUMPDEST PUSH1 0x0 PUSH2 0x259 DUP3 PUSH2 0x1EE JUMP JUMPDEST PUSH2 0x263 DUP2 DUP6 PUSH2 0x1F9 JUMP JUMPDEST SWAP4 POP PUSH2 0x273 DUP2 DUP6 PUSH1 0x20 DUP7 ADD PUSH2 0x20A JUMP JUMPDEST PUSH2 0x27C DUP2 PUSH2 0x23D JUMP JUMPDEST DUP5 ADD SWAP2 POP POP SWAP3 SWAP2 POP POP JUMP JUMPDEST PUSH1 0x0 PUSH1 0x20 DUP3 ADD SWAP1 POP DUP2 DUP2 SUB PUSH1 0x0 DUP4 ADD MSTORE PUSH2 0x2A1 DUP2 DUP5 PUSH2 0x24E JUMP JUMPDEST SWAP1 POP SWAP3 SWAP2 POP POP JUMP JUMPDEST PUSH1 0x0 PUSH20 0xFFFFFFFFFFFFFFFFFFFFFFFFFFFFFFFFFFFFFFFF DUP3 AND SWAP1 POP SWAP2 SWAP1 POP JUMP JUMPDEST PUSH1 0x0 PUSH2 0x2D4 DUP3 PUSH2 0x2A9 JUMP JUMPDEST SWAP1 POP SWAP2 SWAP1 POP JUMP JUMPDEST PUSH2 0x2E4 DUP2 PUSH2 0x2C9 JUMP JUMPDEST DUP3 MSTORE POP POP JUMP JUMPDEST PUSH1 0x0 PUSH1 0x20 DUP3 ADD SWAP1 POP PUSH2 0x2FF PUSH1 0x0 DUP4 ADD DUP5 PUSH2 0x2DB JUMP JUMPDEST SWAP3 SWAP2 POP POP JUMP JUMPDEST PUSH32 0x4E487B7100000000000000000000000000000000000000000000000000000000 PUSH1 0x0 MSTORE PUSH1 0x22 PUSH1 0x4 MSTORE PUSH1 0x24 PUSH1 0x0 REVERT JUMPDEST PUSH1 0x0 PUSH1 0x2 DUP3 DIV SWAP1 POP PUSH1 0x1 DUP3 AND DUP1 PUSH2 0x34C JUMPI PUSH1 0x7F DUP3 AND SWAP2 POP JUMPDEST PUSH1 0x20 DUP3 LT DUP2 SUB PUSH2 0x35F JUMPI PUSH2 0x35E PUSH2 0x305 JUMP JUMPDEST JUMPDEST POP SWAP2 SWAP1 POP JUMP INVALID LOG2 PUSH5 0x6970667358 0x22 SLT KECCAK256 0x1E XOR 0xCB 0xC0 0xD PUSH16 0xE723F8F9EE146E5E4E8B61DD305434BB 0x23 LT 0x2F 0xC1 0xB2 0xAE ISZERO 0x25 DUP10 0x21 PUSH5 0x736F6C6343 STOP ADDMOD 0xF STOP CALLER "},"gasEstimates":{"creation":{"codeDepositCost":"184600","executionCost":"infinite","totalCost":"infinite"},"external":{"getImageHash()":"infinite","getName()":"infinite","getOwner()":"2544"}},"methodIdentifiers":{"getImageHash()":"2c695e66","getName()":"17d7de7c","getOwner()":"893d20e8"}},"storageLayout":{"storage":[{"astId":105,"contract":"Market.sol:Nft","label":"name","offset":0,"slot":"0","type":"t_string_storage"},{"astId":107,"contract":"Market.sol:Nft","label":"owner","offset":0,"slot":"1","type":"t_address"},{"astId":109,"contract":"Market.sol:Nft","label":"imageHash","offset":0,"slot":"2","type":"t_string_storage"}],"types":{"t_address":{"encoding":"inplace","label":"address","numberOfBytes":"20"},"t_string_storage":{"encoding":"bytes","label":"string","numberOfBytes":"32"}}},"userdoc":{"kind":"user","methods":{},"version":1}}