{"abi":[{"inputs":[{"internalType":"string","name":"assetName","type":"string"},{"internalType":"string","name":"ipfsHash","type":"string"},{"internalType":"uint256","name":"globalIndex","type":"uint256"},{"internalType":"address","name":"owningMarket","type":"address"}],"stateMutability":"nonpayable","type":"constructor"},{"inputs":[],"name":"getIndex","outputs":[{"internalType":"uint256","name":"","type":"uint256"}],"stateMutability":"view","type":"function"},{"inputs":[],"name":"getNftInfo","outputs":[{"internalType":"string","name":"","type":"string"},{"internalType":"address","name":"","type":"address"},{"internalType":"string","name":"","type":"string"},{"internalType":"uint256","name":"","type":"uint256"}],"stateMutability":"view","type":"function"},{"inputs":[],"name":"getOwner","outputs":[{"internalType":"address","name":"","type":"address"}],"stateMutability":"view","type":"function"},{"inputs":[{"internalType":"address","name":"addressNewOwner","type":"address"}],"name":"setOwner","outputs":[],"stateMutability":"nonpayable","type":"function"}],"devdoc":{"kind":"dev","methods":{},"version":1},"evm":{"assembly":"    /* \"Market.sol\":4392:5318  contract Nft {... */\n  mstore(0x40, 0x80)\n    /* \"Market.sol\":4599:4824  constructor (string memory assetName, string memory ipfsHash, uint globalIndex, address owningMarket) {... */\n  callvalue\n  dup1\n  iszero\n  tag_1\n  jumpi\n  0x00\n  dup1\n  revert\ntag_1:\n  pop\n  mload(0x40)\n  sub(codesize, bytecodeSize)\n  dup1\n  bytecodeSize\n  dup4\n  codecopy\n  dup2\n  dup2\n  add\n  0x40\n  mstore\n  dup2\n  add\n  swap1\n  tag_2\n  swap2\n  swap1\n  tag_3\n  jump\t// in\ntag_2:\n    /* \"Market.sol\":4718:4727  assetName */\n  dup4\n    /* \"Market.sol\":4711:4715  name */\n  0x00\n    /* \"Market.sol\":4711:4727  name = assetName */\n  swap1\n  dup2\n  tag_6\n  swap2\n  swap1\n  tag_7\n  jump\t// in\ntag_6:\n  pop\n    /* \"Market.sol\":4749:4757  ipfsHash */\n  dup3\n    /* \"Market.sol\":4737:4746  imageHash */\n  0x02\n    /* \"Market.sol\":4737:4757  imageHash = ipfsHash */\n  swap1\n  dup2\n  tag_8\n  swap2\n  swap1\n  tag_7\n  jump\t// in\ntag_8:\n  pop\n    /* \"Market.sol\":4775:4786  globalIndex */\n  dup2\n    /* \"Market.sol\":4767:4772  index */\n  0x03\n    /* \"Market.sol\":4767:4786  index = globalIndex */\n  dup2\n  swap1\n  sstore\n  pop\n    /* \"Market.sol\":4805:4817  owningMarket */\n  dup1\n    /* \"Market.sol\":4796:4802  market */\n  0x04\n  0x00\n    /* \"Market.sol\":4796:4817  market = owningMarket */\n  0x0100\n  exp\n  dup2\n  sload\n  dup2\n  0xffffffffffffffffffffffffffffffffffffffff\n  mul\n  not\n  and\n  swap1\n  dup4\n  0xffffffffffffffffffffffffffffffffffffffff\n  and\n  mul\n  or\n  swap1\n  sstore\n  pop\n    /* \"Market.sol\":4599:4824  constructor (string memory assetName, string memory ipfsHash, uint globalIndex, address owningMarket) {... */\n  pop\n  pop\n  pop\n  pop\n    /* \"Market.sol\":4392:5318  contract Nft {... */\n  jump(tag_9)\n    /* \"#utility.yul\":7:82   */\ntag_10:\n    /* \"#utility.yul\":40:46   */\n  0x00\n    /* \"#utility.yul\":73:75   */\n  0x40\n    /* \"#utility.yul\":67:76   */\n  mload\n    /* \"#utility.yul\":57:76   */\n  swap1\n  pop\n    /* \"#utility.yul\":7:82   */\n  swap1\n  jump\t// out\n    /* \"#utility.yul\":88:205   */\ntag_11:\n    /* \"#utility.yul\":197:198   */\n  0x00\n    /* \"#utility.yul\":194:195   */\n  dup1\n    /* \"#utility.yul\":187:199   */\n  revert\n    /* \"#utility.yul\":211:328   */\ntag_12:\n    /* \"#utility.yul\":320:321   */\n  0x00\n    /* \"#utility.yul\":317:318   */\n  dup1\n    /* \"#utility.yul\":310:322   */\n  revert\n    /* \"#utility.yul\":334:451   */\ntag_13:\n    /* \"#utility.yul\":443:444   */\n  0x00\n    /* \"#utility.yul\":440:441   */\n  dup1\n    /* \"#utility.yul\":433:445   */\n  revert\n    /* \"#utility.yul\":457:574   */\ntag_14:\n    /* \"#utility.yul\":566:567   */\n  0x00\n    /* \"#utility.yul\":563:564   */\n  dup1\n    /* \"#utility.yul\":556:568   */\n  revert\n    /* \"#utility.yul\":580:682   */\ntag_15:\n    /* \"#utility.yul\":621:627   */\n  0x00\n    /* \"#utility.yul\":672:674   */\n  0x1f\n    /* \"#utility.yul\":668:675   */\n  not\n    /* \"#utility.yul\":663:665   */\n  0x1f\n    /* \"#utility.yul\":656:661   */\n  dup4\n    /* \"#utility.yul\":652:666   */\n  add\n    /* \"#utility.yul\":648:676   */\n  and\n    /* \"#utility.yul\":638:676   */\n  swap1\n  pop\n    /* \"#utility.yul\":580:682   */\n  swap2\n  swap1\n  pop\n  jump\t// out\n    /* \"#utility.yul\":688:868   */\ntag_16:\n    /* \"#utility.yul\":736:813   */\n  0x4e487b7100000000000000000000000000000000000000000000000000000000\n    /* \"#utility.yul\":733:734   */\n  0x00\n    /* \"#utility.yul\":726:814   */\n  mstore\n    /* \"#utility.yul\":833:837   */\n  0x41\n    /* \"#utility.yul\":830:831   */\n  0x04\n    /* \"#utility.yul\":823:838   */\n  mstore\n    /* \"#utility.yul\":857:861   */\n  0x24\n    /* \"#utility.yul\":854:855   */\n  0x00\n    /* \"#utility.yul\":847:862   */\n  revert\n    /* \"#utility.yul\":874:1155   */\ntag_17:\n    /* \"#utility.yul\":957:984   */\n  tag_57\n    /* \"#utility.yul\":979:983   */\n  dup3\n    /* \"#utility.yul\":957:984   */\n  tag_15\n  jump\t// in\ntag_57:\n    /* \"#utility.yul\":949:955   */\n  dup2\n    /* \"#utility.yul\":945:985   */\n  add\n    /* \"#utility.yul\":1087:1093   */\n  dup2\n    /* \"#utility.yul\":1075:1085   */\n  dup2\n    /* \"#utility.yul\":1072:1094   */\n  lt\n    /* \"#utility.yul\":1051:1069   */\n  0xffffffffffffffff\n    /* \"#utility.yul\":1039:1049   */\n  dup3\n    /* \"#utility.yul\":1036:1070   */\n  gt\n    /* \"#utility.yul\":1033:1095   */\n  or\n    /* \"#utility.yul\":1030:1118   */\n  iszero\n  tag_58\n  jumpi\n    /* \"#utility.yul\":1098:1116   */\n  tag_59\n  tag_16\n  jump\t// in\ntag_59:\n    /* \"#utility.yul\":1030:1118   */\ntag_58:\n    /* \"#utility.yul\":1138:1148   */\n  dup1\n    /* \"#utility.yul\":1134:1136   */\n  0x40\n    /* \"#utility.yul\":1127:1149   */\n  mstore\n    /* \"#utility.yul\":917:1155   */\n  pop\n    /* \"#utility.yul\":874:1155   */\n  pop\n  pop\n  jump\t// out\n    /* \"#utility.yul\":1161:1290   */\ntag_18:\n    /* \"#utility.yul\":1195:1201   */\n  0x00\n    /* \"#utility.yul\":1222:1242   */\n  tag_61\n  tag_10\n  jump\t// in\ntag_61:\n    /* \"#utility.yul\":1212:1242   */\n  swap1\n  pop\n    /* \"#utility.yul\":1251:1284   */\n  tag_62\n    /* \"#utility.yul\":1279:1283   */\n  dup3\n    /* \"#utility.yul\":1271:1277   */\n  dup3\n    /* \"#utility.yul\":1251:1284   */\n  tag_17\n  jump\t// in\ntag_62:\n    /* \"#utility.yul\":1161:1290   */\n  swap2\n  swap1\n  pop\n  jump\t// out\n    /* \"#utility.yul\":1296:1604   */\ntag_19:\n    /* \"#utility.yul\":1358:1362   */\n  0x00\n    /* \"#utility.yul\":1448:1466   */\n  0xffffffffffffffff\n    /* \"#utility.yul\":1440:1446   */\n  dup3\n    /* \"#utility.yul\":1437:1467   */\n  gt\n    /* \"#utility.yul\":1434:1490   */\n  iszero\n  tag_64\n  jumpi\n    /* \"#utility.yul\":1470:1488   */\n  tag_65\n  tag_16\n  jump\t// in\ntag_65:\n    /* \"#utility.yul\":1434:1490   */\ntag_64:\n    /* \"#utility.yul\":1508:1537   */\n  tag_66\n    /* \"#utility.yul\":1530:1536   */\n  dup3\n    /* \"#utility.yul\":1508:1537   */\n  tag_15\n  jump\t// in\ntag_66:\n    /* \"#utility.yul\":1500:1537   */\n  swap1\n  pop\n    /* \"#utility.yul\":1592:1596   */\n  0x20\n    /* \"#utility.yul\":1586:1590   */\n  dup2\n    /* \"#utility.yul\":1582:1597   */\n  add\n    /* \"#utility.yul\":1574:1597   */\n  swap1\n  pop\n    /* \"#utility.yul\":1296:1604   */\n  swap2\n  swap1\n  pop\n  jump\t// out\n    /* \"#utility.yul\":1610:1917   */\ntag_20:\n    /* \"#utility.yul\":1678:1679   */\n  0x00\n    /* \"#utility.yul\":1688:1801   */\ntag_68:\n    /* \"#utility.yul\":1702:1708   */\n  dup4\n    /* \"#utility.yul\":1699:1700   */\n  dup2\n    /* \"#utility.yul\":1696:1709   */\n  lt\n    /* \"#utility.yul\":1688:1801   */\n  iszero\n  tag_70\n  jumpi\n    /* \"#utility.yul\":1787:1788   */\n  dup1\n    /* \"#utility.yul\":1782:1785   */\n  dup3\n    /* \"#utility.yul\":1778:1789   */\n  add\n    /* \"#utility.yul\":1772:1790   */\n  mload\n    /* \"#utility.yul\":1768:1769   */\n  dup2\n    /* \"#utility.yul\":1763:1766   */\n  dup5\n    /* \"#utility.yul\":1759:1770   */\n  add\n    /* \"#utility.yul\":1752:1791   */\n  mstore\n    /* \"#utility.yul\":1724:1726   */\n  0x20\n    /* \"#utility.yul\":1721:1722   */\n  dup2\n    /* \"#utility.yul\":1717:1727   */\n  add\n    /* \"#utility.yul\":1712:1727   */\n  swap1\n  pop\n    /* \"#utility.yul\":1688:1801   */\n  jump(tag_68)\ntag_70:\n    /* \"#utility.yul\":1819:1825   */\n  dup4\n    /* \"#utility.yul\":1816:1817   */\n  dup2\n    /* \"#utility.yul\":1813:1826   */\n  gt\n    /* \"#utility.yul\":1810:1911   */\n  iszero\n  tag_71\n  jumpi\n    /* \"#utility.yul\":1899:1900   */\n  0x00\n    /* \"#utility.yul\":1890:1896   */\n  dup5\n    /* \"#utility.yul\":1885:1888   */\n  dup5\n    /* \"#utility.yul\":1881:1897   */\n  add\n    /* \"#utility.yul\":1874:1901   */\n  mstore\n    /* \"#utility.yul\":1810:1911   */\ntag_71:\n    /* \"#utility.yul\":1659:1917   */\n  pop\n    /* \"#utility.yul\":1610:1917   */\n  pop\n  pop\n  pop\n  jump\t// out\n    /* \"#utility.yul\":1923:2344   */\ntag_21:\n    /* \"#utility.yul\":2012:2017   */\n  0x00\n    /* \"#utility.yul\":2037:2103   */\n  tag_73\n    /* \"#utility.yul\":2053:2102   */\n  tag_74\n    /* \"#utility.yul\":2095:2101   */\n  dup5\n    /* \"#utility.yul\":2053:2102   */\n  tag_19\n  jump\t// in\ntag_74:\n    /* \"#utility.yul\":2037:2103   */\n  tag_18\n  jump\t// in\ntag_73:\n    /* \"#utility.yul\":2028:2103   */\n  swap1\n  pop\n    /* \"#utility.yul\":2126:2132   */\n  dup3\n    /* \"#utility.yul\":2119:2124   */\n  dup2\n    /* \"#utility.yul\":2112:2133   */\n  mstore\n    /* \"#utility.yul\":2164:2168   */\n  0x20\n    /* \"#utility.yul\":2157:2162   */\n  dup2\n    /* \"#utility.yul\":2153:2169   */\n  add\n    /* \"#utility.yul\":2202:2205   */\n  dup5\n    /* \"#utility.yul\":2193:2199   */\n  dup5\n    /* \"#utility.yul\":2188:2191   */\n  dup5\n    /* \"#utility.yul\":2184:2200   */\n  add\n    /* \"#utility.yul\":2181:2206   */\n  gt\n    /* \"#utility.yul\":2178:2290   */\n  iszero\n  tag_75\n  jumpi\n    /* \"#utility.yul\":2209:2288   */\n  tag_76\n  tag_14\n  jump\t// in\ntag_76:\n    /* \"#utility.yul\":2178:2290   */\ntag_75:\n    /* \"#utility.yul\":2299:2338   */\n  tag_77\n    /* \"#utility.yul\":2331:2337   */\n  dup5\n    /* \"#utility.yul\":2326:2329   */\n  dup3\n    /* \"#utility.yul\":2321:2324   */\n  dup6\n    /* \"#utility.yul\":2299:2338   */\n  tag_20\n  jump\t// in\ntag_77:\n    /* \"#utility.yul\":2018:2344   */\n  pop\n    /* \"#utility.yul\":1923:2344   */\n  swap4\n  swap3\n  pop\n  pop\n  pop\n  jump\t// out\n    /* \"#utility.yul\":2364:2719   */\ntag_22:\n    /* \"#utility.yul\":2431:2436   */\n  0x00\n    /* \"#utility.yul\":2480:2483   */\n  dup3\n    /* \"#utility.yul\":2473:2477   */\n  0x1f\n    /* \"#utility.yul\":2465:2471   */\n  dup4\n    /* \"#utility.yul\":2461:2478   */\n  add\n    /* \"#utility.yul\":2457:2484   */\n  slt\n    /* \"#utility.yul\":2447:2569   */\n  tag_79\n  jumpi\n    /* \"#utility.yul\":2488:2567   */\n  tag_80\n  tag_13\n  jump\t// in\ntag_80:\n    /* \"#utility.yul\":2447:2569   */\ntag_79:\n    /* \"#utility.yul\":2598:2604   */\n  dup2\n    /* \"#utility.yul\":2592:2605   */\n  mload\n    /* \"#utility.yul\":2623:2713   */\n  tag_81\n    /* \"#utility.yul\":2709:2712   */\n  dup5\n    /* \"#utility.yul\":2701:2707   */\n  dup3\n    /* \"#utility.yul\":2694:2698   */\n  0x20\n    /* \"#utility.yul\":2686:2692   */\n  dup7\n    /* \"#utility.yul\":2682:2699   */\n  add\n    /* \"#utility.yul\":2623:2713   */\n  tag_21\n  jump\t// in\ntag_81:\n    /* \"#utility.yul\":2614:2713   */\n  swap2\n  pop\n    /* \"#utility.yul\":2437:2719   */\n  pop\n    /* \"#utility.yul\":2364:2719   */\n  swap3\n  swap2\n  pop\n  pop\n  jump\t// out\n    /* \"#utility.yul\":2725:2802   */\ntag_23:\n    /* \"#utility.yul\":2762:2769   */\n  0x00\n    /* \"#utility.yul\":2791:2796   */\n  dup2\n    /* \"#utility.yul\":2780:2796   */\n  swap1\n  pop\n    /* \"#utility.yul\":2725:2802   */\n  swap2\n  swap1\n  pop\n  jump\t// out\n    /* \"#utility.yul\":2808:2930   */\ntag_24:\n    /* \"#utility.yul\":2881:2905   */\n  tag_84\n    /* \"#utility.yul\":2899:2904   */\n  dup2\n    /* \"#utility.yul\":2881:2905   */\n  tag_23\n  jump\t// in\ntag_84:\n    /* \"#utility.yul\":2874:2879   */\n  dup2\n    /* \"#utility.yul\":2871:2906   */\n  eq\n    /* \"#utility.yul\":2861:2924   */\n  tag_85\n  jumpi\n    /* \"#utility.yul\":2920:2921   */\n  0x00\n    /* \"#utility.yul\":2917:2918   */\n  dup1\n    /* \"#utility.yul\":2910:2922   */\n  revert\n    /* \"#utility.yul\":2861:2924   */\ntag_85:\n    /* \"#utility.yul\":2808:2930   */\n  pop\n  jump\t// out\n    /* \"#utility.yul\":2936:3079   */\ntag_25:\n    /* \"#utility.yul\":2993:2998   */\n  0x00\n    /* \"#utility.yul\":3024:3030   */\n  dup2\n    /* \"#utility.yul\":3018:3031   */\n  mload\n    /* \"#utility.yul\":3009:3031   */\n  swap1\n  pop\n    /* \"#utility.yul\":3040:3073   */\n  tag_87\n    /* \"#utility.yul\":3067:3072   */\n  dup2\n    /* \"#utility.yul\":3040:3073   */\n  tag_24\n  jump\t// in\ntag_87:\n    /* \"#utility.yul\":2936:3079   */\n  swap3\n  swap2\n  pop\n  pop\n  jump\t// out\n    /* \"#utility.yul\":3085:3211   */\ntag_26:\n    /* \"#utility.yul\":3122:3129   */\n  0x00\n    /* \"#utility.yul\":3162:3204   */\n  0xffffffffffffffffffffffffffffffffffffffff\n    /* \"#utility.yul\":3155:3160   */\n  dup3\n    /* \"#utility.yul\":3151:3205   */\n  and\n    /* \"#utility.yul\":3140:3205   */\n  swap1\n  pop\n    /* \"#utility.yul\":3085:3211   */\n  swap2\n  swap1\n  pop\n  jump\t// out\n    /* \"#utility.yul\":3217:3313   */\ntag_27:\n    /* \"#utility.yul\":3254:3261   */\n  0x00\n    /* \"#utility.yul\":3283:3307   */\n  tag_90\n    /* \"#utility.yul\":3301:3306   */\n  dup3\n    /* \"#utility.yul\":3283:3307   */\n  tag_26\n  jump\t// in\ntag_90:\n    /* \"#utility.yul\":3272:3307   */\n  swap1\n  pop\n    /* \"#utility.yul\":3217:3313   */\n  swap2\n  swap1\n  pop\n  jump\t// out\n    /* \"#utility.yul\":3319:3441   */\ntag_28:\n    /* \"#utility.yul\":3392:3416   */\n  tag_92\n    /* \"#utility.yul\":3410:3415   */\n  dup2\n    /* \"#utility.yul\":3392:3416   */\n  tag_27\n  jump\t// in\ntag_92:\n    /* \"#utility.yul\":3385:3390   */\n  dup2\n    /* \"#utility.yul\":3382:3417   */\n  eq\n    /* \"#utility.yul\":3372:3435   */\n  tag_93\n  jumpi\n    /* \"#utility.yul\":3431:3432   */\n  0x00\n    /* \"#utility.yul\":3428:3429   */\n  dup1\n    /* \"#utility.yul\":3421:3433   */\n  revert\n    /* \"#utility.yul\":3372:3435   */\ntag_93:\n    /* \"#utility.yul\":3319:3441   */\n  pop\n  jump\t// out\n    /* \"#utility.yul\":3447:3590   */\ntag_29:\n    /* \"#utility.yul\":3504:3509   */\n  0x00\n    /* \"#utility.yul\":3535:3541   */\n  dup2\n    /* \"#utility.yul\":3529:3542   */\n  mload\n    /* \"#utility.yul\":3520:3542   */\n  swap1\n  pop\n    /* \"#utility.yul\":3551:3584   */\n  tag_95\n    /* \"#utility.yul\":3578:3583   */\n  dup2\n    /* \"#utility.yul\":3551:3584   */\n  tag_28\n  jump\t// in\ntag_95:\n    /* \"#utility.yul\":3447:3590   */\n  swap3\n  swap2\n  pop\n  pop\n  jump\t// out\n    /* \"#utility.yul\":3596:4762   */\ntag_3:\n    /* \"#utility.yul\":3713:3719   */\n  0x00\n    /* \"#utility.yul\":3721:3727   */\n  dup1\n    /* \"#utility.yul\":3729:3735   */\n  0x00\n    /* \"#utility.yul\":3737:3743   */\n  dup1\n    /* \"#utility.yul\":3786:3789   */\n  0x80\n    /* \"#utility.yul\":3774:3783   */\n  dup6\n    /* \"#utility.yul\":3765:3772   */\n  dup8\n    /* \"#utility.yul\":3761:3784   */\n  sub\n    /* \"#utility.yul\":3757:3790   */\n  slt\n    /* \"#utility.yul\":3754:3874   */\n  iszero\n  tag_97\n  jumpi\n    /* \"#utility.yul\":3793:3872   */\n  tag_98\n  tag_11\n  jump\t// in\ntag_98:\n    /* \"#utility.yul\":3754:3874   */\ntag_97:\n    /* \"#utility.yul\":3934:3935   */\n  0x00\n    /* \"#utility.yul\":3923:3932   */\n  dup6\n    /* \"#utility.yul\":3919:3936   */\n  add\n    /* \"#utility.yul\":3913:3937   */\n  mload\n    /* \"#utility.yul\":3964:3982   */\n  0xffffffffffffffff\n    /* \"#utility.yul\":3956:3962   */\n  dup2\n    /* \"#utility.yul\":3953:3983   */\n  gt\n    /* \"#utility.yul\":3950:4067   */\n  iszero\n  tag_99\n  jumpi\n    /* \"#utility.yul\":3986:4065   */\n  tag_100\n  tag_12\n  jump\t// in\ntag_100:\n    /* \"#utility.yul\":3950:4067   */\ntag_99:\n    /* \"#utility.yul\":4091:4165   */\n  tag_101\n    /* \"#utility.yul\":4157:4164   */\n  dup8\n    /* \"#utility.yul\":4148:4154   */\n  dup3\n    /* \"#utility.yul\":4137:4146   */\n  dup9\n    /* \"#utility.yul\":4133:4155   */\n  add\n    /* \"#utility.yul\":4091:4165   */\n  tag_22\n  jump\t// in\ntag_101:\n    /* \"#utility.yul\":4081:4165   */\n  swap5\n  pop\n    /* \"#utility.yul\":3884:4175   */\n  pop\n    /* \"#utility.yul\":4235:4237   */\n  0x20\n    /* \"#utility.yul\":4224:4233   */\n  dup6\n    /* \"#utility.yul\":4220:4238   */\n  add\n    /* \"#utility.yul\":4214:4239   */\n  mload\n    /* \"#utility.yul\":4266:4284   */\n  0xffffffffffffffff\n    /* \"#utility.yul\":4258:4264   */\n  dup2\n    /* \"#utility.yul\":4255:4285   */\n  gt\n    /* \"#utility.yul\":4252:4369   */\n  iszero\n  tag_102\n  jumpi\n    /* \"#utility.yul\":4288:4367   */\n  tag_103\n  tag_12\n  jump\t// in\ntag_103:\n    /* \"#utility.yul\":4252:4369   */\ntag_102:\n    /* \"#utility.yul\":4393:4467   */\n  tag_104\n    /* \"#utility.yul\":4459:4466   */\n  dup8\n    /* \"#utility.yul\":4450:4456   */\n  dup3\n    /* \"#utility.yul\":4439:4448   */\n  dup9\n    /* \"#utility.yul\":4435:4457   */\n  add\n    /* \"#utility.yul\":4393:4467   */\n  tag_22\n  jump\t// in\ntag_104:\n    /* \"#utility.yul\":4383:4467   */\n  swap4\n  pop\n    /* \"#utility.yul\":4185:4477   */\n  pop\n    /* \"#utility.yul\":4516:4518   */\n  0x40\n    /* \"#utility.yul\":4542:4606   */\n  tag_105\n    /* \"#utility.yul\":4598:4605   */\n  dup8\n    /* \"#utility.yul\":4589:4595   */\n  dup3\n    /* \"#utility.yul\":4578:4587   */\n  dup9\n    /* \"#utility.yul\":4574:4596   */\n  add\n    /* \"#utility.yul\":4542:4606   */\n  tag_25\n  jump\t// in\ntag_105:\n    /* \"#utility.yul\":4532:4606   */\n  swap3\n  pop\n    /* \"#utility.yul\":4487:4616   */\n  pop\n    /* \"#utility.yul\":4655:4657   */\n  0x60\n    /* \"#utility.yul\":4681:4745   */\n  tag_106\n    /* \"#utility.yul\":4737:4744   */\n  dup8\n    /* \"#utility.yul\":4728:4734   */\n  dup3\n    /* \"#utility.yul\":4717:4726   */\n  dup9\n    /* \"#utility.yul\":4713:4735   */\n  add\n    /* \"#utility.yul\":4681:4745   */\n  tag_29\n  jump\t// in\ntag_106:\n    /* \"#utility.yul\":4671:4745   */\n  swap2\n  pop\n    /* \"#utility.yul\":4626:4755   */\n  pop\n    /* \"#utility.yul\":3596:4762   */\n  swap3\n  swap6\n  swap2\n  swap5\n  pop\n  swap3\n  pop\n  jump\t// out\n    /* \"#utility.yul\":4768:4867   */\ntag_30:\n    /* \"#utility.yul\":4820:4826   */\n  0x00\n    /* \"#utility.yul\":4854:4859   */\n  dup2\n    /* \"#utility.yul\":4848:4860   */\n  mload\n    /* \"#utility.yul\":4838:4860   */\n  swap1\n  pop\n    /* \"#utility.yul\":4768:4867   */\n  swap2\n  swap1\n  pop\n  jump\t// out\n    /* \"#utility.yul\":4873:5053   */\ntag_31:\n    /* \"#utility.yul\":4921:4998   */\n  0x4e487b7100000000000000000000000000000000000000000000000000000000\n    /* \"#utility.yul\":4918:4919   */\n  0x00\n    /* \"#utility.yul\":4911:4999   */\n  mstore\n    /* \"#utility.yul\":5018:5022   */\n  0x22\n    /* \"#utility.yul\":5015:5016   */\n  0x04\n    /* \"#utility.yul\":5008:5023   */\n  mstore\n    /* \"#utility.yul\":5042:5046   */\n  0x24\n    /* \"#utility.yul\":5039:5040   */\n  0x00\n    /* \"#utility.yul\":5032:5047   */\n  revert\n    /* \"#utility.yul\":5059:5379   */\ntag_32:\n    /* \"#utility.yul\":5103:5109   */\n  0x00\n    /* \"#utility.yul\":5140:5141   */\n  0x02\n    /* \"#utility.yul\":5134:5138   */\n  dup3\n    /* \"#utility.yul\":5130:5142   */\n  div\n    /* \"#utility.yul\":5120:5142   */\n  swap1\n  pop\n    /* \"#utility.yul\":5187:5188   */\n  0x01\n    /* \"#utility.yul\":5181:5185   */\n  dup3\n    /* \"#utility.yul\":5177:5189   */\n  and\n    /* \"#utility.yul\":5208:5226   */\n  dup1\n    /* \"#utility.yul\":5198:5279   */\n  tag_110\n  jumpi\n    /* \"#utility.yul\":5264:5268   */\n  0x7f\n    /* \"#utility.yul\":5256:5262   */\n  dup3\n    /* \"#utility.yul\":5252:5269   */\n  and\n    /* \"#utility.yul\":5242:5269   */\n  swap2\n  pop\n    /* \"#utility.yul\":5198:5279   */\ntag_110:\n    /* \"#utility.yul\":5326:5328   */\n  0x20\n    /* \"#utility.yul\":5318:5324   */\n  dup3\n    /* \"#utility.yul\":5315:5329   */\n  lt\n    /* \"#utility.yul\":5295:5313   */\n  dup2\n    /* \"#utility.yul\":5292:5330   */\n  sub\n    /* \"#utility.yul\":5289:5373   */\n  tag_111\n  jumpi\n    /* \"#utility.yul\":5345:5363   */\n  tag_112\n  tag_31\n  jump\t// in\ntag_112:\n    /* \"#utility.yul\":5289:5373   */\ntag_111:\n    /* \"#utility.yul\":5110:5379   */\n  pop\n    /* \"#utility.yul\":5059:5379   */\n  swap2\n  swap1\n  pop\n  jump\t// out\n    /* \"#utility.yul\":5385:5526   */\ntag_33:\n    /* \"#utility.yul\":5434:5438   */\n  0x00\n    /* \"#utility.yul\":5457:5460   */\n  dup2\n    /* \"#utility.yul\":5449:5460   */\n  swap1\n  pop\n    /* \"#utility.yul\":5480:5483   */\n  dup2\n    /* \"#utility.yul\":5477:5478   */\n  0x00\n    /* \"#utility.yul\":5470:5484   */\n  mstore\n    /* \"#utility.yul\":5514:5518   */\n  0x20\n    /* \"#utility.yul\":5511:5512   */\n  0x00\n    /* \"#utility.yul\":5501:5519   */\n  keccak256\n    /* \"#utility.yul\":5493:5519   */\n  swap1\n  pop\n    /* \"#utility.yul\":5385:5526   */\n  swap2\n  swap1\n  pop\n  jump\t// out\n    /* \"#utility.yul\":5532:5625   */\ntag_34:\n    /* \"#utility.yul\":5569:5575   */\n  0x00\n    /* \"#utility.yul\":5616:5618   */\n  0x20\n    /* \"#utility.yul\":5611:5613   */\n  0x1f\n    /* \"#utility.yul\":5604:5609   */\n  dup4\n    /* \"#utility.yul\":5600:5614   */\n  add\n    /* \"#utility.yul\":5596:5619   */\n  div\n    /* \"#utility.yul\":5586:5619   */\n  swap1\n  pop\n    /* \"#utility.yul\":5532:5625   */\n  swap2\n  swap1\n  pop\n  jump\t// out\n    /* \"#utility.yul\":5631:5738   */\ntag_35:\n    /* \"#utility.yul\":5675:5683   */\n  0x00\n    /* \"#utility.yul\":5725:5730   */\n  dup3\n    /* \"#utility.yul\":5719:5723   */\n  dup3\n    /* \"#utility.yul\":5715:5731   */\n  shl\n    /* \"#utility.yul\":5694:5731   */\n  swap1\n  pop\n    /* \"#utility.yul\":5631:5738   */\n  swap3\n  swap2\n  pop\n  pop\n  jump\t// out\n    /* \"#utility.yul\":5744:6137   */\ntag_36:\n    /* \"#utility.yul\":5813:5819   */\n  0x00\n    /* \"#utility.yul\":5863:5864   */\n  0x08\n    /* \"#utility.yul\":5851:5861   */\n  dup4\n    /* \"#utility.yul\":5847:5865   */\n  mul\n    /* \"#utility.yul\":5886:5983   */\n  tag_117\n    /* \"#utility.yul\":5916:5982   */\n  0xffffffffffffffffffffffffffffffffffffffffffffffffffffffffffffffff\n    /* \"#utility.yul\":5905:5914   */\n  dup3\n    /* \"#utility.yul\":5886:5983   */\n  tag_35\n  jump\t// in\ntag_117:\n    /* \"#utility.yul\":6004:6043   */\n  tag_118\n    /* \"#utility.yul\":6034:6042   */\n  dup7\n    /* \"#utility.yul\":6023:6032   */\n  dup4\n    /* \"#utility.yul\":6004:6043   */\n  tag_35\n  jump\t// in\ntag_118:\n    /* \"#utility.yul\":5992:6043   */\n  swap6\n  pop\n    /* \"#utility.yul\":6076:6080   */\n  dup1\n    /* \"#utility.yul\":6072:6081   */\n  not\n    /* \"#utility.yul\":6065:6070   */\n  dup5\n    /* \"#utility.yul\":6061:6082   */\n  and\n    /* \"#utility.yul\":6052:6082   */\n  swap4\n  pop\n    /* \"#utility.yul\":6125:6129   */\n  dup1\n    /* \"#utility.yul\":6115:6123   */\n  dup7\n    /* \"#utility.yul\":6111:6130   */\n  and\n    /* \"#utility.yul\":6104:6109   */\n  dup5\n    /* \"#utility.yul\":6101:6131   */\n  or\n    /* \"#utility.yul\":6091:6131   */\n  swap3\n  pop\n    /* \"#utility.yul\":5820:6137   */\n  pop\n  pop\n    /* \"#utility.yul\":5744:6137   */\n  swap4\n  swap3\n  pop\n  pop\n  pop\n  jump\t// out\n    /* \"#utility.yul\":6143:6203   */\ntag_37:\n    /* \"#utility.yul\":6171:6174   */\n  0x00\n    /* \"#utility.yul\":6192:6197   */\n  dup2\n    /* \"#utility.yul\":6185:6197   */\n  swap1\n  pop\n    /* \"#utility.yul\":6143:6203   */\n  swap2\n  swap1\n  pop\n  jump\t// out\n    /* \"#utility.yul\":6209:6351   */\ntag_38:\n    /* \"#utility.yul\":6259:6268   */\n  0x00\n    /* \"#utility.yul\":6292:6345   */\n  tag_121\n    /* \"#utility.yul\":6310:6344   */\n  tag_122\n    /* \"#utility.yul\":6319:6343   */\n  tag_123\n    /* \"#utility.yul\":6337:6342   */\n  dup5\n    /* \"#utility.yul\":6319:6343   */\n  tag_23\n  jump\t// in\ntag_123:\n    /* \"#utility.yul\":6310:6344   */\n  tag_37\n  jump\t// in\ntag_122:\n    /* \"#utility.yul\":6292:6345   */\n  tag_23\n  jump\t// in\ntag_121:\n    /* \"#utility.yul\":6279:6345   */\n  swap1\n  pop\n    /* \"#utility.yul\":6209:6351   */\n  swap2\n  swap1\n  pop\n  jump\t// out\n    /* \"#utility.yul\":6357:6432   */\ntag_39:\n    /* \"#utility.yul\":6400:6403   */\n  0x00\n    /* \"#utility.yul\":6421:6426   */\n  dup2\n    /* \"#utility.yul\":6414:6426   */\n  swap1\n  pop\n    /* \"#utility.yul\":6357:6432   */\n  swap2\n  swap1\n  pop\n  jump\t// out\n    /* \"#utility.yul\":6438:6707   */\ntag_40:\n    /* \"#utility.yul\":6548:6587   */\n  tag_126\n    /* \"#utility.yul\":6579:6586   */\n  dup4\n    /* \"#utility.yul\":6548:6587   */\n  tag_38\n  jump\t// in\ntag_126:\n    /* \"#utility.yul\":6609:6700   */\n  tag_127\n    /* \"#utility.yul\":6658:6699   */\n  tag_128\n    /* \"#utility.yul\":6682:6698   */\n  dup3\n    /* \"#utility.yul\":6658:6699   */\n  tag_39\n  jump\t// in\ntag_128:\n    /* \"#utility.yul\":6650:6656   */\n  dup5\n    /* \"#utility.yul\":6643:6647   */\n  dup5\n    /* \"#utility.yul\":6637:6648   */\n  sload\n    /* \"#utility.yul\":6609:6700   */\n  tag_36\n  jump\t// in\ntag_127:\n    /* \"#utility.yul\":6603:6607   */\n  dup3\n    /* \"#utility.yul\":6596:6701   */\n  sstore\n    /* \"#utility.yul\":6514:6707   */\n  pop\n    /* \"#utility.yul\":6438:6707   */\n  pop\n  pop\n  pop\n  jump\t// out\n    /* \"#utility.yul\":6713:6786   */\ntag_41:\n    /* \"#utility.yul\":6758:6761   */\n  0x00\n    /* \"#utility.yul\":6713:6786   */\n  swap1\n  jump\t// out\n    /* \"#utility.yul\":6792:6981   */\ntag_42:\n    /* \"#utility.yul\":6869:6901   */\n  tag_131\n  tag_41\n  jump\t// in\ntag_131:\n    /* \"#utility.yul\":6910:6975   */\n  tag_132\n    /* \"#utility.yul\":6968:6974   */\n  dup2\n    /* \"#utility.yul\":6960:6966   */\n  dup5\n    /* \"#utility.yul\":6954:6958   */\n  dup5\n    /* \"#utility.yul\":6910:6975   */\n  tag_40\n  jump\t// in\ntag_132:\n    /* \"#utility.yul\":6845:6981   */\n  pop\n    /* \"#utility.yul\":6792:6981   */\n  pop\n  pop\n  jump\t// out\n    /* \"#utility.yul\":6987:7173   */\ntag_43:\n    /* \"#utility.yul\":7047:7167   */\ntag_134:\n    /* \"#utility.yul\":7064:7067   */\n  dup2\n    /* \"#utility.yul\":7057:7062   */\n  dup2\n    /* \"#utility.yul\":7054:7068   */\n  lt\n    /* \"#utility.yul\":7047:7167   */\n  iszero\n  tag_136\n  jumpi\n    /* \"#utility.yul\":7118:7157   */\n  tag_137\n    /* \"#utility.yul\":7155:7156   */\n  0x00\n    /* \"#utility.yul\":7148:7153   */\n  dup3\n    /* \"#utility.yul\":7118:7157   */\n  tag_42\n  jump\t// in\ntag_137:\n    /* \"#utility.yul\":7091:7092   */\n  0x01\n    /* \"#utility.yul\":7084:7089   */\n  dup2\n    /* \"#utility.yul\":7080:7093   */\n  add\n    /* \"#utility.yul\":7071:7093   */\n  swap1\n  pop\n    /* \"#utility.yul\":7047:7167   */\n  jump(tag_134)\ntag_136:\n    /* \"#utility.yul\":6987:7173   */\n  pop\n  pop\n  jump\t// out\n    /* \"#utility.yul\":7179:7722   */\ntag_44:\n    /* \"#utility.yul\":7280:7282   */\n  0x1f\n    /* \"#utility.yul\":7275:7278   */\n  dup3\n    /* \"#utility.yul\":7272:7283   */\n  gt\n    /* \"#utility.yul\":7269:7715   */\n  iszero\n  tag_139\n  jumpi\n    /* \"#utility.yul\":7314:7352   */\n  tag_140\n    /* \"#utility.yul\":7346:7351   */\n  dup2\n    /* \"#utility.yul\":7314:7352   */\n  tag_33\n  jump\t// in\ntag_140:\n    /* \"#utility.yul\":7398:7427   */\n  tag_141\n    /* \"#utility.yul\":7416:7426   */\n  dup5\n    /* \"#utility.yul\":7398:7427   */\n  tag_34\n  jump\t// in\ntag_141:\n    /* \"#utility.yul\":7388:7396   */\n  dup2\n    /* \"#utility.yul\":7384:7428   */\n  add\n    /* \"#utility.yul\":7581:7583   */\n  0x20\n    /* \"#utility.yul\":7569:7579   */\n  dup6\n    /* \"#utility.yul\":7566:7584   */\n  lt\n    /* \"#utility.yul\":7563:7612   */\n  iszero\n  tag_142\n  jumpi\n    /* \"#utility.yul\":7602:7610   */\n  dup2\n    /* \"#utility.yul\":7587:7610   */\n  swap1\n  pop\n    /* \"#utility.yul\":7563:7612   */\ntag_142:\n    /* \"#utility.yul\":7625:7705   */\n  tag_143\n    /* \"#utility.yul\":7681:7703   */\n  tag_144\n    /* \"#utility.yul\":7699:7702   */\n  dup6\n    /* \"#utility.yul\":7681:7703   */\n  tag_34\n  jump\t// in\ntag_144:\n    /* \"#utility.yul\":7671:7679   */\n  dup4\n    /* \"#utility.yul\":7667:7704   */\n  add\n    /* \"#utility.yul\":7654:7665   */\n  dup3\n    /* \"#utility.yul\":7625:7705   */\n  tag_43\n  jump\t// in\ntag_143:\n    /* \"#utility.yul\":7284:7715   */\n  pop\n  pop\n    /* \"#utility.yul\":7269:7715   */\ntag_139:\n    /* \"#utility.yul\":7179:7722   */\n  pop\n  pop\n  pop\n  jump\t// out\n    /* \"#utility.yul\":7728:7845   */\ntag_45:\n    /* \"#utility.yul\":7782:7790   */\n  0x00\n    /* \"#utility.yul\":7832:7837   */\n  dup3\n    /* \"#utility.yul\":7826:7830   */\n  dup3\n    /* \"#utility.yul\":7822:7838   */\n  shr\n    /* \"#utility.yul\":7801:7838   */\n  swap1\n  pop\n    /* \"#utility.yul\":7728:7845   */\n  swap3\n  swap2\n  pop\n  pop\n  jump\t// out\n    /* \"#utility.yul\":7851:8020   */\ntag_46:\n    /* \"#utility.yul\":7895:7901   */\n  0x00\n    /* \"#utility.yul\":7928:7979   */\n  tag_147\n    /* \"#utility.yul\":7976:7977   */\n  0x00\n    /* \"#utility.yul\":7972:7978   */\n  not\n    /* \"#utility.yul\":7964:7969   */\n  dup5\n    /* \"#utility.yul\":7961:7962   */\n  0x08\n    /* \"#utility.yul\":7957:7970   */\n  mul\n    /* \"#utility.yul\":7928:7979   */\n  tag_45\n  jump\t// in\ntag_147:\n    /* \"#utility.yul\":7924:7980   */\n  not\n    /* \"#utility.yul\":8009:8013   */\n  dup1\n    /* \"#utility.yul\":8003:8007   */\n  dup4\n    /* \"#utility.yul\":7999:8014   */\n  and\n    /* \"#utility.yul\":7989:8014   */\n  swap2\n  pop\n    /* \"#utility.yul\":7902:8020   */\n  pop\n    /* \"#utility.yul\":7851:8020   */\n  swap3\n  swap2\n  pop\n  pop\n  jump\t// out\n    /* \"#utility.yul\":8025:8320   */\ntag_47:\n    /* \"#utility.yul\":8101:8105   */\n  0x00\n    /* \"#utility.yul\":8247:8276   */\n  tag_149\n    /* \"#utility.yul\":8272:8275   */\n  dup4\n    /* \"#utility.yul\":8266:8270   */\n  dup4\n    /* \"#utility.yul\":8247:8276   */\n  tag_46\n  jump\t// in\ntag_149:\n    /* \"#utility.yul\":8239:8276   */\n  swap2\n  pop\n    /* \"#utility.yul\":8309:8312   */\n  dup3\n    /* \"#utility.yul\":8306:8307   */\n  0x02\n    /* \"#utility.yul\":8302:8313   */\n  mul\n    /* \"#utility.yul\":8296:8300   */\n  dup3\n    /* \"#utility.yul\":8293:8314   */\n  or\n    /* \"#utility.yul\":8285:8314   */\n  swap1\n  pop\n    /* \"#utility.yul\":8025:8320   */\n  swap3\n  swap2\n  pop\n  pop\n  jump\t// out\n    /* \"#utility.yul\":8325:9720   */\ntag_7:\n    /* \"#utility.yul\":8442:8479   */\n  tag_151\n    /* \"#utility.yul\":8475:8478   */\n  dup3\n    /* \"#utility.yul\":8442:8479   */\n  tag_30\n  jump\t// in\ntag_151:\n    /* \"#utility.yul\":8544:8562   */\n  0xffffffffffffffff\n    /* \"#utility.yul\":8536:8542   */\n  dup2\n    /* \"#utility.yul\":8533:8563   */\n  gt\n    /* \"#utility.yul\":8530:8586   */\n  iszero\n  tag_152\n  jumpi\n    /* \"#utility.yul\":8566:8584   */\n  tag_153\n  tag_16\n  jump\t// in\ntag_153:\n    /* \"#utility.yul\":8530:8586   */\ntag_152:\n    /* \"#utility.yul\":8610:8648   */\n  tag_154\n    /* \"#utility.yul\":8642:8646   */\n  dup3\n    /* \"#utility.yul\":8636:8647   */\n  sload\n    /* \"#utility.yul\":8610:8648   */\n  tag_32\n  jump\t// in\ntag_154:\n    /* \"#utility.yul\":8695:8762   */\n  tag_155\n    /* \"#utility.yul\":8755:8761   */\n  dup3\n    /* \"#utility.yul\":8747:8753   */\n  dup3\n    /* \"#utility.yul\":8741:8745   */\n  dup6\n    /* \"#utility.yul\":8695:8762   */\n  tag_44\n  jump\t// in\ntag_155:\n    /* \"#utility.yul\":8789:8790   */\n  0x00\n    /* \"#utility.yul\":8813:8817   */\n  0x20\n    /* \"#utility.yul\":8800:8817   */\n  swap1\n  pop\n    /* \"#utility.yul\":8845:8847   */\n  0x1f\n    /* \"#utility.yul\":8837:8843   */\n  dup4\n    /* \"#utility.yul\":8834:8848   */\n  gt\n    /* \"#utility.yul\":8862:8863   */\n  0x01\n    /* \"#utility.yul\":8857:9475   */\n  dup2\n  eq\n  tag_157\n  jumpi\n    /* \"#utility.yul\":9519:9520   */\n  0x00\n    /* \"#utility.yul\":9536:9542   */\n  dup5\n    /* \"#utility.yul\":9533:9610   */\n  iszero\n  tag_158\n  jumpi\n    /* \"#utility.yul\":9585:9594   */\n  dup3\n    /* \"#utility.yul\":9580:9583   */\n  dup8\n    /* \"#utility.yul\":9576:9595   */\n  add\n    /* \"#utility.yul\":9570:9596   */\n  mload\n    /* \"#utility.yul\":9561:9596   */\n  swap1\n  pop\n    /* \"#utility.yul\":9533:9610   */\ntag_158:\n    /* \"#utility.yul\":9636:9703   */\n  tag_159\n    /* \"#utility.yul\":9696:9702   */\n  dup6\n    /* \"#utility.yul\":9689:9694   */\n  dup3\n    /* \"#utility.yul\":9636:9703   */\n  tag_47\n  jump\t// in\ntag_159:\n    /* \"#utility.yul\":9630:9634   */\n  dup7\n    /* \"#utility.yul\":9623:9704   */\n  sstore\n    /* \"#utility.yul\":9492:9714   */\n  pop\n    /* \"#utility.yul\":8827:9714   */\n  jump(tag_156)\n    /* \"#utility.yul\":8857:9475   */\ntag_157:\n    /* \"#utility.yul\":8909:8913   */\n  0x1f\n    /* \"#utility.yul\":8905:8914   */\n  not\n    /* \"#utility.yul\":8897:8903   */\n  dup5\n    /* \"#utility.yul\":8893:8915   */\n  and\n    /* \"#utility.yul\":8943:8980   */\n  tag_160\n    /* \"#utility.yul\":8975:8979   */\n  dup7\n    /* \"#utility.yul\":8943:8980   */\n  tag_33\n  jump\t// in\ntag_160:\n    /* \"#utility.yul\":9002:9003   */\n  0x00\n    /* \"#utility.yul\":9016:9224   */\ntag_161:\n    /* \"#utility.yul\":9030:9037   */\n  dup3\n    /* \"#utility.yul\":9027:9028   */\n  dup2\n    /* \"#utility.yul\":9024:9038   */\n  lt\n    /* \"#utility.yul\":9016:9224   */\n  iszero\n  tag_163\n  jumpi\n    /* \"#utility.yul\":9109:9118   */\n  dup5\n    /* \"#utility.yul\":9104:9107   */\n  dup10\n    /* \"#utility.yul\":9100:9119   */\n  add\n    /* \"#utility.yul\":9094:9120   */\n  mload\n    /* \"#utility.yul\":9086:9092   */\n  dup3\n    /* \"#utility.yul\":9079:9121   */\n  sstore\n    /* \"#utility.yul\":9160:9161   */\n  0x01\n    /* \"#utility.yul\":9152:9158   */\n  dup3\n    /* \"#utility.yul\":9148:9162   */\n  add\n    /* \"#utility.yul\":9138:9162   */\n  swap2\n  pop\n    /* \"#utility.yul\":9207:9209   */\n  0x20\n    /* \"#utility.yul\":9196:9205   */\n  dup6\n    /* \"#utility.yul\":9192:9210   */\n  add\n    /* \"#utility.yul\":9179:9210   */\n  swap5\n  pop\n    /* \"#utility.yul\":9053:9057   */\n  0x20\n    /* \"#utility.yul\":9050:9051   */\n  dup2\n    /* \"#utility.yul\":9046:9058   */\n  add\n    /* \"#utility.yul\":9041:9058   */\n  swap1\n  pop\n    /* \"#utility.yul\":9016:9224   */\n  jump(tag_161)\ntag_163:\n    /* \"#utility.yul\":9252:9258   */\n  dup7\n    /* \"#utility.yul\":9243:9250   */\n  dup4\n    /* \"#utility.yul\":9240:9259   */\n  lt\n    /* \"#utility.yul\":9237:9416   */\n  iszero\n  tag_164\n  jumpi\n    /* \"#utility.yul\":9310:9319   */\n  dup5\n    /* \"#utility.yul\":9305:9308   */\n  dup10\n    /* \"#utility.yul\":9301:9320   */\n  add\n    /* \"#utility.yul\":9295:9321   */\n  mload\n    /* \"#utility.yul\":9353:9401   */\n  tag_165\n    /* \"#utility.yul\":9395:9399   */\n  0x1f\n    /* \"#utility.yul\":9387:9393   */\n  dup10\n    /* \"#utility.yul\":9383:9400   */\n  and\n    /* \"#utility.yul\":9372:9381   */\n  dup3\n    /* \"#utility.yul\":9353:9401   */\n  tag_46\n  jump\t// in\ntag_165:\n    /* \"#utility.yul\":9345:9351   */\n  dup4\n    /* \"#utility.yul\":9338:9402   */\n  sstore\n    /* \"#utility.yul\":9260:9416   */\n  pop\n    /* \"#utility.yul\":9237:9416   */\ntag_164:\n    /* \"#utility.yul\":9462:9463   */\n  0x01\n    /* \"#utility.yul\":9458:9459   */\n  0x02\n    /* \"#utility.yul\":9450:9456   */\n  dup9\n    /* \"#utility.yul\":9446:9460   */\n  mul\n    /* \"#utility.yul\":9442:9464   */\n  add\n    /* \"#utility.yul\":9436:9440   */\n  dup9\n    /* \"#utility.yul\":9429:9465   */\n  sstore\n    /* \"#utility.yul\":8864:9475   */\n  pop\n  pop\n  pop\n    /* \"#utility.yul\":8827:9714   */\ntag_156:\n  pop\n    /* \"#utility.yul\":8417:9720   */\n  pop\n  pop\n  pop\n    /* \"#utility.yul\":8325:9720   */\n  pop\n  pop\n  jump\t// out\n    /* \"Market.sol\":4392:5318  contract Nft {... */\ntag_9:\n  dataSize(sub_0)\n  dup1\n  dataOffset(sub_0)\n  0x00\n  codecopy\n  0x00\n  return\nstop\n\nsub_0: assembly {\n        /* \"Market.sol\":4392:5318  contract Nft {... */\n      mstore(0x40, 0x80)\n      callvalue\n      dup1\n      iszero\n      tag_1\n      jumpi\n      0x00\n      dup1\n      revert\n    tag_1:\n      pop\n      jumpi(tag_2, lt(calldatasize, 0x04))\n      shr(0xe0, calldataload(0x00))\n      dup1\n      0x13af4035\n      eq\n      tag_3\n      jumpi\n      dup1\n      0x7ca5685f\n      eq\n      tag_4\n      jumpi\n      dup1\n      0x81045ead\n      eq\n      tag_5\n      jumpi\n      dup1\n      0x893d20e8\n      eq\n      tag_6\n      jumpi\n    tag_2:\n      0x00\n      dup1\n      revert\n        /* \"Market.sol\":4830:4940  function setOwner(address addressNewOwner) public onlyOwningMarketCan {... */\n    tag_3:\n      tag_7\n      0x04\n      dup1\n      calldatasize\n      sub\n      dup2\n      add\n      swap1\n      tag_8\n      swap2\n      swap1\n      tag_9\n      jump\t// in\n    tag_8:\n      tag_10\n      jump\t// in\n    tag_7:\n      stop\n        /* \"Market.sol\":5115:5315  function getNftInfo() public view returns (string memory, address, string memory, uint){... */\n    tag_4:\n      tag_11\n      tag_12\n      jump\t// in\n    tag_11:\n      mload(0x40)\n      tag_13\n      swap5\n      swap4\n      swap3\n      swap2\n      swap1\n      tag_14\n      jump\t// in\n    tag_13:\n      mload(0x40)\n      dup1\n      swap2\n      sub\n      swap1\n      return\n        /* \"Market.sol\":4946:5021  function getIndex() public view returns(uint) {... */\n    tag_5:\n      tag_15\n      tag_16\n      jump\t// in\n    tag_15:\n      mload(0x40)\n      tag_17\n      swap2\n      swap1\n      tag_18\n      jump\t// in\n    tag_17:\n      mload(0x40)\n      dup1\n      swap2\n      sub\n      swap1\n      return\n        /* \"Market.sol\":5027:5105  function getOwner() public view returns(address) {... */\n    tag_6:\n      tag_19\n      tag_20\n      jump\t// in\n    tag_19:\n      mload(0x40)\n      tag_21\n      swap2\n      swap1\n      tag_22\n      jump\t// in\n    tag_21:\n      mload(0x40)\n      dup1\n      swap2\n      sub\n      swap1\n      return\n        /* \"Market.sol\":4830:4940  function setOwner(address addressNewOwner) public onlyOwningMarketCan {... */\n    tag_10:\n        /* \"Market.sol\":4568:4574  market */\n      0x04\n      0x00\n      swap1\n      sload\n      swap1\n      0x0100\n      exp\n      swap1\n      div\n      0xffffffffffffffffffffffffffffffffffffffff\n      and\n        /* \"Market.sol\":4554:4574  msg.sender == market */\n      0xffffffffffffffffffffffffffffffffffffffff\n      and\n        /* \"Market.sol\":4554:4564  msg.sender */\n      caller\n        /* \"Market.sol\":4554:4574  msg.sender == market */\n      0xffffffffffffffffffffffffffffffffffffffff\n      and\n      eq\n        /* \"Market.sol\":4546:4575  require(msg.sender == market) */\n      tag_24\n      jumpi\n      0x00\n      dup1\n      revert\n    tag_24:\n        /* \"Market.sol\":4918:4933  addressNewOwner */\n      dup1\n        /* \"Market.sol\":4910:4915  owner */\n      0x01\n      0x00\n        /* \"Market.sol\":4910:4933  owner = addressNewOwner */\n      0x0100\n      exp\n      dup2\n      sload\n      dup2\n      0xffffffffffffffffffffffffffffffffffffffff\n      mul\n      not\n      and\n      swap1\n      dup4\n      0xffffffffffffffffffffffffffffffffffffffff\n      and\n      mul\n      or\n      swap1\n      sstore\n      pop\n        /* \"Market.sol\":4830:4940  function setOwner(address addressNewOwner) public onlyOwningMarketCan {... */\n      pop\n      jump\t// out\n        /* \"Market.sol\":5115:5315  function getNftInfo() public view returns (string memory, address, string memory, uint){... */\n    tag_12:\n        /* \"Market.sol\":5158:5171  string memory */\n      0x60\n        /* \"Market.sol\":5173:5180  address */\n      0x00\n        /* \"Market.sol\":5182:5195  string memory */\n      0x60\n        /* \"Market.sol\":5197:5201  uint */\n      0x00\n        /* \"Market.sol\":5233:5237  name */\n      dup1\n        /* \"Market.sol\":5251:5256  owner */\n      0x01\n      0x00\n      swap1\n      sload\n      swap1\n      0x0100\n      exp\n      swap1\n      div\n      0xffffffffffffffffffffffffffffffffffffffff\n      and\n        /* \"Market.sol\":5270:5279  imageHash */\n      0x02\n        /* \"Market.sol\":5293:5298  index */\n      sload(0x03)\n        /* \"Market.sol\":5212:5308  return (... */\n      dup4\n      dup1\n      sload\n      tag_27\n      swap1\n      tag_28\n      jump\t// in\n    tag_27:\n      dup1\n      0x1f\n      add\n      0x20\n      dup1\n      swap2\n      div\n      mul\n      0x20\n      add\n      mload(0x40)\n      swap1\n      dup2\n      add\n      0x40\n      mstore\n      dup1\n      swap3\n      swap2\n      swap1\n      dup2\n      dup2\n      mstore\n      0x20\n      add\n      dup3\n      dup1\n      sload\n      tag_29\n      swap1\n      tag_28\n      jump\t// in\n    tag_29:\n      dup1\n      iszero\n      tag_30\n      jumpi\n      dup1\n      0x1f\n      lt\n      tag_31\n      jumpi\n      0x0100\n      dup1\n      dup4\n      sload\n      div\n      mul\n      dup4\n      mstore\n      swap2\n      0x20\n      add\n      swap2\n      jump(tag_30)\n    tag_31:\n      dup3\n      add\n      swap2\n      swap1\n      0x00\n      mstore\n      keccak256(0x00, 0x20)\n      swap1\n    tag_32:\n      dup2\n      sload\n      dup2\n      mstore\n      swap1\n      0x01\n      add\n      swap1\n      0x20\n      add\n      dup1\n      dup4\n      gt\n      tag_32\n      jumpi\n      dup3\n      swap1\n      sub\n      0x1f\n      and\n      dup3\n      add\n      swap2\n    tag_30:\n      pop\n      pop\n      pop\n      pop\n      pop\n      swap4\n      pop\n      dup2\n      dup1\n      sload\n      tag_33\n      swap1\n      tag_28\n      jump\t// in\n    tag_33:\n      dup1\n      0x1f\n      add\n      0x20\n      dup1\n      swap2\n      div\n      mul\n      0x20\n      add\n      mload(0x40)\n      swap1\n      dup2\n      add\n      0x40\n      mstore\n      dup1\n      swap3\n      swap2\n      swap1\n      dup2\n      dup2\n      mstore\n      0x20\n      add\n      dup3\n      dup1\n      sload\n      tag_34\n      swap1\n      tag_28\n      jump\t// in\n    tag_34:\n      dup1\n      iszero\n      tag_35\n      jumpi\n      dup1\n      0x1f\n      lt\n      tag_36\n      jumpi\n      0x0100\n      dup1\n      dup4\n      sload\n      div\n      mul\n      dup4\n      mstore\n      swap2\n      0x20\n      add\n      swap2\n      jump(tag_35)\n    tag_36:\n      dup3\n      add\n      swap2\n      swap1\n      0x00\n      mstore\n      keccak256(0x00, 0x20)\n      swap1\n    tag_37:\n      dup2\n      sload\n      dup2\n      mstore\n      swap1\n      0x01\n      add\n      swap1\n      0x20\n      add\n      dup1\n      dup4\n      gt\n      tag_37\n      jumpi\n      dup3\n      swap1\n      sub\n      0x1f\n      and\n      dup3\n      add\n      swap2\n    tag_35:\n      pop\n      pop\n      pop\n      pop\n      pop\n      swap2\n      pop\n      swap4\n      pop\n      swap4\n      pop\n      swap4\n      pop\n      swap4\n      pop\n        /* \"Market.sol\":5115:5315  function getNftInfo() public view returns (string memory, address, string memory, uint){... */\n      swap1\n      swap2\n      swap3\n      swap4\n      jump\t// out\n        /* \"Market.sol\":4946:5021  function getIndex() public view returns(uint) {... */\n    tag_16:\n        /* \"Market.sol\":4986:4990  uint */\n      0x00\n        /* \"Market.sol\":5009:5014  index */\n      sload(0x03)\n        /* \"Market.sol\":5002:5014  return index */\n      swap1\n      pop\n        /* \"Market.sol\":4946:5021  function getIndex() public view returns(uint) {... */\n      swap1\n      jump\t// out\n        /* \"Market.sol\":5027:5105  function getOwner() public view returns(address) {... */\n    tag_20:\n        /* \"Market.sol\":5067:5074  address */\n      0x00\n        /* \"Market.sol\":5093:5098  owner */\n      0x01\n      0x00\n      swap1\n      sload\n      swap1\n      0x0100\n      exp\n      swap1\n      div\n      0xffffffffffffffffffffffffffffffffffffffff\n      and\n        /* \"Market.sol\":5086:5098  return owner */\n      swap1\n      pop\n        /* \"Market.sol\":5027:5105  function getOwner() public view returns(address) {... */\n      swap1\n      jump\t// out\n        /* \"#utility.yul\":88:205   */\n    tag_41:\n        /* \"#utility.yul\":197:198   */\n      0x00\n        /* \"#utility.yul\":194:195   */\n      dup1\n        /* \"#utility.yul\":187:199   */\n      revert\n        /* \"#utility.yul\":334:460   */\n    tag_43:\n        /* \"#utility.yul\":371:378   */\n      0x00\n        /* \"#utility.yul\":411:453   */\n      0xffffffffffffffffffffffffffffffffffffffff\n        /* \"#utility.yul\":404:409   */\n      dup3\n        /* \"#utility.yul\":400:454   */\n      and\n        /* \"#utility.yul\":389:454   */\n      swap1\n      pop\n        /* \"#utility.yul\":334:460   */\n      swap2\n      swap1\n      pop\n      jump\t// out\n        /* \"#utility.yul\":466:562   */\n    tag_44:\n        /* \"#utility.yul\":503:510   */\n      0x00\n        /* \"#utility.yul\":532:556   */\n      tag_62\n        /* \"#utility.yul\":550:555   */\n      dup3\n        /* \"#utility.yul\":532:556   */\n      tag_43\n      jump\t// in\n    tag_62:\n        /* \"#utility.yul\":521:556   */\n      swap1\n      pop\n        /* \"#utility.yul\":466:562   */\n      swap2\n      swap1\n      pop\n      jump\t// out\n        /* \"#utility.yul\":568:690   */\n    tag_45:\n        /* \"#utility.yul\":641:665   */\n      tag_64\n        /* \"#utility.yul\":659:664   */\n      dup2\n        /* \"#utility.yul\":641:665   */\n      tag_44\n      jump\t// in\n    tag_64:\n        /* \"#utility.yul\":634:639   */\n      dup2\n        /* \"#utility.yul\":631:666   */\n      eq\n        /* \"#utility.yul\":621:684   */\n      tag_65\n      jumpi\n        /* \"#utility.yul\":680:681   */\n      0x00\n        /* \"#utility.yul\":677:678   */\n      dup1\n        /* \"#utility.yul\":670:682   */\n      revert\n        /* \"#utility.yul\":621:684   */\n    tag_65:\n        /* \"#utility.yul\":568:690   */\n      pop\n      jump\t// out\n        /* \"#utility.yul\":696:835   */\n    tag_46:\n        /* \"#utility.yul\":742:747   */\n      0x00\n        /* \"#utility.yul\":780:786   */\n      dup2\n        /* \"#utility.yul\":767:787   */\n      calldataload\n        /* \"#utility.yul\":758:787   */\n      swap1\n      pop\n        /* \"#utility.yul\":796:829   */\n      tag_67\n        /* \"#utility.yul\":823:828   */\n      dup2\n        /* \"#utility.yul\":796:829   */\n      tag_45\n      jump\t// in\n    tag_67:\n        /* \"#utility.yul\":696:835   */\n      swap3\n      swap2\n      pop\n      pop\n      jump\t// out\n        /* \"#utility.yul\":841:1170   */\n    tag_9:\n        /* \"#utility.yul\":900:906   */\n      0x00\n        /* \"#utility.yul\":949:951   */\n      0x20\n        /* \"#utility.yul\":937:946   */\n      dup3\n        /* \"#utility.yul\":928:935   */\n      dup5\n        /* \"#utility.yul\":924:947   */\n      sub\n        /* \"#utility.yul\":920:952   */\n      slt\n        /* \"#utility.yul\":917:1036   */\n      iszero\n      tag_69\n      jumpi\n        /* \"#utility.yul\":955:1034   */\n      tag_70\n      tag_41\n      jump\t// in\n    tag_70:\n        /* \"#utility.yul\":917:1036   */\n    tag_69:\n        /* \"#utility.yul\":1075:1076   */\n      0x00\n        /* \"#utility.yul\":1100:1153   */\n      tag_71\n        /* \"#utility.yul\":1145:1152   */\n      dup5\n        /* \"#utility.yul\":1136:1142   */\n      dup3\n        /* \"#utility.yul\":1125:1134   */\n      dup6\n        /* \"#utility.yul\":1121:1143   */\n      add\n        /* \"#utility.yul\":1100:1153   */\n      tag_46\n      jump\t// in\n    tag_71:\n        /* \"#utility.yul\":1090:1153   */\n      swap2\n      pop\n        /* \"#utility.yul\":1046:1163   */\n      pop\n        /* \"#utility.yul\":841:1170   */\n      swap3\n      swap2\n      pop\n      pop\n      jump\t// out\n        /* \"#utility.yul\":1176:1275   */\n    tag_47:\n        /* \"#utility.yul\":1228:1234   */\n      0x00\n        /* \"#utility.yul\":1262:1267   */\n      dup2\n        /* \"#utility.yul\":1256:1268   */\n      mload\n        /* \"#utility.yul\":1246:1268   */\n      swap1\n      pop\n        /* \"#utility.yul\":1176:1275   */\n      swap2\n      swap1\n      pop\n      jump\t// out\n        /* \"#utility.yul\":1281:1450   */\n    tag_48:\n        /* \"#utility.yul\":1365:1376   */\n      0x00\n        /* \"#utility.yul\":1399:1405   */\n      dup3\n        /* \"#utility.yul\":1394:1397   */\n      dup3\n        /* \"#utility.yul\":1387:1406   */\n      mstore\n        /* \"#utility.yul\":1439:1443   */\n      0x20\n        /* \"#utility.yul\":1434:1437   */\n      dup3\n        /* \"#utility.yul\":1430:1444   */\n      add\n        /* \"#utility.yul\":1415:1444   */\n      swap1\n      pop\n        /* \"#utility.yul\":1281:1450   */\n      swap3\n      swap2\n      pop\n      pop\n      jump\t// out\n        /* \"#utility.yul\":1456:1763   */\n    tag_49:\n        /* \"#utility.yul\":1524:1525   */\n      0x00\n        /* \"#utility.yul\":1534:1647   */\n    tag_75:\n        /* \"#utility.yul\":1548:1554   */\n      dup4\n        /* \"#utility.yul\":1545:1546   */\n      dup2\n        /* \"#utility.yul\":1542:1555   */\n      lt\n        /* \"#utility.yul\":1534:1647   */\n      iszero\n      tag_77\n      jumpi\n        /* \"#utility.yul\":1633:1634   */\n      dup1\n        /* \"#utility.yul\":1628:1631   */\n      dup3\n        /* \"#utility.yul\":1624:1635   */\n      add\n        /* \"#utility.yul\":1618:1636   */\n      mload\n        /* \"#utility.yul\":1614:1615   */\n      dup2\n        /* \"#utility.yul\":1609:1612   */\n      dup5\n        /* \"#utility.yul\":1605:1616   */\n      add\n        /* \"#utility.yul\":1598:1637   */\n      mstore\n        /* \"#utility.yul\":1570:1572   */\n      0x20\n        /* \"#utility.yul\":1567:1568   */\n      dup2\n        /* \"#utility.yul\":1563:1573   */\n      add\n        /* \"#utility.yul\":1558:1573   */\n      swap1\n      pop\n        /* \"#utility.yul\":1534:1647   */\n      jump(tag_75)\n    tag_77:\n        /* \"#utility.yul\":1665:1671   */\n      dup4\n        /* \"#utility.yul\":1662:1663   */\n      dup2\n        /* \"#utility.yul\":1659:1672   */\n      gt\n        /* \"#utility.yul\":1656:1757   */\n      iszero\n      tag_78\n      jumpi\n        /* \"#utility.yul\":1745:1746   */\n      0x00\n        /* \"#utility.yul\":1736:1742   */\n      dup5\n        /* \"#utility.yul\":1731:1734   */\n      dup5\n        /* \"#utility.yul\":1727:1743   */\n      add\n        /* \"#utility.yul\":1720:1747   */\n      mstore\n        /* \"#utility.yul\":1656:1757   */\n    tag_78:\n        /* \"#utility.yul\":1505:1763   */\n      pop\n        /* \"#utility.yul\":1456:1763   */\n      pop\n      pop\n      pop\n      jump\t// out\n        /* \"#utility.yul\":1769:1871   */\n    tag_50:\n        /* \"#utility.yul\":1810:1816   */\n      0x00\n        /* \"#utility.yul\":1861:1863   */\n      0x1f\n        /* \"#utility.yul\":1857:1864   */\n      not\n        /* \"#utility.yul\":1852:1854   */\n      0x1f\n        /* \"#utility.yul\":1845:1850   */\n      dup4\n        /* \"#utility.yul\":1841:1855   */\n      add\n        /* \"#utility.yul\":1837:1865   */\n      and\n        /* \"#utility.yul\":1827:1865   */\n      swap1\n      pop\n        /* \"#utility.yul\":1769:1871   */\n      swap2\n      swap1\n      pop\n      jump\t// out\n        /* \"#utility.yul\":1877:2241   */\n    tag_51:\n        /* \"#utility.yul\":1965:1968   */\n      0x00\n        /* \"#utility.yul\":1993:2032   */\n      tag_81\n        /* \"#utility.yul\":2026:2031   */\n      dup3\n        /* \"#utility.yul\":1993:2032   */\n      tag_47\n      jump\t// in\n    tag_81:\n        /* \"#utility.yul\":2048:2119   */\n      tag_82\n        /* \"#utility.yul\":2112:2118   */\n      dup2\n        /* \"#utility.yul\":2107:2110   */\n      dup6\n        /* \"#utility.yul\":2048:2119   */\n      tag_48\n      jump\t// in\n    tag_82:\n        /* \"#utility.yul\":2041:2119   */\n      swap4\n      pop\n        /* \"#utility.yul\":2128:2180   */\n      tag_83\n        /* \"#utility.yul\":2173:2179   */\n      dup2\n        /* \"#utility.yul\":2168:2171   */\n      dup6\n        /* \"#utility.yul\":2161:2165   */\n      0x20\n        /* \"#utility.yul\":2154:2159   */\n      dup7\n        /* \"#utility.yul\":2150:2166   */\n      add\n        /* \"#utility.yul\":2128:2180   */\n      tag_49\n      jump\t// in\n    tag_83:\n        /* \"#utility.yul\":2205:2234   */\n      tag_84\n        /* \"#utility.yul\":2227:2233   */\n      dup2\n        /* \"#utility.yul\":2205:2234   */\n      tag_50\n      jump\t// in\n    tag_84:\n        /* \"#utility.yul\":2200:2203   */\n      dup5\n        /* \"#utility.yul\":2196:2235   */\n      add\n        /* \"#utility.yul\":2189:2235   */\n      swap2\n      pop\n        /* \"#utility.yul\":1969:2241   */\n      pop\n        /* \"#utility.yul\":1877:2241   */\n      swap3\n      swap2\n      pop\n      pop\n      jump\t// out\n        /* \"#utility.yul\":2247:2365   */\n    tag_52:\n        /* \"#utility.yul\":2334:2358   */\n      tag_86\n        /* \"#utility.yul\":2352:2357   */\n      dup2\n        /* \"#utility.yul\":2334:2358   */\n      tag_44\n      jump\t// in\n    tag_86:\n        /* \"#utility.yul\":2329:2332   */\n      dup3\n        /* \"#utility.yul\":2322:2359   */\n      mstore\n        /* \"#utility.yul\":2247:2365   */\n      pop\n      pop\n      jump\t// out\n        /* \"#utility.yul\":2371:2448   */\n    tag_53:\n        /* \"#utility.yul\":2408:2415   */\n      0x00\n        /* \"#utility.yul\":2437:2442   */\n      dup2\n        /* \"#utility.yul\":2426:2442   */\n      swap1\n      pop\n        /* \"#utility.yul\":2371:2448   */\n      swap2\n      swap1\n      pop\n      jump\t// out\n        /* \"#utility.yul\":2454:2572   */\n    tag_54:\n        /* \"#utility.yul\":2541:2565   */\n      tag_89\n        /* \"#utility.yul\":2559:2564   */\n      dup2\n        /* \"#utility.yul\":2541:2565   */\n      tag_53\n      jump\t// in\n    tag_89:\n        /* \"#utility.yul\":2536:2539   */\n      dup3\n        /* \"#utility.yul\":2529:2566   */\n      mstore\n        /* \"#utility.yul\":2454:2572   */\n      pop\n      pop\n      jump\t// out\n        /* \"#utility.yul\":2578:3313   */\n    tag_14:\n        /* \"#utility.yul\":2795:2799   */\n      0x00\n        /* \"#utility.yul\":2833:2836   */\n      0x80\n        /* \"#utility.yul\":2822:2831   */\n      dup3\n        /* \"#utility.yul\":2818:2837   */\n      add\n        /* \"#utility.yul\":2810:2837   */\n      swap1\n      pop\n        /* \"#utility.yul\":2883:2892   */\n      dup2\n        /* \"#utility.yul\":2877:2881   */\n      dup2\n        /* \"#utility.yul\":2873:2893   */\n      sub\n        /* \"#utility.yul\":2869:2870   */\n      0x00\n        /* \"#utility.yul\":2858:2867   */\n      dup4\n        /* \"#utility.yul\":2854:2871   */\n      add\n        /* \"#utility.yul\":2847:2894   */\n      mstore\n        /* \"#utility.yul\":2911:2989   */\n      tag_91\n        /* \"#utility.yul\":2984:2988   */\n      dup2\n        /* \"#utility.yul\":2975:2981   */\n      dup8\n        /* \"#utility.yul\":2911:2989   */\n      tag_51\n      jump\t// in\n    tag_91:\n        /* \"#utility.yul\":2903:2989   */\n      swap1\n      pop\n        /* \"#utility.yul\":2999:3071   */\n      tag_92\n        /* \"#utility.yul\":3067:3069   */\n      0x20\n        /* \"#utility.yul\":3056:3065   */\n      dup4\n        /* \"#utility.yul\":3052:3070   */\n      add\n        /* \"#utility.yul\":3043:3049   */\n      dup7\n        /* \"#utility.yul\":2999:3071   */\n      tag_52\n      jump\t// in\n    tag_92:\n        /* \"#utility.yul\":3118:3127   */\n      dup2\n        /* \"#utility.yul\":3112:3116   */\n      dup2\n        /* \"#utility.yul\":3108:3128   */\n      sub\n        /* \"#utility.yul\":3103:3105   */\n      0x40\n        /* \"#utility.yul\":3092:3101   */\n      dup4\n        /* \"#utility.yul\":3088:3106   */\n      add\n        /* \"#utility.yul\":3081:3129   */\n      mstore\n        /* \"#utility.yul\":3146:3224   */\n      tag_93\n        /* \"#utility.yul\":3219:3223   */\n      dup2\n        /* \"#utility.yul\":3210:3216   */\n      dup6\n        /* \"#utility.yul\":3146:3224   */\n      tag_51\n      jump\t// in\n    tag_93:\n        /* \"#utility.yul\":3138:3224   */\n      swap1\n      pop\n        /* \"#utility.yul\":3234:3306   */\n      tag_94\n        /* \"#utility.yul\":3302:3304   */\n      0x60\n        /* \"#utility.yul\":3291:3300   */\n      dup4\n        /* \"#utility.yul\":3287:3305   */\n      add\n        /* \"#utility.yul\":3278:3284   */\n      dup5\n        /* \"#utility.yul\":3234:3306   */\n      tag_54\n      jump\t// in\n    tag_94:\n        /* \"#utility.yul\":2578:3313   */\n      swap6\n      swap5\n      pop\n      pop\n      pop\n      pop\n      pop\n      jump\t// out\n        /* \"#utility.yul\":3319:3541   */\n    tag_18:\n        /* \"#utility.yul\":3412:3416   */\n      0x00\n        /* \"#utility.yul\":3450:3452   */\n      0x20\n        /* \"#utility.yul\":3439:3448   */\n      dup3\n        /* \"#utility.yul\":3435:3453   */\n      add\n        /* \"#utility.yul\":3427:3453   */\n      swap1\n      pop\n        /* \"#utility.yul\":3463:3534   */\n      tag_96\n        /* \"#utility.yul\":3531:3532   */\n      0x00\n        /* \"#utility.yul\":3520:3529   */\n      dup4\n        /* \"#utility.yul\":3516:3533   */\n      add\n        /* \"#utility.yul\":3507:3513   */\n      dup5\n        /* \"#utility.yul\":3463:3534   */\n      tag_54\n      jump\t// in\n    tag_96:\n        /* \"#utility.yul\":3319:3541   */\n      swap3\n      swap2\n      pop\n      pop\n      jump\t// out\n        /* \"#utility.yul\":3547:3769   */\n    tag_22:\n        /* \"#utility.yul\":3640:3644   */\n      0x00\n        /* \"#utility.yul\":3678:3680   */\n      0x20\n        /* \"#utility.yul\":3667:3676   */\n      dup3\n        /* \"#utility.yul\":3663:3681   */\n      add\n        /* \"#utility.yul\":3655:3681   */\n      swap1\n      pop\n        /* \"#utility.yul\":3691:3762   */\n      tag_98\n        /* \"#utility.yul\":3759:3760   */\n      0x00\n        /* \"#utility.yul\":3748:3757   */\n      dup4\n        /* \"#utility.yul\":3744:3761   */\n      add\n        /* \"#utility.yul\":3735:3741   */\n      dup5\n        /* \"#utility.yul\":3691:3762   */\n      tag_52\n      jump\t// in\n    tag_98:\n        /* \"#utility.yul\":3547:3769   */\n      swap3\n      swap2\n      pop\n      pop\n      jump\t// out\n        /* \"#utility.yul\":3775:3955   */\n    tag_55:\n        /* \"#utility.yul\":3823:3900   */\n      0x4e487b7100000000000000000000000000000000000000000000000000000000\n        /* \"#utility.yul\":3820:3821   */\n      0x00\n        /* \"#utility.yul\":3813:3901   */\n      mstore\n        /* \"#utility.yul\":3920:3924   */\n      0x22\n        /* \"#utility.yul\":3917:3918   */\n      0x04\n        /* \"#utility.yul\":3910:3925   */\n      mstore\n        /* \"#utility.yul\":3944:3948   */\n      0x24\n        /* \"#utility.yul\":3941:3942   */\n      0x00\n        /* \"#utility.yul\":3934:3949   */\n      revert\n        /* \"#utility.yul\":3961:4281   */\n    tag_28:\n        /* \"#utility.yul\":4005:4011   */\n      0x00\n        /* \"#utility.yul\":4042:4043   */\n      0x02\n        /* \"#utility.yul\":4036:4040   */\n      dup3\n        /* \"#utility.yul\":4032:4044   */\n      div\n        /* \"#utility.yul\":4022:4044   */\n      swap1\n      pop\n        /* \"#utility.yul\":4089:4090   */\n      0x01\n        /* \"#utility.yul\":4083:4087   */\n      dup3\n        /* \"#utility.yul\":4079:4091   */\n      and\n        /* \"#utility.yul\":4110:4128   */\n      dup1\n        /* \"#utility.yul\":4100:4181   */\n      tag_101\n      jumpi\n        /* \"#utility.yul\":4166:4170   */\n      0x7f\n        /* \"#utility.yul\":4158:4164   */\n      dup3\n        /* \"#utility.yul\":4154:4171   */\n      and\n        /* \"#utility.yul\":4144:4171   */\n      swap2\n      pop\n        /* \"#utility.yul\":4100:4181   */\n    tag_101:\n        /* \"#utility.yul\":4228:4230   */\n      0x20\n        /* \"#utility.yul\":4220:4226   */\n      dup3\n        /* \"#utility.yul\":4217:4231   */\n      lt\n        /* \"#utility.yul\":4197:4215   */\n      dup2\n        /* \"#utility.yul\":4194:4232   */\n      sub\n        /* \"#utility.yul\":4191:4275   */\n      tag_102\n      jumpi\n        /* \"#utility.yul\":4247:4265   */\n      tag_103\n      tag_55\n      jump\t// in\n    tag_103:\n        /* \"#utility.yul\":4191:4275   */\n    tag_102:\n        /* \"#utility.yul\":4012:4281   */\n      pop\n        /* \"#utility.yul\":3961:4281   */\n      swap2\n      swap1\n      pop\n      jump\t// out\n\n    auxdata: 0xa2646970667358221220aa632d4082d4f8e38eddc69c848aa3daae5e93e868943963f32bef1ed9259c9164736f6c634300080f0033\n}\n","bytecode":{"linkReferences":{},"object":"60806040523480156200001157600080fd5b5060405162000c3538038062000c358339818101604052810190620000379190620002ea565b8360009081620000489190620005db565b5082600290816200005a9190620005db565b508160038190555080600460006101000a81548173ffffffffffffffffffffffffffffffffffffffff021916908373ffffffffffffffffffffffffffffffffffffffff16021790555050505050620006c2565b6000604051905090565b600080fd5b600080fd5b600080fd5b600080fd5b6000601f19601f8301169050919050565b7f4e487b7100000000000000000000000000000000000000000000000000000000600052604160045260246000fd5b6200011682620000cb565b810181811067ffffffffffffffff82111715620001385762000137620000dc565b5b80604052505050565b60006200014d620000ad565b90506200015b82826200010b565b919050565b600067ffffffffffffffff8211156200017e576200017d620000dc565b5b6200018982620000cb565b9050602081019050919050565b60005b83811015620001b657808201518184015260208101905062000199565b83811115620001c6576000848401525b50505050565b6000620001e3620001dd8462000160565b62000141565b905082815260208101848484011115620002025762000201620000c6565b5b6200020f84828562000196565b509392505050565b600082601f8301126200022f576200022e620000c1565b5b815162000241848260208601620001cc565b91505092915050565b6000819050919050565b6200025f816200024a565b81146200026b57600080fd5b50565b6000815190506200027f8162000254565b92915050565b600073ffffffffffffffffffffffffffffffffffffffff82169050919050565b6000620002b28262000285565b9050919050565b620002c481620002a5565b8114620002d057600080fd5b50565b600081519050620002e481620002b9565b92915050565b60008060008060808587031215620003075762000306620000b7565b5b600085015167ffffffffffffffff811115620003285762000327620000bc565b5b620003368782880162000217565b945050602085015167ffffffffffffffff8111156200035a5762000359620000bc565b5b620003688782880162000217565b93505060406200037b878288016200026e565b92505060606200038e87828801620002d3565b91505092959194509250565b600081519050919050565b7f4e487b7100000000000000000000000000000000000000000000000000000000600052602260045260246000fd5b60006002820490506001821680620003ed57607f821691505b602082108103620004035762000402620003a5565b5b50919050565b60008190508160005260206000209050919050565b60006020601f8301049050919050565b600082821b905092915050565b6000600883026200046d7fffffffffffffffffffffffffffffffffffffffffffffffffffffffffffffffff826200042e565b6200047986836200042e565b95508019841693508086168417925050509392505050565b6000819050919050565b6000620004bc620004b6620004b0846200024a565b62000491565b6200024a565b9050919050565b6000819050919050565b620004d8836200049b565b620004f0620004e782620004c3565b8484546200043b565b825550505050565b600090565b62000507620004f8565b62000514818484620004cd565b505050565b5b818110156200053c5762000530600082620004fd565b6001810190506200051a565b5050565b601f8211156200058b57620005558162000409565b62000560846200041e565b8101602085101562000570578190505b620005886200057f856200041e565b83018262000519565b50505b505050565b600082821c905092915050565b6000620005b06000198460080262000590565b1980831691505092915050565b6000620005cb83836200059d565b9150826002028217905092915050565b620005e6826200039a565b67ffffffffffffffff811115620006025762000601620000dc565b5b6200060e8254620003d4565b6200061b82828562000540565b600060209050601f8311600181146200065357600084156200063e578287015190505b6200064a8582620005bd565b865550620006ba565b601f198416620006638662000409565b60005b828110156200068d5784890151825560018201915060208501945060208101905062000666565b86831015620006ad5784890151620006a9601f8916826200059d565b8355505b6001600288020188555050505b505050505050565b61056380620006d26000396000f3fe608060405234801561001057600080fd5b506004361061004c5760003560e01c806313af4035146100515780637ca5685f1461006d57806381045ead1461008e578063893d20e8146100ac575b600080fd5b61006b60048036038101906100669190610356565b6100ca565b005b610075610168565b6040516100859493929190610444565b60405180910390f35b6100966102bf565b6040516100a39190610497565b60405180910390f35b6100b46102c9565b6040516100c191906104b2565b60405180910390f35b600460009054906101000a900473ffffffffffffffffffffffffffffffffffffffff1673ffffffffffffffffffffffffffffffffffffffff163373ffffffffffffffffffffffffffffffffffffffff161461012457600080fd5b80600160006101000a81548173ffffffffffffffffffffffffffffffffffffffff021916908373ffffffffffffffffffffffffffffffffffffffff16021790555050565b606060006060600080600160009054906101000a900473ffffffffffffffffffffffffffffffffffffffff1660026003548380546101a5906104fc565b80601f01602080910402602001604051908101604052809291908181526020018280546101d1906104fc565b801561021e5780601f106101f35761010080835404028352916020019161021e565b820191906000526020600020905b81548152906001019060200180831161020157829003601f168201915b50505050509350818054610231906104fc565b80601f016020809104026020016040519081016040528092919081815260200182805461025d906104fc565b80156102aa5780601f1061027f576101008083540402835291602001916102aa565b820191906000526020600020905b81548152906001019060200180831161028d57829003601f168201915b50505050509150935093509350935090919293565b6000600354905090565b6000600160009054906101000a900473ffffffffffffffffffffffffffffffffffffffff16905090565b600080fd5b600073ffffffffffffffffffffffffffffffffffffffff82169050919050565b6000610323826102f8565b9050919050565b61033381610318565b811461033e57600080fd5b50565b6000813590506103508161032a565b92915050565b60006020828403121561036c5761036b6102f3565b5b600061037a84828501610341565b91505092915050565b600081519050919050565b600082825260208201905092915050565b60005b838110156103bd5780820151818401526020810190506103a2565b838111156103cc576000848401525b50505050565b6000601f19601f8301169050919050565b60006103ee82610383565b6103f8818561038e565b935061040881856020860161039f565b610411816103d2565b840191505092915050565b61042581610318565b82525050565b6000819050919050565b61043e8161042b565b82525050565b6000608082019050818103600083015261045e81876103e3565b905061046d602083018661041c565b818103604083015261047f81856103e3565b905061048e6060830184610435565b95945050505050565b60006020820190506104ac6000830184610435565b92915050565b60006020820190506104c7600083018461041c565b92915050565b7f4e487b7100000000000000000000000000000000000000000000000000000000600052602260045260246000fd5b6000600282049050600182168061051457607f821691505b602082108103610527576105266104cd565b5b5091905056fea2646970667358221220aa632d4082d4f8e38eddc69c848aa3daae5e93e868943963f32bef1ed9259c9164736f6c634300080f0033","opcodes":"PUSH1 0x80 PUSH1 0x40 MSTORE CALLVALUE DUP1 ISZERO PUSH3 0x11 JUMPI PUSH1 0x0 DUP1 REVERT JUMPDEST POP PUSH1 0x40 MLOAD PUSH3 0xC35 CODESIZE SUB DUP1 PUSH3 0xC35 DUP4 CODECOPY DUP2 DUP2 ADD PUSH1 0x40 MSTORE DUP2 ADD SWAP1 PUSH3 0x37 SWAP2 SWAP1 PUSH3 0x2EA JUMP JUMPDEST DUP4 PUSH1 0x0 SWAP1 DUP2 PUSH3 0x48 SWAP2 SWAP1 PUSH3 0x5DB JUMP JUMPDEST POP DUP3 PUSH1 0x2 SWAP1 DUP2 PUSH3 0x5A SWAP2 SWAP1 PUSH3 0x5DB JUMP JUMPDEST POP DUP2 PUSH1 0x3 DUP2 SWAP1 SSTORE POP DUP1 PUSH1 0x4 PUSH1 0x0 PUSH2 0x100 EXP DUP2 SLOAD DUP2 PUSH20 0xFFFFFFFFFFFFFFFFFFFFFFFFFFFFFFFFFFFFFFFF MUL NOT AND SWAP1 DUP4 PUSH20 0xFFFFFFFFFFFFFFFFFFFFFFFFFFFFFFFFFFFFFFFF AND MUL OR SWAP1 SSTORE POP POP POP POP POP PUSH3 0x6C2 JUMP JUMPDEST PUSH1 0x0 PUSH1 0x40 MLOAD SWAP1 POP SWAP1 JUMP JUMPDEST PUSH1 0x0 DUP1 REVERT JUMPDEST PUSH1 0x0 DUP1 REVERT JUMPDEST PUSH1 0x0 DUP1 REVERT JUMPDEST PUSH1 0x0 DUP1 REVERT JUMPDEST PUSH1 0x0 PUSH1 0x1F NOT PUSH1 0x1F DUP4 ADD AND SWAP1 POP SWAP2 SWAP1 POP JUMP JUMPDEST PUSH32 0x4E487B7100000000000000000000000000000000000000000000000000000000 PUSH1 0x0 MSTORE PUSH1 0x41 PUSH1 0x4 MSTORE PUSH1 0x24 PUSH1 0x0 REVERT JUMPDEST PUSH3 0x116 DUP3 PUSH3 0xCB JUMP JUMPDEST DUP2 ADD DUP2 DUP2 LT PUSH8 0xFFFFFFFFFFFFFFFF DUP3 GT OR ISZERO PUSH3 0x138 JUMPI PUSH3 0x137 PUSH3 0xDC JUMP JUMPDEST JUMPDEST DUP1 PUSH1 0x40 MSTORE POP POP POP JUMP JUMPDEST PUSH1 0x0 PUSH3 0x14D PUSH3 0xAD JUMP JUMPDEST SWAP1 POP PUSH3 0x15B DUP3 DUP3 PUSH3 0x10B JUMP JUMPDEST SWAP2 SWAP1 POP JUMP JUMPDEST PUSH1 0x0 PUSH8 0xFFFFFFFFFFFFFFFF DUP3 GT ISZERO PUSH3 0x17E JUMPI PUSH3 0x17D PUSH3 0xDC JUMP JUMPDEST JUMPDEST PUSH3 0x189 DUP3 PUSH3 0xCB JUMP JUMPDEST SWAP1 POP PUSH1 0x20 DUP2 ADD SWAP1 POP SWAP2 SWAP1 POP JUMP JUMPDEST PUSH1 0x0 JUMPDEST DUP4 DUP2 LT ISZERO PUSH3 0x1B6 JUMPI DUP1 DUP3 ADD MLOAD DUP2 DUP5 ADD MSTORE PUSH1 0x20 DUP2 ADD SWAP1 POP PUSH3 0x199 JUMP JUMPDEST DUP4 DUP2 GT ISZERO PUSH3 0x1C6 JUMPI PUSH1 0x0 DUP5 DUP5 ADD MSTORE JUMPDEST POP POP POP POP JUMP JUMPDEST PUSH1 0x0 PUSH3 0x1E3 PUSH3 0x1DD DUP5 PUSH3 0x160 JUMP JUMPDEST PUSH3 0x141 JUMP JUMPDEST SWAP1 POP DUP3 DUP2 MSTORE PUSH1 0x20 DUP2 ADD DUP5 DUP5 DUP5 ADD GT ISZERO PUSH3 0x202 JUMPI PUSH3 0x201 PUSH3 0xC6 JUMP JUMPDEST JUMPDEST PUSH3 0x20F DUP5 DUP3 DUP6 PUSH3 0x196 JUMP JUMPDEST POP SWAP4 SWAP3 POP POP POP JUMP JUMPDEST PUSH1 0x0 DUP3 PUSH1 0x1F DUP4 ADD SLT PUSH3 0x22F JUMPI PUSH3 0x22E PUSH3 0xC1 JUMP JUMPDEST JUMPDEST DUP2 MLOAD PUSH3 0x241 DUP5 DUP3 PUSH1 0x20 DUP7 ADD PUSH3 0x1CC JUMP JUMPDEST SWAP2 POP POP SWAP3 SWAP2 POP POP JUMP JUMPDEST PUSH1 0x0 DUP2 SWAP1 POP SWAP2 SWAP1 POP JUMP JUMPDEST PUSH3 0x25F DUP2 PUSH3 0x24A JUMP JUMPDEST DUP2 EQ PUSH3 0x26B JUMPI PUSH1 0x0 DUP1 REVERT JUMPDEST POP JUMP JUMPDEST PUSH1 0x0 DUP2 MLOAD SWAP1 POP PUSH3 0x27F DUP2 PUSH3 0x254 JUMP JUMPDEST SWAP3 SWAP2 POP POP JUMP JUMPDEST PUSH1 0x0 PUSH20 0xFFFFFFFFFFFFFFFFFFFFFFFFFFFFFFFFFFFFFFFF DUP3 AND SWAP1 POP SWAP2 SWAP1 POP JUMP JUMPDEST PUSH1 0x0 PUSH3 0x2B2 DUP3 PUSH3 0x285 JUMP JUMPDEST SWAP1 POP SWAP2 SWAP1 POP JUMP JUMPDEST PUSH3 0x2C4 DUP2 PUSH3 0x2A5 JUMP JUMPDEST DUP2 EQ PUSH3 0x2D0 JUMPI PUSH1 0x0 DUP1 REVERT JUMPDEST POP JUMP JUMPDEST PUSH1 0x0 DUP2 MLOAD SWAP1 POP PUSH3 0x2E4 DUP2 PUSH3 0x2B9 JUMP JUMPDEST SWAP3 SWAP2 POP POP JUMP JUMPDEST PUSH1 0x0 DUP1 PUSH1 0x0 DUP1 PUSH1 0x80 DUP6 DUP8 SUB SLT ISZERO PUSH3 0x307 JUMPI PUSH3 0x306 PUSH3 0xB7 JUMP JUMPDEST JUMPDEST PUSH1 0x0 DUP6 ADD MLOAD PUSH8 0xFFFFFFFFFFFFFFFF DUP2 GT ISZERO PUSH3 0x328 JUMPI PUSH3 0x327 PUSH3 0xBC JUMP JUMPDEST JUMPDEST PUSH3 0x336 DUP8 DUP3 DUP9 ADD PUSH3 0x217 JUMP JUMPDEST SWAP5 POP POP PUSH1 0x20 DUP6 ADD MLOAD PUSH8 0xFFFFFFFFFFFFFFFF DUP2 GT ISZERO PUSH3 0x35A JUMPI PUSH3 0x359 PUSH3 0xBC JUMP JUMPDEST JUMPDEST PUSH3 0x368 DUP8 DUP3 DUP9 ADD PUSH3 0x217 JUMP JUMPDEST SWAP4 POP POP PUSH1 0x40 PUSH3 0x37B DUP8 DUP3 DUP9 ADD PUSH3 0x26E JUMP JUMPDEST SWAP3 POP POP PUSH1 0x60 PUSH3 0x38E DUP8 DUP3 DUP9 ADD PUSH3 0x2D3 JUMP JUMPDEST SWAP2 POP POP SWAP3 SWAP6 SWAP2 SWAP5 POP SWAP3 POP JUMP JUMPDEST PUSH1 0x0 DUP2 MLOAD SWAP1 POP SWAP2 SWAP1 POP JUMP JUMPDEST PUSH32 0x4E487B7100000000000000000000000000000000000000000000000000000000 PUSH1 0x0 MSTORE PUSH1 0x22 PUSH1 0x4 MSTORE PUSH1 0x24 PUSH1 0x0 REVERT JUMPDEST PUSH1 0x0 PUSH1 0x2 DUP3 DIV SWAP1 POP PUSH1 0x1 DUP3 AND DUP1 PUSH3 0x3ED JUMPI PUSH1 0x7F DUP3 AND SWAP2 POP JUMPDEST PUSH1 0x20 DUP3 LT DUP2 SUB PUSH3 0x403 JUMPI PUSH3 0x402 PUSH3 0x3A5 JUMP JUMPDEST JUMPDEST POP SWAP2 SWAP1 POP JUMP JUMPDEST PUSH1 0x0 DUP2 SWAP1 POP DUP2 PUSH1 0x0 MSTORE PUSH1 0x20 PUSH1 0x0 KECCAK256 SWAP1 POP SWAP2 SWAP1 POP JUMP JUMPDEST PUSH1 0x0 PUSH1 0x20 PUSH1 0x1F DUP4 ADD DIV SWAP1 POP SWAP2 SWAP1 POP JUMP JUMPDEST PUSH1 0x0 DUP3 DUP3 SHL SWAP1 POP SWAP3 SWAP2 POP POP JUMP JUMPDEST PUSH1 0x0 PUSH1 0x8 DUP4 MUL PUSH3 0x46D PUSH32 0xFFFFFFFFFFFFFFFFFFFFFFFFFFFFFFFFFFFFFFFFFFFFFFFFFFFFFFFFFFFFFFFF DUP3 PUSH3 0x42E JUMP JUMPDEST PUSH3 0x479 DUP7 DUP4 PUSH3 0x42E JUMP JUMPDEST SWAP6 POP DUP1 NOT DUP5 AND SWAP4 POP DUP1 DUP7 AND DUP5 OR SWAP3 POP POP POP SWAP4 SWAP3 POP POP POP JUMP JUMPDEST PUSH1 0x0 DUP2 SWAP1 POP SWAP2 SWAP1 POP JUMP JUMPDEST PUSH1 0x0 PUSH3 0x4BC PUSH3 0x4B6 PUSH3 0x4B0 DUP5 PUSH3 0x24A JUMP JUMPDEST PUSH3 0x491 JUMP JUMPDEST PUSH3 0x24A JUMP JUMPDEST SWAP1 POP SWAP2 SWAP1 POP JUMP JUMPDEST PUSH1 0x0 DUP2 SWAP1 POP SWAP2 SWAP1 POP JUMP JUMPDEST PUSH3 0x4D8 DUP4 PUSH3 0x49B JUMP JUMPDEST PUSH3 0x4F0 PUSH3 0x4E7 DUP3 PUSH3 0x4C3 JUMP JUMPDEST DUP5 DUP5 SLOAD PUSH3 0x43B JUMP JUMPDEST DUP3 SSTORE POP POP POP POP JUMP JUMPDEST PUSH1 0x0 SWAP1 JUMP JUMPDEST PUSH3 0x507 PUSH3 0x4F8 JUMP JUMPDEST PUSH3 0x514 DUP2 DUP5 DUP5 PUSH3 0x4CD JUMP JUMPDEST POP POP POP JUMP JUMPDEST JUMPDEST DUP2 DUP2 LT ISZERO PUSH3 0x53C JUMPI PUSH3 0x530 PUSH1 0x0 DUP3 PUSH3 0x4FD JUMP JUMPDEST PUSH1 0x1 DUP2 ADD SWAP1 POP PUSH3 0x51A JUMP JUMPDEST POP POP JUMP JUMPDEST PUSH1 0x1F DUP3 GT ISZERO PUSH3 0x58B JUMPI PUSH3 0x555 DUP2 PUSH3 0x409 JUMP JUMPDEST PUSH3 0x560 DUP5 PUSH3 0x41E JUMP JUMPDEST DUP2 ADD PUSH1 0x20 DUP6 LT ISZERO PUSH3 0x570 JUMPI DUP2 SWAP1 POP JUMPDEST PUSH3 0x588 PUSH3 0x57F DUP6 PUSH3 0x41E JUMP JUMPDEST DUP4 ADD DUP3 PUSH3 0x519 JUMP JUMPDEST POP POP JUMPDEST POP POP POP JUMP JUMPDEST PUSH1 0x0 DUP3 DUP3 SHR SWAP1 POP SWAP3 SWAP2 POP POP JUMP JUMPDEST PUSH1 0x0 PUSH3 0x5B0 PUSH1 0x0 NOT DUP5 PUSH1 0x8 MUL PUSH3 0x590 JUMP JUMPDEST NOT DUP1 DUP4 AND SWAP2 POP POP SWAP3 SWAP2 POP POP JUMP JUMPDEST PUSH1 0x0 PUSH3 0x5CB DUP4 DUP4 PUSH3 0x59D JUMP JUMPDEST SWAP2 POP DUP3 PUSH1 0x2 MUL DUP3 OR SWAP1 POP SWAP3 SWAP2 POP POP JUMP JUMPDEST PUSH3 0x5E6 DUP3 PUSH3 0x39A JUMP JUMPDEST PUSH8 0xFFFFFFFFFFFFFFFF DUP2 GT ISZERO PUSH3 0x602 JUMPI PUSH3 0x601 PUSH3 0xDC JUMP JUMPDEST JUMPDEST PUSH3 0x60E DUP3 SLOAD PUSH3 0x3D4 JUMP JUMPDEST PUSH3 0x61B DUP3 DUP3 DUP6 PUSH3 0x540 JUMP JUMPDEST PUSH1 0x0 PUSH1 0x20 SWAP1 POP PUSH1 0x1F DUP4 GT PUSH1 0x1 DUP2 EQ PUSH3 0x653 JUMPI PUSH1 0x0 DUP5 ISZERO PUSH3 0x63E JUMPI DUP3 DUP8 ADD MLOAD SWAP1 POP JUMPDEST PUSH3 0x64A DUP6 DUP3 PUSH3 0x5BD JUMP JUMPDEST DUP7 SSTORE POP PUSH3 0x6BA JUMP JUMPDEST PUSH1 0x1F NOT DUP5 AND PUSH3 0x663 DUP7 PUSH3 0x409 JUMP JUMPDEST PUSH1 0x0 JUMPDEST DUP3 DUP2 LT ISZERO PUSH3 0x68D JUMPI DUP5 DUP10 ADD MLOAD DUP3 SSTORE PUSH1 0x1 DUP3 ADD SWAP2 POP PUSH1 0x20 DUP6 ADD SWAP5 POP PUSH1 0x20 DUP2 ADD SWAP1 POP PUSH3 0x666 JUMP JUMPDEST DUP7 DUP4 LT ISZERO PUSH3 0x6AD JUMPI DUP5 DUP10 ADD MLOAD PUSH3 0x6A9 PUSH1 0x1F DUP10 AND DUP3 PUSH3 0x59D JUMP JUMPDEST DUP4 SSTORE POP JUMPDEST PUSH1 0x1 PUSH1 0x2 DUP9 MUL ADD DUP9 SSTORE POP POP POP JUMPDEST POP POP POP POP POP POP JUMP JUMPDEST PUSH2 0x563 DUP1 PUSH3 0x6D2 PUSH1 0x0 CODECOPY PUSH1 0x0 RETURN INVALID PUSH1 0x80 PUSH1 0x40 MSTORE CALLVALUE DUP1 ISZERO PUSH2 0x10 JUMPI PUSH1 0x0 DUP1 REVERT JUMPDEST POP PUSH1 0x4 CALLDATASIZE LT PUSH2 0x4C JUMPI PUSH1 0x0 CALLDATALOAD PUSH1 0xE0 SHR DUP1 PUSH4 0x13AF4035 EQ PUSH2 0x51 JUMPI DUP1 PUSH4 0x7CA5685F EQ PUSH2 0x6D JUMPI DUP1 PUSH4 0x81045EAD EQ PUSH2 0x8E JUMPI DUP1 PUSH4 0x893D20E8 EQ PUSH2 0xAC JUMPI JUMPDEST PUSH1 0x0 DUP1 REVERT JUMPDEST PUSH2 0x6B PUSH1 0x4 DUP1 CALLDATASIZE SUB DUP2 ADD SWAP1 PUSH2 0x66 SWAP2 SWAP1 PUSH2 0x356 JUMP JUMPDEST PUSH2 0xCA JUMP JUMPDEST STOP JUMPDEST PUSH2 0x75 PUSH2 0x168 JUMP JUMPDEST PUSH1 0x40 MLOAD PUSH2 0x85 SWAP5 SWAP4 SWAP3 SWAP2 SWAP1 PUSH2 0x444 JUMP JUMPDEST PUSH1 0x40 MLOAD DUP1 SWAP2 SUB SWAP1 RETURN JUMPDEST PUSH2 0x96 PUSH2 0x2BF JUMP JUMPDEST PUSH1 0x40 MLOAD PUSH2 0xA3 SWAP2 SWAP1 PUSH2 0x497 JUMP JUMPDEST PUSH1 0x40 MLOAD DUP1 SWAP2 SUB SWAP1 RETURN JUMPDEST PUSH2 0xB4 PUSH2 0x2C9 JUMP JUMPDEST PUSH1 0x40 MLOAD PUSH2 0xC1 SWAP2 SWAP1 PUSH2 0x4B2 JUMP JUMPDEST PUSH1 0x40 MLOAD DUP1 SWAP2 SUB SWAP1 RETURN JUMPDEST PUSH1 0x4 PUSH1 0x0 SWAP1 SLOAD SWAP1 PUSH2 0x100 EXP SWAP1 DIV PUSH20 0xFFFFFFFFFFFFFFFFFFFFFFFFFFFFFFFFFFFFFFFF AND PUSH20 0xFFFFFFFFFFFFFFFFFFFFFFFFFFFFFFFFFFFFFFFF AND CALLER PUSH20 0xFFFFFFFFFFFFFFFFFFFFFFFFFFFFFFFFFFFFFFFF AND EQ PUSH2 0x124 JUMPI PUSH1 0x0 DUP1 REVERT JUMPDEST DUP1 PUSH1 0x1 PUSH1 0x0 PUSH2 0x100 EXP DUP2 SLOAD DUP2 PUSH20 0xFFFFFFFFFFFFFFFFFFFFFFFFFFFFFFFFFFFFFFFF MUL NOT AND SWAP1 DUP4 PUSH20 0xFFFFFFFFFFFFFFFFFFFFFFFFFFFFFFFFFFFFFFFF AND MUL OR SWAP1 SSTORE POP POP JUMP JUMPDEST PUSH1 0x60 PUSH1 0x0 PUSH1 0x60 PUSH1 0x0 DUP1 PUSH1 0x1 PUSH1 0x0 SWAP1 SLOAD SWAP1 PUSH2 0x100 EXP SWAP1 DIV PUSH20 0xFFFFFFFFFFFFFFFFFFFFFFFFFFFFFFFFFFFFFFFF AND PUSH1 0x2 PUSH1 0x3 SLOAD DUP4 DUP1 SLOAD PUSH2 0x1A5 SWAP1 PUSH2 0x4FC JUMP JUMPDEST DUP1 PUSH1 0x1F ADD PUSH1 0x20 DUP1 SWAP2 DIV MUL PUSH1 0x20 ADD PUSH1 0x40 MLOAD SWAP1 DUP2 ADD PUSH1 0x40 MSTORE DUP1 SWAP3 SWAP2 SWAP1 DUP2 DUP2 MSTORE PUSH1 0x20 ADD DUP3 DUP1 SLOAD PUSH2 0x1D1 SWAP1 PUSH2 0x4FC JUMP JUMPDEST DUP1 ISZERO PUSH2 0x21E JUMPI DUP1 PUSH1 0x1F LT PUSH2 0x1F3 JUMPI PUSH2 0x100 DUP1 DUP4 SLOAD DIV MUL DUP4 MSTORE SWAP2 PUSH1 0x20 ADD SWAP2 PUSH2 0x21E JUMP JUMPDEST DUP3 ADD SWAP2 SWAP1 PUSH1 0x0 MSTORE PUSH1 0x20 PUSH1 0x0 KECCAK256 SWAP1 JUMPDEST DUP2 SLOAD DUP2 MSTORE SWAP1 PUSH1 0x1 ADD SWAP1 PUSH1 0x20 ADD DUP1 DUP4 GT PUSH2 0x201 JUMPI DUP3 SWAP1 SUB PUSH1 0x1F AND DUP3 ADD SWAP2 JUMPDEST POP POP POP POP POP SWAP4 POP DUP2 DUP1 SLOAD PUSH2 0x231 SWAP1 PUSH2 0x4FC JUMP JUMPDEST DUP1 PUSH1 0x1F ADD PUSH1 0x20 DUP1 SWAP2 DIV MUL PUSH1 0x20 ADD PUSH1 0x40 MLOAD SWAP1 DUP2 ADD PUSH1 0x40 MSTORE DUP1 SWAP3 SWAP2 SWAP1 DUP2 DUP2 MSTORE PUSH1 0x20 ADD DUP3 DUP1 SLOAD PUSH2 0x25D SWAP1 PUSH2 0x4FC JUMP JUMPDEST DUP1 ISZERO PUSH2 0x2AA JUMPI DUP1 PUSH1 0x1F LT PUSH2 0x27F JUMPI PUSH2 0x100 DUP1 DUP4 SLOAD DIV MUL DUP4 MSTORE SWAP2 PUSH1 0x20 ADD SWAP2 PUSH2 0x2AA JUMP JUMPDEST DUP3 ADD SWAP2 SWAP1 PUSH1 0x0 MSTORE PUSH1 0x20 PUSH1 0x0 KECCAK256 SWAP1 JUMPDEST DUP2 SLOAD DUP2 MSTORE SWAP1 PUSH1 0x1 ADD SWAP1 PUSH1 0x20 ADD DUP1 DUP4 GT PUSH2 0x28D JUMPI DUP3 SWAP1 SUB PUSH1 0x1F AND DUP3 ADD SWAP2 JUMPDEST POP POP POP POP POP SWAP2 POP SWAP4 POP SWAP4 POP SWAP4 POP SWAP4 POP SWAP1 SWAP2 SWAP3 SWAP4 JUMP JUMPDEST PUSH1 0x0 PUSH1 0x3 SLOAD SWAP1 POP SWAP1 JUMP JUMPDEST PUSH1 0x0 PUSH1 0x1 PUSH1 0x0 SWAP1 SLOAD SWAP1 PUSH2 0x100 EXP SWAP1 DIV PUSH20 0xFFFFFFFFFFFFFFFFFFFFFFFFFFFFFFFFFFFFFFFF AND SWAP1 POP SWAP1 JUMP JUMPDEST PUSH1 0x0 DUP1 REVERT JUMPDEST PUSH1 0x0 PUSH20 0xFFFFFFFFFFFFFFFFFFFFFFFFFFFFFFFFFFFFFFFF DUP3 AND SWAP1 POP SWAP2 SWAP1 POP JUMP JUMPDEST PUSH1 0x0 PUSH2 0x323 DUP3 PUSH2 0x2F8 JUMP JUMPDEST SWAP1 POP SWAP2 SWAP1 POP JUMP JUMPDEST PUSH2 0x333 DUP2 PUSH2 0x318 JUMP JUMPDEST DUP2 EQ PUSH2 0x33E JUMPI PUSH1 0x0 DUP1 REVERT JUMPDEST POP JUMP JUMPDEST PUSH1 0x0 DUP2 CALLDATALOAD SWAP1 POP PUSH2 0x350 DUP2 PUSH2 0x32A JUMP JUMPDEST SWAP3 SWAP2 POP POP JUMP JUMPDEST PUSH1 0x0 PUSH1 0x20 DUP3 DUP5 SUB SLT ISZERO PUSH2 0x36C JUMPI PUSH2 0x36B PUSH2 0x2F3 JUMP JUMPDEST JUMPDEST PUSH1 0x0 PUSH2 0x37A DUP5 DUP3 DUP6 ADD PUSH2 0x341 JUMP JUMPDEST SWAP2 POP POP SWAP3 SWAP2 POP POP JUMP JUMPDEST PUSH1 0x0 DUP2 MLOAD SWAP1 POP SWAP2 SWAP1 POP JUMP JUMPDEST PUSH1 0x0 DUP3 DUP3 MSTORE PUSH1 0x20 DUP3 ADD SWAP1 POP SWAP3 SWAP2 POP POP JUMP JUMPDEST PUSH1 0x0 JUMPDEST DUP4 DUP2 LT ISZERO PUSH2 0x3BD JUMPI DUP1 DUP3 ADD MLOAD DUP2 DUP5 ADD MSTORE PUSH1 0x20 DUP2 ADD SWAP1 POP PUSH2 0x3A2 JUMP JUMPDEST DUP4 DUP2 GT ISZERO PUSH2 0x3CC JUMPI PUSH1 0x0 DUP5 DUP5 ADD MSTORE JUMPDEST POP POP POP POP JUMP JUMPDEST PUSH1 0x0 PUSH1 0x1F NOT PUSH1 0x1F DUP4 ADD AND SWAP1 POP SWAP2 SWAP1 POP JUMP JUMPDEST PUSH1 0x0 PUSH2 0x3EE DUP3 PUSH2 0x383 JUMP JUMPDEST PUSH2 0x3F8 DUP2 DUP6 PUSH2 0x38E JUMP JUMPDEST SWAP4 POP PUSH2 0x408 DUP2 DUP6 PUSH1 0x20 DUP7 ADD PUSH2 0x39F JUMP JUMPDEST PUSH2 0x411 DUP2 PUSH2 0x3D2 JUMP JUMPDEST DUP5 ADD SWAP2 POP POP SWAP3 SWAP2 POP POP JUMP JUMPDEST PUSH2 0x425 DUP2 PUSH2 0x318 JUMP JUMPDEST DUP3 MSTORE POP POP JUMP JUMPDEST PUSH1 0x0 DUP2 SWAP1 POP SWAP2 SWAP1 POP JUMP JUMPDEST PUSH2 0x43E DUP2 PUSH2 0x42B JUMP JUMPDEST DUP3 MSTORE POP POP JUMP JUMPDEST PUSH1 0x0 PUSH1 0x80 DUP3 ADD SWAP1 POP DUP2 DUP2 SUB PUSH1 0x0 DUP4 ADD MSTORE PUSH2 0x45E DUP2 DUP8 PUSH2 0x3E3 JUMP JUMPDEST SWAP1 POP PUSH2 0x46D PUSH1 0x20 DUP4 ADD DUP7 PUSH2 0x41C JUMP JUMPDEST DUP2 DUP2 SUB PUSH1 0x40 DUP4 ADD MSTORE PUSH2 0x47F DUP2 DUP6 PUSH2 0x3E3 JUMP JUMPDEST SWAP1 POP PUSH2 0x48E PUSH1 0x60 DUP4 ADD DUP5 PUSH2 0x435 JUMP JUMPDEST SWAP6 SWAP5 POP POP POP POP POP JUMP JUMPDEST PUSH1 0x0 PUSH1 0x20 DUP3 ADD SWAP1 POP PUSH2 0x4AC PUSH1 0x0 DUP4 ADD DUP5 PUSH2 0x435 JUMP JUMPDEST SWAP3 SWAP2 POP POP JUMP JUMPDEST PUSH1 0x0 PUSH1 0x20 DUP3 ADD SWAP1 POP PUSH2 0x4C7 PUSH1 0x0 DUP4 ADD DUP5 PUSH2 0x41C JUMP JUMPDEST SWAP3 SWAP2 POP POP JUMP JUMPDEST PUSH32 0x4E487B7100000000000000000000000000000000000000000000000000000000 PUSH1 0x0 MSTORE PUSH1 0x22 PUSH1 0x4 MSTORE PUSH1 0x24 PUSH1 0x0 REVERT JUMPDEST PUSH1 0x0 PUSH1 0x2 DUP3 DIV SWAP1 POP PUSH1 0x1 DUP3 AND DUP1 PUSH2 0x514 JUMPI PUSH1 0x7F DUP3 AND SWAP2 POP JUMPDEST PUSH1 0x20 DUP3 LT DUP2 SUB PUSH2 0x527 JUMPI PUSH2 0x526 PUSH2 0x4CD JUMP JUMPDEST JUMPDEST POP SWAP2 SWAP1 POP JUMP INVALID LOG2 PUSH5 0x6970667358 0x22 SLT KECCAK256 0xAA PUSH4 0x2D4082D4 0xF8 0xE3 DUP15 0xDD 0xC6 SWAP13 DUP5 DUP11 LOG3 0xDA 0xAE 0x5E SWAP4 0xE8 PUSH9 0x943963F32BEF1ED925 SWAP13 SWAP2 PUSH5 0x736F6C6343 STOP ADDMOD 0xF STOP CALLER "},"gasEstimates":{"creation":{"codeDepositCost":"275800","executionCost":"infinite","totalCost":"infinite"},"external":{"getIndex()":"2459","getNftInfo()":"infinite","getOwner()":"2566","setOwner(address)":"26870"}},"methodIdentifiers":{"getIndex()":"81045ead","getNftInfo()":"7ca5685f","getOwner()":"893d20e8","setOwner(address)":"13af4035"}},"storageLayout":{"storage":[{"astId":473,"contract":"Market.sol:Nft","label":"name","offset":0,"slot":"0","type":"t_string_storage"},{"astId":475,"contract":"Market.sol:Nft","label":"owner","offset":0,"slot":"1","type":"t_address"},{"astId":477,"contract":"Market.sol:Nft","label":"imageHash","offset":0,"slot":"2","type":"t_string_storage"},{"astId":479,"contract":"Market.sol:Nft","label":"index","offset":0,"slot":"3","type":"t_uint256"},{"astId":481,"contract":"Market.sol:Nft","label":"market","offset":0,"slot":"4","type":"t_address"}],"types":{"t_address":{"encoding":"inplace","label":"address","numberOfBytes":"20"},"t_string_storage":{"encoding":"bytes","label":"string","numberOfBytes":"32"},"t_uint256":{"encoding":"inplace","label":"uint256","numberOfBytes":"32"}}},"userdoc":{"kind":"user","methods":{},"version":1}}